{
  "_format": "hh-sol-artifact-1",
  "contractName": "GoGBattlesMatchHistory",
  "sourceName": "contracts/GoGBattlesMatchHistory.sol",
  "abi": [
    {
      "inputs": [],
      "stateMutability": "nonpayable",
      "type": "constructor"
    },
    {
      "anonymous": false,
      "inputs": [
        {
          "indexed": false,
          "internalType": "uint256",
          "name": "matchID",
          "type": "uint256"
        },
        {
          "indexed": false,
          "internalType": "address",
          "name": "winner",
          "type": "address"
        },
        {
          "indexed": false,
          "internalType": "address",
          "name": "loser",
          "type": "address"
        },
        {
          "indexed": false,
          "internalType": "uint256",
          "name": "timestamp",
          "type": "uint256"
        },
        {
          "indexed": false,
          "internalType": "string",
          "name": "ipfs",
          "type": "string"
        }
      ],
      "name": "Match",
      "type": "event"
    },
    {
      "anonymous": false,
      "inputs": [
        {
          "indexed": true,
          "internalType": "bytes32",
          "name": "role",
          "type": "bytes32"
        },
        {
          "indexed": true,
          "internalType": "bytes32",
          "name": "previousAdminRole",
          "type": "bytes32"
        },
        {
          "indexed": true,
          "internalType": "bytes32",
          "name": "newAdminRole",
          "type": "bytes32"
        }
      ],
      "name": "RoleAdminChanged",
      "type": "event"
    },
    {
      "anonymous": false,
      "inputs": [
        {
          "indexed": true,
          "internalType": "bytes32",
          "name": "role",
          "type": "bytes32"
        },
        {
          "indexed": true,
          "internalType": "address",
          "name": "account",
          "type": "address"
        },
        {
          "indexed": true,
          "internalType": "address",
          "name": "sender",
          "type": "address"
        }
      ],
      "name": "RoleGranted",
      "type": "event"
    },
    {
      "anonymous": false,
      "inputs": [
        {
          "indexed": true,
          "internalType": "bytes32",
          "name": "role",
          "type": "bytes32"
        },
        {
          "indexed": true,
          "internalType": "address",
          "name": "account",
          "type": "address"
        },
        {
          "indexed": true,
          "internalType": "address",
          "name": "sender",
          "type": "address"
        }
      ],
      "name": "RoleRevoked",
      "type": "event"
    },
    {
      "inputs": [],
      "name": "COORDINATOR_ROLE",
      "outputs": [
        {
          "internalType": "bytes32",
          "name": "",
          "type": "bytes32"
        }
      ],
      "stateMutability": "view",
      "type": "function"
    },
    {
      "inputs": [],
      "name": "DEFAULT_ADMIN_ROLE",
      "outputs": [
        {
          "internalType": "bytes32",
          "name": "",
          "type": "bytes32"
        }
      ],
      "stateMutability": "view",
      "type": "function"
    },
    {
      "inputs": [
        {
          "internalType": "bytes32",
          "name": "role",
          "type": "bytes32"
        }
      ],
      "name": "getRoleAdmin",
      "outputs": [
        {
          "internalType": "bytes32",
          "name": "",
          "type": "bytes32"
        }
      ],
      "stateMutability": "view",
      "type": "function"
    },
    {
      "inputs": [
        {
          "internalType": "bytes32",
          "name": "role",
          "type": "bytes32"
        },
        {
          "internalType": "address",
          "name": "account",
          "type": "address"
        }
      ],
      "name": "grantRole",
      "outputs": [],
      "stateMutability": "nonpayable",
      "type": "function"
    },
    {
      "inputs": [
        {
          "internalType": "bytes32",
          "name": "role",
          "type": "bytes32"
        },
        {
          "internalType": "address",
          "name": "account",
          "type": "address"
        }
      ],
      "name": "hasRole",
      "outputs": [
        {
          "internalType": "bool",
          "name": "",
          "type": "bool"
        }
      ],
      "stateMutability": "view",
      "type": "function"
    },
    {
      "inputs": [],
      "name": "initialize",
      "outputs": [],
      "stateMutability": "nonpayable",
      "type": "function"
    },
    {
      "inputs": [
        {
          "internalType": "address",
          "name": "winner",
          "type": "address"
        },
        {
          "internalType": "address",
          "name": "loser",
          "type": "address"
        },
        {
          "internalType": "uint256",
          "name": "timestamp",
          "type": "uint256"
        },
        {
          "internalType": "string",
          "name": "ipfs",
          "type": "string"
        }
      ],
      "name": "publishMatch",
      "outputs": [],
      "stateMutability": "nonpayable",
      "type": "function"
    },
    {
      "inputs": [
        {
          "internalType": "bytes32",
          "name": "role",
          "type": "bytes32"
        },
        {
          "internalType": "address",
          "name": "account",
          "type": "address"
        }
      ],
      "name": "renounceRole",
      "outputs": [],
      "stateMutability": "nonpayable",
      "type": "function"
    },
    {
      "inputs": [
        {
          "internalType": "bytes32",
          "name": "role",
          "type": "bytes32"
        },
        {
          "internalType": "address",
          "name": "account",
          "type": "address"
        }
      ],
      "name": "revokeRole",
      "outputs": [],
      "stateMutability": "nonpayable",
      "type": "function"
    },
    {
      "inputs": [
        {
          "internalType": "bytes4",
          "name": "interfaceId",
          "type": "bytes4"
        }
      ],
      "name": "supportsInterface",
      "outputs": [
        {
          "internalType": "bool",
          "name": "",
          "type": "bool"
        }
      ],
      "stateMutability": "view",
      "type": "function"
    }
  ],
  "bytecode": "0x608060405234801561001057600080fd5b5061199a806100206000396000f3fe608060405234801561001057600080fd5b506004361061009e5760003560e01c80636f79dd5e116100665780636f79dd5e146101595780638129fc1c1461017557806391d148541461017f578063a217fddf146101af578063d547741f146101cd5761009e565b806301ffc9a7146100a3578063248a9ca3146100d35780632f2ff15d1461010357806336568abe1461011f5780636b366cb51461013b575b600080fd5b6100bd60048036038101906100b891906111ad565b6101e9565b6040516100ca919061137c565b60405180910390f35b6100ed60048036038101906100e89190611148565b610263565b6040516100fa9190611397565b60405180910390f35b61011d60048036038101906101189190611171565b610283565b005b61013960048036038101906101349190611171565b6102ac565b005b61014361032f565b6040516101509190611397565b60405180910390f35b610173600480360381019061016e91906110cd565b610353565b005b61017d61045d565b005b61019960048036038101906101949190611171565b61057d565b6040516101a6919061137c565b60405180910390f35b6101b76105e8565b6040516101c49190611397565b60405180910390f35b6101e760048036038101906101e29190611171565b6105ef565b005b60007f7965db0b000000000000000000000000000000000000000000000000000000007bffffffffffffffffffffffffffffffffffffffffffffffffffffffff1916827bffffffffffffffffffffffffffffffffffffffffffffffffffffffff1916148061025c575061025b82610618565b5b9050919050565b600060656000838152602001908152602001600020600101549050919050565b61028c82610263565b61029d81610298610682565b61068a565b6102a78383610727565b505050565b6102b4610682565b73ffffffffffffffffffffffffffffffffffffffff168173ffffffffffffffffffffffffffffffffffffffff1614610321576040517f08c379a000000000000000000000000000000000000000000000000000000000815260040161031890611414565b60405180910390fd5b61032b8282610808565b5050565b7f2e8b98eef02e8df3bd27d1270ded3bea3d14db99c5234c7b14001a7fff957bcc81565b7f2e8b98eef02e8df3bd27d1270ded3bea3d14db99c5234c7b14001a7fff957bcc61038581610380610682565b61068a565b6000609983604051610397919061132b565b908152602001604051809103902054146103b057600080fd5b6000609860008154809291906103c590611708565b91905055905082609a600083815260200190815260200160002090805190602001906103f2929190610f6e565b5080609984604051610404919061132b565b9081526020016040518091039020819055507f1f765882dd8a3e807c836c7f50867c6db6fde82418f16e47b516a6e9c8452521818787878760405161044d959493929190611434565b60405180910390a1505050505050565b600060019054906101000a900460ff1680610483575060008054906101000a900460ff16155b6104c2576040517f08c379a00000000000000000000000000000000000000000000000000000000081526004016104b9906113f4565b60405180910390fd5b60008060019054906101000a900460ff161590508015610512576001600060016101000a81548160ff02191690831515021790555060016000806101000a81548160ff0219169083151502179055505b61051a6108ea565b6105276000801b336109db565b6105517f2e8b98eef02e8df3bd27d1270ded3bea3d14db99c5234c7b14001a7fff957bcc336109db565b6001609881905550801561057a5760008060016101000a81548160ff0219169083151502179055505b50565b60006065600084815260200190815260200160002060000160008373ffffffffffffffffffffffffffffffffffffffff1673ffffffffffffffffffffffffffffffffffffffff16815260200190815260200160002060009054906101000a900460ff16905092915050565b6000801b81565b6105f882610263565b61060981610604610682565b61068a565b6106138383610808565b505050565b60007f01ffc9a7000000000000000000000000000000000000000000000000000000007bffffffffffffffffffffffffffffffffffffffffffffffffffffffff1916827bffffffffffffffffffffffffffffffffffffffffffffffffffffffff1916149050919050565b600033905090565b610694828261057d565b610723576106b98173ffffffffffffffffffffffffffffffffffffffff1660146109e9565b6106c78360001c60206109e9565b6040516020016106d8929190611342565b6040516020818303038152906040526040517f08c379a000000000000000000000000000000000000000000000000000000000815260040161071a91906113b2565b60405180910390fd5b5050565b610731828261057d565b6108045760016065600084815260200190815260200160002060000160008373ffffffffffffffffffffffffffffffffffffffff1673ffffffffffffffffffffffffffffffffffffffff16815260200190815260200160002060006101000a81548160ff0219169083151502179055506107a9610682565b73ffffffffffffffffffffffffffffffffffffffff168173ffffffffffffffffffffffffffffffffffffffff16837f2f8788117e7eff1d82e926ec794901d17c78024a50270940304540a733656f0d60405160405180910390a45b5050565b610812828261057d565b156108e65760006065600084815260200190815260200160002060000160008373ffffffffffffffffffffffffffffffffffffffff1673ffffffffffffffffffffffffffffffffffffffff16815260200190815260200160002060006101000a81548160ff02191690831515021790555061088b610682565b73ffffffffffffffffffffffffffffffffffffffff168173ffffffffffffffffffffffffffffffffffffffff16837ff6391f5c32d9c69d2a47ea670b442974b53935d1edc7fd64eb21e047a839171b60405160405180910390a45b5050565b600060019054906101000a900460ff1680610910575060008054906101000a900460ff16155b61094f576040517f08c379a0000000000000000000000000000000000000000000000000000000008152600401610946906113f4565b60405180910390fd5b60008060019054906101000a900460ff16159050801561099f576001600060016101000a81548160ff02191690831515021790555060016000806101000a81548160ff0219169083151502179055505b6109a7610ce3565b6109af610dbc565b6109b7610e95565b80156109d85760008060016101000a81548160ff0219169083151502179055505b50565b6109e58282610727565b5050565b6060600060028360026109fc9190611561565b610a06919061150b565b67ffffffffffffffff811115610a45577f4e487b7100000000000000000000000000000000000000000000000000000000600052604160045260246000fd5b6040519080825280601f01601f191660200182016040528015610a775781602001600182028036833780820191505090505b5090507f300000000000000000000000000000000000000000000000000000000000000081600081518110610ad5577f4e487b7100000000000000000000000000000000000000000000000000000000600052603260045260246000fd5b60200101907effffffffffffffffffffffffffffffffffffffffffffffffffffffffffffff1916908160001a9053507f780000000000000000000000000000000000000000000000000000000000000081600181518110610b5f577f4e487b7100000000000000000000000000000000000000000000000000000000600052603260045260246000fd5b60200101907effffffffffffffffffffffffffffffffffffffffffffffffffffffffffffff1916908160001a90535060006001846002610b9f9190611561565b610ba9919061150b565b90505b6001811115610c95577f3031323334353637383961626364656600000000000000000000000000000000600f861660108110610c11577f4e487b7100000000000000000000000000000000000000000000000000000000600052603260045260246000fd5b1a60f81b828281518110610c4e577f4e487b7100000000000000000000000000000000000000000000000000000000600052603260045260246000fd5b60200101907effffffffffffffffffffffffffffffffffffffffffffffffffffffffffffff1916908160001a905350600485901c945080610c8e9061167b565b9050610bac565b5060008414610cd9576040517f08c379a0000000000000000000000000000000000000000000000000000000008152600401610cd0906113d4565b60405180910390fd5b8091505092915050565b600060019054906101000a900460ff1680610d09575060008054906101000a900460ff16155b610d48576040517f08c379a0000000000000000000000000000000000000000000000000000000008152600401610d3f906113f4565b60405180910390fd5b60008060019054906101000a900460ff161590508015610d98576001600060016101000a81548160ff02191690831515021790555060016000806101000a81548160ff0219169083151502179055505b8015610db95760008060016101000a81548160ff0219169083151502179055505b50565b600060019054906101000a900460ff1680610de2575060008054906101000a900460ff16155b610e21576040517f08c379a0000000000000000000000000000000000000000000000000000000008152600401610e18906113f4565b60405180910390fd5b60008060019054906101000a900460ff161590508015610e71576001600060016101000a81548160ff02191690831515021790555060016000806101000a81548160ff0219169083151502179055505b8015610e925760008060016101000a81548160ff0219169083151502179055505b50565b600060019054906101000a900460ff1680610ebb575060008054906101000a900460ff16155b610efa576040517f08c379a0000000000000000000000000000000000000000000000000000000008152600401610ef1906113f4565b60405180910390fd5b60008060019054906101000a900460ff161590508015610f4a576001600060016101000a81548160ff02191690831515021790555060016000806101000a81548160ff0219169083151502179055505b8015610f6b5760008060016101000a81548160ff0219169083151502179055505b50565b828054610f7a906116a5565b90600052602060002090601f016020900481019282610f9c5760008555610fe3565b82601f10610fb557805160ff1916838001178555610fe3565b82800160010185558215610fe3579182015b82811115610fe2578251825591602001919060010190610fc7565b5b509050610ff09190610ff4565b5090565b5b8082111561100d576000816000905550600101610ff5565b5090565b600061102461101f846114b3565b61148e565b90508281526020810184848401111561103c57600080fd5b611047848285611639565b509392505050565b60008135905061105e81611908565b92915050565b6000813590506110738161191f565b92915050565b60008135905061108881611936565b92915050565b600082601f83011261109f57600080fd5b81356110af848260208601611011565b91505092915050565b6000813590506110c78161194d565b92915050565b600080600080608085870312156110e357600080fd5b60006110f18782880161104f565b94505060206111028782880161104f565b9350506040611113878288016110b8565b925050606085013567ffffffffffffffff81111561113057600080fd5b61113c8782880161108e565b91505092959194509250565b60006020828403121561115a57600080fd5b600061116884828501611064565b91505092915050565b6000806040838503121561118457600080fd5b600061119285828601611064565b92505060206111a38582860161104f565b9150509250929050565b6000602082840312156111bf57600080fd5b60006111cd84828501611079565b91505092915050565b6111df816115bb565b82525050565b6111ee816115cd565b82525050565b6111fd816115d9565b82525050565b600061120e826114e4565b61121881856114ef565b9350611228818560208601611648565b611231816117de565b840191505092915050565b6000611247826114e4565b6112518185611500565b9350611261818560208601611648565b80840191505092915050565b600061127a6020836114ef565b9150611285826117ef565b602082019050919050565b600061129d602e836114ef565b91506112a882611818565b604082019050919050565b60006112c0601783611500565b91506112cb82611867565b601782019050919050565b60006112e3601183611500565b91506112ee82611890565b601182019050919050565b6000611306602f836114ef565b9150611311826118b9565b604082019050919050565b6113258161162f565b82525050565b6000611337828461123c565b915081905092915050565b600061134d826112b3565b9150611359828561123c565b9150611364826112d6565b9150611370828461123c565b91508190509392505050565b600060208201905061139160008301846111e5565b92915050565b60006020820190506113ac60008301846111f4565b92915050565b600060208201905081810360008301526113cc8184611203565b905092915050565b600060208201905081810360008301526113ed8161126d565b9050919050565b6000602082019050818103600083015261140d81611290565b9050919050565b6000602082019050818103600083015261142d816112f9565b9050919050565b600060a082019050611449600083018861131c565b61145660208301876111d6565b61146360408301866111d6565b611470606083018561131c565b81810360808301526114828184611203565b90509695505050505050565b60006114986114a9565b90506114a482826116d7565b919050565b6000604051905090565b600067ffffffffffffffff8211156114ce576114cd6117af565b5b6114d7826117de565b9050602081019050919050565b600081519050919050565b600082825260208201905092915050565b600081905092915050565b60006115168261162f565b91506115218361162f565b9250827fffffffffffffffffffffffffffffffffffffffffffffffffffffffffffffffff0382111561155657611555611751565b5b828201905092915050565b600061156c8261162f565b91506115778361162f565b9250817fffffffffffffffffffffffffffffffffffffffffffffffffffffffffffffffff04831182151516156115b0576115af611751565b5b828202905092915050565b60006115c68261160f565b9050919050565b60008115159050919050565b6000819050919050565b60007fffffffff0000000000000000000000000000000000000000000000000000000082169050919050565b600073ffffffffffffffffffffffffffffffffffffffff82169050919050565b6000819050919050565b82818337600083830152505050565b60005b8381101561166657808201518184015260208101905061164b565b83811115611675576000848401525b50505050565b60006116868261162f565b9150600082141561169a57611699611751565b5b600182039050919050565b600060028204905060018216806116bd57607f821691505b602082108114156116d1576116d0611780565b5b50919050565b6116e0826117de565b810181811067ffffffffffffffff821117156116ff576116fe6117af565b5b80604052505050565b60006117138261162f565b91507fffffffffffffffffffffffffffffffffffffffffffffffffffffffffffffffff82141561174657611745611751565b5b600182019050919050565b7f4e487b7100000000000000000000000000000000000000000000000000000000600052601160045260246000fd5b7f4e487b7100000000000000000000000000000000000000000000000000000000600052602260045260246000fd5b7f4e487b7100000000000000000000000000000000000000000000000000000000600052604160045260246000fd5b6000601f19601f8301169050919050565b7f537472696e67733a20686578206c656e67746820696e73756666696369656e74600082015250565b7f496e697469616c697a61626c653a20636f6e747261637420697320616c72656160008201527f647920696e697469616c697a6564000000000000000000000000000000000000602082015250565b7f416363657373436f6e74726f6c3a206163636f756e7420000000000000000000600082015250565b7f206973206d697373696e6720726f6c6520000000000000000000000000000000600082015250565b7f416363657373436f6e74726f6c3a2063616e206f6e6c792072656e6f756e636560008201527f20726f6c657320666f722073656c660000000000000000000000000000000000602082015250565b611911816115bb565b811461191c57600080fd5b50565b611928816115d9565b811461193357600080fd5b50565b61193f816115e3565b811461194a57600080fd5b50565b6119568161162f565b811461196157600080fd5b5056fea2646970667358221220a4b0a6bf77b8d1278b137d56f5d3335c1c13996e18a61bedd2dbce738e571f0964736f6c63430008040033",
  "linkReferences": {},
  "deployedLinkReferences": {}
}