{
  "_format": "hh-sol-artifact-1",
  "contractName": "GoGBattlesCardFactory",
  "sourceName": "contracts/GoGBattlesCardFactory.sol",
  "abi": [
    {
      "inputs": [],
      "stateMutability": "nonpayable",
      "type": "constructor"
    },
    {
      "anonymous": false,
      "inputs": [
        {
          "indexed": true,
          "internalType": "bytes32",
          "name": "role",
          "type": "bytes32"
        },
        {
          "indexed": true,
          "internalType": "bytes32",
          "name": "previousAdminRole",
          "type": "bytes32"
        },
        {
          "indexed": true,
          "internalType": "bytes32",
          "name": "newAdminRole",
          "type": "bytes32"
        }
      ],
      "name": "RoleAdminChanged",
      "type": "event"
    },
    {
      "anonymous": false,
      "inputs": [
        {
          "indexed": true,
          "internalType": "bytes32",
          "name": "role",
          "type": "bytes32"
        },
        {
          "indexed": true,
          "internalType": "address",
          "name": "account",
          "type": "address"
        },
        {
          "indexed": true,
          "internalType": "address",
          "name": "sender",
          "type": "address"
        }
      ],
      "name": "RoleGranted",
      "type": "event"
    },
    {
      "anonymous": false,
      "inputs": [
        {
          "indexed": true,
          "internalType": "bytes32",
          "name": "role",
          "type": "bytes32"
        },
        {
          "indexed": true,
          "internalType": "address",
          "name": "account",
          "type": "address"
        },
        {
          "indexed": true,
          "internalType": "address",
          "name": "sender",
          "type": "address"
        }
      ],
      "name": "RoleRevoked",
      "type": "event"
    },
    {
      "inputs": [],
      "name": "CARD_REGISTERER_ROLE",
      "outputs": [
        {
          "internalType": "bytes32",
          "name": "",
          "type": "bytes32"
        }
      ],
      "stateMutability": "view",
      "type": "function"
    },
    {
      "inputs": [],
      "name": "COORDINATOR_ROLE",
      "outputs": [
        {
          "internalType": "bytes32",
          "name": "",
          "type": "bytes32"
        }
      ],
      "stateMutability": "view",
      "type": "function"
    },
    {
      "inputs": [],
      "name": "DEFAULT_ADMIN_ROLE",
      "outputs": [
        {
          "internalType": "bytes32",
          "name": "",
          "type": "bytes32"
        }
      ],
      "stateMutability": "view",
      "type": "function"
    },
    {
      "inputs": [
        {
          "internalType": "bytes32",
          "name": "role",
          "type": "bytes32"
        }
      ],
      "name": "getRoleAdmin",
      "outputs": [
        {
          "internalType": "bytes32",
          "name": "",
          "type": "bytes32"
        }
      ],
      "stateMutability": "view",
      "type": "function"
    },
    {
      "inputs": [
        {
          "internalType": "bytes32",
          "name": "role",
          "type": "bytes32"
        },
        {
          "internalType": "address",
          "name": "account",
          "type": "address"
        }
      ],
      "name": "grantRole",
      "outputs": [],
      "stateMutability": "nonpayable",
      "type": "function"
    },
    {
      "inputs": [
        {
          "internalType": "bytes32",
          "name": "role",
          "type": "bytes32"
        },
        {
          "internalType": "address",
          "name": "account",
          "type": "address"
        }
      ],
      "name": "hasRole",
      "outputs": [
        {
          "internalType": "bool",
          "name": "",
          "type": "bool"
        }
      ],
      "stateMutability": "view",
      "type": "function"
    },
    {
      "inputs": [
        {
          "internalType": "uint256",
          "name": "cardValue",
          "type": "uint256"
        }
      ],
      "name": "registerCard",
      "outputs": [
        {
          "internalType": "uint256",
          "name": "",
          "type": "uint256"
        }
      ],
      "stateMutability": "nonpayable",
      "type": "function"
    },
    {
      "inputs": [
        {
          "internalType": "bytes32",
          "name": "role",
          "type": "bytes32"
        },
        {
          "internalType": "address",
          "name": "account",
          "type": "address"
        }
      ],
      "name": "renounceRole",
      "outputs": [],
      "stateMutability": "nonpayable",
      "type": "function"
    },
    {
      "inputs": [
        {
          "internalType": "bytes32",
          "name": "role",
          "type": "bytes32"
        },
        {
          "internalType": "address",
          "name": "account",
          "type": "address"
        }
      ],
      "name": "revokeRole",
      "outputs": [],
      "stateMutability": "nonpayable",
      "type": "function"
    },
    {
      "inputs": [
        {
          "internalType": "uint256",
          "name": "availableBacking",
          "type": "uint256"
        }
      ],
      "name": "rollCards",
      "outputs": [
        {
          "internalType": "uint256[]",
          "name": "",
          "type": "uint256[]"
        },
        {
          "internalType": "uint256[]",
          "name": "",
          "type": "uint256[]"
        },
        {
          "internalType": "uint256",
          "name": "",
          "type": "uint256"
        }
      ],
      "stateMutability": "view",
      "type": "function"
    },
    {
      "inputs": [
        {
          "internalType": "bytes4",
          "name": "interfaceId",
          "type": "bytes4"
        }
      ],
      "name": "supportsInterface",
      "outputs": [
        {
          "internalType": "bool",
          "name": "",
          "type": "bool"
        }
      ],
      "stateMutability": "view",
      "type": "function"
    }
  ],
  "bytecode": "0x60806040523480156200001157600080fd5b50620000276000801b336200009160201b60201c565b620000597f2e8b98eef02e8df3bd27d1270ded3bea3d14db99c5234c7b14001a7fff957bcc336200009160201b60201c565b6200008b7fb691ce7ab76540385c7c26dbdc44a60b8b5811561121642d88187904c54e64bf336200009160201b60201c565b6200020a565b620000a38282620000a760201b60201c565b5050565b620000b982826200019860201b60201c565b6200019457600160008084815260200190815260200160002060000160008373ffffffffffffffffffffffffffffffffffffffff1673ffffffffffffffffffffffffffffffffffffffff16815260200190815260200160002060006101000a81548160ff021916908315150217905550620001396200020260201b60201c565b73ffffffffffffffffffffffffffffffffffffffff168173ffffffffffffffffffffffffffffffffffffffff16837f2f8788117e7eff1d82e926ec794901d17c78024a50270940304540a733656f0d60405160405180910390a45b5050565b600080600084815260200190815260200160002060000160008373ffffffffffffffffffffffffffffffffffffffff1673ffffffffffffffffffffffffffffffffffffffff16815260200190815260200160002060009054906101000a900460ff16905092915050565b600033905090565b611282806200021a6000396000f3fe608060405234801561001057600080fd5b50600436106100a95760003560e01c806353571dac1161007157806353571dac146101785780636b366cb5146101a857806391d14854146101c6578063a217fddf146101f6578063d547741f14610214578063da4c04b414610230576100a9565b806301ffc9a7146100ae57806317bdbb6f146100de578063248a9ca3146101105780632f2ff15d1461014057806336568abe1461015c575b600080fd5b6100c860048036038101906100c39190610b86565b61024e565b6040516100d59190610dff565b60405180910390f35b6100f860048036038101906100f39190610baf565b6102c8565b60405161010793929190610dba565b60405180910390f35b61012a60048036038101906101259190610b21565b6102e5565b6040516101379190610e1a565b60405180910390f35b61015a60048036038101906101559190610b4a565b610304565b005b61017660048036038101906101719190610b4a565b61032d565b005b610192600480360381019061018d9190610baf565b6103b0565b60405161019f9190610e97565b60405180910390f35b6101b0610421565b6040516101bd9190610e1a565b60405180910390f35b6101e060048036038101906101db9190610b4a565b610445565b6040516101ed9190610dff565b60405180910390f35b6101fe6104af565b60405161020b9190610e1a565b60405180910390f35b61022e60048036038101906102299190610b4a565b6104b6565b005b6102386104df565b6040516102459190610e1a565b60405180910390f35b60007f7965db0b000000000000000000000000000000000000000000000000000000007bffffffffffffffffffffffffffffffffffffffffffffffffffffffff1916827bffffffffffffffffffffffffffffffffffffffffffffffffffffffff191614806102c157506102c082610503565b5b9050919050565b606080600060608060008282829550955095505050509193909250565b6000806000838152602001908152602001600020600101549050919050565b61030d826102e5565b61031e8161031961056d565b610575565b6103288383610612565b505050565b61033561056d565b73ffffffffffffffffffffffffffffffffffffffff168173ffffffffffffffffffffffffffffffffffffffff16146103a2576040517f08c379a000000000000000000000000000000000000000000000000000000000815260040161039990610e77565b60405180910390fd5b6103ac82826106f2565b5050565b60007fb691ce7ab76540385c7c26dbdc44a60b8b5811561121642d88187904c54e64bf6103e4816103df61056d565b610575565b6000600260008154809291906103f99061109d565b9190505590508360016000838152602001908152602001600020819055508092505050919050565b7f2e8b98eef02e8df3bd27d1270ded3bea3d14db99c5234c7b14001a7fff957bcc81565b600080600084815260200190815260200160002060000160008373ffffffffffffffffffffffffffffffffffffffff1673ffffffffffffffffffffffffffffffffffffffff16815260200190815260200160002060009054906101000a900460ff16905092915050565b6000801b81565b6104bf826102e5565b6104d0816104cb61056d565b610575565b6104da83836106f2565b505050565b7fb691ce7ab76540385c7c26dbdc44a60b8b5811561121642d88187904c54e64bf81565b60007f01ffc9a7000000000000000000000000000000000000000000000000000000007bffffffffffffffffffffffffffffffffffffffffffffffffffffffff1916827bffffffffffffffffffffffffffffffffffffffffffffffffffffffff1916149050919050565b600033905090565b61057f8282610445565b61060e576105a48173ffffffffffffffffffffffffffffffffffffffff1660146107d3565b6105b28360001c60206107d3565b6040516020016105c3929190610d80565b6040516020818303038152906040526040517f08c379a00000000000000000000000000000000000000000000000000000000081526004016106059190610e35565b60405180910390fd5b5050565b61061c8282610445565b6106ee57600160008084815260200190815260200160002060000160008373ffffffffffffffffffffffffffffffffffffffff1673ffffffffffffffffffffffffffffffffffffffff16815260200190815260200160002060006101000a81548160ff02191690831515021790555061069361056d565b73ffffffffffffffffffffffffffffffffffffffff168173ffffffffffffffffffffffffffffffffffffffff16837f2f8788117e7eff1d82e926ec794901d17c78024a50270940304540a733656f0d60405160405180910390a45b5050565b6106fc8282610445565b156107cf57600080600084815260200190815260200160002060000160008373ffffffffffffffffffffffffffffffffffffffff1673ffffffffffffffffffffffffffffffffffffffff16815260200190815260200160002060006101000a81548160ff02191690831515021790555061077461056d565b73ffffffffffffffffffffffffffffffffffffffff168173ffffffffffffffffffffffffffffffffffffffff16837ff6391f5c32d9c69d2a47ea670b442974b53935d1edc7fd64eb21e047a839171b60405160405180910390a45b5050565b6060600060028360026107e69190610f68565b6107f09190610f12565b67ffffffffffffffff81111561082f577f4e487b7100000000000000000000000000000000000000000000000000000000600052604160045260246000fd5b6040519080825280601f01601f1916602001820160405280156108615781602001600182028036833780820191505090505b5090507f3000000000000000000000000000000000000000000000000000000000000000816000815181106108bf577f4e487b7100000000000000000000000000000000000000000000000000000000600052603260045260246000fd5b60200101907effffffffffffffffffffffffffffffffffffffffffffffffffffffffffffff1916908160001a9053507f780000000000000000000000000000000000000000000000000000000000000081600181518110610949577f4e487b7100000000000000000000000000000000000000000000000000000000600052603260045260246000fd5b60200101907effffffffffffffffffffffffffffffffffffffffffffffffffffffffffffff1916908160001a905350600060018460026109899190610f68565b6109939190610f12565b90505b6001811115610a7f577f3031323334353637383961626364656600000000000000000000000000000000600f8616601081106109fb577f4e487b7100000000000000000000000000000000000000000000000000000000600052603260045260246000fd5b1a60f81b828281518110610a38577f4e487b7100000000000000000000000000000000000000000000000000000000600052603260045260246000fd5b60200101907effffffffffffffffffffffffffffffffffffffffffffffffffffffffffffff1916908160001a905350600485901c945080610a7890611073565b9050610996565b5060008414610ac3576040517f08c379a0000000000000000000000000000000000000000000000000000000008152600401610aba90610e57565b60405180910390fd5b8091505092915050565b600081359050610adc816111f0565b92915050565b600081359050610af181611207565b92915050565b600081359050610b068161121e565b92915050565b600081359050610b1b81611235565b92915050565b600060208284031215610b3357600080fd5b6000610b4184828501610ae2565b91505092915050565b60008060408385031215610b5d57600080fd5b6000610b6b85828601610ae2565b9250506020610b7c85828601610acd565b9150509250929050565b600060208284031215610b9857600080fd5b6000610ba684828501610af7565b91505092915050565b600060208284031215610bc157600080fd5b6000610bcf84828501610b0c565b91505092915050565b6000610be48383610d62565b60208301905092915050565b6000610bfb82610ec2565b610c058185610ee5565b9350610c1083610eb2565b8060005b83811015610c41578151610c288882610bd8565b9750610c3383610ed8565b925050600181019050610c14565b5085935050505092915050565b610c5781610fd4565b82525050565b610c6681610fe0565b82525050565b6000610c7782610ecd565b610c818185610ef6565b9350610c91818560208601611040565b610c9a81611115565b840191505092915050565b6000610cb082610ecd565b610cba8185610f07565b9350610cca818560208601611040565b80840191505092915050565b6000610ce3602083610ef6565b9150610cee82611126565b602082019050919050565b6000610d06601783610f07565b9150610d118261114f565b601782019050919050565b6000610d29601183610f07565b9150610d3482611178565b601182019050919050565b6000610d4c602f83610ef6565b9150610d57826111a1565b604082019050919050565b610d6b81611036565b82525050565b610d7a81611036565b82525050565b6000610d8b82610cf9565b9150610d978285610ca5565b9150610da282610d1c565b9150610dae8284610ca5565b91508190509392505050565b60006060820190508181036000830152610dd48186610bf0565b90508181036020830152610de88185610bf0565b9050610df76040830184610d71565b949350505050565b6000602082019050610e146000830184610c4e565b92915050565b6000602082019050610e2f6000830184610c5d565b92915050565b60006020820190508181036000830152610e4f8184610c6c565b905092915050565b60006020820190508181036000830152610e7081610cd6565b9050919050565b60006020820190508181036000830152610e9081610d3f565b9050919050565b6000602082019050610eac6000830184610d71565b92915050565b6000819050602082019050919050565b600081519050919050565b600081519050919050565b6000602082019050919050565b600082825260208201905092915050565b600082825260208201905092915050565b600081905092915050565b6000610f1d82611036565b9150610f2883611036565b9250827fffffffffffffffffffffffffffffffffffffffffffffffffffffffffffffffff03821115610f5d57610f5c6110e6565b5b828201905092915050565b6000610f7382611036565b9150610f7e83611036565b9250817fffffffffffffffffffffffffffffffffffffffffffffffffffffffffffffffff0483118215151615610fb757610fb66110e6565b5b828202905092915050565b6000610fcd82611016565b9050919050565b60008115159050919050565b6000819050919050565b60007fffffffff0000000000000000000000000000000000000000000000000000000082169050919050565b600073ffffffffffffffffffffffffffffffffffffffff82169050919050565b6000819050919050565b60005b8381101561105e578082015181840152602081019050611043565b8381111561106d576000848401525b50505050565b600061107e82611036565b91506000821415611092576110916110e6565b5b600182039050919050565b60006110a882611036565b91507fffffffffffffffffffffffffffffffffffffffffffffffffffffffffffffffff8214156110db576110da6110e6565b5b600182019050919050565b7f4e487b7100000000000000000000000000000000000000000000000000000000600052601160045260246000fd5b6000601f19601f8301169050919050565b7f537472696e67733a20686578206c656e67746820696e73756666696369656e74600082015250565b7f416363657373436f6e74726f6c3a206163636f756e7420000000000000000000600082015250565b7f206973206d697373696e6720726f6c6520000000000000000000000000000000600082015250565b7f416363657373436f6e74726f6c3a2063616e206f6e6c792072656e6f756e636560008201527f20726f6c657320666f722073656c660000000000000000000000000000000000602082015250565b6111f981610fc2565b811461120457600080fd5b50565b61121081610fe0565b811461121b57600080fd5b50565b61122781610fea565b811461123257600080fd5b50565b61123e81611036565b811461124957600080fd5b5056fea2646970667358221220f0de0562cc7667d69961f476796b78a467084c0b338b0821751bb495b106af3464736f6c63430008040033",
  "linkReferences": {},
  "deployedLinkReferences": {}
}