{
  "_format": "hh-sol-artifact-1",
  "contractName": "GoGBattlesCoordinator",
  "sourceName": "contracts/GoGBattlesCoordinator.sol",
  "abi": [
    {
      "inputs": [],
      "stateMutability": "nonpayable",
      "type": "constructor"
    },
    {
      "anonymous": false,
      "inputs": [
        {
          "indexed": false,
          "internalType": "address",
          "name": "burner",
          "type": "address"
        },
        {
          "indexed": false,
          "internalType": "uint256[]",
          "name": "tokenIds",
          "type": "uint256[]"
        }
      ],
      "name": "BurnCards",
      "type": "event"
    },
    {
      "anonymous": false,
      "inputs": [
        {
          "indexed": false,
          "internalType": "address",
          "name": "minter",
          "type": "address"
        },
        {
          "indexed": false,
          "internalType": "uint256[]",
          "name": "tokenIds",
          "type": "uint256[]"
        }
      ],
      "name": "MintCards",
      "type": "event"
    },
    {
      "anonymous": false,
      "inputs": [
        {
          "indexed": true,
          "internalType": "bytes32",
          "name": "role",
          "type": "bytes32"
        },
        {
          "indexed": true,
          "internalType": "bytes32",
          "name": "previousAdminRole",
          "type": "bytes32"
        },
        {
          "indexed": true,
          "internalType": "bytes32",
          "name": "newAdminRole",
          "type": "bytes32"
        }
      ],
      "name": "RoleAdminChanged",
      "type": "event"
    },
    {
      "anonymous": false,
      "inputs": [
        {
          "indexed": true,
          "internalType": "bytes32",
          "name": "role",
          "type": "bytes32"
        },
        {
          "indexed": true,
          "internalType": "address",
          "name": "account",
          "type": "address"
        },
        {
          "indexed": true,
          "internalType": "address",
          "name": "sender",
          "type": "address"
        }
      ],
      "name": "RoleGranted",
      "type": "event"
    },
    {
      "anonymous": false,
      "inputs": [
        {
          "indexed": true,
          "internalType": "bytes32",
          "name": "role",
          "type": "bytes32"
        },
        {
          "indexed": true,
          "internalType": "address",
          "name": "account",
          "type": "address"
        },
        {
          "indexed": true,
          "internalType": "address",
          "name": "sender",
          "type": "address"
        }
      ],
      "name": "RoleRevoked",
      "type": "event"
    },
    {
      "inputs": [],
      "name": "DEFAULT_ADMIN_ROLE",
      "outputs": [
        {
          "internalType": "bytes32",
          "name": "",
          "type": "bytes32"
        }
      ],
      "stateMutability": "view",
      "type": "function"
    },
    {
      "inputs": [],
      "name": "OWNER_ROLE",
      "outputs": [
        {
          "internalType": "bytes32",
          "name": "",
          "type": "bytes32"
        }
      ],
      "stateMutability": "view",
      "type": "function"
    },
    {
      "inputs": [],
      "name": "REFEREE_ROLE",
      "outputs": [
        {
          "internalType": "bytes32",
          "name": "",
          "type": "bytes32"
        }
      ],
      "stateMutability": "view",
      "type": "function"
    },
    {
      "inputs": [
        {
          "internalType": "address",
          "name": "tokenAddress",
          "type": "address"
        },
        {
          "internalType": "address",
          "name": "cardsAddress",
          "type": "address"
        },
        {
          "internalType": "address",
          "name": "vaultAddress",
          "type": "address"
        },
        {
          "internalType": "address",
          "name": "matchHistoryAddress",
          "type": "address"
        }
      ],
      "name": "SetGoGBattlesContracts",
      "outputs": [],
      "stateMutability": "nonpayable",
      "type": "function"
    },
    {
      "inputs": [
        {
          "internalType": "uint256[]",
          "name": "tokenIds",
          "type": "uint256[]"
        }
      ],
      "name": "burnCards",
      "outputs": [],
      "stateMutability": "nonpayable",
      "type": "function"
    },
    {
      "inputs": [
        {
          "internalType": "uint256",
          "name": "amount",
          "type": "uint256"
        },
        {
          "internalType": "address",
          "name": "erc20",
          "type": "address"
        }
      ],
      "name": "burnToken",
      "outputs": [],
      "stateMutability": "nonpayable",
      "type": "function"
    },
    {
      "inputs": [],
      "name": "claim",
      "outputs": [],
      "stateMutability": "nonpayable",
      "type": "function"
    },
    {
      "inputs": [],
      "name": "claimGameInterest",
      "outputs": [],
      "stateMutability": "nonpayable",
      "type": "function"
    },
    {
      "inputs": [
        {
          "internalType": "string",
          "name": "ipfs",
          "type": "string"
        }
      ],
      "name": "claimMatchOccured",
      "outputs": [
        {
          "internalType": "bool",
          "name": "",
          "type": "bool"
        }
      ],
      "stateMutability": "nonpayable",
      "type": "function"
    },
    {
      "inputs": [],
      "name": "distributeInterest",
      "outputs": [],
      "stateMutability": "nonpayable",
      "type": "function"
    },
    {
      "inputs": [
        {
          "internalType": "bytes32",
          "name": "role",
          "type": "bytes32"
        }
      ],
      "name": "getRoleAdmin",
      "outputs": [
        {
          "internalType": "bytes32",
          "name": "",
          "type": "bytes32"
        }
      ],
      "stateMutability": "view",
      "type": "function"
    },
    {
      "inputs": [
        {
          "internalType": "bytes32",
          "name": "role",
          "type": "bytes32"
        },
        {
          "internalType": "address",
          "name": "account",
          "type": "address"
        }
      ],
      "name": "grantRole",
      "outputs": [],
      "stateMutability": "nonpayable",
      "type": "function"
    },
    {
      "inputs": [
        {
          "internalType": "bytes32",
          "name": "role",
          "type": "bytes32"
        },
        {
          "internalType": "address",
          "name": "account",
          "type": "address"
        }
      ],
      "name": "hasRole",
      "outputs": [
        {
          "internalType": "bool",
          "name": "",
          "type": "bool"
        }
      ],
      "stateMutability": "view",
      "type": "function"
    },
    {
      "inputs": [
        {
          "internalType": "address",
          "name": "vaultType",
          "type": "address"
        },
        {
          "internalType": "uint256",
          "name": "amount",
          "type": "uint256"
        }
      ],
      "name": "mintCards",
      "outputs": [
        {
          "internalType": "uint256[]",
          "name": "",
          "type": "uint256[]"
        }
      ],
      "stateMutability": "nonpayable",
      "type": "function"
    },
    {
      "inputs": [
        {
          "internalType": "address",
          "name": "winner",
          "type": "address"
        },
        {
          "internalType": "address",
          "name": "loser",
          "type": "address"
        },
        {
          "internalType": "uint256",
          "name": "timestamp",
          "type": "uint256"
        },
        {
          "internalType": "string",
          "name": "ipfs",
          "type": "string"
        }
      ],
      "name": "publishMatch",
      "outputs": [],
      "stateMutability": "nonpayable",
      "type": "function"
    },
    {
      "inputs": [
        {
          "internalType": "bytes32",
          "name": "role",
          "type": "bytes32"
        },
        {
          "internalType": "address",
          "name": "account",
          "type": "address"
        }
      ],
      "name": "renounceRole",
      "outputs": [],
      "stateMutability": "nonpayable",
      "type": "function"
    },
    {
      "inputs": [
        {
          "internalType": "bytes32",
          "name": "role",
          "type": "bytes32"
        },
        {
          "internalType": "address",
          "name": "account",
          "type": "address"
        }
      ],
      "name": "revokeRole",
      "outputs": [],
      "stateMutability": "nonpayable",
      "type": "function"
    },
    {
      "inputs": [
        {
          "internalType": "bytes4",
          "name": "interfaceId",
          "type": "bytes4"
        }
      ],
      "name": "supportsInterface",
      "outputs": [
        {
          "internalType": "bool",
          "name": "",
          "type": "bool"
        }
      ],
      "stateMutability": "view",
      "type": "function"
    }
  ],
  "bytecode": "0x60806040523480156200001157600080fd5b5060006001819055506200002f6000801b336200014260201b60201c565b620000617fb19546dff01e856fb3f010c267a7b1c60363cf8a4664e21cc89c26224620214e336200014260201b60201c565b620000937faef88082b8671e875d97d0d6c81d06fb9e76f97b3ad7523a55a378e5298aeeee336200014260201b60201c565b6000600360008073ffffffffffffffffffffffffffffffffffffffff1673ffffffffffffffffffffffffffffffffffffffff16815260200190815260200160002081905550600460009080600181540180825580915050600190039060005260206000200160009091909190916101000a81548173ffffffffffffffffffffffffffffffffffffffff021916908373ffffffffffffffffffffffffffffffffffffffff160217905550620002bb565b6200015482826200015860201b60201c565b5050565b6200016a82826200024960201b60201c565b6200024557600160008084815260200190815260200160002060000160008373ffffffffffffffffffffffffffffffffffffffff1673ffffffffffffffffffffffffffffffffffffffff16815260200190815260200160002060006101000a81548160ff021916908315150217905550620001ea620002b360201b60201c565b73ffffffffffffffffffffffffffffffffffffffff168173ffffffffffffffffffffffffffffffffffffffff16837f2f8788117e7eff1d82e926ec794901d17c78024a50270940304540a733656f0d60405160405180910390a45b5050565b600080600084815260200190815260200160002060000160008373ffffffffffffffffffffffffffffffffffffffff1673ffffffffffffffffffffffffffffffffffffffff16815260200190815260200160002060009054906101000a900460ff16905092915050565b600033905090565b614be080620002cb6000396000f3fe608060405234801561001057600080fd5b50600436106101165760003560e01c80638b3651ad116100a2578063d0259c8811610071578063d0259c8814610291578063d547741f146102c1578063dc593ca5146102dd578063dfe6180d146102f9578063e58378bb1461032957610116565b80638b3651ad1461021b57806391d1485414610225578063a217fddf14610255578063af74bc141461027357610116565b80634851c58b116100e95780634851c58b146101b35780634e71d92d146101cf578063568f8647146101d957806362e4b61a146101e35780636f79dd5e146101ff57610116565b806301ffc9a71461011b578063248a9ca31461014b5780632f2ff15d1461017b57806336568abe14610197575b600080fd5b61013560048036038101906101309190613465565b610347565b6040516101429190613c82565b60405180910390f35b61016560048036038101906101609190613400565b6103c1565b6040516101729190613c9d565b60405180910390f35b61019560048036038101906101909190613429565b6103e0565b005b6101b160048036038101906101ac9190613429565b610409565b005b6101cd60048036038101906101c8919061321f565b61048c565b005b6101d76107ef565b005b6101e1610afe565b005b6101fd60048036038101906101f8919061333e565b610bfb565b005b61021960048036038101906102149190613282565b610d46565b005b610223610ff0565b005b61023f600480360381019061023a9190613429565b611435565b60405161024c9190613c82565b60405180910390f35b61025d61149f565b60405161026a9190613c9d565b60405180910390f35b61027b6114a6565b6040516102889190613c9d565b60405180910390f35b6102ab60048036038101906102a69190613302565b6114ca565b6040516102b89190613c60565b60405180910390f35b6102db60048036038101906102d69190613429565b611661565b005b6102f760048036038101906102f291906134fc565b61168a565b005b610313600480360381019061030e919061348e565b611794565b6040516103209190613c82565b60405180910390f35b61033161189a565b60405161033e9190613c9d565b60405180910390f35b60007f7965db0b000000000000000000000000000000000000000000000000000000007bffffffffffffffffffffffffffffffffffffffffffffffffffffffff1916827bffffffffffffffffffffffffffffffffffffffffffffffffffffffff191614806103ba57506103b9826118be565b5b9050919050565b6000806000838152602001908152602001600020600101549050919050565b6103e9826103c1565b6103fa816103f5611928565b611930565b61040483836119cd565b505050565b610411611928565b73ffffffffffffffffffffffffffffffffffffffff168173ffffffffffffffffffffffffffffffffffffffff161461047e576040517f08c379a00000000000000000000000000000000000000000000000000000000081526004016104759061405a565b60405180910390fd5b6104888282611aad565b5050565b7fb19546dff01e856fb3f010c267a7b1c60363cf8a4664e21cc89c26224620214e6104be816104b9611928565b611930565b84600560006101000a81548173ffffffffffffffffffffffffffffffffffffffff021916908373ffffffffffffffffffffffffffffffffffffffff160217905550600073ffffffffffffffffffffffffffffffffffffffff16600560009054906101000a900473ffffffffffffffffffffffffffffffffffffffff1673ffffffffffffffffffffffffffffffffffffffff161415610591576040517f08c379a000000000000000000000000000000000000000000000000000000000815260040161058890613f1a565b60405180910390fd5b83600660006101000a81548173ffffffffffffffffffffffffffffffffffffffff021916908373ffffffffffffffffffffffffffffffffffffffff160217905550600073ffffffffffffffffffffffffffffffffffffffff16600660009054906101000a900473ffffffffffffffffffffffffffffffffffffffff1673ffffffffffffffffffffffffffffffffffffffff161415610664576040517f08c379a000000000000000000000000000000000000000000000000000000000815260040161065b90613dba565b60405180910390fd5b82600760006101000a81548173ffffffffffffffffffffffffffffffffffffffff021916908373ffffffffffffffffffffffffffffffffffffffff160217905550600073ffffffffffffffffffffffffffffffffffffffff16600760009054906101000a900473ffffffffffffffffffffffffffffffffffffffff1673ffffffffffffffffffffffffffffffffffffffff161415610737576040517f08c379a000000000000000000000000000000000000000000000000000000000815260040161072e90613d7a565b60405180910390fd5b81600860006101000a81548173ffffffffffffffffffffffffffffffffffffffff021916908373ffffffffffffffffffffffffffffffffffffffff160217905550600073ffffffffffffffffffffffffffffffffffffffff168273ffffffffffffffffffffffffffffffffffffffff1614156107e8576040517f08c379a00000000000000000000000000000000000000000000000000000000081526004016107df90613dfa565b60405180910390fd5b5050505050565b6000600360003373ffffffffffffffffffffffffffffffffffffffff1673ffffffffffffffffffffffffffffffffffffffff1681526020019081526020016000205414156108ea57600060048054905090506004339080600181540180825580915050600190039060005260206000200160009091909190916101000a81548173ffffffffffffffffffffffffffffffffffffffff021916908373ffffffffffffffffffffffffffffffffffffffff16021790555080600360003373ffffffffffffffffffffffffffffffffffffffff1673ffffffffffffffffffffffffffffffffffffffff16815260200190815260200160002081905550505b600060025490506000600560009054906101000a900473ffffffffffffffffffffffffffffffffffffffff1673ffffffffffffffffffffffffffffffffffffffff166318160ddd6040518163ffffffff1660e01b815260040160206040518083038186803b15801561095b57600080fd5b505afa15801561096f573d6000803e3d6000fd5b505050506040513d601f19601f8201168201806040525081019061099391906134d3565b90506000600660009054906101000a900473ffffffffffffffffffffffffffffffffffffffff1673ffffffffffffffffffffffffffffffffffffffff1663d07a89bb336040518263ffffffff1660e01b81526004016109f29190613b07565b60206040518083038186803b158015610a0a57600080fd5b505afa158015610a1e573d6000803e3d6000fd5b505050506040513d601f19601f82011682018060405250810190610a4291906134d3565b600560009054906101000a900473ffffffffffffffffffffffffffffffffffffffff1673ffffffffffffffffffffffffffffffffffffffff166370a08231336040518263ffffffff1660e01b8152600401610a9d9190613b07565b60206040518083038186803b158015610ab557600080fd5b505afa158015610ac9573d6000803e3d6000fd5b505050506040513d601f19601f82011682018060405250810190610aed91906134d3565b610af79190614146565b9050505050565b6000600360003373ffffffffffffffffffffffffffffffffffffffff1673ffffffffffffffffffffffffffffffffffffffff168152602001908152602001600020541415610bf957600060048054905090506004339080600181540180825580915050600190039060005260206000200160009091909190916101000a81548173ffffffffffffffffffffffffffffffffffffffff021916908373ffffffffffffffffffffffffffffffffffffffff16021790555080600360003373ffffffffffffffffffffffffffffffffffffffff1673ffffffffffffffffffffffffffffffffffffffff16815260200190815260200160002081905550505b565b6000600360003373ffffffffffffffffffffffffffffffffffffffff1673ffffffffffffffffffffffffffffffffffffffff168152602001908152602001600020541415610cf657600060048054905090506004339080600181540180825580915050600190039060005260206000200160009091909190916101000a81548173ffffffffffffffffffffffffffffffffffffffff021916908373ffffffffffffffffffffffffffffffffffffffff16021790555080600360003373ffffffffffffffffffffffffffffffffffffffff1673ffffffffffffffffffffffffffffffffffffffff16815260200190815260200160002081905550505b610d41828280806020026020016040519081016040528093929190818152602001838360200280828437600081840152601f19601f8201169050808301925050505050505033611b8e565b505050565b7faef88082b8671e875d97d0d6c81d06fb9e76f97b3ad7523a55a378e5298aeeee610d7881610d73611928565b611930565b600860009054906101000a900473ffffffffffffffffffffffffffffffffffffffff1673ffffffffffffffffffffffffffffffffffffffff16636f79dd5e87878787876040518663ffffffff1660e01b8152600401610ddb959493929190613b82565b600060405180830381600087803b158015610df557600080fd5b505af1158015610e09573d6000803e3d6000fd5b505050506000600760009054906101000a900473ffffffffffffffffffffffffffffffffffffffff1673ffffffffffffffffffffffffffffffffffffffff16634ec18db96040518163ffffffff1660e01b815260040160206040518083038186803b158015610e7757600080fd5b505afa158015610e8b573d6000803e3d6000fd5b505050506040513d601f19601f82011682018060405250810190610eaf91906134d3565b90506000606482610ec0919061419c565b905060008111610f05576040517f08c379a0000000000000000000000000000000000000000000000000000000008152600401610efc9061403a565b60405180910390fd5b6000811115610fe657600560009054906101000a900473ffffffffffffffffffffffffffffffffffffffff1673ffffffffffffffffffffffffffffffffffffffff166340c10f1930836040518363ffffffff1660e01b8152600401610f6b929190613c00565b600060405180830381600087803b158015610f8557600080fd5b505af1158015610f99573d6000803e3d6000fd5b505050506000610fa9828a611ecf565b90507fc095ce53c1d654628429e1cd2e05024bb7b03866d44192b1c8ddf2911572fd3e3382604051610fdc929190613bd0565b60405180910390a1505b5050505050505050565b6000600360003373ffffffffffffffffffffffffffffffffffffffff1673ffffffffffffffffffffffffffffffffffffffff1681526020019081526020016000205414156110eb57600060048054905090506004339080600181540180825580915050600190039060005260206000200160009091909190916101000a81548173ffffffffffffffffffffffffffffffffffffffff021916908373ffffffffffffffffffffffffffffffffffffffff16021790555080600360003373ffffffffffffffffffffffffffffffffffffffff1673ffffffffffffffffffffffffffffffffffffffff16815260200190815260200160002081905550505b6000600760009054906101000a900473ffffffffffffffffffffffffffffffffffffffff1673ffffffffffffffffffffffffffffffffffffffff16634efa25526040518163ffffffff1660e01b8152600401602060405180830381600087803b15801561115757600080fd5b505af115801561116b573d6000803e3d6000fd5b505050506040513d601f19601f8201168201806040525081019061118f91906134d3565b9050601481116111d4576040517f08c379a00000000000000000000000000000000000000000000000000000000081526004016111cb90613f3a565b60405180910390fd5b600060646046836111e591906141cd565b6111ef919061419c565b90506000606460198461120291906141cd565b61120c919061419c565b90506000606460058561121f91906141cd565b611229919061419c565b90506000831161126e576040517f08c379a000000000000000000000000000000000000000000000000000000000815260040161126590613d3a565b60405180910390fd5b600082116112b1576040517f08c379a00000000000000000000000000000000000000000000000000000000081526004016112a890613f9a565b60405180910390fd5b600081116112f4576040517f08c379a00000000000000000000000000000000000000000000000000000000081526004016112eb90613f5a565b60405180910390fd5b838183856113029190614146565b61130c9190614146565b1461134c576040517f08c379a00000000000000000000000000000000000000000000000000000000081526004016113439061401a565b60405180910390fd5b600560009054906101000a900473ffffffffffffffffffffffffffffffffffffffff1673ffffffffffffffffffffffffffffffffffffffff166340c10f19600760009054906101000a900473ffffffffffffffffffffffffffffffffffffffff16856040518363ffffffff1660e01b81526004016113cb929190613c00565b600060405180830381600087803b1580156113e557600080fd5b505af11580156113f9573d6000803e3d6000fd5b50505050806001600082825461140f9190614146565b9250508190555081600260008282546114289190614146565b9250508190555050505050565b600080600084815260200190815260200160002060000160008373ffffffffffffffffffffffffffffffffffffffff1673ffffffffffffffffffffffffffffffffffffffff16815260200190815260200160002060009054906101000a900460ff16905092915050565b6000801b81565b7faef88082b8671e875d97d0d6c81d06fb9e76f97b3ad7523a55a378e5298aeeee81565b60606000600360003373ffffffffffffffffffffffffffffffffffffffff1673ffffffffffffffffffffffffffffffffffffffff1681526020019081526020016000205414156115c757600060048054905090506004339080600181540180825580915050600190039060005260206000200160009091909190916101000a81548173ffffffffffffffffffffffffffffffffffffffff021916908373ffffffffffffffffffffffffffffffffffffffff16021790555080600360003373ffffffffffffffffffffffffffffffffffffffff1673ffffffffffffffffffffffffffffffffffffffff16815260200190815260200160002081905550505b6000839050600073ffffffffffffffffffffffffffffffffffffffff168173ffffffffffffffffffffffffffffffffffffffff16141561163c576040517f08c379a000000000000000000000000000000000000000000000000000000000815260040161163390613e9a565b60405180910390fd5b61164881843330612240565b60006116548433611ecf565b9050809250505092915050565b61166a826103c1565b61167b81611676611928565b611930565b6116858383611aad565b505050565b6000600360003373ffffffffffffffffffffffffffffffffffffffff1673ffffffffffffffffffffffffffffffffffffffff16815260200190815260200160002054141561178557600060048054905090506004339080600181540180825580915050600190039060005260206000200160009091909190916101000a81548173ffffffffffffffffffffffffffffffffffffffff021916908373ffffffffffffffffffffffffffffffffffffffff16021790555080600360003373ffffffffffffffffffffffffffffffffffffffff1673ffffffffffffffffffffffffffffffffffffffff16815260200190815260200160002081905550505b611790823383612737565b5050565b600080600360003373ffffffffffffffffffffffffffffffffffffffff1673ffffffffffffffffffffffffffffffffffffffff16815260200190815260200160002054141561189057600060048054905090506004339080600181540180825580915050600190039060005260206000200160009091909190916101000a81548173ffffffffffffffffffffffffffffffffffffffff021916908373ffffffffffffffffffffffffffffffffffffffff16021790555080600360003373ffffffffffffffffffffffffffffffffffffffff1673ffffffffffffffffffffffffffffffffffffffff16815260200190815260200160002081905550505b6001905092915050565b7fb19546dff01e856fb3f010c267a7b1c60363cf8a4664e21cc89c26224620214e81565b60007f01ffc9a7000000000000000000000000000000000000000000000000000000007bffffffffffffffffffffffffffffffffffffffffffffffffffffffff1916827bffffffffffffffffffffffffffffffffffffffffffffffffffffffff1916149050919050565b600033905090565b61193a8282611435565b6119c95761195f8173ffffffffffffffffffffffffffffffffffffffff166014612d7d565b61196d8360001c6020612d7d565b60405160200161197e929190613acd565b6040516020818303038152906040526040517f08c379a00000000000000000000000000000000000000000000000000000000081526004016119c09190613cb8565b60405180910390fd5b5050565b6119d78282611435565b611aa957600160008084815260200190815260200160002060000160008373ffffffffffffffffffffffffffffffffffffffff1673ffffffffffffffffffffffffffffffffffffffff16815260200190815260200160002060006101000a81548160ff021916908315150217905550611a4e611928565b73ffffffffffffffffffffffffffffffffffffffff168173ffffffffffffffffffffffffffffffffffffffff16837f2f8788117e7eff1d82e926ec794901d17c78024a50270940304540a733656f0d60405160405180910390a45b5050565b611ab78282611435565b15611b8a57600080600084815260200190815260200160002060000160008373ffffffffffffffffffffffffffffffffffffffff1673ffffffffffffffffffffffffffffffffffffffff16815260200190815260200160002060006101000a81548160ff021916908315150217905550611b2f611928565b73ffffffffffffffffffffffffffffffffffffffff168173ffffffffffffffffffffffffffffffffffffffff16837ff6391f5c32d9c69d2a47ea670b442974b53935d1edc7fd64eb21e047a839171b60405160405180910390a45b5050565b6000600660009054906101000a900473ffffffffffffffffffffffffffffffffffffffff1673ffffffffffffffffffffffffffffffffffffffff1663e985e9c583306040518363ffffffff1660e01b8152600401611bed929190613b22565b60206040518083038186803b158015611c0557600080fd5b505afa158015611c19573d6000803e3d6000fd5b505050506040513d601f19601f82011682018060405250810190611c3d91906133d7565b611c7c576040517f08c379a0000000000000000000000000000000000000000000000000000000008152600401611c7390613eba565b60405180910390fd5b6000600660009054906101000a900473ffffffffffffffffffffffffffffffffffffffff1673ffffffffffffffffffffffffffffffffffffffff1663d824d6b2856040518263ffffffff1660e01b8152600401611cd99190613c60565b60206040518083038186803b158015611cf157600080fd5b505afa158015611d05573d6000803e3d6000fd5b505050506040513d601f19601f82011682018060405250810190611d2991906134d3565b905060008111611d6e576040517f08c379a0000000000000000000000000000000000000000000000000000000008152600401611d6590613d5a565b60405180910390fd5b600660009054906101000a900473ffffffffffffffffffffffffffffffffffffffff1673ffffffffffffffffffffffffffffffffffffffff1663b2dc5dc384866040518363ffffffff1660e01b8152600401611dcb929190613bd0565b600060405180830381600087803b158015611de557600080fd5b505af1158015611df9573d6000803e3d6000fd5b50505050600560009054906101000a900473ffffffffffffffffffffffffffffffffffffffff1673ffffffffffffffffffffffffffffffffffffffff166340c10f1984836040518363ffffffff1660e01b8152600401611e5a929190613c00565b600060405180830381600087803b158015611e7457600080fd5b505af1158015611e88573d6000803e3d6000fd5b505050507f9d066648b55dc7551f4cfd70285c455683b0e0b7fba67a1ad0e8952dff648b7b8385604051611ebd929190613bd0565b60405180910390a18091505092915050565b6060600560009054906101000a900473ffffffffffffffffffffffffffffffffffffffff1673ffffffffffffffffffffffffffffffffffffffff1663095ea7b3600660009054906101000a900473ffffffffffffffffffffffffffffffffffffffff16856040518363ffffffff1660e01b8152600401611f50929190613c00565b602060405180830381600087803b158015611f6a57600080fd5b505af1158015611f7e573d6000803e3d6000fd5b505050506040513d601f19601f82011682018060405250810190611fa291906133d7565b611fe1576040517f08c379a0000000000000000000000000000000000000000000000000000000008152600401611fd890613d1a565b60405180910390fd5b600080600660009054906101000a900473ffffffffffffffffffffffffffffffffffffffff1673ffffffffffffffffffffffffffffffffffffffff1663952ea94f33876040518363ffffffff1660e01b8152600401612041929190613c00565b600060405180830381600087803b15801561205b57600080fd5b505af115801561206f573d6000803e3d6000fd5b505050506040513d6000823e3d601f19601f820116820180604052508101906120989190613383565b9150915060008251116120e0576040517f08c379a00000000000000000000000000000000000000000000000000000000081526004016120d790613eda565b60405180910390fd5b60008111156121fc57600560009054906101000a900473ffffffffffffffffffffffffffffffffffffffff1673ffffffffffffffffffffffffffffffffffffffff166323b872dd600660009054906101000a900473ffffffffffffffffffffffffffffffffffffffff1633846040518463ffffffff1660e01b815260040161216a93929190613b4b565b602060405180830381600087803b15801561218457600080fd5b505af1158015612198573d6000803e3d6000fd5b505050506040513d601f19601f820116820180604052508101906121bc91906133d7565b6121fb576040517f08c379a00000000000000000000000000000000000000000000000000000000081526004016121f290613dda565b60405180910390fd5b5b7fc095ce53c1d654628429e1cd2e05024bb7b03866d44192b1c8ddf2911572fd3e338360405161222d929190613bd0565b60405180910390a1819250505092915050565b828473ffffffffffffffffffffffffffffffffffffffff1663dd62ed3e84306040518363ffffffff1660e01b815260040161227c929190613b22565b60206040518083038186803b15801561229457600080fd5b505afa1580156122a8573d6000803e3d6000fd5b505050506040513d601f19601f820116820180604052508101906122cc91906134d3565b1161230c576040517f08c379a000000000000000000000000000000000000000000000000000000000815260040161230390613e5a565b60405180910390fd5b8373ffffffffffffffffffffffffffffffffffffffff166323b872dd8330866040518463ffffffff1660e01b815260040161234993929190613b4b565b602060405180830381600087803b15801561236357600080fd5b505af1158015612377573d6000803e3d6000fd5b505050506040513d601f19601f8201168201806040525081019061239b91906133d7565b6123da576040517f08c379a00000000000000000000000000000000000000000000000000000000081526004016123d190613efa565b60405180910390fd5b600760009054906101000a900473ffffffffffffffffffffffffffffffffffffffff1673ffffffffffffffffffffffffffffffffffffffff166331d09dbd856040518263ffffffff1660e01b81526004016124359190613b07565b60206040518083038186803b15801561244d57600080fd5b505afa158015612461573d6000803e3d6000fd5b505050506040513d601f19601f8201168201806040525081019061248591906133d7565b6124c4576040517f08c379a00000000000000000000000000000000000000000000000000000000081526004016124bb90613f7a565b60405180910390fd5b8373ffffffffffffffffffffffffffffffffffffffff1663095ea7b3600760009054906101000a900473ffffffffffffffffffffffffffffffffffffffff16856040518363ffffffff1660e01b8152600401612521929190613c00565b602060405180830381600087803b15801561253b57600080fd5b505af115801561254f573d6000803e3d6000fd5b505050506040513d601f19601f8201168201806040525081019061257391906133d7565b6125b2576040517f08c379a00000000000000000000000000000000000000000000000000000000081526004016125a990613e1a565b60405180910390fd5b600760009054906101000a900473ffffffffffffffffffffffffffffffffffffffff1673ffffffffffffffffffffffffffffffffffffffff1663e4d3a5968385876040518463ffffffff1660e01b815260040161261193929190613c29565b602060405180830381600087803b15801561262b57600080fd5b505af115801561263f573d6000803e3d6000fd5b505050506040513d601f19601f8201168201806040525081019061266391906133d7565b6126a2576040517f08c379a000000000000000000000000000000000000000000000000000000000815260040161269990613e3a565b60405180910390fd5b600560009054906101000a900473ffffffffffffffffffffffffffffffffffffffff1673ffffffffffffffffffffffffffffffffffffffff166340c10f1982856040518363ffffffff1660e01b81526004016126ff929190613c00565b600060405180830381600087803b15801561271957600080fd5b505af115801561272d573d6000803e3d6000fd5b5050505050505050565b82600560009054906101000a900473ffffffffffffffffffffffffffffffffffffffff1673ffffffffffffffffffffffffffffffffffffffff1663dd62ed3e84306040518363ffffffff1660e01b8152600401612795929190613b22565b60206040518083038186803b1580156127ad57600080fd5b505afa1580156127c1573d6000803e3d6000fd5b505050506040513d601f19601f820116820180604052508101906127e591906134d3565b11612825576040517f08c379a000000000000000000000000000000000000000000000000000000000815260040161281c90613d9a565b60405180910390fd5b600560009054906101000a900473ffffffffffffffffffffffffffffffffffffffff1673ffffffffffffffffffffffffffffffffffffffff166323b872dd8330866040518463ffffffff1660e01b815260040161288493929190613b4b565b602060405180830381600087803b15801561289e57600080fd5b505af11580156128b2573d6000803e3d6000fd5b505050506040513d601f19601f820116820180604052508101906128d691906133d7565b612915576040517f08c379a000000000000000000000000000000000000000000000000000000000815260040161290c90613e7a565b60405180910390fd5b600560009054906101000a900473ffffffffffffffffffffffffffffffffffffffff1673ffffffffffffffffffffffffffffffffffffffff1663095ea7b3600560009054906101000a900473ffffffffffffffffffffffffffffffffffffffff16856040518363ffffffff1660e01b8152600401612994929190613c00565b602060405180830381600087803b1580156129ae57600080fd5b505af11580156129c2573d6000803e3d6000fd5b505050506040513d601f19601f820116820180604052508101906129e691906133d7565b612a25576040517f08c379a0000000000000000000000000000000000000000000000000000000008152600401612a1c90613fda565b60405180910390fd5b600560009054906101000a900473ffffffffffffffffffffffffffffffffffffffff1673ffffffffffffffffffffffffffffffffffffffff166342966c68846040518263ffffffff1660e01b8152600401612a80919061407a565b600060405180830381600087803b158015612a9a57600080fd5b505af1158015612aae573d6000803e3d6000fd5b50505050600760009054906101000a900473ffffffffffffffffffffffffffffffffffffffff1673ffffffffffffffffffffffffffffffffffffffff166331d09dbd826040518263ffffffff1660e01b8152600401612b0d9190613b07565b60206040518083038186803b158015612b2557600080fd5b505afa158015612b39573d6000803e3d6000fd5b505050506040513d601f19601f82011682018060405250810190612b5d91906133d7565b612b9c576040517f08c379a0000000000000000000000000000000000000000000000000000000008152600401612b9390613fba565b60405180910390fd5b82600760009054906101000a900473ffffffffffffffffffffffffffffffffffffffff1673ffffffffffffffffffffffffffffffffffffffff16631bf8fea9836040518263ffffffff1660e01b8152600401612bf89190613b07565b60206040518083038186803b158015612c1057600080fd5b505afa158015612c24573d6000803e3d6000fd5b505050506040513d601f19601f82011682018060405250810190612c4891906134d3565b11612c88576040517f08c379a0000000000000000000000000000000000000000000000000000000008152600401612c7f90613ffa565b60405180910390fd5b600760009054906101000a900473ffffffffffffffffffffffffffffffffffffffff1673ffffffffffffffffffffffffffffffffffffffff1663eb476cb48385846040518463ffffffff1660e01b8152600401612ce793929190613c29565b602060405180830381600087803b158015612d0157600080fd5b505af1158015612d15573d6000803e3d6000fd5b505050506040513d601f19601f82011682018060405250810190612d3991906133d7565b612d78576040517f08c379a0000000000000000000000000000000000000000000000000000000008152600401612d6f90613cda565b60405180910390fd5b505050565b606060006002836002612d9091906141cd565b612d9a9190614146565b67ffffffffffffffff811115612dd9577f4e487b7100000000000000000000000000000000000000000000000000000000600052604160045260246000fd5b6040519080825280601f01601f191660200182016040528015612e0b5781602001600182028036833780820191505090505b5090507f300000000000000000000000000000000000000000000000000000000000000081600081518110612e69577f4e487b7100000000000000000000000000000000000000000000000000000000600052603260045260246000fd5b60200101907effffffffffffffffffffffffffffffffffffffffffffffffffffffffffffff1916908160001a9053507f780000000000000000000000000000000000000000000000000000000000000081600181518110612ef3577f4e487b7100000000000000000000000000000000000000000000000000000000600052603260045260246000fd5b60200101907effffffffffffffffffffffffffffffffffffffffffffffffffffffffffffff1916908160001a90535060006001846002612f3391906141cd565b612f3d9190614146565b90505b6001811115613029577f3031323334353637383961626364656600000000000000000000000000000000600f861660108110612fa5577f4e487b7100000000000000000000000000000000000000000000000000000000600052603260045260246000fd5b1a60f81b828281518110612fe2577f4e487b7100000000000000000000000000000000000000000000000000000000600052603260045260246000fd5b60200101907effffffffffffffffffffffffffffffffffffffffffffffffffffffffffffff1916908160001a905350600485901c945080613022906142e7565b9050612f40565b506000841461306d576040517f08c379a000000000000000000000000000000000000000000000000000000000815260040161306490613cfa565b60405180910390fd5b8091505092915050565b600061308a613085846140ba565b614095565b905080838252602082019050828560208602820111156130a957600080fd5b60005b858110156130d957816130bf888261320a565b8452602084019350602083019250506001810190506130ac565b5050509392505050565b6000813590506130f281614b37565b92915050565b60008083601f84011261310a57600080fd5b8235905067ffffffffffffffff81111561312357600080fd5b60208301915083602082028301111561313b57600080fd5b9250929050565b600082601f83011261315357600080fd5b8151613163848260208601613077565b91505092915050565b60008151905061317b81614b4e565b92915050565b60008135905061319081614b65565b92915050565b6000813590506131a581614b7c565b92915050565b60008083601f8401126131bd57600080fd5b8235905067ffffffffffffffff8111156131d657600080fd5b6020830191508360018202830111156131ee57600080fd5b9250929050565b60008135905061320481614b93565b92915050565b60008151905061321981614b93565b92915050565b6000806000806080858703121561323557600080fd5b6000613243878288016130e3565b9450506020613254878288016130e3565b9350506040613265878288016130e3565b9250506060613276878288016130e3565b91505092959194509250565b60008060008060006080868803121561329a57600080fd5b60006132a8888289016130e3565b95505060206132b9888289016130e3565b94505060406132ca888289016131f5565b935050606086013567ffffffffffffffff8111156132e757600080fd5b6132f3888289016131ab565b92509250509295509295909350565b6000806040838503121561331557600080fd5b6000613323858286016130e3565b9250506020613334858286016131f5565b9150509250929050565b6000806020838503121561335157600080fd5b600083013567ffffffffffffffff81111561336b57600080fd5b613377858286016130f8565b92509250509250929050565b6000806040838503121561339657600080fd5b600083015167ffffffffffffffff8111156133b057600080fd5b6133bc85828601613142565b92505060206133cd8582860161320a565b9150509250929050565b6000602082840312156133e957600080fd5b60006133f78482850161316c565b91505092915050565b60006020828403121561341257600080fd5b600061342084828501613181565b91505092915050565b6000806040838503121561343c57600080fd5b600061344a85828601613181565b925050602061345b858286016130e3565b9150509250929050565b60006020828403121561347757600080fd5b600061348584828501613196565b91505092915050565b600080602083850312156134a157600080fd5b600083013567ffffffffffffffff8111156134bb57600080fd5b6134c7858286016131ab565b92509250509250929050565b6000602082840312156134e557600080fd5b60006134f38482850161320a565b91505092915050565b6000806040838503121561350f57600080fd5b600061351d858286016131f5565b925050602061352e858286016130e3565b9150509250929050565b60006135448383613aaf565b60208301905092915050565b61355981614227565b82525050565b600061356a826140f6565b6135748185614119565b935061357f836140e6565b8060005b838110156135b05781516135978882613538565b97506135a28361410c565b925050600181019050613583565b5085935050505092915050565b6135c681614239565b82525050565b6135d581614245565b82525050565b60006135e7838561412a565b93506135f48385846142a5565b6135fd836143cf565b840190509392505050565b600061361382614101565b61361d818561412a565b935061362d8185602086016142b4565b613636816143cf565b840191505092915050565b600061364c82614101565b613656818561413b565b93506136668185602086016142b4565b80840191505092915050565b600061367f602a8361412a565b915061368a826143e0565b604082019050919050565b60006136a260208361412a565b91506136ad8261442f565b602082019050919050565b60006136c5602a8361412a565b91506136d082614458565b604082019050919050565b60006136e860178361412a565b91506136f3826144a7565b602082019050919050565b600061370b601f8361412a565b9150613716826144d0565b602082019050919050565b600061372e601a8361412a565b9150613739826144f9565b602082019050919050565b6000613751602d8361412a565b915061375c82614522565b604082019050919050565b6000613774601a8361412a565b915061377f82614571565b602082019050919050565b6000613797602b8361412a565b91506137a28261459a565b604082019050919050565b60006137ba60228361412a565b91506137c5826145e9565b604082019050919050565b60006137dd60258361412a565b91506137e882614638565b604082019050919050565b6000613800601b8361412a565b915061380b82614687565b602082019050919050565b6000613823602b8361412a565b915061382e826146b0565b604082019050919050565b6000613846602a8361412a565b9150613851826146ff565b604082019050919050565b6000613869602a8361412a565b91506138748261474e565b604082019050919050565b600061388c602b8361412a565b91506138978261479d565b604082019050919050565b60006138af60188361412a565b91506138ba826147ec565b602082019050919050565b60006138d260228361412a565b91506138dd82614815565b604082019050919050565b60006138f5601a8361412a565b915061390082614864565b602082019050919050565b600061391860458361412a565b91506139238261488d565b606082019050919050565b600061393b601c8361412a565b915061394682614902565b602082019050919050565b600061395e601e8361412a565b91506139698261492b565b602082019050919050565b600061398160188361412a565b915061398c82614954565b602082019050919050565b60006139a460248361412a565b91506139af8261497d565b604082019050919050565b60006139c7601e8361412a565b91506139d2826149cc565b602082019050919050565b60006139ea60148361412a565b91506139f5826149f5565b602082019050919050565b6000613a0d602e8361412a565b9150613a1882614a1e565b604082019050919050565b6000613a3060178361413b565b9150613a3b82614a6d565b601782019050919050565b6000613a5360158361412a565b9150613a5e82614a96565b602082019050919050565b6000613a7660118361413b565b9150613a8182614abf565b601182019050919050565b6000613a99602f8361412a565b9150613aa482614ae8565b604082019050919050565b613ab88161429b565b82525050565b613ac78161429b565b82525050565b6000613ad882613a23565b9150613ae48285613641565b9150613aef82613a69565b9150613afb8284613641565b91508190509392505050565b6000602082019050613b1c6000830184613550565b92915050565b6000604082019050613b376000830185613550565b613b446020830184613550565b9392505050565b6000606082019050613b606000830186613550565b613b6d6020830185613550565b613b7a6040830184613abe565b949350505050565b6000608082019050613b976000830188613550565b613ba46020830187613550565b613bb16040830186613abe565b8181036060830152613bc48184866135db565b90509695505050505050565b6000604082019050613be56000830185613550565b8181036020830152613bf7818461355f565b90509392505050565b6000604082019050613c156000830185613550565b613c226020830184613abe565b9392505050565b6000606082019050613c3e6000830186613550565b613c4b6020830185613abe565b613c586040830184613550565b949350505050565b60006020820190508181036000830152613c7a818461355f565b905092915050565b6000602082019050613c9760008301846135bd565b92915050565b6000602082019050613cb260008301846135cc565b92915050565b60006020820190508181036000830152613cd28184613608565b905092915050565b60006020820190508181036000830152613cf381613672565b9050919050565b60006020820190508181036000830152613d1381613695565b9050919050565b60006020820190508181036000830152613d33816136b8565b9050919050565b60006020820190508181036000830152613d53816136db565b9050919050565b60006020820190508181036000830152613d73816136fe565b9050919050565b60006020820190508181036000830152613d9381613721565b9050919050565b60006020820190508181036000830152613db381613744565b9050919050565b60006020820190508181036000830152613dd381613767565b9050919050565b60006020820190508181036000830152613df38161378a565b9050919050565b60006020820190508181036000830152613e13816137ad565b9050919050565b60006020820190508181036000830152613e33816137d0565b9050919050565b60006020820190508181036000830152613e53816137f3565b9050919050565b60006020820190508181036000830152613e7381613816565b9050919050565b60006020820190508181036000830152613e9381613839565b9050919050565b60006020820190508181036000830152613eb38161385c565b9050919050565b60006020820190508181036000830152613ed38161387f565b9050919050565b60006020820190508181036000830152613ef3816138a2565b9050919050565b60006020820190508181036000830152613f13816138c5565b9050919050565b60006020820190508181036000830152613f33816138e8565b9050919050565b60006020820190508181036000830152613f538161390b565b9050919050565b60006020820190508181036000830152613f738161392e565b9050919050565b60006020820190508181036000830152613f9381613951565b9050919050565b60006020820190508181036000830152613fb381613974565b9050919050565b60006020820190508181036000830152613fd381613997565b9050919050565b60006020820190508181036000830152613ff3816139ba565b9050919050565b60006020820190508181036000830152614013816139dd565b9050919050565b6000602082019050818103600083015261403381613a00565b9050919050565b6000602082019050818103600083015261405381613a46565b9050919050565b6000602082019050818103600083015261407381613a8c565b9050919050565b600060208201905061408f6000830184613abe565b92915050565b600061409f6140b0565b90506140ab8282614311565b919050565b6000604051905090565b600067ffffffffffffffff8211156140d5576140d46143a0565b5b602082029050602081019050919050565b6000819050602082019050919050565b600081519050919050565b600081519050919050565b6000602082019050919050565b600082825260208201905092915050565b600082825260208201905092915050565b600081905092915050565b60006141518261429b565b915061415c8361429b565b9250827fffffffffffffffffffffffffffffffffffffffffffffffffffffffffffffffff0382111561419157614190614342565b5b828201905092915050565b60006141a78261429b565b91506141b28361429b565b9250826141c2576141c1614371565b5b828204905092915050565b60006141d88261429b565b91506141e38361429b565b9250817fffffffffffffffffffffffffffffffffffffffffffffffffffffffffffffffff048311821515161561421c5761421b614342565b5b828202905092915050565b60006142328261427b565b9050919050565b60008115159050919050565b6000819050919050565b60007fffffffff0000000000000000000000000000000000000000000000000000000082169050919050565b600073ffffffffffffffffffffffffffffffffffffffff82169050919050565b6000819050919050565b82818337600083830152505050565b60005b838110156142d25780820151818401526020810190506142b7565b838111156142e1576000848401525b50505050565b60006142f28261429b565b9150600082141561430657614305614342565b5b600182039050919050565b61431a826143cf565b810181811067ffffffffffffffff82111715614339576143386143a0565b5b80604052505050565b7f4e487b7100000000000000000000000000000000000000000000000000000000600052601160045260246000fd5b7f4e487b7100000000000000000000000000000000000000000000000000000000600052601260045260246000fd5b7f4e487b7100000000000000000000000000000000000000000000000000000000600052604160045260246000fd5b6000601f19601f8301169050919050565b7f5661756c74206d757374207769746864726177206465736972656420746f6b6560008201527f6e20746f20757365722e00000000000000000000000000000000000000000000602082015250565b7f537472696e67733a20686578206c656e67746820696e73756666696369656e74600082015250565b7f43617264206d696e7420726571756972657320746f6b656e206465706f73697460008201527f20617070726f76616c2e00000000000000000000000000000000000000000000602082015250565b7f546f6b656e73206d75737420676f20746f20706f6f6c2e000000000000000000600082015250565b7f4361726473206d757374206861766520612076616c756520746f206275726e00600082015250565b7f5661756c742061646472657373206d757374206265207365742e000000000000600082015250565b7f55736572206d75737420617070726f766520636f6e747261637420746f20776960008201527f74686472617720746f6b656e2e00000000000000000000000000000000000000602082015250565b7f43617264732061646472657373206d757374206265207365742e000000000000600082015250565b7f556e7573656420746f6b656e73206d7573742062652072657475726e6564207460008201527f6f2074686520757365722e000000000000000000000000000000000000000000602082015250565b7f4d6174636820686973746f72792061646472657373206d75737420626520736560008201527f742e000000000000000000000000000000000000000000000000000000000000602082015250565b7f4d75737420617070726f7665207661756c7420666f7220746f6b656e2064657060008201527f6f7369742e000000000000000000000000000000000000000000000000000000602082015250565b7f5661756c74206465706f736974206d75737420737563636565642e0000000000600082015250565b7f436f6e7472616374206d75737420626520666972737420616c6c6f776564207460008201527f6f207472616e736665722e000000000000000000000000000000000000000000602082015250565b7f55736572206d757374207472616e7366657220746f6b656e206261636b20746f60008201527f20636f6e74726163742e00000000000000000000000000000000000000000000602082015250565b7f50617373656420696e207661756c7454797065206d757374206265206120766160008201527f6c69642045524332302e00000000000000000000000000000000000000000000602082015250565b7f4d75737420626520617070726f76656420746f206275726e2073656e6420636160008201527f72647320746f206275726e000000000000000000000000000000000000000000602082015250565b7f4361726473206d696e74206d75737420737563636565642e0000000000000000600082015250565b7f5472616e7366657220746f20636f6e7472616374206d7573742073756363656560008201527f642e000000000000000000000000000000000000000000000000000000000000602082015250565b7f546f6b656e2061646472657373206d757374206265207365742e000000000000600082015250565b7f5468657265206d75737420626520656e6f75676820696e74657265737420746f60008201527f20636f6c6c656374207468617420616c6c20706172746965732067657420612060208201527f7368617265000000000000000000000000000000000000000000000000000000604082015250565b7f546f6b656e73206d75737420676f20746f2e206465762066756e642e00000000600082015250565b7f4e6f207661756c747320657869737420666f7220746f6b656e20747970650000600082015250565b7f546f6b656e73206d75737420676f20746f2075736572732e0000000000000000600082015250565b7f4552433230206973206e6f74206120737570706f72746564207661756c74207460008201527f7970652e00000000000000000000000000000000000000000000000000000000602082015250565b7f4d75737420626520617070726f76656420746f206275726e20746f6b656e0000600082015250565b7f5661756c74206d757374206265206c6971756964000000000000000000000000600082015250565b7f546f6b656e73207472616e736665726564206d757374206d6174636820696e7460008201527f657265737420616363727565642e000000000000000000000000000000000000602082015250565b7f416363657373436f6e74726f6c3a206163636f756e7420000000000000000000600082015250565b7f5468657265206d7573742062652061207072697a650000000000000000000000600082015250565b7f206973206d697373696e6720726f6c6520000000000000000000000000000000600082015250565b7f416363657373436f6e74726f6c3a2063616e206f6e6c792072656e6f756e636560008201527f20726f6c657320666f722073656c660000000000000000000000000000000000602082015250565b614b4081614227565b8114614b4b57600080fd5b50565b614b5781614239565b8114614b6257600080fd5b50565b614b6e81614245565b8114614b7957600080fd5b50565b614b858161424f565b8114614b9057600080fd5b50565b614b9c8161429b565b8114614ba757600080fd5b5056fea2646970667358221220ac18cf565a92384178b22e4846a03d3d7b531697b636d1a569bdc94563a01f2764736f6c63430008040033",
  "linkReferences": {},
  "deployedLinkReferences": {}
}