{
  "_format": "hh-sol-artifact-1",
  "contractName": "GoGBattlesCards",
  "sourceName": "contracts/GoGBattlesCards.sol",
  "abi": [
    {
      "inputs": [],
      "stateMutability": "nonpayable",
      "type": "constructor"
    },
    {
      "anonymous": false,
      "inputs": [
        {
          "indexed": false,
          "internalType": "address",
          "name": "previousAdmin",
          "type": "address"
        },
        {
          "indexed": false,
          "internalType": "address",
          "name": "newAdmin",
          "type": "address"
        }
      ],
      "name": "AdminChanged",
      "type": "event"
    },
    {
      "anonymous": false,
      "inputs": [
        {
          "indexed": true,
          "internalType": "address",
          "name": "account",
          "type": "address"
        },
        {
          "indexed": true,
          "internalType": "address",
          "name": "operator",
          "type": "address"
        },
        {
          "indexed": false,
          "internalType": "bool",
          "name": "approved",
          "type": "bool"
        }
      ],
      "name": "ApprovalForAll",
      "type": "event"
    },
    {
      "anonymous": false,
      "inputs": [
        {
          "indexed": true,
          "internalType": "address",
          "name": "beacon",
          "type": "address"
        }
      ],
      "name": "BeaconUpgraded",
      "type": "event"
    },
    {
      "anonymous": false,
      "inputs": [
        {
          "indexed": true,
          "internalType": "bytes32",
          "name": "role",
          "type": "bytes32"
        },
        {
          "indexed": true,
          "internalType": "bytes32",
          "name": "previousAdminRole",
          "type": "bytes32"
        },
        {
          "indexed": true,
          "internalType": "bytes32",
          "name": "newAdminRole",
          "type": "bytes32"
        }
      ],
      "name": "RoleAdminChanged",
      "type": "event"
    },
    {
      "anonymous": false,
      "inputs": [
        {
          "indexed": true,
          "internalType": "bytes32",
          "name": "role",
          "type": "bytes32"
        },
        {
          "indexed": true,
          "internalType": "address",
          "name": "account",
          "type": "address"
        },
        {
          "indexed": true,
          "internalType": "address",
          "name": "sender",
          "type": "address"
        }
      ],
      "name": "RoleGranted",
      "type": "event"
    },
    {
      "anonymous": false,
      "inputs": [
        {
          "indexed": true,
          "internalType": "bytes32",
          "name": "role",
          "type": "bytes32"
        },
        {
          "indexed": true,
          "internalType": "address",
          "name": "account",
          "type": "address"
        },
        {
          "indexed": true,
          "internalType": "address",
          "name": "sender",
          "type": "address"
        }
      ],
      "name": "RoleRevoked",
      "type": "event"
    },
    {
      "anonymous": false,
      "inputs": [
        {
          "indexed": true,
          "internalType": "address",
          "name": "operator",
          "type": "address"
        },
        {
          "indexed": true,
          "internalType": "address",
          "name": "from",
          "type": "address"
        },
        {
          "indexed": true,
          "internalType": "address",
          "name": "to",
          "type": "address"
        },
        {
          "indexed": false,
          "internalType": "uint256[]",
          "name": "ids",
          "type": "uint256[]"
        },
        {
          "indexed": false,
          "internalType": "uint256[]",
          "name": "values",
          "type": "uint256[]"
        }
      ],
      "name": "TransferBatch",
      "type": "event"
    },
    {
      "anonymous": false,
      "inputs": [
        {
          "indexed": true,
          "internalType": "address",
          "name": "operator",
          "type": "address"
        },
        {
          "indexed": true,
          "internalType": "address",
          "name": "from",
          "type": "address"
        },
        {
          "indexed": true,
          "internalType": "address",
          "name": "to",
          "type": "address"
        },
        {
          "indexed": false,
          "internalType": "uint256",
          "name": "id",
          "type": "uint256"
        },
        {
          "indexed": false,
          "internalType": "uint256",
          "name": "value",
          "type": "uint256"
        }
      ],
      "name": "TransferSingle",
      "type": "event"
    },
    {
      "anonymous": false,
      "inputs": [
        {
          "indexed": false,
          "internalType": "string",
          "name": "value",
          "type": "string"
        },
        {
          "indexed": true,
          "internalType": "uint256",
          "name": "id",
          "type": "uint256"
        }
      ],
      "name": "URI",
      "type": "event"
    },
    {
      "anonymous": false,
      "inputs": [
        {
          "indexed": true,
          "internalType": "address",
          "name": "implementation",
          "type": "address"
        }
      ],
      "name": "Upgraded",
      "type": "event"
    },
    {
      "inputs": [],
      "name": "COORDINATOR_ROLE",
      "outputs": [
        {
          "internalType": "bytes32",
          "name": "",
          "type": "bytes32"
        }
      ],
      "stateMutability": "view",
      "type": "function"
    },
    {
      "inputs": [],
      "name": "DEFAULT_ADMIN_ROLE",
      "outputs": [
        {
          "internalType": "bytes32",
          "name": "",
          "type": "bytes32"
        }
      ],
      "stateMutability": "view",
      "type": "function"
    },
    {
      "inputs": [],
      "name": "MINTER_ROLE",
      "outputs": [
        {
          "internalType": "bytes32",
          "name": "",
          "type": "bytes32"
        }
      ],
      "stateMutability": "view",
      "type": "function"
    },
    {
      "inputs": [],
      "name": "UPGRADER_ROLE",
      "outputs": [
        {
          "internalType": "bytes32",
          "name": "",
          "type": "bytes32"
        }
      ],
      "stateMutability": "view",
      "type": "function"
    },
    {
      "inputs": [],
      "name": "URI_SETTER_ROLE",
      "outputs": [
        {
          "internalType": "bytes32",
          "name": "",
          "type": "bytes32"
        }
      ],
      "stateMutability": "view",
      "type": "function"
    },
    {
      "inputs": [
        {
          "internalType": "address",
          "name": "user",
          "type": "address"
        }
      ],
      "name": "backingBalanceOf",
      "outputs": [
        {
          "internalType": "uint256",
          "name": "",
          "type": "uint256"
        }
      ],
      "stateMutability": "view",
      "type": "function"
    },
    {
      "inputs": [
        {
          "internalType": "uint256[]",
          "name": "cardIds",
          "type": "uint256[]"
        }
      ],
      "name": "backingValueOf",
      "outputs": [
        {
          "internalType": "uint256",
          "name": "",
          "type": "uint256"
        }
      ],
      "stateMutability": "view",
      "type": "function"
    },
    {
      "inputs": [
        {
          "internalType": "address",
          "name": "account",
          "type": "address"
        },
        {
          "internalType": "uint256",
          "name": "id",
          "type": "uint256"
        }
      ],
      "name": "balanceOf",
      "outputs": [
        {
          "internalType": "uint256",
          "name": "",
          "type": "uint256"
        }
      ],
      "stateMutability": "view",
      "type": "function"
    },
    {
      "inputs": [
        {
          "internalType": "address[]",
          "name": "accounts",
          "type": "address[]"
        },
        {
          "internalType": "uint256[]",
          "name": "ids",
          "type": "uint256[]"
        }
      ],
      "name": "balanceOfBatch",
      "outputs": [
        {
          "internalType": "uint256[]",
          "name": "",
          "type": "uint256[]"
        }
      ],
      "stateMutability": "view",
      "type": "function"
    },
    {
      "inputs": [
        {
          "internalType": "address",
          "name": "account",
          "type": "address"
        },
        {
          "internalType": "uint256",
          "name": "id",
          "type": "uint256"
        },
        {
          "internalType": "uint256",
          "name": "value",
          "type": "uint256"
        }
      ],
      "name": "burn",
      "outputs": [],
      "stateMutability": "nonpayable",
      "type": "function"
    },
    {
      "inputs": [
        {
          "internalType": "address",
          "name": "owner",
          "type": "address"
        },
        {
          "internalType": "uint256[]",
          "name": "ids",
          "type": "uint256[]"
        },
        {
          "internalType": "uint256[]",
          "name": "amounts",
          "type": "uint256[]"
        }
      ],
      "name": "burnBatch",
      "outputs": [],
      "stateMutability": "nonpayable",
      "type": "function"
    },
    {
      "inputs": [
        {
          "internalType": "address",
          "name": "owner",
          "type": "address"
        },
        {
          "internalType": "uint256[]",
          "name": "ids",
          "type": "uint256[]"
        }
      ],
      "name": "burnBatch",
      "outputs": [],
      "stateMutability": "nonpayable",
      "type": "function"
    },
    {
      "inputs": [
        {
          "internalType": "bytes32",
          "name": "role",
          "type": "bytes32"
        }
      ],
      "name": "getRoleAdmin",
      "outputs": [
        {
          "internalType": "bytes32",
          "name": "",
          "type": "bytes32"
        }
      ],
      "stateMutability": "view",
      "type": "function"
    },
    {
      "inputs": [
        {
          "internalType": "bytes32",
          "name": "role",
          "type": "bytes32"
        },
        {
          "internalType": "address",
          "name": "account",
          "type": "address"
        }
      ],
      "name": "grantRole",
      "outputs": [],
      "stateMutability": "nonpayable",
      "type": "function"
    },
    {
      "inputs": [
        {
          "internalType": "bytes32",
          "name": "role",
          "type": "bytes32"
        },
        {
          "internalType": "address",
          "name": "account",
          "type": "address"
        }
      ],
      "name": "hasRole",
      "outputs": [
        {
          "internalType": "bool",
          "name": "",
          "type": "bool"
        }
      ],
      "stateMutability": "view",
      "type": "function"
    },
    {
      "inputs": [],
      "name": "initialize",
      "outputs": [],
      "stateMutability": "nonpayable",
      "type": "function"
    },
    {
      "inputs": [
        {
          "internalType": "address",
          "name": "account",
          "type": "address"
        },
        {
          "internalType": "address",
          "name": "operator",
          "type": "address"
        }
      ],
      "name": "isApprovedForAll",
      "outputs": [
        {
          "internalType": "bool",
          "name": "",
          "type": "bool"
        }
      ],
      "stateMutability": "view",
      "type": "function"
    },
    {
      "inputs": [
        {
          "internalType": "uint256",
          "name": "value",
          "type": "uint256"
        },
        {
          "internalType": "bytes",
          "name": "data",
          "type": "bytes"
        }
      ],
      "name": "mint",
      "outputs": [
        {
          "internalType": "uint256",
          "name": "",
          "type": "uint256"
        }
      ],
      "stateMutability": "nonpayable",
      "type": "function"
    },
    {
      "inputs": [
        {
          "internalType": "address",
          "name": "to",
          "type": "address"
        },
        {
          "internalType": "uint256[]",
          "name": "cardIds",
          "type": "uint256[]"
        },
        {
          "internalType": "uint256[]",
          "name": "values",
          "type": "uint256[]"
        }
      ],
      "name": "mintBatch",
      "outputs": [
        {
          "internalType": "uint256[]",
          "name": "",
          "type": "uint256[]"
        }
      ],
      "stateMutability": "nonpayable",
      "type": "function"
    },
    {
      "inputs": [
        {
          "internalType": "address",
          "name": "to",
          "type": "address"
        },
        {
          "internalType": "uint256",
          "name": "tokenAmount",
          "type": "uint256"
        }
      ],
      "name": "mintPack",
      "outputs": [
        {
          "internalType": "uint256[]",
          "name": "",
          "type": "uint256[]"
        },
        {
          "internalType": "uint256",
          "name": "",
          "type": "uint256"
        }
      ],
      "stateMutability": "nonpayable",
      "type": "function"
    },
    {
      "inputs": [
        {
          "internalType": "bytes32",
          "name": "role",
          "type": "bytes32"
        },
        {
          "internalType": "address",
          "name": "account",
          "type": "address"
        }
      ],
      "name": "renounceRole",
      "outputs": [],
      "stateMutability": "nonpayable",
      "type": "function"
    },
    {
      "inputs": [
        {
          "internalType": "bytes32",
          "name": "role",
          "type": "bytes32"
        },
        {
          "internalType": "address",
          "name": "account",
          "type": "address"
        }
      ],
      "name": "revokeRole",
      "outputs": [],
      "stateMutability": "nonpayable",
      "type": "function"
    },
    {
      "inputs": [
        {
          "internalType": "address",
          "name": "from",
          "type": "address"
        },
        {
          "internalType": "address",
          "name": "to",
          "type": "address"
        },
        {
          "internalType": "uint256[]",
          "name": "ids",
          "type": "uint256[]"
        },
        {
          "internalType": "uint256[]",
          "name": "amounts",
          "type": "uint256[]"
        },
        {
          "internalType": "bytes",
          "name": "data",
          "type": "bytes"
        }
      ],
      "name": "safeBatchTransferFrom",
      "outputs": [],
      "stateMutability": "nonpayable",
      "type": "function"
    },
    {
      "inputs": [
        {
          "internalType": "address",
          "name": "from",
          "type": "address"
        },
        {
          "internalType": "address",
          "name": "to",
          "type": "address"
        },
        {
          "internalType": "uint256",
          "name": "id",
          "type": "uint256"
        },
        {
          "internalType": "uint256",
          "name": "amount",
          "type": "uint256"
        },
        {
          "internalType": "bytes",
          "name": "data",
          "type": "bytes"
        }
      ],
      "name": "safeTransferFrom",
      "outputs": [],
      "stateMutability": "nonpayable",
      "type": "function"
    },
    {
      "inputs": [
        {
          "internalType": "address",
          "name": "operator",
          "type": "address"
        },
        {
          "internalType": "bool",
          "name": "approved",
          "type": "bool"
        }
      ],
      "name": "setApprovalForAll",
      "outputs": [],
      "stateMutability": "nonpayable",
      "type": "function"
    },
    {
      "inputs": [
        {
          "internalType": "address",
          "name": "gogBattlesCardFactory",
          "type": "address"
        }
      ],
      "name": "setGoGBattlesCardFactory",
      "outputs": [],
      "stateMutability": "nonpayable",
      "type": "function"
    },
    {
      "inputs": [
        {
          "internalType": "address",
          "name": "gogBattlesToken",
          "type": "address"
        }
      ],
      "name": "setGoGBattlesToken",
      "outputs": [],
      "stateMutability": "nonpayable",
      "type": "function"
    },
    {
      "inputs": [
        {
          "internalType": "string",
          "name": "newuri",
          "type": "string"
        }
      ],
      "name": "setURI",
      "outputs": [],
      "stateMutability": "nonpayable",
      "type": "function"
    },
    {
      "inputs": [
        {
          "internalType": "bytes4",
          "name": "interfaceId",
          "type": "bytes4"
        }
      ],
      "name": "supportsInterface",
      "outputs": [
        {
          "internalType": "bool",
          "name": "",
          "type": "bool"
        }
      ],
      "stateMutability": "view",
      "type": "function"
    },
    {
      "inputs": [
        {
          "internalType": "address",
          "name": "newImplementation",
          "type": "address"
        }
      ],
      "name": "upgradeTo",
      "outputs": [],
      "stateMutability": "nonpayable",
      "type": "function"
    },
    {
      "inputs": [
        {
          "internalType": "address",
          "name": "newImplementation",
          "type": "address"
        },
        {
          "internalType": "bytes",
          "name": "data",
          "type": "bytes"
        }
      ],
      "name": "upgradeToAndCall",
      "outputs": [],
      "stateMutability": "payable",
      "type": "function"
    },
    {
      "inputs": [
        {
          "internalType": "uint256",
          "name": "",
          "type": "uint256"
        }
      ],
      "name": "uri",
      "outputs": [
        {
          "internalType": "string",
          "name": "",
          "type": "string"
        }
      ],
      "stateMutability": "view",
      "type": "function"
    }
  ],
  "bytecode": "0x60a06040523073ffffffffffffffffffffffffffffffffffffffff1660809073ffffffffffffffffffffffffffffffffffffffff1660601b81525034801561004657600080fd5b5060805160601c616dab6200007b60003960008181610b0101528181610b9001528181610e610152610ef00152616dab6000f3fe6080604052600436106101e25760003560e01c806391d1485411610102578063d547741f11610095578063e985e9c511610064578063e985e9c514610729578063f242432a14610766578063f5298aca1461078f578063f72c0d8b146107b8576101e2565b8063d547741f14610649578063d81d0a1514610672578063d824d6b2146106af578063db7fd408146106ec576101e2565b8063a22cb465116100d1578063a22cb4651461058f578063b2dc5dc3146105b8578063d07a89bb146105e1578063d53913931461061e576101e2565b806391d14854146104c057806392a78570146104fd578063952ea94f14610526578063a217fddf14610564576101e2565b80633659cfe61161017a5780636b20c454116101495780636b20c4541461042a5780636b366cb5146104535780637f3457101461047e5780638129fc1c146104a9576101e2565b80633659cfe61461037f5780634e1273f4146103a85780634f1ef286146103e55780635226a4fa14610401576101e2565b8063248a9ca3116101b6578063248a9ca3146102c75780632eb2c2d6146103045780632f2ff15d1461032d57806336568abe14610356576101e2565b8062fdd58e146101e757806301ffc9a71461022457806302fe5305146102615780630e89341c1461028a575b600080fd5b3480156101f357600080fd5b5061020e60048036038101906102099190615225565b6107e3565b60405161021b919061600c565b60405180910390f35b34801561023057600080fd5b5061024b6004803603810190610246919061546a565b6108ad565b6040516102589190615cb4565b60405180910390f35b34801561026d57600080fd5b50610288600480360381019061028391906154bc565b6108bf565b005b34801561029657600080fd5b506102b160048036038101906102ac91906154fd565b6108fe565b6040516102be9190615cea565b60405180910390f35b3480156102d357600080fd5b506102ee60048036038101906102e99190615405565b610992565b6040516102fb9190615ccf565b60405180910390f35b34801561031057600080fd5b5061032b60048036038101906103269190614f74565b6109b2565b005b34801561033957600080fd5b50610354600480360381019061034f919061542e565b610a53565b005b34801561036257600080fd5b5061037d6004803603810190610378919061542e565b610a7c565b005b34801561038b57600080fd5b506103a660048036038101906103a19190614f0f565b610aff565b005b3480156103b457600080fd5b506103cf60048036038101906103ca91906152b0565b610cae565b6040516103dc9190615c2b565b60405180910390f35b6103ff60048036038101906103fa91906151d1565b610e5f565b005b34801561040d57600080fd5b5061042860048036038101906104239190614f0f565b610f9c565b005b34801561043657600080fd5b50610451600480360381019061044c9190615116565b610ff7565b005b34801561045f57600080fd5b5061046861103a565b6040516104759190615ccf565b60405180910390f35b34801561048a57600080fd5b5061049361105e565b6040516104a09190615ccf565b60405180910390f35b3480156104b557600080fd5b506104be611082565b005b3480156104cc57600080fd5b506104e760048036038101906104e2919061542e565b611266565b6040516104f49190615cb4565b60405180910390f35b34801561050957600080fd5b50610524600480360381019061051f9190614f0f565b6112d1565b005b34801561053257600080fd5b5061054d60048036038101906105489190615225565b61132c565b60405161055b929190615c84565b60405180910390f35b34801561057057600080fd5b506105796115ed565b6040516105869190615ccf565b60405180910390f35b34801561059b57600080fd5b506105b660048036038101906105b19190615195565b6115f4565b005b3480156105c457600080fd5b506105df60048036038101906105da91906150c2565b611775565b005b3480156105ed57600080fd5b5061060860048036038101906106039190614f0f565b61181f565b604051610615919061600c565b60405180910390f35b34801561062a57600080fd5b50610633611869565b6040516106409190615ccf565b60405180910390f35b34801561065557600080fd5b50610670600480360381019061066b919061542e565b61188d565b005b34801561067e57600080fd5b5061069960048036038101906106949190615116565b6118b6565b6040516106a69190615c2b565b60405180910390f35b3480156106bb57600080fd5b506106d660048036038101906106d1919061531c565b611ada565b6040516106e3919061600c565b60405180910390f35b3480156106f857600080fd5b50610713600480360381019061070e9190615526565b611b6a565b604051610720919061600c565b60405180910390f35b34801561073557600080fd5b50610750600480360381019061074b9190614f38565b611beb565b60405161075d9190615cb4565b60405180910390f35b34801561077257600080fd5b5061078d60048036038101906107889190615033565b611c7f565b005b34801561079b57600080fd5b506107b660048036038101906107b19190615261565b611d20565b005b3480156107c457600080fd5b506107cd611dbd565b6040516107da9190615ccf565b60405180910390f35b60008073ffffffffffffffffffffffffffffffffffffffff168373ffffffffffffffffffffffffffffffffffffffff161415610854576040517f08c379a000000000000000000000000000000000000000000000000000000000815260040161084b90615d8c565b60405180910390fd5b6065600083815260200190815260200160002060008473ffffffffffffffffffffffffffffffffffffffff1673ffffffffffffffffffffffffffffffffffffffff16815260200190815260200160002054905092915050565b60006108b882611de1565b9050919050565b7f7804d923f43a17d325d77e781528e0793b2edd9890ab45fc64efd7b4b427744c6108f1816108ec611e5b565b611e63565b6108fa82611f00565b5050565b60606067805461090d90616384565b80601f016020809104026020016040519081016040528092919081815260200182805461093990616384565b80156109865780601f1061095b57610100808354040283529160200191610986565b820191906000526020600020905b81548152906001019060200180831161096957829003601f168201915b50505050509050919050565b600060976000838152602001908152602001600020600101549050919050565b6109ba611e5b565b73ffffffffffffffffffffffffffffffffffffffff168573ffffffffffffffffffffffffffffffffffffffff161480610a0057506109ff856109fa611e5b565b611beb565b5b610a3f576040517f08c379a0000000000000000000000000000000000000000000000000000000008152600401610a3690615e6c565b60405180910390fd5b610a4c8585858585611f1a565b5050505050565b610a5c82610992565b610a6d81610a68611e5b565b611e63565b610a77838361227d565b505050565b610a84611e5b565b73ffffffffffffffffffffffffffffffffffffffff168173ffffffffffffffffffffffffffffffffffffffff1614610af1576040517f08c379a0000000000000000000000000000000000000000000000000000000008152600401610ae890615fec565b60405180910390fd5b610afb828261235e565b5050565b7f000000000000000000000000000000000000000000000000000000000000000073ffffffffffffffffffffffffffffffffffffffff163073ffffffffffffffffffffffffffffffffffffffff161415610b8e576040517f08c379a0000000000000000000000000000000000000000000000000000000008152600401610b8590615dec565b60405180910390fd5b7f000000000000000000000000000000000000000000000000000000000000000073ffffffffffffffffffffffffffffffffffffffff16610bcd612440565b73ffffffffffffffffffffffffffffffffffffffff1614610c23576040517f08c379a0000000000000000000000000000000000000000000000000000000008152600401610c1a90615e2c565b60405180910390fd5b610c2c81612497565b610cab81600067ffffffffffffffff811115610c71577f4e487b7100000000000000000000000000000000000000000000000000000000600052604160045260246000fd5b6040519080825280601f01601f191660200182016040528015610ca35781602001600182028036833780820191505090505b5060006124cd565b50565b60608151835114610cf4576040517f08c379a0000000000000000000000000000000000000000000000000000000008152600401610ceb90615f8c565b60405180910390fd5b6000835167ffffffffffffffff811115610d37577f4e487b7100000000000000000000000000000000000000000000000000000000600052604160045260246000fd5b604051908082528060200260200182016040528015610d655781602001602082028036833780820191505090505b50905060005b8451811015610e5457610dfe858281518110610db0577f4e487b7100000000000000000000000000000000000000000000000000000000600052603260045260246000fd5b6020026020010151858381518110610df1577f4e487b7100000000000000000000000000000000000000000000000000000000600052603260045260246000fd5b60200260200101516107e3565b828281518110610e37577f4e487b7100000000000000000000000000000000000000000000000000000000600052603260045260246000fd5b60200260200101818152505080610e4d906163e7565b9050610d6b565b508091505092915050565b7f000000000000000000000000000000000000000000000000000000000000000073ffffffffffffffffffffffffffffffffffffffff163073ffffffffffffffffffffffffffffffffffffffff161415610eee576040517f08c379a0000000000000000000000000000000000000000000000000000000008152600401610ee590615dec565b60405180910390fd5b7f000000000000000000000000000000000000000000000000000000000000000073ffffffffffffffffffffffffffffffffffffffff16610f2d612440565b73ffffffffffffffffffffffffffffffffffffffff1614610f83576040517f08c379a0000000000000000000000000000000000000000000000000000000008152600401610f7a90615e2c565b60405180910390fd5b610f8c82612497565b610f98828260016124cd565b5050565b6000801b610fb181610fac611e5b565b611e63565b8161016060006101000a81548173ffffffffffffffffffffffffffffffffffffffff021916908373ffffffffffffffffffffffffffffffffffffffff1602179055505050565b7f2e8b98eef02e8df3bd27d1270ded3bea3d14db99c5234c7b14001a7fff957bcc61102981611024611e5b565b611e63565b61103484848461269e565b50505050565b7f2e8b98eef02e8df3bd27d1270ded3bea3d14db99c5234c7b14001a7fff957bcc81565b7f7804d923f43a17d325d77e781528e0793b2edd9890ab45fc64efd7b4b427744c81565b600060019054906101000a900460ff16806110a8575060008054906101000a900460ff16155b6110e7576040517f08c379a00000000000000000000000000000000000000000000000000000000081526004016110de90615e8c565b60405180910390fd5b60008060019054906101000a900460ff161590508015611137576001600060016101000a81548160ff02191690831515021790555060016000806101000a81548160ff0219169083151502179055505b6111756040518060400160405280601f81526020017f68747470733a2f2f6775696c64736f66676f64732e636f6d2f63617264732f0081525061273b565b61117d61282e565b61118561291f565b61118d612a10565b61119a6000801b33612af9565b6111c47f7804d923f43a17d325d77e781528e0793b2edd9890ab45fc64efd7b4b427744c33612af9565b6111ee7f9f2df0fed2c77648de5860a4cc508cd0818c85b8b8a1ab4ceeef8d981c8956a633612af9565b6112187f189ab7a9244df0848122154315af71fe140f3db0fe014031783b0946b8c9d2e333612af9565b6112427f2e8b98eef02e8df3bd27d1270ded3bea3d14db99c5234c7b14001a7fff957bcc33612af9565b80156112635760008060016101000a81548160ff0219169083151502179055505b50565b60006097600084815260200190815260200160002060000160008373ffffffffffffffffffffffffffffffffffffffff1673ffffffffffffffffffffffffffffffffffffffff16815260200190815260200160002060009054906101000a900460ff16905092915050565b6000801b6112e6816112e1611e5b565b611e63565b8161015f60006101000a81548173ffffffffffffffffffffffffffffffffffffffff021916908373ffffffffffffffffffffffffffffffffffffffff1602179055505050565b606060007f9f2df0fed2c77648de5860a4cc508cd0818c85b8b8a1ab4ceeef8d981c8956a66113628161135d611e5b565b611e63565b61015f60009054906101000a900473ffffffffffffffffffffffffffffffffffffffff1673ffffffffffffffffffffffffffffffffffffffff166323b872dd3330876040518463ffffffff1660e01b81526004016113c293929190615b71565b602060405180830381600087803b1580156113dc57600080fd5b505af11580156113f0573d6000803e3d6000fd5b505050506040513d601f19601f8201168201806040525081019061141491906153dc565b611453576040517f08c379a000000000000000000000000000000000000000000000000000000000815260040161144a90615f4c565b60405180910390fd5b600080600061016060009054906101000a900473ffffffffffffffffffffffffffffffffffffffff1673ffffffffffffffffffffffffffffffffffffffff166317bdbb6f886040518263ffffffff1660e01b81526004016114b4919061600c565b600060405180830381600087803b1580156114ce57600080fd5b505af11580156114e2573d6000803e3d6000fd5b505050506040513d6000823e3d601f19601f8201168201806040525081019061150b919061535d565b925092509250600061151e8985856118b6565b905060008211156115db5761015f60009054906101000a900473ffffffffffffffffffffffffffffffffffffffff1673ffffffffffffffffffffffffffffffffffffffff1663095ea7b333846040518363ffffffff1660e01b8152600401611587929190615c02565b602060405180830381600087803b1580156115a157600080fd5b505af11580156115b5573d6000803e3d6000fd5b505050506040513d601f19601f820116820180604052508101906115d991906153dc565b505b80829650965050505050509250929050565b6000801b81565b8173ffffffffffffffffffffffffffffffffffffffff16611613611e5b565b73ffffffffffffffffffffffffffffffffffffffff16141561166a576040517f08c379a000000000000000000000000000000000000000000000000000000000815260040161166190615f6c565b60405180910390fd5b8060666000611677611e5b565b73ffffffffffffffffffffffffffffffffffffffff1673ffffffffffffffffffffffffffffffffffffffff16815260200190815260200160002060008473ffffffffffffffffffffffffffffffffffffffff1673ffffffffffffffffffffffffffffffffffffffff16815260200190815260200160002060006101000a81548160ff0219169083151502179055508173ffffffffffffffffffffffffffffffffffffffff16611724611e5b565b73ffffffffffffffffffffffffffffffffffffffff167f17307eab39ab6107e8899845ad3d59bd9653f200f220920489ca2b5937696c31836040516117699190615cb4565b60405180910390a35050565b7f2e8b98eef02e8df3bd27d1270ded3bea3d14db99c5234c7b14001a7fff957bcc6117a7816117a2611e5b565b611e63565b606060005b835181101561180d5760018282815181106117f0577f4e487b7100000000000000000000000000000000000000000000000000000000600052603260045260246000fd5b60200260200101818152505080611806906163e7565b90506117ac565b5061181984848361269e565b50505050565b600061016360008373ffffffffffffffffffffffffffffffffffffffff1673ffffffffffffffffffffffffffffffffffffffff168152602001908152602001600020549050919050565b7f9f2df0fed2c77648de5860a4cc508cd0818c85b8b8a1ab4ceeef8d981c8956a681565b61189682610992565b6118a7816118a2611e5b565b611e63565b6118b1838361235e565b505050565b60607f9f2df0fed2c77648de5860a4cc508cd0818c85b8b8a1ab4ceeef8d981c8956a66118ea816118e5611e5b565b611e63565b825184511461192e576040517f08c379a000000000000000000000000000000000000000000000000000000000815260040161192590615eac565b60405180910390fd5b60608060005b8151811015611a8b576101646000815480929190611951906163e7565b9190505583828151811061198e577f4e487b7100000000000000000000000000000000000000000000000000000000600052603260045260246000fd5b6020026020010181815250508581815181106119d3577f4e487b7100000000000000000000000000000000000000000000000000000000600052603260045260246000fd5b60200260200101516101616000858481518110611a19577f4e487b7100000000000000000000000000000000000000000000000000000000600052603260045260246000fd5b60200260200101518152602001908152602001600020819055506001828281518110611a6e577f4e487b7100000000000000000000000000000000000000000000000000000000600052603260045260246000fd5b60200260200101818152505080611a84906163e7565b9050611934565b50611acd8783836040518060400160405280600381526020017f3078300000000000000000000000000000000000000000000000000000000000815250612b07565b8193505050509392505050565b6000806000905060005b8351811015611b60576101616000858381518110611b2b577f4e487b7100000000000000000000000000000000000000000000000000000000600052603260045260246000fd5b602002602001015181526020019081526020016000205482611b4d91906161b6565b915080611b59906163e7565b9050611ae4565b5080915050919050565b60007f9f2df0fed2c77648de5860a4cc508cd0818c85b8b8a1ab4ceeef8d981c8956a6611b9e81611b99611e5b565b611e63565b60006101646000815480929190611bb4906163e7565b91905055905084610161600083815260200190815260200160002081905550611be03382600187612d72565b809250505092915050565b6000606660008473ffffffffffffffffffffffffffffffffffffffff1673ffffffffffffffffffffffffffffffffffffffff16815260200190815260200160002060008373ffffffffffffffffffffffffffffffffffffffff1673ffffffffffffffffffffffffffffffffffffffff16815260200190815260200160002060009054906101000a900460ff16905092915050565b611c87611e5b565b73ffffffffffffffffffffffffffffffffffffffff168573ffffffffffffffffffffffffffffffffffffffff161480611ccd5750611ccc85611cc7611e5b565b611beb565b5b611d0c576040517f08c379a0000000000000000000000000000000000000000000000000000000008152600401611d0390615e0c565b60405180910390fd5b611d198585858585612f09565b5050505050565b611d28611e5b565b73ffffffffffffffffffffffffffffffffffffffff168373ffffffffffffffffffffffffffffffffffffffff161480611d6e5750611d6d83611d68611e5b565b611beb565b5b611dad576040517f08c379a0000000000000000000000000000000000000000000000000000000008152600401611da490615e0c565b60405180910390fd5b611db883838361318e565b505050565b7f189ab7a9244df0848122154315af71fe140f3db0fe014031783b0946b8c9d2e381565b60007f7965db0b000000000000000000000000000000000000000000000000000000007bffffffffffffffffffffffffffffffffffffffffffffffffffffffff1916827bffffffffffffffffffffffffffffffffffffffffffffffffffffffff19161480611e545750611e53826133ad565b5b9050919050565b600033905090565b611e6d8282611266565b611efc57611e928173ffffffffffffffffffffffffffffffffffffffff16601461348f565b611ea08360001c602061348f565b604051602001611eb1929190615ab4565b6040516020818303038152906040526040517f08c379a0000000000000000000000000000000000000000000000000000000008152600401611ef39190615cea565b60405180910390fd5b5050565b8060679080519060200190611f16929190614b32565b5050565b8151835114611f5e576040517f08c379a0000000000000000000000000000000000000000000000000000000008152600401611f5590615fac565b60405180910390fd5b600073ffffffffffffffffffffffffffffffffffffffff168473ffffffffffffffffffffffffffffffffffffffff161415611fce576040517f08c379a0000000000000000000000000000000000000000000000000000000008152600401611fc590615e4c565b60405180910390fd5b6000611fd8611e5b565b9050611fe8818787878787613789565b60005b84518110156121e857600085828151811061202f577f4e487b7100000000000000000000000000000000000000000000000000000000600052603260045260246000fd5b602002602001015190506000858381518110612074577f4e487b7100000000000000000000000000000000000000000000000000000000600052603260045260246000fd5b6020026020010151905060006065600084815260200190815260200160002060008b73ffffffffffffffffffffffffffffffffffffffff1673ffffffffffffffffffffffffffffffffffffffff16815260200190815260200160002054905081811015612116576040517f08c379a000000000000000000000000000000000000000000000000000000000815260040161210d90615eec565b60405180910390fd5b8181036065600085815260200190815260200160002060008c73ffffffffffffffffffffffffffffffffffffffff1673ffffffffffffffffffffffffffffffffffffffff16815260200190815260200160002081905550816065600085815260200190815260200160002060008b73ffffffffffffffffffffffffffffffffffffffff1673ffffffffffffffffffffffffffffffffffffffff16815260200190815260200160002060008282546121cd91906161b6565b92505081905550505050806121e1906163e7565b9050611feb565b508473ffffffffffffffffffffffffffffffffffffffff168673ffffffffffffffffffffffffffffffffffffffff168273ffffffffffffffffffffffffffffffffffffffff167f4a39dc06d4c0dbc64b70af90fd698a233a518aa5d07e595d983b8c0526c8f7fb878760405161225f929190615c4d565b60405180910390a4612275818787878787613ac2565b505050505050565b6122878282611266565b61235a5760016097600084815260200190815260200160002060000160008373ffffffffffffffffffffffffffffffffffffffff1673ffffffffffffffffffffffffffffffffffffffff16815260200190815260200160002060006101000a81548160ff0219169083151502179055506122ff611e5b565b73ffffffffffffffffffffffffffffffffffffffff168173ffffffffffffffffffffffffffffffffffffffff16837f2f8788117e7eff1d82e926ec794901d17c78024a50270940304540a733656f0d60405160405180910390a45b5050565b6123688282611266565b1561243c5760006097600084815260200190815260200160002060000160008373ffffffffffffffffffffffffffffffffffffffff1673ffffffffffffffffffffffffffffffffffffffff16815260200190815260200160002060006101000a81548160ff0219169083151502179055506123e1611e5b565b73ffffffffffffffffffffffffffffffffffffffff168173ffffffffffffffffffffffffffffffffffffffff16837ff6391f5c32d9c69d2a47ea670b442974b53935d1edc7fd64eb21e047a839171b60405160405180910390a45b5050565b600061246e7f360894a13ba1a3210667c828492db98dca3e2076cc3735a920a3ca505d382bbc60001b613ca9565b60000160009054906101000a900473ffffffffffffffffffffffffffffffffffffffff16905090565b7f189ab7a9244df0848122154315af71fe140f3db0fe014031783b0946b8c9d2e36124c9816124c4611e5b565b611e63565b5050565b60006124d7612440565b90506124e284613cb3565b6000835111806124ef5750815b15612500576124fe8484613d6c565b505b600061252e7f4910fdfa16fed3260ed0e7147f7cc6da11a60208b5b9406d12a635614ffd914360001b613e50565b90508060000160009054906101000a900460ff166126975760018160000160006101000a81548160ff0219169083151502179055506125fa85836040516024016125789190615aee565b6040516020818303038152906040527f3659cfe6000000000000000000000000000000000000000000000000000000007bffffffffffffffffffffffffffffffffffffffffffffffffffffffff19166020820180517bffffffffffffffffffffffffffffffffffffffffffffffffffffffff8381831617835250505050613d6c565b5060008160000160006101000a81548160ff021916908315150217905550612620612440565b73ffffffffffffffffffffffffffffffffffffffff168273ffffffffffffffffffffffffffffffffffffffff161461268d576040517f08c379a000000000000000000000000000000000000000000000000000000000815260040161268490615dac565b60405180910390fd5b61269685613e5a565b5b5050505050565b6126a6611e5b565b73ffffffffffffffffffffffffffffffffffffffff168373ffffffffffffffffffffffffffffffffffffffff1614806126ec57506126eb836126e6611e5b565b611beb565b5b61272b576040517f08c379a000000000000000000000000000000000000000000000000000000000815260040161272290615e0c565b60405180910390fd5b612736838383613ea9565b505050565b600060019054906101000a900460ff1680612761575060008054906101000a900460ff16155b6127a0576040517f08c379a000000000000000000000000000000000000000000000000000000000815260040161279790615e8c565b60405180910390fd5b60008060019054906101000a900460ff1615905080156127f0576001600060016101000a81548160ff02191690831515021790555060016000806101000a81548160ff0219169083151502179055505b6127f86141a8565b612800614281565b6128098261435a565b801561282a5760008060016101000a81548160ff0219169083151502179055505b5050565b600060019054906101000a900460ff1680612854575060008054906101000a900460ff16155b612893576040517f08c379a000000000000000000000000000000000000000000000000000000000815260040161288a90615e8c565b60405180910390fd5b60008060019054906101000a900460ff1615905080156128e3576001600060016101000a81548160ff02191690831515021790555060016000806101000a81548160ff0219169083151502179055505b6128eb6141a8565b6128f3614281565b6128fb61443d565b801561291c5760008060016101000a81548160ff0219169083151502179055505b50565b600060019054906101000a900460ff1680612945575060008054906101000a900460ff16155b612984576040517f08c379a000000000000000000000000000000000000000000000000000000000815260040161297b90615e8c565b60405180910390fd5b60008060019054906101000a900460ff1615905080156129d4576001600060016101000a81548160ff02191690831515021790555060016000806101000a81548160ff0219169083151502179055505b6129dc6141a8565b6129e4614281565b6129ec614516565b8015612a0d5760008060016101000a81548160ff0219169083151502179055505b50565b600060019054906101000a900460ff1680612a36575060008054906101000a900460ff16155b612a75576040517f08c379a0000000000000000000000000000000000000000000000000000000008152600401612a6c90615e8c565b60405180910390fd5b60008060019054906101000a900460ff161590508015612ac5576001600060016101000a81548160ff02191690831515021790555060016000806101000a81548160ff0219169083151502179055505b612acd6145ef565b612ad56146c8565b8015612af65760008060016101000a81548160ff0219169083151502179055505b50565b612b03828261227d565b5050565b600073ffffffffffffffffffffffffffffffffffffffff168473ffffffffffffffffffffffffffffffffffffffff161415612b77576040517f08c379a0000000000000000000000000000000000000000000000000000000008152600401612b6e90615fcc565b60405180910390fd5b8151835114612bbb576040517f08c379a0000000000000000000000000000000000000000000000000000000008152600401612bb290615fac565b60405180910390fd5b6000612bc5611e5b565b9050612bd681600087878787613789565b60005b8451811015612cdc57838181518110612c1b577f4e487b7100000000000000000000000000000000000000000000000000000000600052603260045260246000fd5b602002602001015160656000878481518110612c60577f4e487b7100000000000000000000000000000000000000000000000000000000600052603260045260246000fd5b6020026020010151815260200190815260200160002060008873ffffffffffffffffffffffffffffffffffffffff1673ffffffffffffffffffffffffffffffffffffffff1681526020019081526020016000206000828254612cc291906161b6565b925050819055508080612cd4906163e7565b915050612bd9565b508473ffffffffffffffffffffffffffffffffffffffff16600073ffffffffffffffffffffffffffffffffffffffff168273ffffffffffffffffffffffffffffffffffffffff167f4a39dc06d4c0dbc64b70af90fd698a233a518aa5d07e595d983b8c0526c8f7fb8787604051612d54929190615c4d565b60405180910390a4612d6b81600087878787613ac2565b5050505050565b600073ffffffffffffffffffffffffffffffffffffffff168473ffffffffffffffffffffffffffffffffffffffff161415612de2576040517f08c379a0000000000000000000000000000000000000000000000000000000008152600401612dd990615fcc565b60405180910390fd5b6000612dec611e5b565b9050612e0d81600087612dfe886147a1565b612e07886147a1565b87613789565b826065600086815260200190815260200160002060008773ffffffffffffffffffffffffffffffffffffffff1673ffffffffffffffffffffffffffffffffffffffff1681526020019081526020016000206000828254612e6d91906161b6565b925050819055508473ffffffffffffffffffffffffffffffffffffffff16600073ffffffffffffffffffffffffffffffffffffffff168273ffffffffffffffffffffffffffffffffffffffff167fc3d58168c5ae7397731d063d5bbf3d657854427343f4c083240f7aacaa2d0f628787604051612eeb929190616027565b60405180910390a4612f0281600087878787614867565b5050505050565b600073ffffffffffffffffffffffffffffffffffffffff168473ffffffffffffffffffffffffffffffffffffffff161415612f79576040517f08c379a0000000000000000000000000000000000000000000000000000000008152600401612f7090615e4c565b60405180910390fd5b6000612f83611e5b565b9050612fa3818787612f94886147a1565b612f9d886147a1565b87613789565b60006065600086815260200190815260200160002060008873ffffffffffffffffffffffffffffffffffffffff1673ffffffffffffffffffffffffffffffffffffffff1681526020019081526020016000205490508381101561303b576040517f08c379a000000000000000000000000000000000000000000000000000000000815260040161303290615eec565b60405180910390fd5b8381036065600087815260200190815260200160002060008973ffffffffffffffffffffffffffffffffffffffff1673ffffffffffffffffffffffffffffffffffffffff16815260200190815260200160002081905550836065600087815260200190815260200160002060008873ffffffffffffffffffffffffffffffffffffffff1673ffffffffffffffffffffffffffffffffffffffff16815260200190815260200160002060008282546130f291906161b6565b925050819055508573ffffffffffffffffffffffffffffffffffffffff168773ffffffffffffffffffffffffffffffffffffffff168373ffffffffffffffffffffffffffffffffffffffff167fc3d58168c5ae7397731d063d5bbf3d657854427343f4c083240f7aacaa2d0f62888860405161316f929190616027565b60405180910390a4613185828888888888614867565b50505050505050565b600073ffffffffffffffffffffffffffffffffffffffff168373ffffffffffffffffffffffffffffffffffffffff1614156131fe576040517f08c379a00000000000000000000000000000000000000000000000000000000081526004016131f590615ecc565b60405180910390fd5b6000613208611e5b565b90506132388185600061321a876147a1565b613223876147a1565b60405180602001604052806000815250613789565b60006065600085815260200190815260200160002060008673ffffffffffffffffffffffffffffffffffffffff1673ffffffffffffffffffffffffffffffffffffffff168152602001908152602001600020549050828110156132d0576040517f08c379a00000000000000000000000000000000000000000000000000000000081526004016132c790615dcc565b60405180910390fd5b8281036065600086815260200190815260200160002060008773ffffffffffffffffffffffffffffffffffffffff1673ffffffffffffffffffffffffffffffffffffffff16815260200190815260200160002081905550600073ffffffffffffffffffffffffffffffffffffffff168573ffffffffffffffffffffffffffffffffffffffff168373ffffffffffffffffffffffffffffffffffffffff167fc3d58168c5ae7397731d063d5bbf3d657854427343f4c083240f7aacaa2d0f62878760405161339e929190616027565b60405180910390a45050505050565b60007fd9b67a26000000000000000000000000000000000000000000000000000000007bffffffffffffffffffffffffffffffffffffffffffffffffffffffff1916827bffffffffffffffffffffffffffffffffffffffffffffffffffffffff1916148061347857507f0e89341c000000000000000000000000000000000000000000000000000000007bffffffffffffffffffffffffffffffffffffffffffffffffffffffff1916827bffffffffffffffffffffffffffffffffffffffffffffffffffffffff1916145b80613488575061348782614a4e565b5b9050919050565b6060600060028360026134a2919061620c565b6134ac91906161b6565b67ffffffffffffffff8111156134eb577f4e487b7100000000000000000000000000000000000000000000000000000000600052604160045260246000fd5b6040519080825280601f01601f19166020018201604052801561351d5781602001600182028036833780820191505090505b5090507f30000000000000000000000000000000000000000000000000000000000000008160008151811061357b577f4e487b7100000000000000000000000000000000000000000000000000000000600052603260045260246000fd5b60200101907effffffffffffffffffffffffffffffffffffffffffffffffffffffffffffff1916908160001a9053507f780000000000000000000000000000000000000000000000000000000000000081600181518110613605577f4e487b7100000000000000000000000000000000000000000000000000000000600052603260045260246000fd5b60200101907effffffffffffffffffffffffffffffffffffffffffffffffffffffffffffff1916908160001a90535060006001846002613645919061620c565b61364f91906161b6565b90505b600181111561373b577f3031323334353637383961626364656600000000000000000000000000000000600f8616601081106136b7577f4e487b7100000000000000000000000000000000000000000000000000000000600052603260045260246000fd5b1a60f81b8282815181106136f4577f4e487b7100000000000000000000000000000000000000000000000000000000600052603260045260246000fd5b60200101907effffffffffffffffffffffffffffffffffffffffffffffffffffffffffffff1916908160001a905350600485901c9450806137349061635a565b9050613652565b506000841461377f576040517f08c379a000000000000000000000000000000000000000000000000000000000815260040161377690615d2c565b60405180910390fd5b8091505092915050565b600073ffffffffffffffffffffffffffffffffffffffff168573ffffffffffffffffffffffffffffffffffffffff1614156138365760005b835181101561383457426101626000868481518110613809577f4e487b7100000000000000000000000000000000000000000000000000000000600052603260045260246000fd5b60200260200101518152602001908152602001600020819055508061382d906163e7565b90506137c1565b505b600073ffffffffffffffffffffffffffffffffffffffff168473ffffffffffffffffffffffffffffffffffffffff1614156139205760005b835181101561391e574261016260008684815181106138b6577f4e487b7100000000000000000000000000000000000000000000000000000000600052603260045260246000fd5b60200260200101518152602001908152602001600020541061390d576040517f08c379a000000000000000000000000000000000000000000000000000000000815260040161390490615d6c565b60405180910390fd5b80613917906163e7565b905061386e565b505b6000805b84518110156139a057610161600086838151811061396b577f4e487b7100000000000000000000000000000000000000000000000000000000600052603260045260246000fd5b60200260200101518152602001908152602001600020548261398d91906161b6565b915080613999906163e7565b9050613924565b50600073ffffffffffffffffffffffffffffffffffffffff168673ffffffffffffffffffffffffffffffffffffffff1614613a2d578061016360008873ffffffffffffffffffffffffffffffffffffffff1673ffffffffffffffffffffffffffffffffffffffff1681526020019081526020016000206000828254613a259190616266565b925050819055505b600073ffffffffffffffffffffffffffffffffffffffff168573ffffffffffffffffffffffffffffffffffffffff1614613ab9578061016360008773ffffffffffffffffffffffffffffffffffffffff1673ffffffffffffffffffffffffffffffffffffffff1681526020019081526020016000206000828254613ab191906161b6565b925050819055505b50505050505050565b613ae18473ffffffffffffffffffffffffffffffffffffffff16614ab8565b15613ca1578373ffffffffffffffffffffffffffffffffffffffff1663bc197c8187878686866040518663ffffffff1660e01b8152600401613b27959493929190615b09565b602060405180830381600087803b158015613b4157600080fd5b505af1925050508015613b7257506040513d601f19601f82011682018060405250810190613b6f9190615493565b60015b613c1857613b7e6164bd565b806308c379a01415613bdb5750613b93616c45565b80613b9e5750613bdd565b806040517f08c379a0000000000000000000000000000000000000000000000000000000008152600401613bd29190615cea565b60405180910390fd5b505b6040517f08c379a0000000000000000000000000000000000000000000000000000000008152600401613c0f90615d0c565b60405180910390fd5b63bc197c8160e01b7bffffffffffffffffffffffffffffffffffffffffffffffffffffffff1916817bffffffffffffffffffffffffffffffffffffffffffffffffffffffff191614613c9f576040517f08c379a0000000000000000000000000000000000000000000000000000000008152600401613c9690615d4c565b60405180910390fd5b505b505050505050565b6000819050919050565b613cbc81614ab8565b613cfb576040517f08c379a0000000000000000000000000000000000000000000000000000000008152600401613cf290615f0c565b60405180910390fd5b80613d287f360894a13ba1a3210667c828492db98dca3e2076cc3735a920a3ca505d382bbc60001b613ca9565b60000160006101000a81548173ffffffffffffffffffffffffffffffffffffffff021916908373ffffffffffffffffffffffffffffffffffffffff16021790555050565b6060613d7783614ab8565b613db6576040517f08c379a0000000000000000000000000000000000000000000000000000000008152600401613dad90615f2c565b60405180910390fd5b6000808473ffffffffffffffffffffffffffffffffffffffff1684604051613dde9190615a9d565b600060405180830381855af49150503d8060008114613e19576040519150601f19603f3d011682016040523d82523d6000602084013e613e1e565b606091505b5091509150613e468282604051806060016040528060278152602001616d4f60279139614acb565b9250505092915050565b6000819050919050565b613e6381613cb3565b8073ffffffffffffffffffffffffffffffffffffffff167fbc7cd75a20ee27fd9adebab32041f755214dbc6bffa90cc0225b39da2e5c2d3b60405160405180910390a250565b600073ffffffffffffffffffffffffffffffffffffffff168373ffffffffffffffffffffffffffffffffffffffff161415613f19576040517f08c379a0000000000000000000000000000000000000000000000000000000008152600401613f1090615ecc565b60405180910390fd5b8051825114613f5d576040517f08c379a0000000000000000000000000000000000000000000000000000000008152600401613f5490615fac565b60405180910390fd5b6000613f67611e5b565b9050613f8781856000868660405180602001604052806000815250613789565b60005b8351811015614122576000848281518110613fce577f4e487b7100000000000000000000000000000000000000000000000000000000600052603260045260246000fd5b602002602001015190506000848381518110614013577f4e487b7100000000000000000000000000000000000000000000000000000000600052603260045260246000fd5b6020026020010151905060006065600084815260200190815260200160002060008973ffffffffffffffffffffffffffffffffffffffff1673ffffffffffffffffffffffffffffffffffffffff168152602001908152602001600020549050818110156140b5576040517f08c379a00000000000000000000000000000000000000000000000000000000081526004016140ac90615dcc565b60405180910390fd5b8181036065600085815260200190815260200160002060008a73ffffffffffffffffffffffffffffffffffffffff1673ffffffffffffffffffffffffffffffffffffffff16815260200190815260200160002081905550505050808061411a906163e7565b915050613f8a565b50600073ffffffffffffffffffffffffffffffffffffffff168473ffffffffffffffffffffffffffffffffffffffff168273ffffffffffffffffffffffffffffffffffffffff167f4a39dc06d4c0dbc64b70af90fd698a233a518aa5d07e595d983b8c0526c8f7fb868660405161419a929190615c4d565b60405180910390a450505050565b600060019054906101000a900460ff16806141ce575060008054906101000a900460ff16155b61420d576040517f08c379a000000000000000000000000000000000000000000000000000000000815260040161420490615e8c565b60405180910390fd5b60008060019054906101000a900460ff16159050801561425d576001600060016101000a81548160ff02191690831515021790555060016000806101000a81548160ff0219169083151502179055505b801561427e5760008060016101000a81548160ff0219169083151502179055505b50565b600060019054906101000a900460ff16806142a7575060008054906101000a900460ff16155b6142e6576040517f08c379a00000000000000000000000000000000000000000000000000000000081526004016142dd90615e8c565b60405180910390fd5b60008060019054906101000a900460ff161590508015614336576001600060016101000a81548160ff02191690831515021790555060016000806101000a81548160ff0219169083151502179055505b80156143575760008060016101000a81548160ff0219169083151502179055505b50565b600060019054906101000a900460ff1680614380575060008054906101000a900460ff16155b6143bf576040517f08c379a00000000000000000000000000000000000000000000000000000000081526004016143b690615e8c565b60405180910390fd5b60008060019054906101000a900460ff16159050801561440f576001600060016101000a81548160ff02191690831515021790555060016000806101000a81548160ff0219169083151502179055505b61441882611f00565b80156144395760008060016101000a81548160ff0219169083151502179055505b5050565b600060019054906101000a900460ff1680614463575060008054906101000a900460ff16155b6144a2576040517f08c379a000000000000000000000000000000000000000000000000000000000815260040161449990615e8c565b60405180910390fd5b60008060019054906101000a900460ff1615905080156144f2576001600060016101000a81548160ff02191690831515021790555060016000806101000a81548160ff0219169083151502179055505b80156145135760008060016101000a81548160ff0219169083151502179055505b50565b600060019054906101000a900460ff168061453c575060008054906101000a900460ff16155b61457b576040517f08c379a000000000000000000000000000000000000000000000000000000000815260040161457290615e8c565b60405180910390fd5b60008060019054906101000a900460ff1615905080156145cb576001600060016101000a81548160ff02191690831515021790555060016000806101000a81548160ff0219169083151502179055505b80156145ec5760008060016101000a81548160ff0219169083151502179055505b50565b600060019054906101000a900460ff1680614615575060008054906101000a900460ff16155b614654576040517f08c379a000000000000000000000000000000000000000000000000000000000815260040161464b90615e8c565b60405180910390fd5b60008060019054906101000a900460ff1615905080156146a4576001600060016101000a81548160ff02191690831515021790555060016000806101000a81548160ff0219169083151502179055505b80156146c55760008060016101000a81548160ff0219169083151502179055505b50565b600060019054906101000a900460ff16806146ee575060008054906101000a900460ff16155b61472d576040517f08c379a000000000000000000000000000000000000000000000000000000000815260040161472490615e8c565b60405180910390fd5b60008060019054906101000a900460ff16159050801561477d576001600060016101000a81548160ff02191690831515021790555060016000806101000a81548160ff0219169083151502179055505b801561479e5760008060016101000a81548160ff0219169083151502179055505b50565b60606000600167ffffffffffffffff8111156147e6577f4e487b7100000000000000000000000000000000000000000000000000000000600052604160045260246000fd5b6040519080825280602002602001820160405280156148145781602001602082028036833780820191505090505b5090508281600081518110614852577f4e487b7100000000000000000000000000000000000000000000000000000000600052603260045260246000fd5b60200260200101818152505080915050919050565b6148868473ffffffffffffffffffffffffffffffffffffffff16614ab8565b15614a46578373ffffffffffffffffffffffffffffffffffffffff1663f23a6e6187878686866040518663ffffffff1660e01b81526004016148cc959493929190615ba8565b602060405180830381600087803b1580156148e657600080fd5b505af192505050801561491757506040513d601f19601f820116820180604052508101906149149190615493565b60015b6149bd576149236164bd565b806308c379a014156149805750614938616c45565b806149435750614982565b806040517f08c379a00000000000000000000000000000000000000000000000000000000081526004016149779190615cea565b60405180910390fd5b505b6040517f08c379a00000000000000000000000000000000000000000000000000000000081526004016149b490615d0c565b60405180910390fd5b63f23a6e6160e01b7bffffffffffffffffffffffffffffffffffffffffffffffffffffffff1916817bffffffffffffffffffffffffffffffffffffffffffffffffffffffff191614614a44576040517f08c379a0000000000000000000000000000000000000000000000000000000008152600401614a3b90615d4c565b60405180910390fd5b505b505050505050565b60007f01ffc9a7000000000000000000000000000000000000000000000000000000007bffffffffffffffffffffffffffffffffffffffffffffffffffffffff1916827bffffffffffffffffffffffffffffffffffffffffffffffffffffffff1916149050919050565b600080823b905060008111915050919050565b60608315614adb57829050614b2b565b600083511115614aee5782518084602001fd5b816040517f08c379a0000000000000000000000000000000000000000000000000000000008152600401614b229190615cea565b60405180910390fd5b9392505050565b828054614b3e90616384565b90600052602060002090601f016020900481019282614b605760008555614ba7565b82601f10614b7957805160ff1916838001178555614ba7565b82800160010185558215614ba7579182015b82811115614ba6578251825591602001919060010190614b8b565b5b509050614bb49190614bb8565b5090565b5b80821115614bd1576000816000905550600101614bb9565b5090565b6000614be8614be384616075565b616050565b90508083825260208201905082856020860282011115614c0757600080fd5b60005b85811015614c375781614c1d8882614d95565b845260208401935060208301925050600181019050614c0a565b5050509392505050565b6000614c54614c4f846160a1565b616050565b90508083825260208201905082856020860282011115614c7357600080fd5b60005b85811015614ca35781614c898882614ee5565b845260208401935060208301925050600181019050614c76565b5050509392505050565b6000614cc0614cbb846160a1565b616050565b90508083825260208201905082856020860282011115614cdf57600080fd5b60005b85811015614d0f5781614cf58882614efa565b845260208401935060208301925050600181019050614ce2565b5050509392505050565b6000614d2c614d27846160cd565b616050565b905082815260208101848484011115614d4457600080fd5b614d4f848285616318565b509392505050565b6000614d6a614d65846160fe565b616050565b905082815260208101848484011115614d8257600080fd5b614d8d848285616318565b509392505050565b600081359050614da481616cdb565b92915050565b600082601f830112614dbb57600080fd5b8135614dcb848260208601614bd5565b91505092915050565b600082601f830112614de557600080fd5b8135614df5848260208601614c41565b91505092915050565b600082601f830112614e0f57600080fd5b8151614e1f848260208601614cad565b91505092915050565b600081359050614e3781616cf2565b92915050565b600081519050614e4c81616cf2565b92915050565b600081359050614e6181616d09565b92915050565b600081359050614e7681616d20565b92915050565b600081519050614e8b81616d20565b92915050565b600082601f830112614ea257600080fd5b8135614eb2848260208601614d19565b91505092915050565b600082601f830112614ecc57600080fd5b8135614edc848260208601614d57565b91505092915050565b600081359050614ef481616d37565b92915050565b600081519050614f0981616d37565b92915050565b600060208284031215614f2157600080fd5b6000614f2f84828501614d95565b91505092915050565b60008060408385031215614f4b57600080fd5b6000614f5985828601614d95565b9250506020614f6a85828601614d95565b9150509250929050565b600080600080600060a08688031215614f8c57600080fd5b6000614f9a88828901614d95565b9550506020614fab88828901614d95565b945050604086013567ffffffffffffffff811115614fc857600080fd5b614fd488828901614dd4565b935050606086013567ffffffffffffffff811115614ff157600080fd5b614ffd88828901614dd4565b925050608086013567ffffffffffffffff81111561501a57600080fd5b61502688828901614e91565b9150509295509295909350565b600080600080600060a0868803121561504b57600080fd5b600061505988828901614d95565b955050602061506a88828901614d95565b945050604061507b88828901614ee5565b935050606061508c88828901614ee5565b925050608086013567ffffffffffffffff8111156150a957600080fd5b6150b588828901614e91565b9150509295509295909350565b600080604083850312156150d557600080fd5b60006150e385828601614d95565b925050602083013567ffffffffffffffff81111561510057600080fd5b61510c85828601614dd4565b9150509250929050565b60008060006060848603121561512b57600080fd5b600061513986828701614d95565b935050602084013567ffffffffffffffff81111561515657600080fd5b61516286828701614dd4565b925050604084013567ffffffffffffffff81111561517f57600080fd5b61518b86828701614dd4565b9150509250925092565b600080604083850312156151a857600080fd5b60006151b685828601614d95565b92505060206151c785828601614e28565b9150509250929050565b600080604083850312156151e457600080fd5b60006151f285828601614d95565b925050602083013567ffffffffffffffff81111561520f57600080fd5b61521b85828601614e91565b9150509250929050565b6000806040838503121561523857600080fd5b600061524685828601614d95565b925050602061525785828601614ee5565b9150509250929050565b60008060006060848603121561527657600080fd5b600061528486828701614d95565b935050602061529586828701614ee5565b92505060406152a686828701614ee5565b9150509250925092565b600080604083850312156152c357600080fd5b600083013567ffffffffffffffff8111156152dd57600080fd5b6152e985828601614daa565b925050602083013567ffffffffffffffff81111561530657600080fd5b61531285828601614dd4565b9150509250929050565b60006020828403121561532e57600080fd5b600082013567ffffffffffffffff81111561534857600080fd5b61535484828501614dd4565b91505092915050565b60008060006060848603121561537257600080fd5b600084015167ffffffffffffffff81111561538c57600080fd5b61539886828701614dfe565b935050602084015167ffffffffffffffff8111156153b557600080fd5b6153c186828701614dfe565b92505060406153d286828701614efa565b9150509250925092565b6000602082840312156153ee57600080fd5b60006153fc84828501614e3d565b91505092915050565b60006020828403121561541757600080fd5b600061542584828501614e52565b91505092915050565b6000806040838503121561544157600080fd5b600061544f85828601614e52565b925050602061546085828601614d95565b9150509250929050565b60006020828403121561547c57600080fd5b600061548a84828501614e67565b91505092915050565b6000602082840312156154a557600080fd5b60006154b384828501614e7c565b91505092915050565b6000602082840312156154ce57600080fd5b600082013567ffffffffffffffff8111156154e857600080fd5b6154f484828501614ebb565b91505092915050565b60006020828403121561550f57600080fd5b600061551d84828501614ee5565b91505092915050565b6000806040838503121561553957600080fd5b600061554785828601614ee5565b925050602083013567ffffffffffffffff81111561556457600080fd5b61557085828601614e91565b9150509250929050565b60006155868383615a7f565b60208301905092915050565b61559b8161629a565b82525050565b60006155ac8261613f565b6155b6818561616d565b93506155c18361612f565b8060005b838110156155f25781516155d9888261557a565b97506155e483616160565b9250506001810190506155c5565b5085935050505092915050565b615608816162ac565b82525050565b615617816162b8565b82525050565b60006156288261614a565b615632818561617e565b9350615642818560208601616327565b61564b816164df565b840191505092915050565b60006156618261614a565b61566b818561618f565b935061567b818560208601616327565b80840191505092915050565b600061569282616155565b61569c818561619a565b93506156ac818560208601616327565b6156b5816164df565b840191505092915050565b60006156cb82616155565b6156d581856161ab565b93506156e5818560208601616327565b80840191505092915050565b60006156fe60348361619a565b9150615709826164fd565b604082019050919050565b600061572160208361619a565b915061572c8261654c565b602082019050919050565b600061574460288361619a565b915061574f82616575565b604082019050919050565b6000615767602e8361619a565b9150615772826165c4565b604082019050919050565b600061578a602b8361619a565b915061579582616613565b604082019050919050565b60006157ad602f8361619a565b91506157b882616662565b604082019050919050565b60006157d060248361619a565b91506157db826166b1565b604082019050919050565b60006157f3602c8361619a565b91506157fe82616700565b604082019050919050565b600061581660298361619a565b91506158218261674f565b604082019050919050565b6000615839602c8361619a565b91506158448261679e565b604082019050919050565b600061585c60258361619a565b9150615867826167ed565b604082019050919050565b600061587f60328361619a565b915061588a8261683c565b604082019050919050565b60006158a2602e8361619a565b91506158ad8261688b565b604082019050919050565b60006158c5601f8361619a565b91506158d0826168da565b602082019050919050565b60006158e860238361619a565b91506158f382616903565b604082019050919050565b600061590b602a8361619a565b915061591682616952565b604082019050919050565b600061592e602d8361619a565b9150615939826169a1565b604082019050919050565b600061595160268361619a565b915061595c826169f0565b604082019050919050565b600061597460158361619a565b915061597f82616a3f565b602082019050919050565b60006159976017836161ab565b91506159a282616a68565b601782019050919050565b60006159ba60298361619a565b91506159c582616a91565b604082019050919050565b60006159dd60298361619a565b91506159e882616ae0565b604082019050919050565b6000615a0060288361619a565b9150615a0b82616b2f565b604082019050919050565b6000615a2360218361619a565b9150615a2e82616b7e565b604082019050919050565b6000615a466011836161ab565b9150615a5182616bcd565b601182019050919050565b6000615a69602f8361619a565b9150615a7482616bf6565b604082019050919050565b615a888161630e565b82525050565b615a978161630e565b82525050565b6000615aa98284615656565b915081905092915050565b6000615abf8261598a565b9150615acb82856156c0565b9150615ad682615a39565b9150615ae282846156c0565b91508190509392505050565b6000602082019050615b036000830184615592565b92915050565b600060a082019050615b1e6000830188615592565b615b2b6020830187615592565b8181036040830152615b3d81866155a1565b90508181036060830152615b5181856155a1565b90508181036080830152615b65818461561d565b90509695505050505050565b6000606082019050615b866000830186615592565b615b936020830185615592565b615ba06040830184615a8e565b949350505050565b600060a082019050615bbd6000830188615592565b615bca6020830187615592565b615bd76040830186615a8e565b615be46060830185615a8e565b8181036080830152615bf6818461561d565b90509695505050505050565b6000604082019050615c176000830185615592565b615c246020830184615a8e565b9392505050565b60006020820190508181036000830152615c4581846155a1565b905092915050565b60006040820190508181036000830152615c6781856155a1565b90508181036020830152615c7b81846155a1565b90509392505050565b60006040820190508181036000830152615c9e81856155a1565b9050615cad6020830184615a8e565b9392505050565b6000602082019050615cc960008301846155ff565b92915050565b6000602082019050615ce4600083018461560e565b92915050565b60006020820190508181036000830152615d048184615687565b905092915050565b60006020820190508181036000830152615d25816156f1565b9050919050565b60006020820190508181036000830152615d4581615714565b9050919050565b60006020820190508181036000830152615d6581615737565b9050919050565b60006020820190508181036000830152615d858161575a565b9050919050565b60006020820190508181036000830152615da58161577d565b9050919050565b60006020820190508181036000830152615dc5816157a0565b9050919050565b60006020820190508181036000830152615de5816157c3565b9050919050565b60006020820190508181036000830152615e05816157e6565b9050919050565b60006020820190508181036000830152615e2581615809565b9050919050565b60006020820190508181036000830152615e458161582c565b9050919050565b60006020820190508181036000830152615e658161584f565b9050919050565b60006020820190508181036000830152615e8581615872565b9050919050565b60006020820190508181036000830152615ea581615895565b9050919050565b60006020820190508181036000830152615ec5816158b8565b9050919050565b60006020820190508181036000830152615ee5816158db565b9050919050565b60006020820190508181036000830152615f05816158fe565b9050919050565b60006020820190508181036000830152615f2581615921565b9050919050565b60006020820190508181036000830152615f4581615944565b9050919050565b60006020820190508181036000830152615f6581615967565b9050919050565b60006020820190508181036000830152615f85816159ad565b9050919050565b60006020820190508181036000830152615fa5816159d0565b9050919050565b60006020820190508181036000830152615fc5816159f3565b9050919050565b60006020820190508181036000830152615fe581615a16565b9050919050565b6000602082019050818103600083015261600581615a5c565b9050919050565b60006020820190506160216000830184615a8e565b92915050565b600060408201905061603c6000830185615a8e565b6160496020830184615a8e565b9392505050565b600061605a61606b565b905061606682826163b6565b919050565b6000604051905090565b600067ffffffffffffffff8211156160905761608f61648e565b5b602082029050602081019050919050565b600067ffffffffffffffff8211156160bc576160bb61648e565b5b602082029050602081019050919050565b600067ffffffffffffffff8211156160e8576160e761648e565b5b6160f1826164df565b9050602081019050919050565b600067ffffffffffffffff8211156161195761611861648e565b5b616122826164df565b9050602081019050919050565b6000819050602082019050919050565b600081519050919050565b600081519050919050565b600081519050919050565b6000602082019050919050565b600082825260208201905092915050565b600082825260208201905092915050565b600081905092915050565b600082825260208201905092915050565b600081905092915050565b60006161c18261630e565b91506161cc8361630e565b9250827fffffffffffffffffffffffffffffffffffffffffffffffffffffffffffffffff0382111561620157616200616430565b5b828201905092915050565b60006162178261630e565b91506162228361630e565b9250817fffffffffffffffffffffffffffffffffffffffffffffffffffffffffffffffff048311821515161561625b5761625a616430565b5b828202905092915050565b60006162718261630e565b915061627c8361630e565b92508282101561628f5761628e616430565b5b828203905092915050565b60006162a5826162ee565b9050919050565b60008115159050919050565b6000819050919050565b60007fffffffff0000000000000000000000000000000000000000000000000000000082169050919050565b600073ffffffffffffffffffffffffffffffffffffffff82169050919050565b6000819050919050565b82818337600083830152505050565b60005b8381101561634557808201518184015260208101905061632a565b83811115616354576000848401525b50505050565b60006163658261630e565b9150600082141561637957616378616430565b5b600182039050919050565b6000600282049050600182168061639c57607f821691505b602082108114156163b0576163af61645f565b5b50919050565b6163bf826164df565b810181811067ffffffffffffffff821117156163de576163dd61648e565b5b80604052505050565b60006163f28261630e565b91507fffffffffffffffffffffffffffffffffffffffffffffffffffffffffffffffff82141561642557616424616430565b5b600182019050919050565b7f4e487b7100000000000000000000000000000000000000000000000000000000600052601160045260246000fd5b7f4e487b7100000000000000000000000000000000000000000000000000000000600052602260045260246000fd5b7f4e487b7100000000000000000000000000000000000000000000000000000000600052604160045260246000fd5b600060033d11156164dc5760046000803e6164d96000516164f0565b90505b90565b6000601f19601f8301169050919050565b60008160e01c9050919050565b7f455243313135353a207472616e7366657220746f206e6f6e204552433131353560008201527f526563656976657220696d706c656d656e746572000000000000000000000000602082015250565b7f537472696e67733a20686578206c656e67746820696e73756666696369656e74600082015250565b7f455243313135353a204552433131353552656365697665722072656a6563746560008201527f6420746f6b656e73000000000000000000000000000000000000000000000000602082015250565b7f596f752063616e6e6f74206275726e2061206361726420746f6f20736f6f6e2060008201527f6166746572206d696e74696e672e000000000000000000000000000000000000602082015250565b7f455243313135353a2062616c616e636520717565727920666f7220746865207a60008201527f65726f2061646472657373000000000000000000000000000000000000000000602082015250565b7f45524331393637557067726164653a207570677261646520627265616b73206660008201527f7572746865722075706772616465730000000000000000000000000000000000602082015250565b7f455243313135353a206275726e20616d6f756e7420657863656564732062616c60008201527f616e636500000000000000000000000000000000000000000000000000000000602082015250565b7f46756e6374696f6e206d7573742062652063616c6c6564207468726f7567682060008201527f64656c656761746563616c6c0000000000000000000000000000000000000000602082015250565b7f455243313135353a2063616c6c6572206973206e6f74206f776e6572206e6f7260008201527f20617070726f7665640000000000000000000000000000000000000000000000602082015250565b7f46756e6374696f6e206d7573742062652063616c6c6564207468726f7567682060008201527f6163746976652070726f78790000000000000000000000000000000000000000602082015250565b7f455243313135353a207472616e7366657220746f20746865207a65726f20616460008201527f6472657373000000000000000000000000000000000000000000000000000000602082015250565b7f455243313135353a207472616e736665722063616c6c6572206973206e6f742060008201527f6f776e6572206e6f7220617070726f7665640000000000000000000000000000602082015250565b7f496e697469616c697a61626c653a20636f6e747261637420697320616c72656160008201527f647920696e697469616c697a6564000000000000000000000000000000000000602082015250565b7f417272617973206d757374206265206f66207468652073616d652073697a6500600082015250565b7f455243313135353a206275726e2066726f6d20746865207a65726f206164647260008201527f6573730000000000000000000000000000000000000000000000000000000000602082015250565b7f455243313135353a20696e73756666696369656e742062616c616e636520666f60008201527f72207472616e7366657200000000000000000000000000000000000000000000602082015250565b7f455243313936373a206e657720696d706c656d656e746174696f6e206973206e60008201527f6f74206120636f6e747261637400000000000000000000000000000000000000602082015250565b7f416464726573733a2064656c65676174652063616c6c20746f206e6f6e2d636f60008201527f6e74726163740000000000000000000000000000000000000000000000000000602082015250565b7f5472616e73666572206d75737420737563636565640000000000000000000000600082015250565b7f416363657373436f6e74726f6c3a206163636f756e7420000000000000000000600082015250565b7f455243313135353a2073657474696e6720617070726f76616c2073746174757360008201527f20666f722073656c660000000000000000000000000000000000000000000000602082015250565b7f455243313135353a206163636f756e747320616e6420696473206c656e67746860008201527f206d69736d617463680000000000000000000000000000000000000000000000602082015250565b7f455243313135353a2069647320616e6420616d6f756e7473206c656e6774682060008201527f6d69736d61746368000000000000000000000000000000000000000000000000602082015250565b7f455243313135353a206d696e7420746f20746865207a65726f2061646472657360008201527f7300000000000000000000000000000000000000000000000000000000000000602082015250565b7f206973206d697373696e6720726f6c6520000000000000000000000000000000600082015250565b7f416363657373436f6e74726f6c3a2063616e206f6e6c792072656e6f756e636560008201527f20726f6c657320666f722073656c660000000000000000000000000000000000602082015250565b600060443d1015616c5557616cd8565b616c5d61606b565b60043d036004823e80513d602482011167ffffffffffffffff82111715616c85575050616cd8565b808201805167ffffffffffffffff811115616ca35750505050616cd8565b80602083010160043d038501811115616cc0575050505050616cd8565b616ccf826020018501866163b6565b82955050505050505b90565b616ce48161629a565b8114616cef57600080fd5b50565b616cfb816162ac565b8114616d0657600080fd5b50565b616d12816162b8565b8114616d1d57600080fd5b50565b616d29816162c2565b8114616d3457600080fd5b50565b616d408161630e565b8114616d4b57600080fd5b5056fe416464726573733a206c6f772d6c6576656c2064656c65676174652063616c6c206661696c6564a2646970667358221220daca0af4d89ceb93ab921ec9156b3fab5d3087e9f68852cbe27f054a31be132564736f6c63430008040033",
  "linkReferences": {},
  "deployedLinkReferences": {}
}