{
  "_format": "hh-sol-artifact-1",
  "contractName": "GoGBattlesToken2",
  "sourceName": "contracts/GoGBattlesToken2.sol",
  "abi": [
    {
      "inputs": [],
      "stateMutability": "nonpayable",
      "type": "constructor"
    },
    {
      "anonymous": false,
      "inputs": [
        {
          "indexed": false,
          "internalType": "address",
          "name": "previousAdmin",
          "type": "address"
        },
        {
          "indexed": false,
          "internalType": "address",
          "name": "newAdmin",
          "type": "address"
        }
      ],
      "name": "AdminChanged",
      "type": "event"
    },
    {
      "anonymous": false,
      "inputs": [
        {
          "indexed": true,
          "internalType": "address",
          "name": "owner",
          "type": "address"
        },
        {
          "indexed": true,
          "internalType": "address",
          "name": "spender",
          "type": "address"
        },
        {
          "indexed": false,
          "internalType": "uint256",
          "name": "value",
          "type": "uint256"
        }
      ],
      "name": "Approval",
      "type": "event"
    },
    {
      "anonymous": false,
      "inputs": [
        {
          "indexed": true,
          "internalType": "address",
          "name": "beacon",
          "type": "address"
        }
      ],
      "name": "BeaconUpgraded",
      "type": "event"
    },
    {
      "anonymous": false,
      "inputs": [
        {
          "indexed": true,
          "internalType": "address",
          "name": "delegator",
          "type": "address"
        },
        {
          "indexed": true,
          "internalType": "address",
          "name": "fromDelegate",
          "type": "address"
        },
        {
          "indexed": true,
          "internalType": "address",
          "name": "toDelegate",
          "type": "address"
        }
      ],
      "name": "DelegateChanged",
      "type": "event"
    },
    {
      "anonymous": false,
      "inputs": [
        {
          "indexed": true,
          "internalType": "address",
          "name": "delegate",
          "type": "address"
        },
        {
          "indexed": false,
          "internalType": "uint256",
          "name": "previousBalance",
          "type": "uint256"
        },
        {
          "indexed": false,
          "internalType": "uint256",
          "name": "newBalance",
          "type": "uint256"
        }
      ],
      "name": "DelegateVotesChanged",
      "type": "event"
    },
    {
      "anonymous": false,
      "inputs": [
        {
          "indexed": true,
          "internalType": "bytes32",
          "name": "role",
          "type": "bytes32"
        },
        {
          "indexed": true,
          "internalType": "bytes32",
          "name": "previousAdminRole",
          "type": "bytes32"
        },
        {
          "indexed": true,
          "internalType": "bytes32",
          "name": "newAdminRole",
          "type": "bytes32"
        }
      ],
      "name": "RoleAdminChanged",
      "type": "event"
    },
    {
      "anonymous": false,
      "inputs": [
        {
          "indexed": true,
          "internalType": "bytes32",
          "name": "role",
          "type": "bytes32"
        },
        {
          "indexed": true,
          "internalType": "address",
          "name": "account",
          "type": "address"
        },
        {
          "indexed": true,
          "internalType": "address",
          "name": "sender",
          "type": "address"
        }
      ],
      "name": "RoleGranted",
      "type": "event"
    },
    {
      "anonymous": false,
      "inputs": [
        {
          "indexed": true,
          "internalType": "bytes32",
          "name": "role",
          "type": "bytes32"
        },
        {
          "indexed": true,
          "internalType": "address",
          "name": "account",
          "type": "address"
        },
        {
          "indexed": true,
          "internalType": "address",
          "name": "sender",
          "type": "address"
        }
      ],
      "name": "RoleRevoked",
      "type": "event"
    },
    {
      "anonymous": false,
      "inputs": [
        {
          "indexed": true,
          "internalType": "address",
          "name": "from",
          "type": "address"
        },
        {
          "indexed": true,
          "internalType": "address",
          "name": "to",
          "type": "address"
        },
        {
          "indexed": false,
          "internalType": "uint256",
          "name": "value",
          "type": "uint256"
        }
      ],
      "name": "Transfer",
      "type": "event"
    },
    {
      "anonymous": false,
      "inputs": [
        {
          "indexed": true,
          "internalType": "address",
          "name": "implementation",
          "type": "address"
        }
      ],
      "name": "Upgraded",
      "type": "event"
    },
    {
      "inputs": [],
      "name": "BURNER_ROLE",
      "outputs": [
        {
          "internalType": "bytes32",
          "name": "",
          "type": "bytes32"
        }
      ],
      "stateMutability": "view",
      "type": "function"
    },
    {
      "inputs": [],
      "name": "DEFAULT_ADMIN_ROLE",
      "outputs": [
        {
          "internalType": "bytes32",
          "name": "",
          "type": "bytes32"
        }
      ],
      "stateMutability": "view",
      "type": "function"
    },
    {
      "inputs": [],
      "name": "DOMAIN_SEPARATOR",
      "outputs": [
        {
          "internalType": "bytes32",
          "name": "",
          "type": "bytes32"
        }
      ],
      "stateMutability": "view",
      "type": "function"
    },
    {
      "inputs": [],
      "name": "MINTER_ROLE",
      "outputs": [
        {
          "internalType": "bytes32",
          "name": "",
          "type": "bytes32"
        }
      ],
      "stateMutability": "view",
      "type": "function"
    },
    {
      "inputs": [],
      "name": "UPGRADER_ROLE",
      "outputs": [
        {
          "internalType": "bytes32",
          "name": "",
          "type": "bytes32"
        }
      ],
      "stateMutability": "view",
      "type": "function"
    },
    {
      "inputs": [
        {
          "internalType": "address",
          "name": "owner",
          "type": "address"
        },
        {
          "internalType": "address",
          "name": "spender",
          "type": "address"
        }
      ],
      "name": "allowance",
      "outputs": [
        {
          "internalType": "uint256",
          "name": "",
          "type": "uint256"
        }
      ],
      "stateMutability": "view",
      "type": "function"
    },
    {
      "inputs": [
        {
          "internalType": "address",
          "name": "spender",
          "type": "address"
        },
        {
          "internalType": "uint256",
          "name": "amount",
          "type": "uint256"
        }
      ],
      "name": "approve",
      "outputs": [
        {
          "internalType": "bool",
          "name": "",
          "type": "bool"
        }
      ],
      "stateMutability": "nonpayable",
      "type": "function"
    },
    {
      "inputs": [
        {
          "internalType": "address",
          "name": "account",
          "type": "address"
        }
      ],
      "name": "balanceOf",
      "outputs": [
        {
          "internalType": "uint256",
          "name": "",
          "type": "uint256"
        }
      ],
      "stateMutability": "view",
      "type": "function"
    },
    {
      "inputs": [
        {
          "internalType": "uint256",
          "name": "amount",
          "type": "uint256"
        }
      ],
      "name": "burn",
      "outputs": [],
      "stateMutability": "nonpayable",
      "type": "function"
    },
    {
      "inputs": [
        {
          "internalType": "address",
          "name": "account",
          "type": "address"
        },
        {
          "internalType": "uint256",
          "name": "amount",
          "type": "uint256"
        }
      ],
      "name": "burn",
      "outputs": [],
      "stateMutability": "nonpayable",
      "type": "function"
    },
    {
      "inputs": [
        {
          "internalType": "address",
          "name": "account",
          "type": "address"
        },
        {
          "internalType": "uint256",
          "name": "amount",
          "type": "uint256"
        }
      ],
      "name": "burnFrom",
      "outputs": [],
      "stateMutability": "nonpayable",
      "type": "function"
    },
    {
      "inputs": [
        {
          "internalType": "address",
          "name": "account",
          "type": "address"
        },
        {
          "internalType": "uint32",
          "name": "pos",
          "type": "uint32"
        }
      ],
      "name": "checkpoints",
      "outputs": [
        {
          "components": [
            {
              "internalType": "uint32",
              "name": "fromBlock",
              "type": "uint32"
            },
            {
              "internalType": "uint224",
              "name": "votes",
              "type": "uint224"
            }
          ],
          "internalType": "struct ERC20VotesUpgradeable.Checkpoint",
          "name": "",
          "type": "tuple"
        }
      ],
      "stateMutability": "view",
      "type": "function"
    },
    {
      "inputs": [],
      "name": "decimals",
      "outputs": [
        {
          "internalType": "uint8",
          "name": "",
          "type": "uint8"
        }
      ],
      "stateMutability": "view",
      "type": "function"
    },
    {
      "inputs": [
        {
          "internalType": "address",
          "name": "spender",
          "type": "address"
        },
        {
          "internalType": "uint256",
          "name": "subtractedValue",
          "type": "uint256"
        }
      ],
      "name": "decreaseAllowance",
      "outputs": [
        {
          "internalType": "bool",
          "name": "",
          "type": "bool"
        }
      ],
      "stateMutability": "nonpayable",
      "type": "function"
    },
    {
      "inputs": [
        {
          "internalType": "address",
          "name": "delegatee",
          "type": "address"
        }
      ],
      "name": "delegate",
      "outputs": [],
      "stateMutability": "nonpayable",
      "type": "function"
    },
    {
      "inputs": [
        {
          "internalType": "address",
          "name": "delegatee",
          "type": "address"
        },
        {
          "internalType": "uint256",
          "name": "nonce",
          "type": "uint256"
        },
        {
          "internalType": "uint256",
          "name": "expiry",
          "type": "uint256"
        },
        {
          "internalType": "uint8",
          "name": "v",
          "type": "uint8"
        },
        {
          "internalType": "bytes32",
          "name": "r",
          "type": "bytes32"
        },
        {
          "internalType": "bytes32",
          "name": "s",
          "type": "bytes32"
        }
      ],
      "name": "delegateBySig",
      "outputs": [],
      "stateMutability": "nonpayable",
      "type": "function"
    },
    {
      "inputs": [
        {
          "internalType": "address",
          "name": "account",
          "type": "address"
        }
      ],
      "name": "delegates",
      "outputs": [
        {
          "internalType": "address",
          "name": "",
          "type": "address"
        }
      ],
      "stateMutability": "view",
      "type": "function"
    },
    {
      "inputs": [
        {
          "internalType": "uint256",
          "name": "blockNumber",
          "type": "uint256"
        }
      ],
      "name": "getPastTotalSupply",
      "outputs": [
        {
          "internalType": "uint256",
          "name": "",
          "type": "uint256"
        }
      ],
      "stateMutability": "view",
      "type": "function"
    },
    {
      "inputs": [
        {
          "internalType": "address",
          "name": "account",
          "type": "address"
        },
        {
          "internalType": "uint256",
          "name": "blockNumber",
          "type": "uint256"
        }
      ],
      "name": "getPastVotes",
      "outputs": [
        {
          "internalType": "uint256",
          "name": "",
          "type": "uint256"
        }
      ],
      "stateMutability": "view",
      "type": "function"
    },
    {
      "inputs": [
        {
          "internalType": "bytes32",
          "name": "role",
          "type": "bytes32"
        }
      ],
      "name": "getRoleAdmin",
      "outputs": [
        {
          "internalType": "bytes32",
          "name": "",
          "type": "bytes32"
        }
      ],
      "stateMutability": "view",
      "type": "function"
    },
    {
      "inputs": [
        {
          "internalType": "address",
          "name": "account",
          "type": "address"
        }
      ],
      "name": "getVotes",
      "outputs": [
        {
          "internalType": "uint256",
          "name": "",
          "type": "uint256"
        }
      ],
      "stateMutability": "view",
      "type": "function"
    },
    {
      "inputs": [
        {
          "internalType": "bytes32",
          "name": "role",
          "type": "bytes32"
        },
        {
          "internalType": "address",
          "name": "account",
          "type": "address"
        }
      ],
      "name": "grantRole",
      "outputs": [],
      "stateMutability": "nonpayable",
      "type": "function"
    },
    {
      "inputs": [
        {
          "internalType": "bytes32",
          "name": "role",
          "type": "bytes32"
        },
        {
          "internalType": "address",
          "name": "account",
          "type": "address"
        }
      ],
      "name": "hasRole",
      "outputs": [
        {
          "internalType": "bool",
          "name": "",
          "type": "bool"
        }
      ],
      "stateMutability": "view",
      "type": "function"
    },
    {
      "inputs": [
        {
          "internalType": "address",
          "name": "spender",
          "type": "address"
        },
        {
          "internalType": "uint256",
          "name": "addedValue",
          "type": "uint256"
        }
      ],
      "name": "increaseAllowance",
      "outputs": [
        {
          "internalType": "bool",
          "name": "",
          "type": "bool"
        }
      ],
      "stateMutability": "nonpayable",
      "type": "function"
    },
    {
      "inputs": [],
      "name": "initialize",
      "outputs": [],
      "stateMutability": "nonpayable",
      "type": "function"
    },
    {
      "inputs": [
        {
          "internalType": "address",
          "name": "to",
          "type": "address"
        },
        {
          "internalType": "uint256",
          "name": "amount",
          "type": "uint256"
        }
      ],
      "name": "mint",
      "outputs": [],
      "stateMutability": "nonpayable",
      "type": "function"
    },
    {
      "inputs": [
        {
          "internalType": "address[]",
          "name": "to",
          "type": "address[]"
        },
        {
          "internalType": "uint256[]",
          "name": "amounts",
          "type": "uint256[]"
        }
      ],
      "name": "mintBatch",
      "outputs": [],
      "stateMutability": "nonpayable",
      "type": "function"
    },
    {
      "inputs": [],
      "name": "name",
      "outputs": [
        {
          "internalType": "string",
          "name": "",
          "type": "string"
        }
      ],
      "stateMutability": "view",
      "type": "function"
    },
    {
      "inputs": [
        {
          "internalType": "address",
          "name": "owner",
          "type": "address"
        }
      ],
      "name": "nonces",
      "outputs": [
        {
          "internalType": "uint256",
          "name": "",
          "type": "uint256"
        }
      ],
      "stateMutability": "view",
      "type": "function"
    },
    {
      "inputs": [
        {
          "internalType": "address",
          "name": "account",
          "type": "address"
        }
      ],
      "name": "numCheckpoints",
      "outputs": [
        {
          "internalType": "uint32",
          "name": "",
          "type": "uint32"
        }
      ],
      "stateMutability": "view",
      "type": "function"
    },
    {
      "inputs": [
        {
          "internalType": "address",
          "name": "owner",
          "type": "address"
        },
        {
          "internalType": "address",
          "name": "spender",
          "type": "address"
        },
        {
          "internalType": "uint256",
          "name": "value",
          "type": "uint256"
        },
        {
          "internalType": "uint256",
          "name": "deadline",
          "type": "uint256"
        },
        {
          "internalType": "uint8",
          "name": "v",
          "type": "uint8"
        },
        {
          "internalType": "bytes32",
          "name": "r",
          "type": "bytes32"
        },
        {
          "internalType": "bytes32",
          "name": "s",
          "type": "bytes32"
        }
      ],
      "name": "permit",
      "outputs": [],
      "stateMutability": "nonpayable",
      "type": "function"
    },
    {
      "inputs": [
        {
          "internalType": "bytes32",
          "name": "role",
          "type": "bytes32"
        },
        {
          "internalType": "address",
          "name": "account",
          "type": "address"
        }
      ],
      "name": "renounceRole",
      "outputs": [],
      "stateMutability": "nonpayable",
      "type": "function"
    },
    {
      "inputs": [
        {
          "internalType": "bytes32",
          "name": "role",
          "type": "bytes32"
        },
        {
          "internalType": "address",
          "name": "account",
          "type": "address"
        }
      ],
      "name": "revokeRole",
      "outputs": [],
      "stateMutability": "nonpayable",
      "type": "function"
    },
    {
      "inputs": [
        {
          "internalType": "bytes4",
          "name": "interfaceId",
          "type": "bytes4"
        }
      ],
      "name": "supportsInterface",
      "outputs": [
        {
          "internalType": "bool",
          "name": "",
          "type": "bool"
        }
      ],
      "stateMutability": "view",
      "type": "function"
    },
    {
      "inputs": [],
      "name": "symbol",
      "outputs": [
        {
          "internalType": "string",
          "name": "",
          "type": "string"
        }
      ],
      "stateMutability": "view",
      "type": "function"
    },
    {
      "inputs": [],
      "name": "totalSupply",
      "outputs": [
        {
          "internalType": "uint256",
          "name": "",
          "type": "uint256"
        }
      ],
      "stateMutability": "view",
      "type": "function"
    },
    {
      "inputs": [
        {
          "internalType": "address",
          "name": "recipient",
          "type": "address"
        },
        {
          "internalType": "uint256",
          "name": "amount",
          "type": "uint256"
        }
      ],
      "name": "transfer",
      "outputs": [
        {
          "internalType": "bool",
          "name": "",
          "type": "bool"
        }
      ],
      "stateMutability": "nonpayable",
      "type": "function"
    },
    {
      "inputs": [
        {
          "internalType": "address",
          "name": "sender",
          "type": "address"
        },
        {
          "internalType": "address",
          "name": "recipient",
          "type": "address"
        },
        {
          "internalType": "uint256",
          "name": "amount",
          "type": "uint256"
        }
      ],
      "name": "transferFrom",
      "outputs": [
        {
          "internalType": "bool",
          "name": "",
          "type": "bool"
        }
      ],
      "stateMutability": "nonpayable",
      "type": "function"
    },
    {
      "inputs": [
        {
          "internalType": "address",
          "name": "newImplementation",
          "type": "address"
        }
      ],
      "name": "upgradeTo",
      "outputs": [],
      "stateMutability": "nonpayable",
      "type": "function"
    },
    {
      "inputs": [
        {
          "internalType": "address",
          "name": "newImplementation",
          "type": "address"
        },
        {
          "internalType": "bytes",
          "name": "data",
          "type": "bytes"
        }
      ],
      "name": "upgradeToAndCall",
      "outputs": [],
      "stateMutability": "payable",
      "type": "function"
    }
  ],
  "bytecode": "0x60a06040523073ffffffffffffffffffffffffffffffffffffffff1660809073ffffffffffffffffffffffffffffffffffffffff1660601b81525034801561004657600080fd5b5060805160601c616fef6200007b60003960008181610d2501528181610db40152818161106a01526110f90152616fef6000f3fe60806040526004361061023b5760003560e01c806370a082311161012e578063a217fddf116100ab578063d53913931161006f578063d5391393146108f6578063d547741f14610921578063dd62ed3e1461094a578063f1127ed814610987578063f72c0d8b146109c45761023b565b8063a217fddf146107ff578063a457c2d71461082a578063a9059cbb14610867578063c3cda520146108a4578063d505accf146108cd5761023b565b80638e539e8c116100f25780638e539e8c146106f457806391d148541461073157806395d89b411461076e5780639ab24eb0146107995780639dc29fac146107d65761023b565b806370a082311461061157806379cc67901461064e5780637c88e3d9146106775780637ecebe00146106a05780638129fc1c146106dd5761023b565b806336568abe116101bc57806342966c681161018057806342966c68146105295780634f1ef28614610552578063587cde1e1461056e5780635c19a95c146105ab5780636fcfff45146105d45761023b565b806336568abe146104345780633659cfe61461045d57806339509351146104865780633a46b1a8146104c357806340c10f19146105005761023b565b8063248a9ca311610203578063248a9ca31461034d578063282c51f31461038a5780632f2ff15d146103b5578063313ce567146103de5780633644e515146104095761023b565b806301ffc9a71461024057806306fdde031461027d578063095ea7b3146102a857806318160ddd146102e557806323b872dd14610310575b600080fd5b34801561024c57600080fd5b506102676004803603810190610262919061540f565b6109ef565b6040516102749190615b26565b60405180910390f35b34801561028957600080fd5b50610292610a69565b60405161029f9190615c9a565b60405180910390f35b3480156102b457600080fd5b506102cf60048036038101906102ca919061523d565b610afb565b6040516102dc9190615b26565b60405180910390f35b3480156102f157600080fd5b506102fa610b19565b60405161030791906160d7565b60405180910390f35b34801561031c57600080fd5b50610337600480360381019061033291906150fc565b610b23565b6040516103449190615b26565b60405180910390f35b34801561035957600080fd5b50610374600480360381019061036f91906153aa565b610c1b565b6040516103819190615b41565b60405180910390f35b34801561039657600080fd5b5061039f610c3b565b6040516103ac9190615b41565b60405180910390f35b3480156103c157600080fd5b506103dc60048036038101906103d791906153d3565b610c5f565b005b3480156103ea57600080fd5b506103f3610c88565b6040516104009190616136565b60405180910390f35b34801561041557600080fd5b5061041e610c91565b60405161042b9190615b41565b60405180910390f35b34801561044057600080fd5b5061045b600480360381019061045691906153d3565b610ca0565b005b34801561046957600080fd5b50610484600480360381019061047f9190615097565b610d23565b005b34801561049257600080fd5b506104ad60048036038101906104a8919061523d565b610ed2565b6040516104ba9190615b26565b60405180910390f35b3480156104cf57600080fd5b506104ea60048036038101906104e5919061523d565b610f7e565b6040516104f791906160d7565b60405180910390f35b34801561050c57600080fd5b506105276004803603810190610522919061523d565b611013565b005b34801561053557600080fd5b50610550600480360381019061054b9190615438565b611054565b005b61056c600480360381019061056791906151e9565b611068565b005b34801561057a57600080fd5b5061059560048036038101906105909190615097565b6111a5565b6040516105a29190615b0b565b60405180910390f35b3480156105b757600080fd5b506105d260048036038101906105cd9190615097565b61120f565b005b3480156105e057600080fd5b506105fb60048036038101906105f69190615097565b611223565b604051610608919061611b565b60405180910390f35b34801561061d57600080fd5b5061063860048036038101906106339190615097565b611278565b60405161064591906160d7565b60405180910390f35b34801561065a57600080fd5b506106756004803603810190610670919061523d565b6112c1565b005b34801561068357600080fd5b5061069e6004803603810190610699919061533e565b61133c565b005b3480156106ac57600080fd5b506106c760048036038101906106c29190615097565b61145f565b6040516106d491906160d7565b60405180910390f35b3480156106e957600080fd5b506106f26114b0565b005b34801561070057600080fd5b5061071b60048036038101906107169190615438565b6116b4565b60405161072891906160d7565b60405180910390f35b34801561073d57600080fd5b50610758600480360381019061075391906153d3565b61170b565b6040516107659190615b26565b60405180910390f35b34801561077a57600080fd5b50610783611776565b6040516107909190615c9a565b60405180910390f35b3480156107a557600080fd5b506107c060048036038101906107bb9190615097565b611808565b6040516107cd91906160d7565b60405180910390f35b3480156107e257600080fd5b506107fd60048036038101906107f8919061523d565b611941565b005b34801561080b57600080fd5b50610814611982565b6040516108219190615b41565b60405180910390f35b34801561083657600080fd5b50610851600480360381019061084c919061523d565b611989565b60405161085e9190615b26565b60405180910390f35b34801561087357600080fd5b5061088e6004803603810190610889919061523d565b611a74565b60405161089b9190615b26565b60405180910390f35b3480156108b057600080fd5b506108cb60048036038101906108c69190615279565b611a92565b005b3480156108d957600080fd5b506108f460048036038101906108ef919061514b565b611b96565b005b34801561090257600080fd5b5061090b611cbb565b6040516109189190615b41565b60405180910390f35b34801561092d57600080fd5b50610948600480360381019061094391906153d3565b611cdf565b005b34801561095657600080fd5b50610971600480360381019061096c91906150c0565b611d08565b60405161097e91906160d7565b60405180910390f35b34801561099357600080fd5b506109ae60048036038101906109a99190615302565b611d8f565b6040516109bb91906160bc565b60405180910390f35b3480156109d057600080fd5b506109d9611ec6565b6040516109e69190615b41565b60405180910390f35b60007f7965db0b000000000000000000000000000000000000000000000000000000007bffffffffffffffffffffffffffffffffffffffffffffffffffffffff1916827bffffffffffffffffffffffffffffffffffffffffffffffffffffffff19161480610a625750610a6182611eea565b5b9050919050565b606060368054610a7890616480565b80601f0160208091040260200160405190810160405280929190818152602001828054610aa490616480565b8015610af15780601f10610ac657610100808354040283529160200191610af1565b820191906000526020600020905b815481529060010190602001808311610ad457829003601f168201915b5050505050905090565b6000610b0f610b08611f54565b8484611f5c565b6001905092915050565b6000603554905090565b6000610b30848484612127565b6000603460008673ffffffffffffffffffffffffffffffffffffffff1673ffffffffffffffffffffffffffffffffffffffff1681526020019081526020016000206000610b7b611f54565b73ffffffffffffffffffffffffffffffffffffffff1673ffffffffffffffffffffffffffffffffffffffff16815260200190815260200160002054905082811015610bfb576040517f08c379a0000000000000000000000000000000000000000000000000000000008152600401610bf290615f3c565b60405180910390fd5b610c0f85610c07611f54565b858403611f5c565b60019150509392505050565b600060c96000838152602001908152602001600020600101549050919050565b7f3c11d16cbaffd01df69ce1c404f6340ee057498f5f00246190ea54220576a84881565b610c6882610c1b565b610c7981610c74611f54565b6123ab565b610c838383612448565b505050565b60006012905090565b6000610c9b612529565b905090565b610ca8611f54565b73ffffffffffffffffffffffffffffffffffffffff168173ffffffffffffffffffffffffffffffffffffffff1614610d15576040517f08c379a0000000000000000000000000000000000000000000000000000000008152600401610d0c9061607c565b60405180910390fd5b610d1f8282612569565b5050565b7f000000000000000000000000000000000000000000000000000000000000000073ffffffffffffffffffffffffffffffffffffffff163073ffffffffffffffffffffffffffffffffffffffff161415610db2576040517f08c379a0000000000000000000000000000000000000000000000000000000008152600401610da990615dfc565b60405180910390fd5b7f000000000000000000000000000000000000000000000000000000000000000073ffffffffffffffffffffffffffffffffffffffff16610df161264b565b73ffffffffffffffffffffffffffffffffffffffff1614610e47576040517f08c379a0000000000000000000000000000000000000000000000000000000008152600401610e3e90615e7c565b60405180910390fd5b610e50816126a2565b610ecf81600067ffffffffffffffff811115610e95577f4e487b7100000000000000000000000000000000000000000000000000000000600052604160045260246000fd5b6040519080825280601f01601f191660200182016040528015610ec75781602001600182028036833780820191505090505b5060006126d8565b50565b6000610f74610edf611f54565b848460346000610eed611f54565b73ffffffffffffffffffffffffffffffffffffffff1673ffffffffffffffffffffffffffffffffffffffff16815260200190815260200160002060008873ffffffffffffffffffffffffffffffffffffffff1673ffffffffffffffffffffffffffffffffffffffff16815260200190815260200160002054610f6f919061623c565b611f5c565b6001905092915050565b6000438210610fc2576040517f08c379a0000000000000000000000000000000000000000000000000000000008152600401610fb990615d1c565b60405180910390fd5b61100b61016360008573ffffffffffffffffffffffffffffffffffffffff1673ffffffffffffffffffffffffffffffffffffffff168152602001908152602001600020836128a9565b905092915050565b7f9f2df0fed2c77648de5860a4cc508cd0818c85b8b8a1ab4ceeef8d981c8956a661104581611040611f54565b6123ab565b61104f8383612a01565b505050565b61106561105f611f54565b82612a0f565b50565b7f000000000000000000000000000000000000000000000000000000000000000073ffffffffffffffffffffffffffffffffffffffff163073ffffffffffffffffffffffffffffffffffffffff1614156110f7576040517f08c379a00000000000000000000000000000000000000000000000000000000081526004016110ee90615dfc565b60405180910390fd5b7f000000000000000000000000000000000000000000000000000000000000000073ffffffffffffffffffffffffffffffffffffffff1661113661264b565b73ffffffffffffffffffffffffffffffffffffffff161461118c576040517f08c379a000000000000000000000000000000000000000000000000000000000815260040161118390615e7c565b60405180910390fd5b611195826126a2565b6111a1828260016126d8565b5050565b600061016260008373ffffffffffffffffffffffffffffffffffffffff1673ffffffffffffffffffffffffffffffffffffffff16815260200190815260200160002060009054906101000a900473ffffffffffffffffffffffffffffffffffffffff169050919050565b61122061121a611f54565b82612a1d565b50565b600061127161016360008473ffffffffffffffffffffffffffffffffffffffff1673ffffffffffffffffffffffffffffffffffffffff16815260200190815260200160002080549050612b38565b9050919050565b6000603360008373ffffffffffffffffffffffffffffffffffffffff1673ffffffffffffffffffffffffffffffffffffffff168152602001908152602001600020549050919050565b60006112d4836112cf611f54565b611d08565b905081811015611319576040517f08c379a000000000000000000000000000000000000000000000000000000000815260040161131090615f9c565b60405180910390fd5b61132d83611325611f54565b848403611f5c565b6113378383612a0f565b505050565b7f9f2df0fed2c77648de5860a4cc508cd0818c85b8b8a1ab4ceeef8d981c8956a661136e81611369611f54565b6123ab565b81518351146113b2576040517f08c379a00000000000000000000000000000000000000000000000000000000081526004016113a990615e9c565b60405180910390fd5b60005b8351811015611459576114488482815181106113fa577f4e487b7100000000000000000000000000000000000000000000000000000000600052603260045260246000fd5b602002602001015184838151811061143b577f4e487b7100000000000000000000000000000000000000000000000000000000600052603260045260246000fd5b6020026020010151612a01565b80611452906164e3565b90506113b5565b50505050565b60006114a961012f60008473ffffffffffffffffffffffffffffffffffffffff1673ffffffffffffffffffffffffffffffffffffffff168152602001908152602001600020612b8b565b9050919050565b600060019054906101000a900460ff16806114d6575060008054906101000a900460ff16155b611515576040517f08c379a000000000000000000000000000000000000000000000000000000000815260040161150c90615ebc565b60405180910390fd5b60008060019054906101000a900460ff161590508015611565576001600060016101000a81548160ff02191690831515021790555060016000806101000a81548160ff0219169083151502179055505b6115d96040518060400160405280600e81526020017f476f47426174746c65546f6b656e0000000000000000000000000000000000008152506040518060400160405280600481526020017f47414d4500000000000000000000000000000000000000000000000000000000815250612b99565b6115e1612c86565b6115e9612d6f565b6116276040518060400160405280600e81526020017f476f47426174746c65546f6b656e000000000000000000000000000000000000815250612e60565b61162f612f8a565b61163c6000801b33613073565b6116667f9f2df0fed2c77648de5860a4cc508cd0818c85b8b8a1ab4ceeef8d981c8956a633613073565b6116907f189ab7a9244df0848122154315af71fe140f3db0fe014031783b0946b8c9d2e333613073565b80156116b15760008060016101000a81548160ff0219169083151502179055505b50565b60004382106116f8576040517f08c379a00000000000000000000000000000000000000000000000000000000081526004016116ef90615d1c565b60405180910390fd5b611704610164836128a9565b9050919050565b600060c9600084815260200190815260200160002060000160008373ffffffffffffffffffffffffffffffffffffffff1673ffffffffffffffffffffffffffffffffffffffff16815260200190815260200160002060009054906101000a900460ff16905092915050565b60606037805461178590616480565b80601f01602080910402602001604051908101604052809291908181526020018280546117b190616480565b80156117fe5780601f106117d3576101008083540402835291602001916117fe565b820191906000526020600020905b8154815290600101906020018083116117e157829003601f168201915b5050505050905090565b60008061016360008473ffffffffffffffffffffffffffffffffffffffff1673ffffffffffffffffffffffffffffffffffffffff168152602001908152602001600020805490509050600081146119185761016360008473ffffffffffffffffffffffffffffffffffffffff1673ffffffffffffffffffffffffffffffffffffffff1681526020019081526020016000206001826118a6919061631d565b815481106118dd577f4e487b7100000000000000000000000000000000000000000000000000000000600052603260045260246000fd5b9060005260206000200160000160049054906101000a90047bffffffffffffffffffffffffffffffffffffffffffffffffffffffff1661191b565b60005b7bffffffffffffffffffffffffffffffffffffffffffffffffffffffff16915050919050565b7f3c11d16cbaffd01df69ce1c404f6340ee057498f5f00246190ea54220576a8486119738161196e611f54565b6123ab565b61197d8383612a0f565b505050565b6000801b81565b60008060346000611998611f54565b73ffffffffffffffffffffffffffffffffffffffff1673ffffffffffffffffffffffffffffffffffffffff16815260200190815260200160002060008573ffffffffffffffffffffffffffffffffffffffff1673ffffffffffffffffffffffffffffffffffffffff16815260200190815260200160002054905082811015611a55576040517f08c379a0000000000000000000000000000000000000000000000000000000008152600401611a4c9061605c565b60405180910390fd5b611a69611a60611f54565b85858403611f5c565b600191505092915050565b6000611a88611a81611f54565b8484612127565b6001905092915050565b83421115611ad5576040517f08c379a0000000000000000000000000000000000000000000000000000000008152600401611acc90615d3c565b60405180910390fd5b6000611b37611b2f7fe48329057bfd03d55e49b547132e39cffd9c1820ad7b9d4c5307691425d15adf898989604051602001611b149493929190615bbd565b60405160208183030381529060405280519060200120613081565b85858561309b565b9050611b42816130c6565b8614611b83576040517f08c379a0000000000000000000000000000000000000000000000000000000008152600401611b7a90615d9c565b60405180910390fd5b611b8d8188612a1d565b50505050505050565b83421115611bd9576040517f08c379a0000000000000000000000000000000000000000000000000000000008152600401611bd090615e1c565b60405180910390fd5b600061013054888888611beb8c6130c6565b89604051602001611c0196959493929190615b5c565b6040516020818303038152906040528051906020012090506000611c2482613081565b90506000611c348287878761309b565b90508973ffffffffffffffffffffffffffffffffffffffff168173ffffffffffffffffffffffffffffffffffffffff1614611ca4576040517f08c379a0000000000000000000000000000000000000000000000000000000008152600401611c9b90615efc565b60405180910390fd5b611caf8a8a8a611f5c565b50505050505050505050565b7f9f2df0fed2c77648de5860a4cc508cd0818c85b8b8a1ab4ceeef8d981c8956a681565b611ce882610c1b565b611cf981611cf4611f54565b6123ab565b611d038383612569565b505050565b6000603460008473ffffffffffffffffffffffffffffffffffffffff1673ffffffffffffffffffffffffffffffffffffffff16815260200190815260200160002060008373ffffffffffffffffffffffffffffffffffffffff1673ffffffffffffffffffffffffffffffffffffffff16815260200190815260200160002054905092915050565b611d97614da4565b61016360008473ffffffffffffffffffffffffffffffffffffffff1673ffffffffffffffffffffffffffffffffffffffff1681526020019081526020016000208263ffffffff1681548110611e15577f4e487b7100000000000000000000000000000000000000000000000000000000600052603260045260246000fd5b906000526020600020016040518060400160405290816000820160009054906101000a900463ffffffff1663ffffffff1663ffffffff1681526020016000820160049054906101000a90047bffffffffffffffffffffffffffffffffffffffffffffffffffffffff167bffffffffffffffffffffffffffffffffffffffffffffffffffffffff167bffffffffffffffffffffffffffffffffffffffffffffffffffffffff1681525050905092915050565b7f189ab7a9244df0848122154315af71fe140f3db0fe014031783b0946b8c9d2e381565b60007f01ffc9a7000000000000000000000000000000000000000000000000000000007bffffffffffffffffffffffffffffffffffffffffffffffffffffffff1916827bffffffffffffffffffffffffffffffffffffffffffffffffffffffff1916149050919050565b600033905090565b600073ffffffffffffffffffffffffffffffffffffffff168373ffffffffffffffffffffffffffffffffffffffff161415611fcc576040517f08c379a0000000000000000000000000000000000000000000000000000000008152600401611fc39061603c565b60405180910390fd5b600073ffffffffffffffffffffffffffffffffffffffff168273ffffffffffffffffffffffffffffffffffffffff16141561203c576040517f08c379a000000000000000000000000000000000000000000000000000000000815260040161203390615ddc565b60405180910390fd5b80603460008573ffffffffffffffffffffffffffffffffffffffff1673ffffffffffffffffffffffffffffffffffffffff16815260200190815260200160002060008473ffffffffffffffffffffffffffffffffffffffff1673ffffffffffffffffffffffffffffffffffffffff168152602001908152602001600020819055508173ffffffffffffffffffffffffffffffffffffffff168373ffffffffffffffffffffffffffffffffffffffff167f8c5be1e5ebec7d5bd14f71427d1e84f3dd0314c0f7b2291e5b200ac8c7c3b9258360405161211a91906160d7565b60405180910390a3505050565b600073ffffffffffffffffffffffffffffffffffffffff168373ffffffffffffffffffffffffffffffffffffffff161415612197576040517f08c379a000000000000000000000000000000000000000000000000000000000815260040161218e90615ffc565b60405180910390fd5b600073ffffffffffffffffffffffffffffffffffffffff168273ffffffffffffffffffffffffffffffffffffffff161415612207576040517f08c379a00000000000000000000000000000000000000000000000000000000081526004016121fe90615cfc565b60405180910390fd5b612212838383613125565b6000603360008573ffffffffffffffffffffffffffffffffffffffff1673ffffffffffffffffffffffffffffffffffffffff16815260200190815260200160002054905081811015612299576040517f08c379a000000000000000000000000000000000000000000000000000000000815260040161229090615e3c565b60405180910390fd5b818103603360008673ffffffffffffffffffffffffffffffffffffffff1673ffffffffffffffffffffffffffffffffffffffff1681526020019081526020016000208190555081603360008573ffffffffffffffffffffffffffffffffffffffff1673ffffffffffffffffffffffffffffffffffffffff168152602001908152602001600020600082825461232e919061623c565b925050819055508273ffffffffffffffffffffffffffffffffffffffff168473ffffffffffffffffffffffffffffffffffffffff167fddf252ad1be2c89b69c2b068fc378daa952ba7f163c4a11628f55a4df523b3ef8460405161239291906160d7565b60405180910390a36123a584848461312a565b50505050565b6123b5828261170b565b612444576123da8173ffffffffffffffffffffffffffffffffffffffff16601461313a565b6123e88360001c602061313a565b6040516020016123f9929190615ad1565b6040516020818303038152906040526040517f08c379a000000000000000000000000000000000000000000000000000000000815260040161243b9190615c9a565b60405180910390fd5b5050565b612452828261170b565b61252557600160c9600084815260200190815260200160002060000160008373ffffffffffffffffffffffffffffffffffffffff1673ffffffffffffffffffffffffffffffffffffffff16815260200190815260200160002060006101000a81548160ff0219169083151502179055506124ca611f54565b73ffffffffffffffffffffffffffffffffffffffff168173ffffffffffffffffffffffffffffffffffffffff16837f2f8788117e7eff1d82e926ec794901d17c78024a50270940304540a733656f0d60405160405180910390a45b5050565b60006125647f8b73c3c69bb8fe3d512ecc4cf759cc79239f7b179b0ffacaa9a75d522b39400f612557613434565b61255f61343e565b613448565b905090565b612573828261170b565b1561264757600060c9600084815260200190815260200160002060000160008373ffffffffffffffffffffffffffffffffffffffff1673ffffffffffffffffffffffffffffffffffffffff16815260200190815260200160002060006101000a81548160ff0219169083151502179055506125ec611f54565b73ffffffffffffffffffffffffffffffffffffffff168173ffffffffffffffffffffffffffffffffffffffff16837ff6391f5c32d9c69d2a47ea670b442974b53935d1edc7fd64eb21e047a839171b60405160405180910390a45b5050565b60006126797f360894a13ba1a3210667c828492db98dca3e2076cc3735a920a3ca505d382bbc60001b613482565b60000160009054906101000a900473ffffffffffffffffffffffffffffffffffffffff16905090565b7f189ab7a9244df0848122154315af71fe140f3db0fe014031783b0946b8c9d2e36126d4816126cf611f54565b6123ab565b5050565b60006126e261264b565b90506126ed8461348c565b6000835111806126fa5750815b1561270b576127098484613545565b505b60006127397f4910fdfa16fed3260ed0e7147f7cc6da11a60208b5b9406d12a635614ffd914360001b613629565b90508060000160009054906101000a900460ff166128a25760018160000160006101000a81548160ff02191690831515021790555061280585836040516024016127839190615b0b565b6040516020818303038152906040527f3659cfe6000000000000000000000000000000000000000000000000000000007bffffffffffffffffffffffffffffffffffffffffffffffffffffffff19166020820180517bffffffffffffffffffffffffffffffffffffffffffffffffffffffff8381831617835250505050613545565b5060008160000160006101000a81548160ff02191690831515021790555061282b61264b565b73ffffffffffffffffffffffffffffffffffffffff168273ffffffffffffffffffffffffffffffffffffffff1614612898576040517f08c379a000000000000000000000000000000000000000000000000000000000815260040161288f90615dbc565b60405180910390fd5b6128a185613633565b5b5050505050565b6000808380549050905060005b8181101561294e5760006128ca8284613682565b905084868281548110612906577f4e487b7100000000000000000000000000000000000000000000000000000000600052603260045260246000fd5b9060005260206000200160000160009054906101000a900463ffffffff1663ffffffff16111561293857809250612948565b600181612945919061623c565b91505b506128b6565b600082146129d65784600183612964919061631d565b8154811061299b577f4e487b7100000000000000000000000000000000000000000000000000000000600052603260045260246000fd5b9060005260206000200160000160049054906101000a90047bffffffffffffffffffffffffffffffffffffffffffffffffffffffff166129d9565b60005b7bffffffffffffffffffffffffffffffffffffffffffffffffffffffff169250505092915050565b612a0b82826136a8565b5050565b612a198282613736565b5050565b6000612a28836111a5565b90506000612a3584611278565b90508261016260008673ffffffffffffffffffffffffffffffffffffffff1673ffffffffffffffffffffffffffffffffffffffff16815260200190815260200160002060006101000a81548173ffffffffffffffffffffffffffffffffffffffff021916908373ffffffffffffffffffffffffffffffffffffffff1602179055508273ffffffffffffffffffffffffffffffffffffffff168273ffffffffffffffffffffffffffffffffffffffff168573ffffffffffffffffffffffffffffffffffffffff167f3134e8a2e6d97e929a7e54011ea5485d7d196dd5f0ba4d4ef95803e8e3fc257f60405160405180910390a4612b32828483613755565b50505050565b600063ffffffff8016821115612b83576040517f08c379a0000000000000000000000000000000000000000000000000000000008152600401612b7a9061601c565b60405180910390fd5b819050919050565b600081600001549050919050565b600060019054906101000a900460ff1680612bbf575060008054906101000a900460ff16155b612bfe576040517f08c379a0000000000000000000000000000000000000000000000000000000008152600401612bf590615ebc565b60405180910390fd5b60008060019054906101000a900460ff161590508015612c4e576001600060016101000a81548160ff02191690831515021790555060016000806101000a81548160ff0219169083151502179055505b612c56613950565b612c608383613a29565b8015612c815760008060016101000a81548160ff0219169083151502179055505b505050565b600060019054906101000a900460ff1680612cac575060008054906101000a900460ff16155b612ceb576040517f08c379a0000000000000000000000000000000000000000000000000000000008152600401612ce290615ebc565b60405180910390fd5b60008060019054906101000a900460ff161590508015612d3b576001600060016101000a81548160ff02191690831515021790555060016000806101000a81548160ff0219169083151502179055505b612d43613950565b612d4b613b32565b8015612d6c5760008060016101000a81548160ff0219169083151502179055505b50565b600060019054906101000a900460ff1680612d95575060008054906101000a900460ff16155b612dd4576040517f08c379a0000000000000000000000000000000000000000000000000000000008152600401612dcb90615ebc565b60405180910390fd5b60008060019054906101000a900460ff161590508015612e24576001600060016101000a81548160ff02191690831515021790555060016000806101000a81548160ff0219169083151502179055505b612e2c613950565b612e34613c0b565b612e3c613ce4565b8015612e5d5760008060016101000a81548160ff0219169083151502179055505b50565b600060019054906101000a900460ff1680612e86575060008054906101000a900460ff16155b612ec5576040517f08c379a0000000000000000000000000000000000000000000000000000000008152600401612ebc90615ebc565b60405180910390fd5b60008060019054906101000a900460ff161590508015612f15576001600060016101000a81548160ff02191690831515021790555060016000806101000a81548160ff0219169083151502179055505b612f1d613950565b612f5c826040518060400160405280600181526020017f3100000000000000000000000000000000000000000000000000000000000000815250613dbd565b612f6582613ec0565b8015612f865760008060016101000a81548160ff0219169083151502179055505b5050565b600060019054906101000a900460ff1680612fb0575060008054906101000a900460ff16155b612fef576040517f08c379a0000000000000000000000000000000000000000000000000000000008152600401612fe690615ebc565b60405180910390fd5b60008060019054906101000a900460ff16159050801561303f576001600060016101000a81548160ff02191690831515021790555060016000806101000a81548160ff0219169083151502179055505b613047613fc2565b61304f61409b565b80156130705760008060016101000a81548160ff0219169083151502179055505b50565b61307d8282612448565b5050565b600061309461308e612529565b83614174565b9050919050565b60008060006130ac878787876141a7565b915091506130b9816142b4565b8192505050949350505050565b60008061012f60008473ffffffffffffffffffffffffffffffffffffffff1673ffffffffffffffffffffffffffffffffffffffff168152602001908152602001600020905061311481612b8b565b915061311f81614605565b50919050565b505050565b61313583838361461b565b505050565b60606000600283600261314d91906162c3565b613157919061623c565b67ffffffffffffffff811115613196577f4e487b7100000000000000000000000000000000000000000000000000000000600052604160045260246000fd5b6040519080825280601f01601f1916602001820160405280156131c85781602001600182028036833780820191505090505b5090507f300000000000000000000000000000000000000000000000000000000000000081600081518110613226577f4e487b7100000000000000000000000000000000000000000000000000000000600052603260045260246000fd5b60200101907effffffffffffffffffffffffffffffffffffffffffffffffffffffffffffff1916908160001a9053507f7800000000000000000000000000000000000000000000000000000000000000816001815181106132b0577f4e487b7100000000000000000000000000000000000000000000000000000000600052603260045260246000fd5b60200101907effffffffffffffffffffffffffffffffffffffffffffffffffffffffffffff1916908160001a905350600060018460026132f091906162c3565b6132fa919061623c565b90505b60018111156133e6577f3031323334353637383961626364656600000000000000000000000000000000600f861660108110613362577f4e487b7100000000000000000000000000000000000000000000000000000000600052603260045260246000fd5b1a60f81b82828151811061339f577f4e487b7100000000000000000000000000000000000000000000000000000000600052603260045260246000fd5b60200101907effffffffffffffffffffffffffffffffffffffffffffffffffffffffffffff1916908160001a905350600485901c9450806133df90616456565b90506132fd565b506000841461342a576040517f08c379a000000000000000000000000000000000000000000000000000000000815260040161342190615cdc565b60405180910390fd5b8091505092915050565b600060fb54905090565b600060fc54905090565b60008383834630604051602001613463959493929190615c02565b6040516020818303038152906040528051906020012090509392505050565b6000819050919050565b61349581614646565b6134d4576040517f08c379a00000000000000000000000000000000000000000000000000000000081526004016134cb90615f1c565b60405180910390fd5b806135017f360894a13ba1a3210667c828492db98dca3e2076cc3735a920a3ca505d382bbc60001b613482565b60000160006101000a81548173ffffffffffffffffffffffffffffffffffffffff021916908373ffffffffffffffffffffffffffffffffffffffff16021790555050565b606061355083614646565b61358f576040517f08c379a000000000000000000000000000000000000000000000000000000000815260040161358690615fdc565b60405180910390fd5b6000808473ffffffffffffffffffffffffffffffffffffffff16846040516135b79190615a83565b600060405180830381855af49150503d80600081146135f2576040519150601f19603f3d011682016040523d82523d6000602084013e6135f7565b606091505b509150915061361f8282604051806060016040528060278152602001616f9360279139614659565b9250505092915050565b6000819050919050565b61363c8161348c565b8073ffffffffffffffffffffffffffffffffffffffff167fbc7cd75a20ee27fd9adebab32041f755214dbc6bffa90cc0225b39da2e5c2d3b60405160405180910390a250565b600060028284186136939190616292565b8284166136a0919061623c565b905092915050565b6136b282826146c0565b6136ba614821565b7bffffffffffffffffffffffffffffffffffffffffffffffffffffffff166136e0610b19565b1115613721576040517f08c379a000000000000000000000000000000000000000000000000000000000815260040161371890615f5c565b60405180910390fd5b6137306101646148458361485b565b50505050565b6137408282614b45565b61374f610164614d1e8361485b565b50505050565b8173ffffffffffffffffffffffffffffffffffffffff168373ffffffffffffffffffffffffffffffffffffffff16141580156137915750600081115b1561394b57600073ffffffffffffffffffffffffffffffffffffffff168373ffffffffffffffffffffffffffffffffffffffff16146138705760008061381961016360008773ffffffffffffffffffffffffffffffffffffffff1673ffffffffffffffffffffffffffffffffffffffff168152602001908152602001600020614d1e8561485b565b915091508473ffffffffffffffffffffffffffffffffffffffff167fdec2bacdd2f05b59de34da9b523dff8be42e5e38e818c82fdb0bae774387a72483836040516138659291906160f2565b60405180910390a250505b600073ffffffffffffffffffffffffffffffffffffffff168273ffffffffffffffffffffffffffffffffffffffff161461394a576000806138f361016360008673ffffffffffffffffffffffffffffffffffffffff1673ffffffffffffffffffffffffffffffffffffffff1681526020019081526020016000206148458561485b565b915091508373ffffffffffffffffffffffffffffffffffffffff167fdec2bacdd2f05b59de34da9b523dff8be42e5e38e818c82fdb0bae774387a724838360405161393f9291906160f2565b60405180910390a250505b5b505050565b600060019054906101000a900460ff1680613976575060008054906101000a900460ff16155b6139b5576040517f08c379a00000000000000000000000000000000000000000000000000000000081526004016139ac90615ebc565b60405180910390fd5b60008060019054906101000a900460ff161590508015613a05576001600060016101000a81548160ff02191690831515021790555060016000806101000a81548160ff0219169083151502179055505b8015613a265760008060016101000a81548160ff0219169083151502179055505b50565b600060019054906101000a900460ff1680613a4f575060008054906101000a900460ff16155b613a8e576040517f08c379a0000000000000000000000000000000000000000000000000000000008152600401613a8590615ebc565b60405180910390fd5b60008060019054906101000a900460ff161590508015613ade576001600060016101000a81548160ff02191690831515021790555060016000806101000a81548160ff0219169083151502179055505b8260369080519060200190613af4929190614de2565b508160379080519060200190613b0b929190614de2565b508015613b2d5760008060016101000a81548160ff0219169083151502179055505b505050565b600060019054906101000a900460ff1680613b58575060008054906101000a900460ff16155b613b97576040517f08c379a0000000000000000000000000000000000000000000000000000000008152600401613b8e90615ebc565b60405180910390fd5b60008060019054906101000a900460ff161590508015613be7576001600060016101000a81548160ff02191690831515021790555060016000806101000a81548160ff0219169083151502179055505b8015613c085760008060016101000a81548160ff0219169083151502179055505b50565b600060019054906101000a900460ff1680613c31575060008054906101000a900460ff16155b613c70576040517f08c379a0000000000000000000000000000000000000000000000000000000008152600401613c6790615ebc565b60405180910390fd5b60008060019054906101000a900460ff161590508015613cc0576001600060016101000a81548160ff02191690831515021790555060016000806101000a81548160ff0219169083151502179055505b8015613ce15760008060016101000a81548160ff0219169083151502179055505b50565b600060019054906101000a900460ff1680613d0a575060008054906101000a900460ff16155b613d49576040517f08c379a0000000000000000000000000000000000000000000000000000000008152600401613d4090615ebc565b60405180910390fd5b60008060019054906101000a900460ff161590508015613d99576001600060016101000a81548160ff02191690831515021790555060016000806101000a81548160ff0219169083151502179055505b8015613dba5760008060016101000a81548160ff0219169083151502179055505b50565b600060019054906101000a900460ff1680613de3575060008054906101000a900460ff16155b613e22576040517f08c379a0000000000000000000000000000000000000000000000000000000008152600401613e1990615ebc565b60405180910390fd5b60008060019054906101000a900460ff161590508015613e72576001600060016101000a81548160ff02191690831515021790555060016000806101000a81548160ff0219169083151502179055505b6000838051906020012090506000838051906020012090508160fb819055508060fc8190555050508015613ebb5760008060016101000a81548160ff0219169083151502179055505b505050565b600060019054906101000a900460ff1680613ee6575060008054906101000a900460ff16155b613f25576040517f08c379a0000000000000000000000000000000000000000000000000000000008152600401613f1c90615ebc565b60405180910390fd5b60008060019054906101000a900460ff161590508015613f75576001600060016101000a81548160ff02191690831515021790555060016000806101000a81548160ff0219169083151502179055505b7f6e71edae12b1b97f4d1f60370fef10105fa2faae0126114a169c64845d6126c9610130819055508015613fbe5760008060016101000a81548160ff0219169083151502179055505b5050565b600060019054906101000a900460ff1680613fe8575060008054906101000a900460ff16155b614027576040517f08c379a000000000000000000000000000000000000000000000000000000000815260040161401e90615ebc565b60405180910390fd5b60008060019054906101000a900460ff161590508015614077576001600060016101000a81548160ff02191690831515021790555060016000806101000a81548160ff0219169083151502179055505b80156140985760008060016101000a81548160ff0219169083151502179055505b50565b600060019054906101000a900460ff16806140c1575060008054906101000a900460ff16155b614100576040517f08c379a00000000000000000000000000000000000000000000000000000000081526004016140f790615ebc565b60405180910390fd5b60008060019054906101000a900460ff161590508015614150576001600060016101000a81548160ff02191690831515021790555060016000806101000a81548160ff0219169083151502179055505b80156141715760008060016101000a81548160ff0219169083151502179055505b50565b60008282604051602001614189929190615a9a565b60405160208183030381529060405280519060200120905092915050565b6000807f7fffffffffffffffffffffffffffffff5d576e7357a4501ddfe92f46681b20a08360001c11156141e25760006003915091506142ab565b601b8560ff16141580156141fa5750601c8560ff1614155b1561420c5760006004915091506142ab565b6000600187878787604051600081526020016040526040516142319493929190615c55565b6020604051602081039080840390855afa158015614253573d6000803e3d6000fd5b505050602060405103519050600073ffffffffffffffffffffffffffffffffffffffff168173ffffffffffffffffffffffffffffffffffffffff1614156142a2576000600192509250506142ab565b80600092509250505b94509492505050565b600060048111156142ee577f4e487b7100000000000000000000000000000000000000000000000000000000600052602160045260246000fd5b816004811115614327577f4e487b7100000000000000000000000000000000000000000000000000000000600052602160045260246000fd5b141561433257614602565b6001600481111561436c577f4e487b7100000000000000000000000000000000000000000000000000000000600052602160045260246000fd5b8160048111156143a5577f4e487b7100000000000000000000000000000000000000000000000000000000600052602160045260246000fd5b14156143e6576040517f08c379a00000000000000000000000000000000000000000000000000000000081526004016143dd90615cbc565b60405180910390fd5b60026004811115614420577f4e487b7100000000000000000000000000000000000000000000000000000000600052602160045260246000fd5b816004811115614459577f4e487b7100000000000000000000000000000000000000000000000000000000600052602160045260246000fd5b141561449a576040517f08c379a000000000000000000000000000000000000000000000000000000000815260040161449190615d7c565b60405180910390fd5b600360048111156144d4577f4e487b7100000000000000000000000000000000000000000000000000000000600052602160045260246000fd5b81600481111561450d577f4e487b7100000000000000000000000000000000000000000000000000000000600052602160045260246000fd5b141561454e576040517f08c379a000000000000000000000000000000000000000000000000000000000815260040161454590615e5c565b60405180910390fd5b600480811115614587577f4e487b7100000000000000000000000000000000000000000000000000000000600052602160045260246000fd5b8160048111156145c0577f4e487b7100000000000000000000000000000000000000000000000000000000600052602160045260246000fd5b1415614601576040517f08c379a00000000000000000000000000000000000000000000000000000000081526004016145f890615edc565b60405180910390fd5b5b50565b6001816000016000828254019250508190555050565b614626838383614d34565b614641614632846111a5565b61463b846111a5565b83613755565b505050565b600080823b905060008111915050919050565b60608315614669578290506146b9565b60008351111561467c5782518084602001fd5b816040517f08c379a00000000000000000000000000000000000000000000000000000000081526004016146b09190615c9a565b60405180910390fd5b9392505050565b600073ffffffffffffffffffffffffffffffffffffffff168273ffffffffffffffffffffffffffffffffffffffff161415614730576040517f08c379a00000000000000000000000000000000000000000000000000000000081526004016147279061609c565b60405180910390fd5b61473c60008383613125565b806035600082825461474e919061623c565b9250508190555080603360008473ffffffffffffffffffffffffffffffffffffffff1673ffffffffffffffffffffffffffffffffffffffff16815260200190815260200160002060008282546147a4919061623c565b925050819055508173ffffffffffffffffffffffffffffffffffffffff16600073ffffffffffffffffffffffffffffffffffffffff167fddf252ad1be2c89b69c2b068fc378daa952ba7f163c4a11628f55a4df523b3ef8360405161480991906160d7565b60405180910390a361481d6000838361312a565b5050565b60007bffffffffffffffffffffffffffffffffffffffffffffffffffffffff905090565b60008183614853919061623c565b905092915050565b600080600085805490509050600081146148ef578560018261487d919061631d565b815481106148b4577f4e487b7100000000000000000000000000000000000000000000000000000000600052603260045260246000fd5b9060005260206000200160000160049054906101000a90047bffffffffffffffffffffffffffffffffffffffffffffffffffffffff166148f2565b60005b7bffffffffffffffffffffffffffffffffffffffffffffffffffffffff16925061492083858763ffffffff16565b91506000811180156149995750438660018361493c919061631d565b81548110614973577f4e487b7100000000000000000000000000000000000000000000000000000000600052603260045260246000fd5b9060005260206000200160000160009054906101000a900463ffffffff1663ffffffff16145b15614a4c576149a782614d39565b866001836149b5919061631d565b815481106149ec577f4e487b7100000000000000000000000000000000000000000000000000000000600052603260045260246000fd5b9060005260206000200160000160046101000a8154817bffffffffffffffffffffffffffffffffffffffffffffffffffffffff02191690837bffffffffffffffffffffffffffffffffffffffffffffffffffffffff160217905550614b3c565b856040518060400160405280614a6143612b38565b63ffffffff168152602001614a7585614d39565b7bffffffffffffffffffffffffffffffffffffffffffffffffffffffff168152509080600181540180825580915050600190039060005260206000200160009091909190915060008201518160000160006101000a81548163ffffffff021916908363ffffffff16021790555060208201518160000160046101000a8154817bffffffffffffffffffffffffffffffffffffffffffffffffffffffff02191690837bffffffffffffffffffffffffffffffffffffffffffffffffffffffff16021790555050505b50935093915050565b600073ffffffffffffffffffffffffffffffffffffffff168273ffffffffffffffffffffffffffffffffffffffff161415614bb5576040517f08c379a0000000000000000000000000000000000000000000000000000000008152600401614bac90615fbc565b60405180910390fd5b614bc182600083613125565b6000603360008473ffffffffffffffffffffffffffffffffffffffff1673ffffffffffffffffffffffffffffffffffffffff16815260200190815260200160002054905081811015614c48576040517f08c379a0000000000000000000000000000000000000000000000000000000008152600401614c3f90615d5c565b60405180910390fd5b818103603360008573ffffffffffffffffffffffffffffffffffffffff1673ffffffffffffffffffffffffffffffffffffffff168152602001908152602001600020819055508160356000828254614ca0919061631d565b92505081905550600073ffffffffffffffffffffffffffffffffffffffff168373ffffffffffffffffffffffffffffffffffffffff167fddf252ad1be2c89b69c2b068fc378daa952ba7f163c4a11628f55a4df523b3ef84604051614d0591906160d7565b60405180910390a3614d198360008461312a565b505050565b60008183614d2c919061631d565b905092915050565b505050565b60007bffffffffffffffffffffffffffffffffffffffffffffffffffffffff8016821115614d9c576040517f08c379a0000000000000000000000000000000000000000000000000000000008152600401614d9390615f7c565b60405180910390fd5b819050919050565b6040518060400160405280600063ffffffff16815260200160007bffffffffffffffffffffffffffffffffffffffffffffffffffffffff1681525090565b828054614dee90616480565b90600052602060002090601f016020900481019282614e105760008555614e57565b82601f10614e2957805160ff1916838001178555614e57565b82800160010185558215614e57579182015b82811115614e56578251825591602001919060010190614e3b565b5b509050614e649190614e68565b5090565b5b80821115614e81576000816000905550600101614e69565b5090565b6000614e98614e9384616176565b616151565b90508083825260208201905082856020860282011115614eb757600080fd5b60005b85811015614ee75781614ecd8882614f9b565b845260208401935060208301925050600181019050614eba565b5050509392505050565b6000614f04614eff846161a2565b616151565b90508083825260208201905082856020860282011115614f2357600080fd5b60005b85811015614f535781614f398882615058565b845260208401935060208301925050600181019050614f26565b5050509392505050565b6000614f70614f6b846161ce565b616151565b905082815260208101848484011115614f8857600080fd5b614f93848285616414565b509392505050565b600081359050614faa81616f08565b92915050565b600082601f830112614fc157600080fd5b8135614fd1848260208601614e85565b91505092915050565b600082601f830112614feb57600080fd5b8135614ffb848260208601614ef1565b91505092915050565b60008135905061501381616f1f565b92915050565b60008135905061502881616f36565b92915050565b600082601f83011261503f57600080fd5b813561504f848260208601614f5d565b91505092915050565b60008135905061506781616f4d565b92915050565b60008135905061507c81616f64565b92915050565b60008135905061509181616f7b565b92915050565b6000602082840312156150a957600080fd5b60006150b784828501614f9b565b91505092915050565b600080604083850312156150d357600080fd5b60006150e185828601614f9b565b92505060206150f285828601614f9b565b9150509250929050565b60008060006060848603121561511157600080fd5b600061511f86828701614f9b565b935050602061513086828701614f9b565b925050604061514186828701615058565b9150509250925092565b600080600080600080600060e0888a03121561516657600080fd5b60006151748a828b01614f9b565b97505060206151858a828b01614f9b565b96505060406151968a828b01615058565b95505060606151a78a828b01615058565b94505060806151b88a828b01615082565b93505060a06151c98a828b01615004565b92505060c06151da8a828b01615004565b91505092959891949750929550565b600080604083850312156151fc57600080fd5b600061520a85828601614f9b565b925050602083013567ffffffffffffffff81111561522757600080fd5b6152338582860161502e565b9150509250929050565b6000806040838503121561525057600080fd5b600061525e85828601614f9b565b925050602061526f85828601615058565b9150509250929050565b60008060008060008060c0878903121561529257600080fd5b60006152a089828a01614f9b565b96505060206152b189828a01615058565b95505060406152c289828a01615058565b94505060606152d389828a01615082565b93505060806152e489828a01615004565b92505060a06152f589828a01615004565b9150509295509295509295565b6000806040838503121561531557600080fd5b600061532385828601614f9b565b92505060206153348582860161506d565b9150509250929050565b6000806040838503121561535157600080fd5b600083013567ffffffffffffffff81111561536b57600080fd5b61537785828601614fb0565b925050602083013567ffffffffffffffff81111561539457600080fd5b6153a085828601614fda565b9150509250929050565b6000602082840312156153bc57600080fd5b60006153ca84828501615004565b91505092915050565b600080604083850312156153e657600080fd5b60006153f485828601615004565b925050602061540585828601614f9b565b9150509250929050565b60006020828403121561542157600080fd5b600061542f84828501615019565b91505092915050565b60006020828403121561544a57600080fd5b600061545884828501615058565b91505092915050565b61546a81616351565b82525050565b61547981616363565b82525050565b6154888161636f565b82525050565b61549f61549a8261636f565b61652c565b82525050565b60006154b0826161ff565b6154ba8185616215565b93506154ca818560208601616423565b80840191505092915050565b60006154e18261620a565b6154eb8185616220565b93506154fb818560208601616423565b615504816165f2565b840191505092915050565b600061551a8261620a565b6155248185616231565b9350615534818560208601616423565b80840191505092915050565b600061554d601883616220565b915061555882616603565b602082019050919050565b6000615570602083616220565b915061557b8261662c565b602082019050919050565b6000615593602383616220565b915061559e82616655565b604082019050919050565b60006155b6601f83616220565b91506155c1826166a4565b602082019050919050565b60006155d9601d83616220565b91506155e4826166cd565b602082019050919050565b60006155fc602283616220565b9150615607826166f6565b604082019050919050565b600061561f601f83616220565b915061562a82616745565b602082019050919050565b6000615642601983616220565b915061564d8261676e565b602082019050919050565b6000615665602f83616220565b915061567082616797565b604082019050919050565b6000615688602283616220565b9150615693826167e6565b604082019050919050565b60006156ab600283616231565b91506156b682616835565b600282019050919050565b60006156ce602c83616220565b91506156d98261685e565b604082019050919050565b60006156f1601d83616220565b91506156fc826168ad565b602082019050919050565b6000615714602683616220565b915061571f826168d6565b604082019050919050565b6000615737602283616220565b915061574282616925565b604082019050919050565b600061575a602c83616220565b915061576582616974565b604082019050919050565b600061577d602d83616220565b9150615788826169c3565b604082019050919050565b60006157a0602e83616220565b91506157ab82616a12565b604082019050919050565b60006157c3602283616220565b91506157ce82616a61565b604082019050919050565b60006157e6601e83616220565b91506157f182616ab0565b602082019050919050565b6000615809602d83616220565b915061581482616ad9565b604082019050919050565b600061582c602883616220565b915061583782616b28565b604082019050919050565b600061584f603083616220565b915061585a82616b77565b604082019050919050565b6000615872602783616220565b915061587d82616bc6565b604082019050919050565b6000615895602483616220565b91506158a082616c15565b604082019050919050565b60006158b8602183616220565b91506158c382616c64565b604082019050919050565b60006158db602683616220565b91506158e682616cb3565b604082019050919050565b60006158fe602583616220565b915061590982616d02565b604082019050919050565b6000615921602683616220565b915061592c82616d51565b604082019050919050565b6000615944602483616220565b915061594f82616da0565b604082019050919050565b6000615967601783616231565b915061597282616def565b601782019050919050565b600061598a602583616220565b915061599582616e18565b604082019050919050565b60006159ad601183616231565b91506159b882616e67565b601182019050919050565b60006159d0602f83616220565b91506159db82616e90565b604082019050919050565b60006159f3601f83616220565b91506159fe82616edf565b602082019050919050565b604082016000820151615a1f6000850182615a56565b506020820151615a326020850182615a38565b50505050565b615a41816163c5565b82525050565b615a50816163ed565b82525050565b615a5f816163f7565b82525050565b615a6e816163f7565b82525050565b615a7d81616407565b82525050565b6000615a8f82846154a5565b915081905092915050565b6000615aa58261569e565b9150615ab1828561548e565b602082019150615ac1828461548e565b6020820191508190509392505050565b6000615adc8261595a565b9150615ae8828561550f565b9150615af3826159a0565b9150615aff828461550f565b91508190509392505050565b6000602082019050615b206000830184615461565b92915050565b6000602082019050615b3b6000830184615470565b92915050565b6000602082019050615b56600083018461547f565b92915050565b600060c082019050615b71600083018961547f565b615b7e6020830188615461565b615b8b6040830187615461565b615b986060830186615a47565b615ba56080830185615a47565b615bb260a0830184615a47565b979650505050505050565b6000608082019050615bd2600083018761547f565b615bdf6020830186615461565b615bec6040830185615a47565b615bf96060830184615a47565b95945050505050565b600060a082019050615c17600083018861547f565b615c24602083018761547f565b615c31604083018661547f565b615c3e6060830185615a47565b615c4b6080830184615461565b9695505050505050565b6000608082019050615c6a600083018761547f565b615c776020830186615a74565b615c84604083018561547f565b615c91606083018461547f565b95945050505050565b60006020820190508181036000830152615cb481846154d6565b905092915050565b60006020820190508181036000830152615cd581615540565b9050919050565b60006020820190508181036000830152615cf581615563565b9050919050565b60006020820190508181036000830152615d1581615586565b9050919050565b60006020820190508181036000830152615d35816155a9565b9050919050565b60006020820190508181036000830152615d55816155cc565b9050919050565b60006020820190508181036000830152615d75816155ef565b9050919050565b60006020820190508181036000830152615d9581615612565b9050919050565b60006020820190508181036000830152615db581615635565b9050919050565b60006020820190508181036000830152615dd581615658565b9050919050565b60006020820190508181036000830152615df58161567b565b9050919050565b60006020820190508181036000830152615e15816156c1565b9050919050565b60006020820190508181036000830152615e35816156e4565b9050919050565b60006020820190508181036000830152615e5581615707565b9050919050565b60006020820190508181036000830152615e758161572a565b9050919050565b60006020820190508181036000830152615e958161574d565b9050919050565b60006020820190508181036000830152615eb581615770565b9050919050565b60006020820190508181036000830152615ed581615793565b9050919050565b60006020820190508181036000830152615ef5816157b6565b9050919050565b60006020820190508181036000830152615f15816157d9565b9050919050565b60006020820190508181036000830152615f35816157fc565b9050919050565b60006020820190508181036000830152615f558161581f565b9050919050565b60006020820190508181036000830152615f7581615842565b9050919050565b60006020820190508181036000830152615f9581615865565b9050919050565b60006020820190508181036000830152615fb581615888565b9050919050565b60006020820190508181036000830152615fd5816158ab565b9050919050565b60006020820190508181036000830152615ff5816158ce565b9050919050565b60006020820190508181036000830152616015816158f1565b9050919050565b6000602082019050818103600083015261603581615914565b9050919050565b6000602082019050818103600083015261605581615937565b9050919050565b600060208201905081810360008301526160758161597d565b9050919050565b60006020820190508181036000830152616095816159c3565b9050919050565b600060208201905081810360008301526160b5816159e6565b9050919050565b60006040820190506160d16000830184615a09565b92915050565b60006020820190506160ec6000830184615a47565b92915050565b60006040820190506161076000830185615a47565b6161146020830184615a47565b9392505050565b60006020820190506161306000830184615a65565b92915050565b600060208201905061614b6000830184615a74565b92915050565b600061615b61616c565b905061616782826164b2565b919050565b6000604051905090565b600067ffffffffffffffff821115616191576161906165c3565b5b602082029050602081019050919050565b600067ffffffffffffffff8211156161bd576161bc6165c3565b5b602082029050602081019050919050565b600067ffffffffffffffff8211156161e9576161e86165c3565b5b6161f2826165f2565b9050602081019050919050565b600081519050919050565b600081519050919050565b600081905092915050565b600082825260208201905092915050565b600081905092915050565b6000616247826163ed565b9150616252836163ed565b9250827fffffffffffffffffffffffffffffffffffffffffffffffffffffffffffffffff0382111561628757616286616536565b5b828201905092915050565b600061629d826163ed565b91506162a8836163ed565b9250826162b8576162b7616565565b5b828204905092915050565b60006162ce826163ed565b91506162d9836163ed565b9250817fffffffffffffffffffffffffffffffffffffffffffffffffffffffffffffffff048311821515161561631257616311616536565b5b828202905092915050565b6000616328826163ed565b9150616333836163ed565b92508282101561634657616345616536565b5b828203905092915050565b600061635c826163a5565b9050919050565b60008115159050919050565b6000819050919050565b60007fffffffff0000000000000000000000000000000000000000000000000000000082169050919050565b600073ffffffffffffffffffffffffffffffffffffffff82169050919050565b60007bffffffffffffffffffffffffffffffffffffffffffffffffffffffff82169050919050565b6000819050919050565b600063ffffffff82169050919050565b600060ff82169050919050565b82818337600083830152505050565b60005b83811015616441578082015181840152602081019050616426565b83811115616450576000848401525b50505050565b6000616461826163ed565b9150600082141561647557616474616536565b5b600182039050919050565b6000600282049050600182168061649857607f821691505b602082108114156164ac576164ab616594565b5b50919050565b6164bb826165f2565b810181811067ffffffffffffffff821117156164da576164d96165c3565b5b80604052505050565b60006164ee826163ed565b91507fffffffffffffffffffffffffffffffffffffffffffffffffffffffffffffffff82141561652157616520616536565b5b600182019050919050565b6000819050919050565b7f4e487b7100000000000000000000000000000000000000000000000000000000600052601160045260246000fd5b7f4e487b7100000000000000000000000000000000000000000000000000000000600052601260045260246000fd5b7f4e487b7100000000000000000000000000000000000000000000000000000000600052602260045260246000fd5b7f4e487b7100000000000000000000000000000000000000000000000000000000600052604160045260246000fd5b6000601f19601f8301169050919050565b7f45434453413a20696e76616c6964207369676e61747572650000000000000000600082015250565b7f537472696e67733a20686578206c656e67746820696e73756666696369656e74600082015250565b7f45524332303a207472616e7366657220746f20746865207a65726f206164647260008201527f6573730000000000000000000000000000000000000000000000000000000000602082015250565b7f4552433230566f7465733a20626c6f636b206e6f7420796574206d696e656400600082015250565b7f4552433230566f7465733a207369676e61747572652065787069726564000000600082015250565b7f45524332303a206275726e20616d6f756e7420657863656564732062616c616e60008201527f6365000000000000000000000000000000000000000000000000000000000000602082015250565b7f45434453413a20696e76616c6964207369676e6174757265206c656e67746800600082015250565b7f4552433230566f7465733a20696e76616c6964206e6f6e636500000000000000600082015250565b7f45524331393637557067726164653a207570677261646520627265616b73206660008201527f7572746865722075706772616465730000000000000000000000000000000000602082015250565b7f45524332303a20617070726f766520746f20746865207a65726f20616464726560008201527f7373000000000000000000000000000000000000000000000000000000000000602082015250565b7f1901000000000000000000000000000000000000000000000000000000000000600082015250565b7f46756e6374696f6e206d7573742062652063616c6c6564207468726f7567682060008201527f64656c656761746563616c6c0000000000000000000000000000000000000000602082015250565b7f45524332305065726d69743a206578706972656420646561646c696e65000000600082015250565b7f45524332303a207472616e7366657220616d6f756e742065786365656473206260008201527f616c616e63650000000000000000000000000000000000000000000000000000602082015250565b7f45434453413a20696e76616c6964207369676e6174757265202773272076616c60008201527f7565000000000000000000000000000000000000000000000000000000000000602082015250565b7f46756e6374696f6e206d7573742062652063616c6c6564207468726f7567682060008201527f6163746976652070726f78790000000000000000000000000000000000000000602082015250565b7f546f20616e6420416d6f756e747320617272617973206d75737420626520657160008201527f756976616c656e742073697a6500000000000000000000000000000000000000602082015250565b7f496e697469616c697a61626c653a20636f6e747261637420697320616c72656160008201527f647920696e697469616c697a6564000000000000000000000000000000000000602082015250565b7f45434453413a20696e76616c6964207369676e6174757265202776272076616c60008201527f7565000000000000000000000000000000000000000000000000000000000000602082015250565b7f45524332305065726d69743a20696e76616c6964207369676e61747572650000600082015250565b7f455243313936373a206e657720696d706c656d656e746174696f6e206973206e60008201527f6f74206120636f6e747261637400000000000000000000000000000000000000602082015250565b7f45524332303a207472616e7366657220616d6f756e742065786365656473206160008201527f6c6c6f77616e6365000000000000000000000000000000000000000000000000602082015250565b7f4552433230566f7465733a20746f74616c20737570706c79207269736b73206f60008201527f766572666c6f77696e6720766f74657300000000000000000000000000000000602082015250565b7f53616665436173743a2076616c756520646f65736e27742066697420696e203260008201527f3234206269747300000000000000000000000000000000000000000000000000602082015250565b7f45524332303a206275726e20616d6f756e74206578636565647320616c6c6f7760008201527f616e636500000000000000000000000000000000000000000000000000000000602082015250565b7f45524332303a206275726e2066726f6d20746865207a65726f2061646472657360008201527f7300000000000000000000000000000000000000000000000000000000000000602082015250565b7f416464726573733a2064656c65676174652063616c6c20746f206e6f6e2d636f60008201527f6e74726163740000000000000000000000000000000000000000000000000000602082015250565b7f45524332303a207472616e736665722066726f6d20746865207a65726f20616460008201527f6472657373000000000000000000000000000000000000000000000000000000602082015250565b7f53616665436173743a2076616c756520646f65736e27742066697420696e203360008201527f3220626974730000000000000000000000000000000000000000000000000000602082015250565b7f45524332303a20617070726f76652066726f6d20746865207a65726f2061646460008201527f7265737300000000000000000000000000000000000000000000000000000000602082015250565b7f416363657373436f6e74726f6c3a206163636f756e7420000000000000000000600082015250565b7f45524332303a2064656372656173656420616c6c6f77616e63652062656c6f7760008201527f207a65726f000000000000000000000000000000000000000000000000000000602082015250565b7f206973206d697373696e6720726f6c6520000000000000000000000000000000600082015250565b7f416363657373436f6e74726f6c3a2063616e206f6e6c792072656e6f756e636560008201527f20726f6c657320666f722073656c660000000000000000000000000000000000602082015250565b7f45524332303a206d696e7420746f20746865207a65726f206164647265737300600082015250565b616f1181616351565b8114616f1c57600080fd5b50565b616f288161636f565b8114616f3357600080fd5b50565b616f3f81616379565b8114616f4a57600080fd5b50565b616f56816163ed565b8114616f6157600080fd5b50565b616f6d816163f7565b8114616f7857600080fd5b50565b616f8481616407565b8114616f8f57600080fd5b5056fe416464726573733a206c6f772d6c6576656c2064656c65676174652063616c6c206661696c6564a264697066735822122064e8e9eefececf1b5404a68af6cb744c7696bcc30897dfd0ed67d0fa457e031364736f6c63430008040033",
  "linkReferences": {},
  "deployedLinkReferences": {}
}