{
  "_format": "hh-sol-artifact-1",
  "contractName": "GoGBattlesMatchHistory",
  "sourceName": "contracts/GoGBattlesMatchHistory.sol",
  "abi": [
    {
      "inputs": [],
      "stateMutability": "nonpayable",
      "type": "constructor"
    },
    {
      "anonymous": false,
      "inputs": [
        {
          "indexed": false,
          "internalType": "uint256",
          "name": "matchID",
          "type": "uint256"
        },
        {
          "indexed": false,
          "internalType": "address",
          "name": "winner",
          "type": "address"
        },
        {
          "indexed": false,
          "internalType": "address",
          "name": "loser",
          "type": "address"
        },
        {
          "indexed": false,
          "internalType": "uint256",
          "name": "timestamp",
          "type": "uint256"
        },
        {
          "indexed": false,
          "internalType": "string",
          "name": "ipfs",
          "type": "string"
        }
      ],
      "name": "Match",
      "type": "event"
    },
    {
      "anonymous": false,
      "inputs": [
        {
          "indexed": true,
          "internalType": "bytes32",
          "name": "role",
          "type": "bytes32"
        },
        {
          "indexed": true,
          "internalType": "bytes32",
          "name": "previousAdminRole",
          "type": "bytes32"
        },
        {
          "indexed": true,
          "internalType": "bytes32",
          "name": "newAdminRole",
          "type": "bytes32"
        }
      ],
      "name": "RoleAdminChanged",
      "type": "event"
    },
    {
      "anonymous": false,
      "inputs": [
        {
          "indexed": true,
          "internalType": "bytes32",
          "name": "role",
          "type": "bytes32"
        },
        {
          "indexed": true,
          "internalType": "address",
          "name": "account",
          "type": "address"
        },
        {
          "indexed": true,
          "internalType": "address",
          "name": "sender",
          "type": "address"
        }
      ],
      "name": "RoleGranted",
      "type": "event"
    },
    {
      "anonymous": false,
      "inputs": [
        {
          "indexed": true,
          "internalType": "bytes32",
          "name": "role",
          "type": "bytes32"
        },
        {
          "indexed": true,
          "internalType": "address",
          "name": "account",
          "type": "address"
        },
        {
          "indexed": true,
          "internalType": "address",
          "name": "sender",
          "type": "address"
        }
      ],
      "name": "RoleRevoked",
      "type": "event"
    },
    {
      "inputs": [],
      "name": "COORDINATOR_ROLE",
      "outputs": [
        {
          "internalType": "bytes32",
          "name": "",
          "type": "bytes32"
        }
      ],
      "stateMutability": "view",
      "type": "function"
    },
    {
      "inputs": [],
      "name": "DEFAULT_ADMIN_ROLE",
      "outputs": [
        {
          "internalType": "bytes32",
          "name": "",
          "type": "bytes32"
        }
      ],
      "stateMutability": "view",
      "type": "function"
    },
    {
      "inputs": [
        {
          "internalType": "bytes32",
          "name": "role",
          "type": "bytes32"
        }
      ],
      "name": "getRoleAdmin",
      "outputs": [
        {
          "internalType": "bytes32",
          "name": "",
          "type": "bytes32"
        }
      ],
      "stateMutability": "view",
      "type": "function"
    },
    {
      "inputs": [
        {
          "internalType": "bytes32",
          "name": "role",
          "type": "bytes32"
        },
        {
          "internalType": "address",
          "name": "account",
          "type": "address"
        }
      ],
      "name": "grantRole",
      "outputs": [],
      "stateMutability": "nonpayable",
      "type": "function"
    },
    {
      "inputs": [
        {
          "internalType": "bytes32",
          "name": "role",
          "type": "bytes32"
        },
        {
          "internalType": "address",
          "name": "account",
          "type": "address"
        }
      ],
      "name": "hasRole",
      "outputs": [
        {
          "internalType": "bool",
          "name": "",
          "type": "bool"
        }
      ],
      "stateMutability": "view",
      "type": "function"
    },
    {
      "inputs": [
        {
          "internalType": "address",
          "name": "winner",
          "type": "address"
        },
        {
          "internalType": "address",
          "name": "loser",
          "type": "address"
        },
        {
          "internalType": "uint256",
          "name": "timestamp",
          "type": "uint256"
        },
        {
          "internalType": "string",
          "name": "ipfs",
          "type": "string"
        }
      ],
      "name": "publishMatch",
      "outputs": [],
      "stateMutability": "nonpayable",
      "type": "function"
    },
    {
      "inputs": [
        {
          "internalType": "bytes32",
          "name": "role",
          "type": "bytes32"
        },
        {
          "internalType": "address",
          "name": "account",
          "type": "address"
        }
      ],
      "name": "renounceRole",
      "outputs": [],
      "stateMutability": "nonpayable",
      "type": "function"
    },
    {
      "inputs": [
        {
          "internalType": "bytes32",
          "name": "role",
          "type": "bytes32"
        },
        {
          "internalType": "address",
          "name": "account",
          "type": "address"
        }
      ],
      "name": "revokeRole",
      "outputs": [],
      "stateMutability": "nonpayable",
      "type": "function"
    },
    {
      "inputs": [
        {
          "internalType": "bytes4",
          "name": "interfaceId",
          "type": "bytes4"
        }
      ],
      "name": "supportsInterface",
      "outputs": [
        {
          "internalType": "bool",
          "name": "",
          "type": "bool"
        }
      ],
      "stateMutability": "view",
      "type": "function"
    }
  ],
  "bytecode": "0x60806040523480156200001157600080fd5b50620000276000801b336200006660201b60201c565b620000597f2e8b98eef02e8df3bd27d1270ded3bea3d14db99c5234c7b14001a7fff957bcc336200006660201b60201c565b60018081905550620001df565b6200007882826200007c60201b60201c565b5050565b6200008e82826200016d60201b60201c565b6200016957600160008084815260200190815260200160002060000160008373ffffffffffffffffffffffffffffffffffffffff1673ffffffffffffffffffffffffffffffffffffffff16815260200190815260200160002060006101000a81548160ff0219169083151502179055506200010e620001d760201b60201c565b73ffffffffffffffffffffffffffffffffffffffff168173ffffffffffffffffffffffffffffffffffffffff16837f2f8788117e7eff1d82e926ec794901d17c78024a50270940304540a733656f0d60405160405180910390a45b5050565b600080600084815260200190815260200160002060000160008373ffffffffffffffffffffffffffffffffffffffff1673ffffffffffffffffffffffffffffffffffffffff16815260200190815260200160002060009054906101000a900460ff16905092915050565b600033905090565b61144580620001ef6000396000f3fe608060405234801561001057600080fd5b50600436106100935760003560e01c80636b366cb5116100665780636b366cb5146101305780636f79dd5e1461014e57806391d148541461016a578063a217fddf1461019a578063d547741f146101b857610093565b806301ffc9a714610098578063248a9ca3146100c85780632f2ff15d146100f857806336568abe14610114575b600080fd5b6100b260048036038101906100ad9190610cea565b6101d4565b6040516100bf9190610e96565b60405180910390f35b6100e260048036038101906100dd9190610c85565b61024e565b6040516100ef9190610eb1565b60405180910390f35b610112600480360381019061010d9190610cae565b61026d565b005b61012e60048036038101906101299190610cae565b610296565b005b610138610319565b6040516101459190610eb1565b60405180910390f35b61016860048036038101906101639190610c0a565b61033d565b005b610184600480360381019061017f9190610cae565b610447565b6040516101919190610e96565b60405180910390f35b6101a26104b1565b6040516101af9190610eb1565b60405180910390f35b6101d260048036038101906101cd9190610cae565b6104b8565b005b60007f7965db0b000000000000000000000000000000000000000000000000000000007bffffffffffffffffffffffffffffffffffffffffffffffffffffffff1916827bffffffffffffffffffffffffffffffffffffffffffffffffffffffff191614806102475750610246826104e1565b5b9050919050565b6000806000838152602001908152602001600020600101549050919050565b6102768261024e565b6102878161028261054b565b610553565b61029183836105f0565b505050565b61029e61054b565b73ffffffffffffffffffffffffffffffffffffffff168173ffffffffffffffffffffffffffffffffffffffff161461030b576040517f08c379a000000000000000000000000000000000000000000000000000000000815260040161030290610f0e565b60405180910390fd5b61031582826106d0565b5050565b7f2e8b98eef02e8df3bd27d1270ded3bea3d14db99c5234c7b14001a7fff957bcc81565b7f2e8b98eef02e8df3bd27d1270ded3bea3d14db99c5234c7b14001a7fff957bcc61036f8161036a61054b565b610553565b60006002836040516103819190610e45565b9081526020016040518091039020541461039a57600080fd5b6000600160008154809291906103af90611202565b919050559050826003600083815260200190815260200160002090805190602001906103dc929190610aab565b50806002846040516103ee9190610e45565b9081526020016040518091039020819055507f1f765882dd8a3e807c836c7f50867c6db6fde82418f16e47b516a6e9c84525218187878787604051610437959493929190610f2e565b60405180910390a1505050505050565b600080600084815260200190815260200160002060000160008373ffffffffffffffffffffffffffffffffffffffff1673ffffffffffffffffffffffffffffffffffffffff16815260200190815260200160002060009054906101000a900460ff16905092915050565b6000801b81565b6104c18261024e565b6104d2816104cd61054b565b610553565b6104dc83836106d0565b505050565b60007f01ffc9a7000000000000000000000000000000000000000000000000000000007bffffffffffffffffffffffffffffffffffffffffffffffffffffffff1916827bffffffffffffffffffffffffffffffffffffffffffffffffffffffff1916149050919050565b600033905090565b61055d8282610447565b6105ec576105828173ffffffffffffffffffffffffffffffffffffffff1660146107b1565b6105908360001c60206107b1565b6040516020016105a1929190610e5c565b6040516020818303038152906040526040517f08c379a00000000000000000000000000000000000000000000000000000000081526004016105e39190610ecc565b60405180910390fd5b5050565b6105fa8282610447565b6106cc57600160008084815260200190815260200160002060000160008373ffffffffffffffffffffffffffffffffffffffff1673ffffffffffffffffffffffffffffffffffffffff16815260200190815260200160002060006101000a81548160ff02191690831515021790555061067161054b565b73ffffffffffffffffffffffffffffffffffffffff168173ffffffffffffffffffffffffffffffffffffffff16837f2f8788117e7eff1d82e926ec794901d17c78024a50270940304540a733656f0d60405160405180910390a45b5050565b6106da8282610447565b156107ad57600080600084815260200190815260200160002060000160008373ffffffffffffffffffffffffffffffffffffffff1673ffffffffffffffffffffffffffffffffffffffff16815260200190815260200160002060006101000a81548160ff02191690831515021790555061075261054b565b73ffffffffffffffffffffffffffffffffffffffff168173ffffffffffffffffffffffffffffffffffffffff16837ff6391f5c32d9c69d2a47ea670b442974b53935d1edc7fd64eb21e047a839171b60405160405180910390a45b5050565b6060600060028360026107c4919061105b565b6107ce9190611005565b67ffffffffffffffff81111561080d577f4e487b7100000000000000000000000000000000000000000000000000000000600052604160045260246000fd5b6040519080825280601f01601f19166020018201604052801561083f5781602001600182028036833780820191505090505b5090507f30000000000000000000000000000000000000000000000000000000000000008160008151811061089d577f4e487b7100000000000000000000000000000000000000000000000000000000600052603260045260246000fd5b60200101907effffffffffffffffffffffffffffffffffffffffffffffffffffffffffffff1916908160001a9053507f780000000000000000000000000000000000000000000000000000000000000081600181518110610927577f4e487b7100000000000000000000000000000000000000000000000000000000600052603260045260246000fd5b60200101907effffffffffffffffffffffffffffffffffffffffffffffffffffffffffffff1916908160001a90535060006001846002610967919061105b565b6109719190611005565b90505b6001811115610a5d577f3031323334353637383961626364656600000000000000000000000000000000600f8616601081106109d9577f4e487b7100000000000000000000000000000000000000000000000000000000600052603260045260246000fd5b1a60f81b828281518110610a16577f4e487b7100000000000000000000000000000000000000000000000000000000600052603260045260246000fd5b60200101907effffffffffffffffffffffffffffffffffffffffffffffffffffffffffffff1916908160001a905350600485901c945080610a5690611175565b9050610974565b5060008414610aa1576040517f08c379a0000000000000000000000000000000000000000000000000000000008152600401610a9890610eee565b60405180910390fd5b8091505092915050565b828054610ab79061119f565b90600052602060002090601f016020900481019282610ad95760008555610b20565b82601f10610af257805160ff1916838001178555610b20565b82800160010185558215610b20579182015b82811115610b1f578251825591602001919060010190610b04565b5b509050610b2d9190610b31565b5090565b5b80821115610b4a576000816000905550600101610b32565b5090565b6000610b61610b5c84610fad565b610f88565b905082815260208101848484011115610b7957600080fd5b610b84848285611133565b509392505050565b600081359050610b9b816113b3565b92915050565b600081359050610bb0816113ca565b92915050565b600081359050610bc5816113e1565b92915050565b600082601f830112610bdc57600080fd5b8135610bec848260208601610b4e565b91505092915050565b600081359050610c04816113f8565b92915050565b60008060008060808587031215610c2057600080fd5b6000610c2e87828801610b8c565b9450506020610c3f87828801610b8c565b9350506040610c5087828801610bf5565b925050606085013567ffffffffffffffff811115610c6d57600080fd5b610c7987828801610bcb565b91505092959194509250565b600060208284031215610c9757600080fd5b6000610ca584828501610ba1565b91505092915050565b60008060408385031215610cc157600080fd5b6000610ccf85828601610ba1565b9250506020610ce085828601610b8c565b9150509250929050565b600060208284031215610cfc57600080fd5b6000610d0a84828501610bb6565b91505092915050565b610d1c816110b5565b82525050565b610d2b816110c7565b82525050565b610d3a816110d3565b82525050565b6000610d4b82610fde565b610d558185610fe9565b9350610d65818560208601611142565b610d6e816112d8565b840191505092915050565b6000610d8482610fde565b610d8e8185610ffa565b9350610d9e818560208601611142565b80840191505092915050565b6000610db7602083610fe9565b9150610dc2826112e9565b602082019050919050565b6000610dda601783610ffa565b9150610de582611312565b601782019050919050565b6000610dfd601183610ffa565b9150610e088261133b565b601182019050919050565b6000610e20602f83610fe9565b9150610e2b82611364565b604082019050919050565b610e3f81611129565b82525050565b6000610e518284610d79565b915081905092915050565b6000610e6782610dcd565b9150610e738285610d79565b9150610e7e82610df0565b9150610e8a8284610d79565b91508190509392505050565b6000602082019050610eab6000830184610d22565b92915050565b6000602082019050610ec66000830184610d31565b92915050565b60006020820190508181036000830152610ee68184610d40565b905092915050565b60006020820190508181036000830152610f0781610daa565b9050919050565b60006020820190508181036000830152610f2781610e13565b9050919050565b600060a082019050610f436000830188610e36565b610f506020830187610d13565b610f5d6040830186610d13565b610f6a6060830185610e36565b8181036080830152610f7c8184610d40565b90509695505050505050565b6000610f92610fa3565b9050610f9e82826111d1565b919050565b6000604051905090565b600067ffffffffffffffff821115610fc857610fc76112a9565b5b610fd1826112d8565b9050602081019050919050565b600081519050919050565b600082825260208201905092915050565b600081905092915050565b600061101082611129565b915061101b83611129565b9250827fffffffffffffffffffffffffffffffffffffffffffffffffffffffffffffffff038211156110505761104f61124b565b5b828201905092915050565b600061106682611129565b915061107183611129565b9250817fffffffffffffffffffffffffffffffffffffffffffffffffffffffffffffffff04831182151516156110aa576110a961124b565b5b828202905092915050565b60006110c082611109565b9050919050565b60008115159050919050565b6000819050919050565b60007fffffffff0000000000000000000000000000000000000000000000000000000082169050919050565b600073ffffffffffffffffffffffffffffffffffffffff82169050919050565b6000819050919050565b82818337600083830152505050565b60005b83811015611160578082015181840152602081019050611145565b8381111561116f576000848401525b50505050565b600061118082611129565b915060008214156111945761119361124b565b5b600182039050919050565b600060028204905060018216806111b757607f821691505b602082108114156111cb576111ca61127a565b5b50919050565b6111da826112d8565b810181811067ffffffffffffffff821117156111f9576111f86112a9565b5b80604052505050565b600061120d82611129565b91507fffffffffffffffffffffffffffffffffffffffffffffffffffffffffffffffff8214156112405761123f61124b565b5b600182019050919050565b7f4e487b7100000000000000000000000000000000000000000000000000000000600052601160045260246000fd5b7f4e487b7100000000000000000000000000000000000000000000000000000000600052602260045260246000fd5b7f4e487b7100000000000000000000000000000000000000000000000000000000600052604160045260246000fd5b6000601f19601f8301169050919050565b7f537472696e67733a20686578206c656e67746820696e73756666696369656e74600082015250565b7f416363657373436f6e74726f6c3a206163636f756e7420000000000000000000600082015250565b7f206973206d697373696e6720726f6c6520000000000000000000000000000000600082015250565b7f416363657373436f6e74726f6c3a2063616e206f6e6c792072656e6f756e636560008201527f20726f6c657320666f722073656c660000000000000000000000000000000000602082015250565b6113bc816110b5565b81146113c757600080fd5b50565b6113d3816110d3565b81146113de57600080fd5b50565b6113ea816110dd565b81146113f557600080fd5b50565b61140181611129565b811461140c57600080fd5b5056fea26469706673582212208440256ad8f4b712769130fbc2255c339f40e783a3cb8d60b0b1d6e4691a802864736f6c63430008040033",
  "linkReferences": {},
  "deployedLinkReferences": {}
}