{
  "_format": "hh-sol-artifact-1",
  "contractName": "GoGBattlesCardFactory",
  "sourceName": "contracts/GoGBattlesCardFactory.sol",
  "abi": [
    {
      "inputs": [
        {
          "internalType": "uint256",
          "name": "cardValue",
          "type": "uint256"
        }
      ],
      "name": "registerCard",
      "outputs": [
        {
          "internalType": "uint256",
          "name": "",
          "type": "uint256"
        }
      ],
      "stateMutability": "nonpayable",
      "type": "function"
    },
    {
      "inputs": [
        {
          "internalType": "uint256",
          "name": "availableBacking",
          "type": "uint256"
        }
      ],
      "name": "rollCards",
      "outputs": [
        {
          "internalType": "uint256[]",
          "name": "",
          "type": "uint256[]"
        },
        {
          "internalType": "uint256[]",
          "name": "",
          "type": "uint256[]"
        },
        {
          "internalType": "uint256",
          "name": "",
          "type": "uint256"
        }
      ],
      "stateMutability": "nonpayable",
      "type": "function"
    }
  ],
  "bytecode": "0x608060405234801561001057600080fd5b50610330806100206000396000f3fe608060405234801561001057600080fd5b50600436106100365760003560e01c806317bdbb6f1461003b57806353571dac1461006d575b600080fd5b6100556004803603810190610050919061010b565b61009d565b604051610064939291906101c8565b60405180910390f35b6100876004803603810190610082919061010b565b6100ba565b604051610094919061020d565b60405180910390f35b606080600060608060008282829550955095505050509193909250565b600080600160008154809291906100d09061026b565b919050559050826000808381526020019081526020016000208190555080915050919050565b600081359050610105816102e3565b92915050565b60006020828403121561011d57600080fd5b600061012b848285016100f6565b91505092915050565b600061014083836101aa565b60208301905092915050565b600061015782610238565b6101618185610250565b935061016c83610228565b8060005b8381101561019d5781516101848882610134565b975061018f83610243565b925050600181019050610170565b5085935050505092915050565b6101b381610261565b82525050565b6101c281610261565b82525050565b600060608201905081810360008301526101e2818661014c565b905081810360208301526101f6818561014c565b905061020560408301846101b9565b949350505050565b600060208201905061022260008301846101b9565b92915050565b6000819050602082019050919050565b600081519050919050565b6000602082019050919050565b600082825260208201905092915050565b6000819050919050565b600061027682610261565b91507fffffffffffffffffffffffffffffffffffffffffffffffffffffffffffffffff8214156102a9576102a86102b4565b5b600182019050919050565b7f4e487b7100000000000000000000000000000000000000000000000000000000600052601160045260246000fd5b6102ec81610261565b81146102f757600080fd5b5056fea2646970667358221220124c50d43e6c1dc34710b6b5972c454ebc9db54876d1ed328728a9c0305a98b364736f6c63430008040033",
  "linkReferences": {},
  "deployedLinkReferences": {}
}