{
  "_format": "hh-sol-artifact-1",
  "contractName": "GoGBattlesVault",
  "sourceName": "contracts/GoGBattlesVault.sol",
  "abi": [
    {
      "inputs": [],
      "stateMutability": "nonpayable",
      "type": "constructor"
    },
    {
      "anonymous": false,
      "inputs": [
        {
          "indexed": false,
          "internalType": "address",
          "name": "owner",
          "type": "address"
        },
        {
          "indexed": false,
          "internalType": "address",
          "name": "stable",
          "type": "address"
        },
        {
          "indexed": false,
          "internalType": "uint256",
          "name": "amount",
          "type": "uint256"
        }
      ],
      "name": "DepositStable",
      "type": "event"
    },
    {
      "anonymous": false,
      "inputs": [
        {
          "indexed": true,
          "internalType": "bytes32",
          "name": "role",
          "type": "bytes32"
        },
        {
          "indexed": true,
          "internalType": "bytes32",
          "name": "previousAdminRole",
          "type": "bytes32"
        },
        {
          "indexed": true,
          "internalType": "bytes32",
          "name": "newAdminRole",
          "type": "bytes32"
        }
      ],
      "name": "RoleAdminChanged",
      "type": "event"
    },
    {
      "anonymous": false,
      "inputs": [
        {
          "indexed": true,
          "internalType": "bytes32",
          "name": "role",
          "type": "bytes32"
        },
        {
          "indexed": true,
          "internalType": "address",
          "name": "account",
          "type": "address"
        },
        {
          "indexed": true,
          "internalType": "address",
          "name": "sender",
          "type": "address"
        }
      ],
      "name": "RoleGranted",
      "type": "event"
    },
    {
      "anonymous": false,
      "inputs": [
        {
          "indexed": true,
          "internalType": "bytes32",
          "name": "role",
          "type": "bytes32"
        },
        {
          "indexed": true,
          "internalType": "address",
          "name": "account",
          "type": "address"
        },
        {
          "indexed": true,
          "internalType": "address",
          "name": "sender",
          "type": "address"
        }
      ],
      "name": "RoleRevoked",
      "type": "event"
    },
    {
      "anonymous": false,
      "inputs": [
        {
          "indexed": false,
          "internalType": "address",
          "name": "owner",
          "type": "address"
        },
        {
          "indexed": false,
          "internalType": "address",
          "name": "stable",
          "type": "address"
        },
        {
          "indexed": false,
          "internalType": "uint256",
          "name": "amount",
          "type": "uint256"
        }
      ],
      "name": "WithdrawStable",
      "type": "event"
    },
    {
      "inputs": [],
      "name": "COORDINATOR_ROLE",
      "outputs": [
        {
          "internalType": "bytes32",
          "name": "",
          "type": "bytes32"
        }
      ],
      "stateMutability": "view",
      "type": "function"
    },
    {
      "inputs": [],
      "name": "DEFAULT_ADMIN_ROLE",
      "outputs": [
        {
          "internalType": "bytes32",
          "name": "",
          "type": "bytes32"
        }
      ],
      "stateMutability": "view",
      "type": "function"
    },
    {
      "inputs": [],
      "name": "TOKEN_GATEKEEPER_ROLE",
      "outputs": [
        {
          "internalType": "bytes32",
          "name": "",
          "type": "bytes32"
        }
      ],
      "stateMutability": "view",
      "type": "function"
    },
    {
      "inputs": [],
      "name": "UPGRADER_ROLE",
      "outputs": [
        {
          "internalType": "bytes32",
          "name": "",
          "type": "bytes32"
        }
      ],
      "stateMutability": "view",
      "type": "function"
    },
    {
      "inputs": [],
      "name": "accruePendingInterest",
      "outputs": [
        {
          "internalType": "uint256",
          "name": "",
          "type": "uint256"
        }
      ],
      "stateMutability": "nonpayable",
      "type": "function"
    },
    {
      "inputs": [
        {
          "internalType": "address",
          "name": "token",
          "type": "address"
        },
        {
          "internalType": "address",
          "name": "aToken",
          "type": "address"
        },
        {
          "internalType": "uint256",
          "name": "decimals",
          "type": "uint256"
        }
      ],
      "name": "authorizeAToken",
      "outputs": [],
      "stateMutability": "nonpayable",
      "type": "function"
    },
    {
      "inputs": [
        {
          "internalType": "address",
          "name": "erc20Address",
          "type": "address"
        }
      ],
      "name": "balanceOfVaultNormalizedDecimals",
      "outputs": [
        {
          "internalType": "uint256",
          "name": "",
          "type": "uint256"
        }
      ],
      "stateMutability": "view",
      "type": "function"
    },
    {
      "inputs": [],
      "name": "balanceOfVaultsNormalizedDecimals",
      "outputs": [
        {
          "internalType": "uint256",
          "name": "",
          "type": "uint256"
        }
      ],
      "stateMutability": "view",
      "type": "function"
    },
    {
      "inputs": [
        {
          "internalType": "address",
          "name": "owner",
          "type": "address"
        },
        {
          "internalType": "uint256",
          "name": "amountNormalized",
          "type": "uint256"
        },
        {
          "internalType": "address",
          "name": "stable",
          "type": "address"
        }
      ],
      "name": "depositUnnormalizedDecimals",
      "outputs": [
        {
          "internalType": "bool",
          "name": "",
          "type": "bool"
        }
      ],
      "stateMutability": "nonpayable",
      "type": "function"
    },
    {
      "inputs": [
        {
          "internalType": "address",
          "name": "erc20Address",
          "type": "address"
        }
      ],
      "name": "doesVaultTypeExist",
      "outputs": [
        {
          "internalType": "bool",
          "name": "",
          "type": "bool"
        }
      ],
      "stateMutability": "view",
      "type": "function"
    },
    {
      "inputs": [
        {
          "internalType": "bytes32",
          "name": "role",
          "type": "bytes32"
        }
      ],
      "name": "getRoleAdmin",
      "outputs": [
        {
          "internalType": "bytes32",
          "name": "",
          "type": "bytes32"
        }
      ],
      "stateMutability": "view",
      "type": "function"
    },
    {
      "inputs": [
        {
          "internalType": "bytes32",
          "name": "role",
          "type": "bytes32"
        },
        {
          "internalType": "address",
          "name": "account",
          "type": "address"
        }
      ],
      "name": "grantRole",
      "outputs": [],
      "stateMutability": "nonpayable",
      "type": "function"
    },
    {
      "inputs": [
        {
          "internalType": "bytes32",
          "name": "role",
          "type": "bytes32"
        },
        {
          "internalType": "address",
          "name": "account",
          "type": "address"
        }
      ],
      "name": "hasRole",
      "outputs": [
        {
          "internalType": "bool",
          "name": "",
          "type": "bool"
        }
      ],
      "stateMutability": "view",
      "type": "function"
    },
    {
      "inputs": [],
      "name": "poolSize",
      "outputs": [
        {
          "internalType": "uint256",
          "name": "",
          "type": "uint256"
        }
      ],
      "stateMutability": "view",
      "type": "function"
    },
    {
      "inputs": [
        {
          "internalType": "bytes32",
          "name": "role",
          "type": "bytes32"
        },
        {
          "internalType": "address",
          "name": "account",
          "type": "address"
        }
      ],
      "name": "renounceRole",
      "outputs": [],
      "stateMutability": "nonpayable",
      "type": "function"
    },
    {
      "inputs": [
        {
          "internalType": "bytes32",
          "name": "role",
          "type": "bytes32"
        },
        {
          "internalType": "address",
          "name": "account",
          "type": "address"
        }
      ],
      "name": "revokeRole",
      "outputs": [],
      "stateMutability": "nonpayable",
      "type": "function"
    },
    {
      "inputs": [
        {
          "internalType": "address",
          "name": "tokenAddress",
          "type": "address"
        }
      ],
      "name": "setPoolToken",
      "outputs": [],
      "stateMutability": "nonpayable",
      "type": "function"
    },
    {
      "inputs": [
        {
          "internalType": "bytes4",
          "name": "interfaceId",
          "type": "bytes4"
        }
      ],
      "name": "supportsInterface",
      "outputs": [
        {
          "internalType": "bool",
          "name": "",
          "type": "bool"
        }
      ],
      "stateMutability": "view",
      "type": "function"
    },
    {
      "inputs": [
        {
          "internalType": "address",
          "name": "owner",
          "type": "address"
        },
        {
          "internalType": "uint256",
          "name": "amountNormalized",
          "type": "uint256"
        },
        {
          "internalType": "address",
          "name": "stable",
          "type": "address"
        }
      ],
      "name": "withdrawNormalizedDecimals",
      "outputs": [
        {
          "internalType": "bool",
          "name": "",
          "type": "bool"
        }
      ],
      "stateMutability": "nonpayable",
      "type": "function"
    }
  ],
  "bytecode": "0x60806040523480156200001157600080fd5b50620000276000801b33620000c360201b60201c565b620000597f2e8b98eef02e8df3bd27d1270ded3bea3d14db99c5234c7b14001a7fff957bcc33620000c360201b60201c565b6200008b7f189ab7a9244df0848122154315af71fe140f3db0fe014031783b0946b8c9d2e333620000c360201b60201c565b620000bd7fbc218ab1d87167b43f142aef68e2d81118828b78c6908d6fe75b0333345dc32733620000c360201b60201c565b6200023c565b620000d58282620000d960201b60201c565b5050565b620000eb8282620001ca60201b60201c565b620001c657600160008084815260200190815260200160002060000160008373ffffffffffffffffffffffffffffffffffffffff1673ffffffffffffffffffffffffffffffffffffffff16815260200190815260200160002060006101000a81548160ff0219169083151502179055506200016b6200023460201b60201c565b73ffffffffffffffffffffffffffffffffffffffff168173ffffffffffffffffffffffffffffffffffffffff16837f2f8788117e7eff1d82e926ec794901d17c78024a50270940304540a733656f0d60405160405180910390a45b5050565b600080600084815260200190815260200160002060000160008373ffffffffffffffffffffffffffffffffffffffff1673ffffffffffffffffffffffffffffffffffffffff16815260200190815260200160002060009054906101000a900460ff16905092915050565b600033905090565b612a95806200024c6000396000f3fe608060405234801561001057600080fd5b50600436106101215760003560e01c80636b366cb5116100ad578063d547741f11610071578063d547741f1461031e578063dff8b5021461033a578063e4d3a59614610356578063eb476cb414610386578063f72c0d8b146103b657610121565b80636b366cb51461027657806391d1485414610294578063a217fddf146102c4578063a90ef387146102e2578063bba785f91461030057610121565b806331d09dbd116100f457806331d09dbd146101d257806333ce01fd1461020257806336568abe1461021e5780634ec18db91461023a5780634efa25521461025857610121565b806301ffc9a7146101265780631bf8fea914610156578063248a9ca3146101865780632f2ff15d146101b6575b600080fd5b610140600480360381019061013b9190611f85565b6103d4565b60405161014d91906122db565b60405180910390f35b610170600480360381019061016b9190611e30565b61044e565b60405161017d91906123d3565b60405180910390f35b6101a0600480360381019061019b9190611f20565b6105e3565b6040516101ad91906122f6565b60405180910390f35b6101d060048036038101906101cb9190611f49565b610602565b005b6101ec60048036038101906101e79190611e30565b61062b565b6040516101f991906122db565b60405180910390f35b61021c60048036038101906102179190611e30565b6106c3565b005b61023860048036038101906102339190611f49565b610774565b005b6102426107f7565b60405161024f91906123d3565b60405180910390f35b6102606108a9565b60405161026d91906123d3565b60405180910390f35b61027e610b3b565b60405161028b91906122f6565b60405180910390f35b6102ae60048036038101906102a99190611f49565b610b5f565b6040516102bb91906122db565b60405180910390f35b6102cc610bc9565b6040516102d991906122f6565b60405180910390f35b6102ea610bd0565b6040516102f791906123d3565b60405180910390f35b610308610dbb565b60405161031591906122f6565b60405180910390f35b61033860048036038101906103339190611f49565b610ddf565b005b610354600480360381019061034f9190611e59565b610e08565b005b610370600480360381019061036b9190611ea8565b61112f565b60405161037d91906122db565b60405180910390f35b6103a0600480360381019061039b9190611ea8565b611578565b6040516103ad91906122db565b60405180910390f35b6103be6117c4565b6040516103cb91906122f6565b60405180910390f35b60007f7965db0b000000000000000000000000000000000000000000000000000000007bffffffffffffffffffffffffffffffffffffffffffffffffffffffff1916827bffffffffffffffffffffffffffffffffffffffffffffffffffffffff191614806104475750610446826117e8565b5b9050919050565b60006104598261062b565b610498576040517f08c379a000000000000000000000000000000000000000000000000000000000815260040161048f90612373565b60405180910390fd5b6000600560008473ffffffffffffffffffffffffffffffffffffffff1673ffffffffffffffffffffffffffffffffffffffff16815260200190815260200160002060009054906101000a900473ffffffffffffffffffffffffffffffffffffffff1690506000600460008573ffffffffffffffffffffffffffffffffffffffff1673ffffffffffffffffffffffffffffffffffffffff1681526020019081526020016000205490506000829050818173ffffffffffffffffffffffffffffffffffffffff166370a08231306040518263ffffffff1660e01b815260040161057f91906121bb565b60206040518083038186803b15801561059757600080fd5b505afa1580156105ab573d6000803e3d6000fd5b505050506040513d601f19601f820116820180604052508101906105cf9190611fae565b6105d9919061260d565b9350505050919050565b6000806000838152602001908152602001600020600101549050919050565b61060b826105e3565b61061c81610617611852565b61185a565b61062683836118f7565b505050565b60008073ffffffffffffffffffffffffffffffffffffffff16600560008473ffffffffffffffffffffffffffffffffffffffff1673ffffffffffffffffffffffffffffffffffffffff16815260200190815260200160002060009054906101000a900473ffffffffffffffffffffffffffffffffffffffff1673ffffffffffffffffffffffffffffffffffffffff1614159050919050565b7fbc218ab1d87167b43f142aef68e2d81118828b78c6908d6fe75b0333345dc3276106f5816106f0611852565b61185a565b600073ffffffffffffffffffffffffffffffffffffffff168273ffffffffffffffffffffffffffffffffffffffff16141561072f57600080fd5b81600160006101000a81548173ffffffffffffffffffffffffffffffffffffffff021916908373ffffffffffffffffffffffffffffffffffffffff1602179055505050565b61077c611852565b73ffffffffffffffffffffffffffffffffffffffff168173ffffffffffffffffffffffffffffffffffffffff16146107e9576040517f08c379a00000000000000000000000000000000000000000000000000000000081526004016107e0906123b3565b60405180910390fd5b6107f382826119d7565b5050565b6000600160009054906101000a900473ffffffffffffffffffffffffffffffffffffffff1673ffffffffffffffffffffffffffffffffffffffff166370a08231306040518263ffffffff1660e01b815260040161085491906121bb565b60206040518083038186803b15801561086c57600080fd5b505afa158015610880573d6000803e3d6000fd5b505050506040513d601f19601f820116820180604052508101906108a49190611fae565b905090565b60008060005b600380549050811015610b33576000600382815481106108f8577f4e487b7100000000000000000000000000000000000000000000000000000000600052603260045260246000fd5b9060005260206000200160009054906101000a900473ffffffffffffffffffffffffffffffffffffffff1690506000600460008373ffffffffffffffffffffffffffffffffffffffff1673ffffffffffffffffffffffffffffffffffffffff1681526020019081526020016000205490506000600560008473ffffffffffffffffffffffffffffffffffffffff1673ffffffffffffffffffffffffffffffffffffffff16815260200190815260200160002060009054906101000a900473ffffffffffffffffffffffffffffffffffffffff16905060008190506000600260008673ffffffffffffffffffffffffffffffffffffffff1673ffffffffffffffffffffffffffffffffffffffff1681526020019081526020016000205490506000848373ffffffffffffffffffffffffffffffffffffffff166370a08231306040518263ffffffff1660e01b8152600401610a5291906121bb565b60206040518083038186803b158015610a6a57600080fd5b505afa158015610a7e573d6000803e3d6000fd5b505050506040513d601f19601f82011682018060405250810190610aa29190611fae565b610aac919061260d565b905060008282610abc9190612667565b905081600260008973ffffffffffffffffffffffffffffffffffffffff1673ffffffffffffffffffffffffffffffffffffffff168152602001908152602001600020819055508581610b0e919061260d565b89610b199190612415565b98505050505050505080610b2c90612796565b90506108af565b508091505090565b7f2e8b98eef02e8df3bd27d1270ded3bea3d14db99c5234c7b14001a7fff957bcc81565b600080600084815260200190815260200160002060000160008373ffffffffffffffffffffffffffffffffffffffff1673ffffffffffffffffffffffffffffffffffffffff16815260200190815260200160002060009054906101000a900460ff16905092915050565b6000801b81565b6000806000905060005b600380549050811015610db357600060038281548110610c23577f4e487b7100000000000000000000000000000000000000000000000000000000600052603260045260246000fd5b9060005260206000200160009054906101000a900473ffffffffffffffffffffffffffffffffffffffff1690506000600460008373ffffffffffffffffffffffffffffffffffffffff1673ffffffffffffffffffffffffffffffffffffffff1681526020019081526020016000205490506000600560008473ffffffffffffffffffffffffffffffffffffffff1673ffffffffffffffffffffffffffffffffffffffff16815260200190815260200160002060009054906101000a900473ffffffffffffffffffffffffffffffffffffffff1690506000819050828173ffffffffffffffffffffffffffffffffffffffff166370a08231306040518263ffffffff1660e01b8152600401610d3791906121bb565b60206040518083038186803b158015610d4f57600080fd5b505afa158015610d63573d6000803e3d6000fd5b505050506040513d601f19601f82011682018060405250810190610d879190611fae565b610d91919061260d565b86610d9c9190612415565b95505050505080610dac90612796565b9050610bda565b508091505090565b7fbc218ab1d87167b43f142aef68e2d81118828b78c6908d6fe75b0333345dc32781565b610de8826105e3565b610df981610df4611852565b61185a565b610e0383836119d7565b505050565b7fbc218ab1d87167b43f142aef68e2d81118828b78c6908d6fe75b0333345dc327610e3a81610e35611852565b61185a565b600073ffffffffffffffffffffffffffffffffffffffff16600560008673ffffffffffffffffffffffffffffffffffffffff1673ffffffffffffffffffffffffffffffffffffffff16815260200190815260200160002060009054906101000a900473ffffffffffffffffffffffffffffffffffffffff1673ffffffffffffffffffffffffffffffffffffffff1614610ed257600080fd5b600073ffffffffffffffffffffffffffffffffffffffff16600560008573ffffffffffffffffffffffffffffffffffffffff1673ffffffffffffffffffffffffffffffffffffffff16815260200190815260200160002060009054906101000a900473ffffffffffffffffffffffffffffffffffffffff1673ffffffffffffffffffffffffffffffffffffffff1614610f6a57600080fd5b600073ffffffffffffffffffffffffffffffffffffffff168473ffffffffffffffffffffffffffffffffffffffff161415610fa457600080fd5b600073ffffffffffffffffffffffffffffffffffffffff168373ffffffffffffffffffffffffffffffffffffffff161415610fde57600080fd5b6012821115610fec57600080fd5b816012610ff99190612667565b600a61100591906124ef565b600460008673ffffffffffffffffffffffffffffffffffffffff1673ffffffffffffffffffffffffffffffffffffffff168152602001908152602001600020819055506003849080600181540180825580915050600190039060005260206000200160009091909190916101000a81548173ffffffffffffffffffffffffffffffffffffffff021916908373ffffffffffffffffffffffffffffffffffffffff16021790555082600560008673ffffffffffffffffffffffffffffffffffffffff1673ffffffffffffffffffffffffffffffffffffffff16815260200190815260200160002060006101000a81548173ffffffffffffffffffffffffffffffffffffffff021916908373ffffffffffffffffffffffffffffffffffffffff16021790555050505050565b60007f2e8b98eef02e8df3bd27d1270ded3bea3d14db99c5234c7b14001a7fff957bcc6111638161115e611852565b61185a565b600073ffffffffffffffffffffffffffffffffffffffff16600560008573ffffffffffffffffffffffffffffffffffffffff1673ffffffffffffffffffffffffffffffffffffffff16815260200190815260200160002060009054906101000a900473ffffffffffffffffffffffffffffffffffffffff1673ffffffffffffffffffffffffffffffffffffffff161415611232576040517f08c379a000000000000000000000000000000000000000000000000000000000815260040161122990612393565b60405180910390fd5b6000600460008573ffffffffffffffffffffffffffffffffffffffff1673ffffffffffffffffffffffffffffffffffffffff168152602001908152602001600020548561127f919061246b565b90506000849050818173ffffffffffffffffffffffffffffffffffffffff1663dd62ed3e33306040518363ffffffff1660e01b81526004016112c29291906121d6565b60206040518083038186803b1580156112da57600080fd5b505afa1580156112ee573d6000803e3d6000fd5b505050506040513d601f19601f820116820180604052508101906113129190611fae565b1015611353576040517f08c379a000000000000000000000000000000000000000000000000000000000815260040161134a90612353565b60405180910390fd5b8073ffffffffffffffffffffffffffffffffffffffff166323b872dd3330856040518463ffffffff1660e01b8152600401611390939291906121ff565b602060405180830381600087803b1580156113aa57600080fd5b505af11580156113be573d6000803e3d6000fd5b505050506040513d601f19601f820116820180604052508101906113e29190611ef7565b6113eb57600080fd5b8073ffffffffffffffffffffffffffffffffffffffff1663095ea7b3600660009054906101000a900473ffffffffffffffffffffffffffffffffffffffff16846040518363ffffffff1660e01b8152600401611448929190612236565b602060405180830381600087803b15801561146257600080fd5b505af1158015611476573d6000803e3d6000fd5b505050506040513d601f19601f8201168201806040525081019061149a9190611ef7565b50600660009054906101000a900473ffffffffffffffffffffffffffffffffffffffff1673ffffffffffffffffffffffffffffffffffffffff1663e8eda9df86843360006040518563ffffffff1660e01b81526004016114fd9493929190612296565b600060405180830381600087803b15801561151757600080fd5b505af115801561152b573d6000803e3d6000fd5b505050507fa4f358c78f73b2049a06e0436c6728292334862a6fc2114f2de13f9cff58491f878684604051611562939291906121ff565b60405180910390a1600193505050509392505050565b60007f2e8b98eef02e8df3bd27d1270ded3bea3d14db99c5234c7b14001a7fff957bcc6115ac816115a7611852565b61185a565b600073ffffffffffffffffffffffffffffffffffffffff16600560008573ffffffffffffffffffffffffffffffffffffffff1673ffffffffffffffffffffffffffffffffffffffff16815260200190815260200160002060009054906101000a900473ffffffffffffffffffffffffffffffffffffffff1673ffffffffffffffffffffffffffffffffffffffff16141561167b576040517f08c379a000000000000000000000000000000000000000000000000000000000815260040161167290612393565b60405180910390fd5b6000600460008573ffffffffffffffffffffffffffffffffffffffff1673ffffffffffffffffffffffffffffffffffffffff16815260200190815260200160002054856116c8919061246b565b9050600660009054906101000a900473ffffffffffffffffffffffffffffffffffffffff1673ffffffffffffffffffffffffffffffffffffffff166369328dec8583896040518463ffffffff1660e01b81526004016117299392919061225f565b602060405180830381600087803b15801561174357600080fd5b505af1158015611757573d6000803e3d6000fd5b505050506040513d601f19601f8201168201806040525081019061177b9190611fae565b507f062c1ae2f04e97157b97f5d913994cadb77a7733318e501c12db301b1a1726968685836040516117af939291906121ff565b60405180910390a16001925050509392505050565b7f189ab7a9244df0848122154315af71fe140f3db0fe014031783b0946b8c9d2e381565b60007f01ffc9a7000000000000000000000000000000000000000000000000000000007bffffffffffffffffffffffffffffffffffffffffffffffffffffffff1916827bffffffffffffffffffffffffffffffffffffffffffffffffffffffff1916149050919050565b600033905090565b6118648282610b5f565b6118f3576118898173ffffffffffffffffffffffffffffffffffffffff166014611ab8565b6118978360001c6020611ab8565b6040516020016118a8929190612181565b6040516020818303038152906040526040517f08c379a00000000000000000000000000000000000000000000000000000000081526004016118ea9190612311565b60405180910390fd5b5050565b6119018282610b5f565b6119d357600160008084815260200190815260200160002060000160008373ffffffffffffffffffffffffffffffffffffffff1673ffffffffffffffffffffffffffffffffffffffff16815260200190815260200160002060006101000a81548160ff021916908315150217905550611978611852565b73ffffffffffffffffffffffffffffffffffffffff168173ffffffffffffffffffffffffffffffffffffffff16837f2f8788117e7eff1d82e926ec794901d17c78024a50270940304540a733656f0d60405160405180910390a45b5050565b6119e18282610b5f565b15611ab457600080600084815260200190815260200160002060000160008373ffffffffffffffffffffffffffffffffffffffff1673ffffffffffffffffffffffffffffffffffffffff16815260200190815260200160002060006101000a81548160ff021916908315150217905550611a59611852565b73ffffffffffffffffffffffffffffffffffffffff168173ffffffffffffffffffffffffffffffffffffffff16837ff6391f5c32d9c69d2a47ea670b442974b53935d1edc7fd64eb21e047a839171b60405160405180910390a45b5050565b606060006002836002611acb919061260d565b611ad59190612415565b67ffffffffffffffff811115611b14577f4e487b7100000000000000000000000000000000000000000000000000000000600052604160045260246000fd5b6040519080825280601f01601f191660200182016040528015611b465781602001600182028036833780820191505090505b5090507f300000000000000000000000000000000000000000000000000000000000000081600081518110611ba4577f4e487b7100000000000000000000000000000000000000000000000000000000600052603260045260246000fd5b60200101907effffffffffffffffffffffffffffffffffffffffffffffffffffffffffffff1916908160001a9053507f780000000000000000000000000000000000000000000000000000000000000081600181518110611c2e577f4e487b7100000000000000000000000000000000000000000000000000000000600052603260045260246000fd5b60200101907effffffffffffffffffffffffffffffffffffffffffffffffffffffffffffff1916908160001a90535060006001846002611c6e919061260d565b611c789190612415565b90505b6001811115611d64577f3031323334353637383961626364656600000000000000000000000000000000600f861660108110611ce0577f4e487b7100000000000000000000000000000000000000000000000000000000600052603260045260246000fd5b1a60f81b828281518110611d1d577f4e487b7100000000000000000000000000000000000000000000000000000000600052603260045260246000fd5b60200101907effffffffffffffffffffffffffffffffffffffffffffffffffffffffffffff1916908160001a905350600485901c945080611d5d9061276c565b9050611c7b565b5060008414611da8576040517f08c379a0000000000000000000000000000000000000000000000000000000008152600401611d9f90612333565b60405180910390fd5b8091505092915050565b600081359050611dc1816129ec565b92915050565b600081519050611dd681612a03565b92915050565b600081359050611deb81612a1a565b92915050565b600081359050611e0081612a31565b92915050565b600081359050611e1581612a48565b92915050565b600081519050611e2a81612a48565b92915050565b600060208284031215611e4257600080fd5b6000611e5084828501611db2565b91505092915050565b600080600060608486031215611e6e57600080fd5b6000611e7c86828701611db2565b9350506020611e8d86828701611db2565b9250506040611e9e86828701611e06565b9150509250925092565b600080600060608486031215611ebd57600080fd5b6000611ecb86828701611db2565b9350506020611edc86828701611e06565b9250506040611eed86828701611db2565b9150509250925092565b600060208284031215611f0957600080fd5b6000611f1784828501611dc7565b91505092915050565b600060208284031215611f3257600080fd5b6000611f4084828501611ddc565b91505092915050565b60008060408385031215611f5c57600080fd5b6000611f6a85828601611ddc565b9250506020611f7b85828601611db2565b9150509250929050565b600060208284031215611f9757600080fd5b6000611fa584828501611df1565b91505092915050565b600060208284031215611fc057600080fd5b6000611fce84828501611e1b565b91505092915050565b611fe08161269b565b82525050565b611fef816126ad565b82525050565b611ffe816126b9565b82525050565b61200d81612727565b82525050565b600061201e826123ee565b61202881856123f9565b9350612038818560208601612739565b6120418161283d565b840191505092915050565b6000612057826123ee565b612061818561240a565b9350612071818560208601612739565b80840191505092915050565b600061208a6020836123f9565b91506120958261285b565b602082019050919050565b60006120ad6021836123f9565b91506120b882612884565b604082019050919050565b60006120d06019836123f9565b91506120db826128d3565b602082019050919050565b60006120f36024836123f9565b91506120fe826128fc565b604082019050919050565b600061211660178361240a565b91506121218261294b565b601782019050919050565b600061213960118361240a565b915061214482612974565b601182019050919050565b600061215c602f836123f9565b91506121678261299d565b604082019050919050565b61217b8161271d565b82525050565b600061218c82612109565b9150612198828561204c565b91506121a38261212c565b91506121af828461204c565b91508190509392505050565b60006020820190506121d06000830184611fd7565b92915050565b60006040820190506121eb6000830185611fd7565b6121f86020830184611fd7565b9392505050565b60006060820190506122146000830186611fd7565b6122216020830185611fd7565b61222e6040830184612172565b949350505050565b600060408201905061224b6000830185611fd7565b6122586020830184612172565b9392505050565b60006060820190506122746000830186611fd7565b6122816020830185612172565b61228e6040830184611fd7565b949350505050565b60006080820190506122ab6000830187611fd7565b6122b86020830186612172565b6122c56040830185611fd7565b6122d26060830184612004565b95945050505050565b60006020820190506122f06000830184611fe6565b92915050565b600060208201905061230b6000830184611ff5565b92915050565b6000602082019050818103600083015261232b8184612013565b905092915050565b6000602082019050818103600083015261234c8161207d565b9050919050565b6000602082019050818103600083015261236c816120a0565b9050919050565b6000602082019050818103600083015261238c816120c3565b9050919050565b600060208201905081810360008301526123ac816120e6565b9050919050565b600060208201905081810360008301526123cc8161214f565b9050919050565b60006020820190506123e86000830184612172565b92915050565b600081519050919050565b600082825260208201905092915050565b600081905092915050565b60006124208261271d565b915061242b8361271d565b9250827fffffffffffffffffffffffffffffffffffffffffffffffffffffffffffffffff038211156124605761245f6127df565b5b828201905092915050565b60006124768261271d565b91506124818361271d565b9250826124915761249061280e565b5b828204905092915050565b6000808291508390505b60018511156124e6578086048111156124c2576124c16127df565b5b60018516156124d15780820291505b80810290506124df8561284e565b94506124a6565b94509492505050565b60006124fa8261271d565b91506125058361271d565b92506125327fffffffffffffffffffffffffffffffffffffffffffffffffffffffffffffffff848461253a565b905092915050565b60008261254a5760019050612606565b816125585760009050612606565b816001811461256e5760028114612578576125a7565b6001915050612606565b60ff84111561258a576125896127df565b5b8360020a9150848211156125a1576125a06127df565b5b50612606565b5060208310610133831016604e8410600b84101617156125dc5782820a9050838111156125d7576125d66127df565b5b612606565b6125e9848484600161249c565b92509050818404811115612600576125ff6127df565b5b81810290505b9392505050565b60006126188261271d565b91506126238361271d565b9250817fffffffffffffffffffffffffffffffffffffffffffffffffffffffffffffffff048311821515161561265c5761265b6127df565b5b828202905092915050565b60006126728261271d565b915061267d8361271d565b9250828210156126905761268f6127df565b5b828203905092915050565b60006126a6826126fd565b9050919050565b60008115159050919050565b6000819050919050565b60007fffffffff0000000000000000000000000000000000000000000000000000000082169050919050565b600061ffff82169050919050565b600073ffffffffffffffffffffffffffffffffffffffff82169050919050565b6000819050919050565b6000612732826126ef565b9050919050565b60005b8381101561275757808201518184015260208101905061273c565b83811115612766576000848401525b50505050565b60006127778261271d565b9150600082141561278b5761278a6127df565b5b600182039050919050565b60006127a18261271d565b91507fffffffffffffffffffffffffffffffffffffffffffffffffffffffffffffffff8214156127d4576127d36127df565b5b600182019050919050565b7f4e487b7100000000000000000000000000000000000000000000000000000000600052601160045260246000fd5b7f4e487b7100000000000000000000000000000000000000000000000000000000600052601260045260246000fd5b6000601f19601f8301169050919050565b60008160011c9050919050565b7f537472696e67733a20686578206c656e67746820696e73756666696369656e74600082015250565b7f4d75737420626520616c6c6f77656420746f207265636569766520746f6b656e60008201527f2e00000000000000000000000000000000000000000000000000000000000000602082015250565b7f5661756c74207479706520646f6573206e6f7420657869737400000000000000600082015250565b7f537461626c65636f696e2061646472657373206d75737420626520737570706f60008201527f7274656400000000000000000000000000000000000000000000000000000000602082015250565b7f416363657373436f6e74726f6c3a206163636f756e7420000000000000000000600082015250565b7f206973206d697373696e6720726f6c6520000000000000000000000000000000600082015250565b7f416363657373436f6e74726f6c3a2063616e206f6e6c792072656e6f756e636560008201527f20726f6c657320666f722073656c660000000000000000000000000000000000602082015250565b6129f58161269b565b8114612a0057600080fd5b50565b612a0c816126ad565b8114612a1757600080fd5b50565b612a23816126b9565b8114612a2e57600080fd5b50565b612a3a816126c3565b8114612a4557600080fd5b50565b612a518161271d565b8114612a5c57600080fd5b5056fea2646970667358221220bf65615080317f674b80a4c6438ca1ad138253ac209e5e3aca5d7b1ef51aebc064736f6c63430008040033",
  "linkReferences": {},
  "deployedLinkReferences": {}
}