{
  "_format": "hh-sol-artifact-1",
  "contractName": "GoGBattlesToken",
  "sourceName": "contracts/GoGBattlesToken.sol",
  "abi": [
    {
      "inputs": [],
      "stateMutability": "nonpayable",
      "type": "constructor"
    },
    {
      "anonymous": false,
      "inputs": [
        {
          "indexed": true,
          "internalType": "address",
          "name": "owner",
          "type": "address"
        },
        {
          "indexed": true,
          "internalType": "address",
          "name": "spender",
          "type": "address"
        },
        {
          "indexed": false,
          "internalType": "uint256",
          "name": "value",
          "type": "uint256"
        }
      ],
      "name": "Approval",
      "type": "event"
    },
    {
      "anonymous": false,
      "inputs": [
        {
          "indexed": true,
          "internalType": "bytes32",
          "name": "role",
          "type": "bytes32"
        },
        {
          "indexed": true,
          "internalType": "bytes32",
          "name": "previousAdminRole",
          "type": "bytes32"
        },
        {
          "indexed": true,
          "internalType": "bytes32",
          "name": "newAdminRole",
          "type": "bytes32"
        }
      ],
      "name": "RoleAdminChanged",
      "type": "event"
    },
    {
      "anonymous": false,
      "inputs": [
        {
          "indexed": true,
          "internalType": "bytes32",
          "name": "role",
          "type": "bytes32"
        },
        {
          "indexed": true,
          "internalType": "address",
          "name": "account",
          "type": "address"
        },
        {
          "indexed": true,
          "internalType": "address",
          "name": "sender",
          "type": "address"
        }
      ],
      "name": "RoleGranted",
      "type": "event"
    },
    {
      "anonymous": false,
      "inputs": [
        {
          "indexed": true,
          "internalType": "bytes32",
          "name": "role",
          "type": "bytes32"
        },
        {
          "indexed": true,
          "internalType": "address",
          "name": "account",
          "type": "address"
        },
        {
          "indexed": true,
          "internalType": "address",
          "name": "sender",
          "type": "address"
        }
      ],
      "name": "RoleRevoked",
      "type": "event"
    },
    {
      "anonymous": false,
      "inputs": [
        {
          "indexed": true,
          "internalType": "address",
          "name": "from",
          "type": "address"
        },
        {
          "indexed": true,
          "internalType": "address",
          "name": "to",
          "type": "address"
        },
        {
          "indexed": false,
          "internalType": "uint256",
          "name": "value",
          "type": "uint256"
        }
      ],
      "name": "Transfer",
      "type": "event"
    },
    {
      "inputs": [],
      "name": "BURNER_ROLE",
      "outputs": [
        {
          "internalType": "bytes32",
          "name": "",
          "type": "bytes32"
        }
      ],
      "stateMutability": "view",
      "type": "function"
    },
    {
      "inputs": [],
      "name": "DEFAULT_ADMIN_ROLE",
      "outputs": [
        {
          "internalType": "bytes32",
          "name": "",
          "type": "bytes32"
        }
      ],
      "stateMutability": "view",
      "type": "function"
    },
    {
      "inputs": [],
      "name": "DOMAIN_SEPARATOR",
      "outputs": [
        {
          "internalType": "bytes32",
          "name": "",
          "type": "bytes32"
        }
      ],
      "stateMutability": "view",
      "type": "function"
    },
    {
      "inputs": [],
      "name": "MINTER_ROLE",
      "outputs": [
        {
          "internalType": "bytes32",
          "name": "",
          "type": "bytes32"
        }
      ],
      "stateMutability": "view",
      "type": "function"
    },
    {
      "inputs": [],
      "name": "UPGRADER_ROLE",
      "outputs": [
        {
          "internalType": "bytes32",
          "name": "",
          "type": "bytes32"
        }
      ],
      "stateMutability": "view",
      "type": "function"
    },
    {
      "inputs": [
        {
          "internalType": "address",
          "name": "owner",
          "type": "address"
        },
        {
          "internalType": "address",
          "name": "spender",
          "type": "address"
        }
      ],
      "name": "allowance",
      "outputs": [
        {
          "internalType": "uint256",
          "name": "",
          "type": "uint256"
        }
      ],
      "stateMutability": "view",
      "type": "function"
    },
    {
      "inputs": [
        {
          "internalType": "address",
          "name": "spender",
          "type": "address"
        },
        {
          "internalType": "uint256",
          "name": "amount",
          "type": "uint256"
        }
      ],
      "name": "approve",
      "outputs": [
        {
          "internalType": "bool",
          "name": "",
          "type": "bool"
        }
      ],
      "stateMutability": "nonpayable",
      "type": "function"
    },
    {
      "inputs": [
        {
          "internalType": "address",
          "name": "account",
          "type": "address"
        }
      ],
      "name": "balanceOf",
      "outputs": [
        {
          "internalType": "uint256",
          "name": "",
          "type": "uint256"
        }
      ],
      "stateMutability": "view",
      "type": "function"
    },
    {
      "inputs": [
        {
          "internalType": "uint256",
          "name": "amount",
          "type": "uint256"
        }
      ],
      "name": "burn",
      "outputs": [],
      "stateMutability": "nonpayable",
      "type": "function"
    },
    {
      "inputs": [
        {
          "internalType": "address",
          "name": "account",
          "type": "address"
        },
        {
          "internalType": "uint256",
          "name": "amount",
          "type": "uint256"
        }
      ],
      "name": "burn",
      "outputs": [],
      "stateMutability": "nonpayable",
      "type": "function"
    },
    {
      "inputs": [
        {
          "internalType": "address",
          "name": "account",
          "type": "address"
        },
        {
          "internalType": "uint256",
          "name": "amount",
          "type": "uint256"
        }
      ],
      "name": "burnFrom",
      "outputs": [],
      "stateMutability": "nonpayable",
      "type": "function"
    },
    {
      "inputs": [],
      "name": "decimals",
      "outputs": [
        {
          "internalType": "uint8",
          "name": "",
          "type": "uint8"
        }
      ],
      "stateMutability": "view",
      "type": "function"
    },
    {
      "inputs": [
        {
          "internalType": "address",
          "name": "spender",
          "type": "address"
        },
        {
          "internalType": "uint256",
          "name": "subtractedValue",
          "type": "uint256"
        }
      ],
      "name": "decreaseAllowance",
      "outputs": [
        {
          "internalType": "bool",
          "name": "",
          "type": "bool"
        }
      ],
      "stateMutability": "nonpayable",
      "type": "function"
    },
    {
      "inputs": [
        {
          "internalType": "bytes32",
          "name": "role",
          "type": "bytes32"
        }
      ],
      "name": "getRoleAdmin",
      "outputs": [
        {
          "internalType": "bytes32",
          "name": "",
          "type": "bytes32"
        }
      ],
      "stateMutability": "view",
      "type": "function"
    },
    {
      "inputs": [
        {
          "internalType": "bytes32",
          "name": "role",
          "type": "bytes32"
        },
        {
          "internalType": "address",
          "name": "account",
          "type": "address"
        }
      ],
      "name": "grantRole",
      "outputs": [],
      "stateMutability": "nonpayable",
      "type": "function"
    },
    {
      "inputs": [
        {
          "internalType": "bytes32",
          "name": "role",
          "type": "bytes32"
        },
        {
          "internalType": "address",
          "name": "account",
          "type": "address"
        }
      ],
      "name": "hasRole",
      "outputs": [
        {
          "internalType": "bool",
          "name": "",
          "type": "bool"
        }
      ],
      "stateMutability": "view",
      "type": "function"
    },
    {
      "inputs": [
        {
          "internalType": "address",
          "name": "spender",
          "type": "address"
        },
        {
          "internalType": "uint256",
          "name": "addedValue",
          "type": "uint256"
        }
      ],
      "name": "increaseAllowance",
      "outputs": [
        {
          "internalType": "bool",
          "name": "",
          "type": "bool"
        }
      ],
      "stateMutability": "nonpayable",
      "type": "function"
    },
    {
      "inputs": [
        {
          "internalType": "address",
          "name": "to",
          "type": "address"
        },
        {
          "internalType": "uint256",
          "name": "amount",
          "type": "uint256"
        }
      ],
      "name": "mint",
      "outputs": [],
      "stateMutability": "nonpayable",
      "type": "function"
    },
    {
      "inputs": [
        {
          "internalType": "address[]",
          "name": "to",
          "type": "address[]"
        },
        {
          "internalType": "uint256[]",
          "name": "amounts",
          "type": "uint256[]"
        }
      ],
      "name": "mintBatch",
      "outputs": [],
      "stateMutability": "nonpayable",
      "type": "function"
    },
    {
      "inputs": [],
      "name": "name",
      "outputs": [
        {
          "internalType": "string",
          "name": "",
          "type": "string"
        }
      ],
      "stateMutability": "view",
      "type": "function"
    },
    {
      "inputs": [
        {
          "internalType": "address",
          "name": "owner",
          "type": "address"
        }
      ],
      "name": "nonces",
      "outputs": [
        {
          "internalType": "uint256",
          "name": "",
          "type": "uint256"
        }
      ],
      "stateMutability": "view",
      "type": "function"
    },
    {
      "inputs": [
        {
          "internalType": "address",
          "name": "owner",
          "type": "address"
        },
        {
          "internalType": "address",
          "name": "spender",
          "type": "address"
        },
        {
          "internalType": "uint256",
          "name": "value",
          "type": "uint256"
        },
        {
          "internalType": "uint256",
          "name": "deadline",
          "type": "uint256"
        },
        {
          "internalType": "uint8",
          "name": "v",
          "type": "uint8"
        },
        {
          "internalType": "bytes32",
          "name": "r",
          "type": "bytes32"
        },
        {
          "internalType": "bytes32",
          "name": "s",
          "type": "bytes32"
        }
      ],
      "name": "permit",
      "outputs": [],
      "stateMutability": "nonpayable",
      "type": "function"
    },
    {
      "inputs": [
        {
          "internalType": "bytes32",
          "name": "role",
          "type": "bytes32"
        },
        {
          "internalType": "address",
          "name": "account",
          "type": "address"
        }
      ],
      "name": "renounceRole",
      "outputs": [],
      "stateMutability": "nonpayable",
      "type": "function"
    },
    {
      "inputs": [
        {
          "internalType": "bytes32",
          "name": "role",
          "type": "bytes32"
        },
        {
          "internalType": "address",
          "name": "account",
          "type": "address"
        }
      ],
      "name": "revokeRole",
      "outputs": [],
      "stateMutability": "nonpayable",
      "type": "function"
    },
    {
      "inputs": [
        {
          "internalType": "bytes4",
          "name": "interfaceId",
          "type": "bytes4"
        }
      ],
      "name": "supportsInterface",
      "outputs": [
        {
          "internalType": "bool",
          "name": "",
          "type": "bool"
        }
      ],
      "stateMutability": "view",
      "type": "function"
    },
    {
      "inputs": [],
      "name": "symbol",
      "outputs": [
        {
          "internalType": "string",
          "name": "",
          "type": "string"
        }
      ],
      "stateMutability": "view",
      "type": "function"
    },
    {
      "inputs": [],
      "name": "totalSupply",
      "outputs": [
        {
          "internalType": "uint256",
          "name": "",
          "type": "uint256"
        }
      ],
      "stateMutability": "view",
      "type": "function"
    },
    {
      "inputs": [
        {
          "internalType": "address",
          "name": "recipient",
          "type": "address"
        },
        {
          "internalType": "uint256",
          "name": "amount",
          "type": "uint256"
        }
      ],
      "name": "transfer",
      "outputs": [
        {
          "internalType": "bool",
          "name": "",
          "type": "bool"
        }
      ],
      "stateMutability": "nonpayable",
      "type": "function"
    },
    {
      "inputs": [
        {
          "internalType": "address",
          "name": "sender",
          "type": "address"
        },
        {
          "internalType": "address",
          "name": "recipient",
          "type": "address"
        },
        {
          "internalType": "uint256",
          "name": "amount",
          "type": "uint256"
        }
      ],
      "name": "transferFrom",
      "outputs": [
        {
          "internalType": "bool",
          "name": "",
          "type": "bool"
        }
      ],
      "stateMutability": "nonpayable",
      "type": "function"
    }
  ],
  "bytecode": "0x6101406040527f6e71edae12b1b97f4d1f60370fef10105fa2faae0126114a169c64845d6126c9610120908152503480156200003a57600080fd5b506040518060400160405280600e81526020017f476f47426174746c65546f6b656e000000000000000000000000000000000000815250806040518060400160405280600181526020017f31000000000000000000000000000000000000000000000000000000000000008152506040518060400160405280600e81526020017f476f47426174746c65546f6b656e0000000000000000000000000000000000008152506040518060400160405280600481526020017f47414d450000000000000000000000000000000000000000000000000000000081525081600390805190602001906200012c929190620003fc565b50806004908051906020019062000145929190620003fc565b50505060008280519060200120905060008280519060200120905060007f8b73c3c69bb8fe3d512ecc4cf759cc79239f7b179b0ffacaa9a75d522b39400f90508260c081815250508160e081815250504660a08181525050620001b08184846200024560201b60201c565b60808181525050806101008181525050505050505050620001db6000801b336200028160201b60201c565b6200020d7f9f2df0fed2c77648de5860a4cc508cd0818c85b8b8a1ab4ceeef8d981c8956a6336200028160201b60201c565b6200023f7f189ab7a9244df0848122154315af71fe140f3db0fe014031783b0946b8c9d2e3336200028160201b60201c565b620005e9565b6000838383463060405160200162000262959493929190620004df565b6040516020818303038152906040528051906020012090509392505050565b6200029382826200029760201b60201c565b5050565b620002a982826200038960201b60201c565b620003855760016006600084815260200190815260200160002060000160008373ffffffffffffffffffffffffffffffffffffffff1673ffffffffffffffffffffffffffffffffffffffff16815260200190815260200160002060006101000a81548160ff0219169083151502179055506200032a620003f460201b60201c565b73ffffffffffffffffffffffffffffffffffffffff168173ffffffffffffffffffffffffffffffffffffffff16837f2f8788117e7eff1d82e926ec794901d17c78024a50270940304540a733656f0d60405160405180910390a45b5050565b60006006600084815260200190815260200160002060000160008373ffffffffffffffffffffffffffffffffffffffff1673ffffffffffffffffffffffffffffffffffffffff16815260200190815260200160002060009054906101000a900460ff16905092915050565b600033905090565b8280546200040a9062000584565b90600052602060002090601f0160209004810192826200042e57600085556200047a565b82601f106200044957805160ff19168380011785556200047a565b828001600101855582156200047a579182015b82811115620004795782518255916020019190600101906200045c565b5b5090506200048991906200048d565b5090565b5b80821115620004a85760008160009055506001016200048e565b5090565b620004b7816200053c565b82525050565b620004c88162000550565b82525050565b620004d9816200057a565b82525050565b600060a082019050620004f66000830188620004bd565b620005056020830187620004bd565b620005146040830186620004bd565b620005236060830185620004ce565b620005326080830184620004ac565b9695505050505050565b600062000549826200055a565b9050919050565b6000819050919050565b600073ffffffffffffffffffffffffffffffffffffffff82169050919050565b6000819050919050565b600060028204905060018216806200059d57607f821691505b60208210811415620005b457620005b3620005ba565b5b50919050565b7f4e487b7100000000000000000000000000000000000000000000000000000000600052602260045260246000fd5b60805160a05160c05160e0516101005161012051613b9a620006396000396000610eee01526000611774015260006117b60152600061179501526000611721015260006117490152613b9a6000f3fe608060405234801561001057600080fd5b50600436106101cf5760003560e01c806370a0823111610104578063a217fddf116100a2578063d539139311610071578063d539139314610566578063d547741f14610584578063dd62ed3e146105a0578063f72c0d8b146105d0576101cf565b8063a217fddf146104cc578063a457c2d7146104ea578063a9059cbb1461051a578063d505accf1461054a576101cf565b80637ecebe00116100de5780637ecebe001461043257806391d148541461046257806395d89b41146104925780639dc29fac146104b0576101cf565b806370a08231146103ca57806379cc6790146103fa5780637c88e3d914610416576101cf565b80632f2ff15d1161017157806336568abe1161014b57806336568abe14610346578063395093511461036257806340c10f191461039257806342966c68146103ae576101cf565b80632f2ff15d146102ee578063313ce5671461030a5780633644e51514610328576101cf565b806318160ddd116101ad57806318160ddd1461025257806323b872dd14610270578063248a9ca3146102a0578063282c51f3146102d0576101cf565b806301ffc9a7146101d457806306fdde0314610204578063095ea7b314610222575b600080fd5b6101ee60048036038101906101e991906128af565b6105ee565b6040516101fb9190612d63565b60405180910390f35b61020c610668565b6040516102199190612e92565b60405180910390f35b61023c600480360381019061023791906127a2565b6106fa565b6040516102499190612d63565b60405180910390f35b61025a610718565b6040516102679190613134565b60405180910390f35b61028a600480360381019061028591906126b5565b610722565b6040516102979190612d63565b60405180910390f35b6102ba60048036038101906102b5919061284a565b61081a565b6040516102c79190612d7e565b60405180910390f35b6102d861083a565b6040516102e59190612d7e565b60405180910390f35b61030860048036038101906103039190612873565b61085e565b005b610312610887565b60405161031f919061314f565b60405180910390f35b610330610890565b60405161033d9190612d7e565b60405180910390f35b610360600480360381019061035b9190612873565b61089f565b005b61037c600480360381019061037791906127a2565b610922565b6040516103899190612d63565b60405180910390f35b6103ac60048036038101906103a791906127a2565b6109ce565b005b6103c860048036038101906103c391906128d8565b610a0f565b005b6103e460048036038101906103df9190612650565b610a23565b6040516103f19190613134565b60405180910390f35b610414600480360381019061040f91906127a2565b610a6b565b005b610430600480360381019061042b91906127de565b610ae6565b005b61044c60048036038101906104479190612650565b610c09565b6040516104599190613134565b60405180910390f35b61047c60048036038101906104779190612873565b610c59565b6040516104899190612d63565b60405180910390f35b61049a610cc4565b6040516104a79190612e92565b60405180910390f35b6104ca60048036038101906104c591906127a2565b610d56565b005b6104d4610d97565b6040516104e19190612d7e565b60405180910390f35b61050460048036038101906104ff91906127a2565b610d9e565b6040516105119190612d63565b60405180910390f35b610534600480360381019061052f91906127a2565b610e89565b6040516105419190612d63565b60405180910390f35b610564600480360381019061055f9190612704565b610ea7565b005b61056e610fe9565b60405161057b9190612d7e565b60405180910390f35b61059e60048036038101906105999190612873565b61100d565b005b6105ba60048036038101906105b59190612679565b611036565b6040516105c79190613134565b60405180910390f35b6105d86110bd565b6040516105e59190612d7e565b60405180910390f35b60007f7965db0b000000000000000000000000000000000000000000000000000000007bffffffffffffffffffffffffffffffffffffffffffffffffffffffff1916827bffffffffffffffffffffffffffffffffffffffffffffffffffffffff191614806106615750610660826110e1565b5b9050919050565b606060038054610677906133da565b80601f01602080910402602001604051908101604052809291908181526020018280546106a3906133da565b80156106f05780601f106106c5576101008083540402835291602001916106f0565b820191906000526020600020905b8154815290600101906020018083116106d357829003601f168201915b5050505050905090565b600061070e61070761114b565b8484611153565b6001905092915050565b6000600254905090565b600061072f84848461131e565b6000600160008673ffffffffffffffffffffffffffffffffffffffff1673ffffffffffffffffffffffffffffffffffffffff168152602001908152602001600020600061077a61114b565b73ffffffffffffffffffffffffffffffffffffffff1673ffffffffffffffffffffffffffffffffffffffff168152602001908152602001600020549050828110156107fa576040517f08c379a00000000000000000000000000000000000000000000000000000000081526004016107f190613034565b60405180910390fd5b61080e8561080661114b565b858403611153565b60019150509392505050565b600060066000838152602001908152602001600020600101549050919050565b7f3c11d16cbaffd01df69ce1c404f6340ee057498f5f00246190ea54220576a84881565b6108678261081a565b6108788161087361114b565b61159f565b610882838361163c565b505050565b60006012905090565b600061089a61171d565b905090565b6108a761114b565b73ffffffffffffffffffffffffffffffffffffffff168173ffffffffffffffffffffffffffffffffffffffff1614610914576040517f08c379a000000000000000000000000000000000000000000000000000000000815260040161090b906130f4565b60405180910390fd5b61091e82826117e0565b5050565b60006109c461092f61114b565b84846001600061093d61114b565b73ffffffffffffffffffffffffffffffffffffffff1673ffffffffffffffffffffffffffffffffffffffff16815260200190815260200160002060008873ffffffffffffffffffffffffffffffffffffffff1673ffffffffffffffffffffffffffffffffffffffff168152602001908152602001600020546109bf919061320e565b611153565b6001905092915050565b7f9f2df0fed2c77648de5860a4cc508cd0818c85b8b8a1ab4ceeef8d981c8956a6610a00816109fb61114b565b61159f565b610a0a83836118c2565b505050565b610a20610a1a61114b565b826118d0565b50565b60008060008373ffffffffffffffffffffffffffffffffffffffff1673ffffffffffffffffffffffffffffffffffffffff168152602001908152602001600020549050919050565b6000610a7e83610a7961114b565b611036565b905081811015610ac3576040517f08c379a0000000000000000000000000000000000000000000000000000000008152600401610aba90613054565b60405180910390fd5b610ad783610acf61114b565b848403611153565b610ae183836118d0565b505050565b7f9f2df0fed2c77648de5860a4cc508cd0818c85b8b8a1ab4ceeef8d981c8956a6610b1881610b1361114b565b61159f565b8151835114610b5c576040517f08c379a0000000000000000000000000000000000000000000000000000000008152600401610b5390612fd4565b60405180910390fd5b60005b8351811015610c0357610bf2848281518110610ba4577f4e487b7100000000000000000000000000000000000000000000000000000000600052603260045260246000fd5b6020026020010151848381518110610be5577f4e487b7100000000000000000000000000000000000000000000000000000000600052603260045260246000fd5b60200260200101516118c2565b80610bfc9061343d565b9050610b5f565b50505050565b6000610c52600560008473ffffffffffffffffffffffffffffffffffffffff1673ffffffffffffffffffffffffffffffffffffffff1681526020019081526020016000206118de565b9050919050565b60006006600084815260200190815260200160002060000160008373ffffffffffffffffffffffffffffffffffffffff1673ffffffffffffffffffffffffffffffffffffffff16815260200190815260200160002060009054906101000a900460ff16905092915050565b606060048054610cd3906133da565b80601f0160208091040260200160405190810160405280929190818152602001828054610cff906133da565b8015610d4c5780601f10610d2157610100808354040283529160200191610d4c565b820191906000526020600020905b815481529060010190602001808311610d2f57829003601f168201915b5050505050905090565b7f3c11d16cbaffd01df69ce1c404f6340ee057498f5f00246190ea54220576a848610d8881610d8361114b565b61159f565b610d9283836118d0565b505050565b6000801b81565b60008060016000610dad61114b565b73ffffffffffffffffffffffffffffffffffffffff1673ffffffffffffffffffffffffffffffffffffffff16815260200190815260200160002060008573ffffffffffffffffffffffffffffffffffffffff1673ffffffffffffffffffffffffffffffffffffffff16815260200190815260200160002054905082811015610e6a576040517f08c379a0000000000000000000000000000000000000000000000000000000008152600401610e61906130d4565b60405180910390fd5b610e7e610e7561114b565b85858403611153565b600191505092915050565b6000610e9d610e9661114b565b848461131e565b6001905092915050565b83421115610eea576040517f08c379a0000000000000000000000000000000000000000000000000000000008152600401610ee190612f74565b60405180910390fd5b60007f0000000000000000000000000000000000000000000000000000000000000000888888610f198c6118ec565b89604051602001610f2f96959493929190612d99565b6040516020818303038152906040528051906020012090506000610f528261194a565b90506000610f6282878787611964565b90508973ffffffffffffffffffffffffffffffffffffffff168173ffffffffffffffffffffffffffffffffffffffff1614610fd2576040517f08c379a0000000000000000000000000000000000000000000000000000000008152600401610fc990613014565b60405180910390fd5b610fdd8a8a8a611153565b50505050505050505050565b7f9f2df0fed2c77648de5860a4cc508cd0818c85b8b8a1ab4ceeef8d981c8956a681565b6110168261081a565b6110278161102261114b565b61159f565b61103183836117e0565b505050565b6000600160008473ffffffffffffffffffffffffffffffffffffffff1673ffffffffffffffffffffffffffffffffffffffff16815260200190815260200160002060008373ffffffffffffffffffffffffffffffffffffffff1673ffffffffffffffffffffffffffffffffffffffff16815260200190815260200160002054905092915050565b7f189ab7a9244df0848122154315af71fe140f3db0fe014031783b0946b8c9d2e381565b60007f01ffc9a7000000000000000000000000000000000000000000000000000000007bffffffffffffffffffffffffffffffffffffffffffffffffffffffff1916827bffffffffffffffffffffffffffffffffffffffffffffffffffffffff1916149050919050565b600033905090565b600073ffffffffffffffffffffffffffffffffffffffff168373ffffffffffffffffffffffffffffffffffffffff1614156111c3576040517f08c379a00000000000000000000000000000000000000000000000000000000081526004016111ba906130b4565b60405180910390fd5b600073ffffffffffffffffffffffffffffffffffffffff168273ffffffffffffffffffffffffffffffffffffffff161415611233576040517f08c379a000000000000000000000000000000000000000000000000000000000815260040161122a90612f54565b60405180910390fd5b80600160008573ffffffffffffffffffffffffffffffffffffffff1673ffffffffffffffffffffffffffffffffffffffff16815260200190815260200160002060008473ffffffffffffffffffffffffffffffffffffffff1673ffffffffffffffffffffffffffffffffffffffff168152602001908152602001600020819055508173ffffffffffffffffffffffffffffffffffffffff168373ffffffffffffffffffffffffffffffffffffffff167f8c5be1e5ebec7d5bd14f71427d1e84f3dd0314c0f7b2291e5b200ac8c7c3b925836040516113119190613134565b60405180910390a3505050565b600073ffffffffffffffffffffffffffffffffffffffff168373ffffffffffffffffffffffffffffffffffffffff16141561138e576040517f08c379a000000000000000000000000000000000000000000000000000000000815260040161138590613094565b60405180910390fd5b600073ffffffffffffffffffffffffffffffffffffffff168273ffffffffffffffffffffffffffffffffffffffff1614156113fe576040517f08c379a00000000000000000000000000000000000000000000000000000000081526004016113f590612ef4565b60405180910390fd5b61140983838361198f565b60008060008573ffffffffffffffffffffffffffffffffffffffff1673ffffffffffffffffffffffffffffffffffffffff1681526020019081526020016000205490508181101561148f576040517f08c379a000000000000000000000000000000000000000000000000000000000815260040161148690612f94565b60405180910390fd5b8181036000808673ffffffffffffffffffffffffffffffffffffffff1673ffffffffffffffffffffffffffffffffffffffff16815260200190815260200160002081905550816000808573ffffffffffffffffffffffffffffffffffffffff1673ffffffffffffffffffffffffffffffffffffffff1681526020019081526020016000206000828254611522919061320e565b925050819055508273ffffffffffffffffffffffffffffffffffffffff168473ffffffffffffffffffffffffffffffffffffffff167fddf252ad1be2c89b69c2b068fc378daa952ba7f163c4a11628f55a4df523b3ef846040516115869190613134565b60405180910390a3611599848484611994565b50505050565b6115a98282610c59565b611638576115ce8173ffffffffffffffffffffffffffffffffffffffff1660146119a4565b6115dc8360001c60206119a4565b6040516020016115ed929190612d29565b6040516020818303038152906040526040517f08c379a000000000000000000000000000000000000000000000000000000000815260040161162f9190612e92565b60405180910390fd5b5050565b6116468282610c59565b6117195760016006600084815260200190815260200160002060000160008373ffffffffffffffffffffffffffffffffffffffff1673ffffffffffffffffffffffffffffffffffffffff16815260200190815260200160002060006101000a81548160ff0219169083151502179055506116be61114b565b73ffffffffffffffffffffffffffffffffffffffff168173ffffffffffffffffffffffffffffffffffffffff16837f2f8788117e7eff1d82e926ec794901d17c78024a50270940304540a733656f0d60405160405180910390a45b5050565b60007f000000000000000000000000000000000000000000000000000000000000000046141561176f577f000000000000000000000000000000000000000000000000000000000000000090506117dd565b6117da7f00000000000000000000000000000000000000000000000000000000000000007f00000000000000000000000000000000000000000000000000000000000000007f0000000000000000000000000000000000000000000000000000000000000000611c9e565b90505b90565b6117ea8282610c59565b156118be5760006006600084815260200190815260200160002060000160008373ffffffffffffffffffffffffffffffffffffffff1673ffffffffffffffffffffffffffffffffffffffff16815260200190815260200160002060006101000a81548160ff02191690831515021790555061186361114b565b73ffffffffffffffffffffffffffffffffffffffff168173ffffffffffffffffffffffffffffffffffffffff16837ff6391f5c32d9c69d2a47ea670b442974b53935d1edc7fd64eb21e047a839171b60405160405180910390a45b5050565b6118cc8282611cd8565b5050565b6118da8282611e38565b5050565b600081600001549050919050565b600080600560008473ffffffffffffffffffffffffffffffffffffffff1673ffffffffffffffffffffffffffffffffffffffff1681526020019081526020016000209050611939816118de565b91506119448161200f565b50919050565b600061195d61195761171d565b83612025565b9050919050565b600080600061197587878787612058565b9150915061198281612165565b8192505050949350505050565b505050565b61199f8383836124b6565b505050565b6060600060028360026119b79190613264565b6119c1919061320e565b67ffffffffffffffff811115611a00577f4e487b7100000000000000000000000000000000000000000000000000000000600052604160045260246000fd5b6040519080825280601f01601f191660200182016040528015611a325781602001600182028036833780820191505090505b5090507f300000000000000000000000000000000000000000000000000000000000000081600081518110611a90577f4e487b7100000000000000000000000000000000000000000000000000000000600052603260045260246000fd5b60200101907effffffffffffffffffffffffffffffffffffffffffffffffffffffffffffff1916908160001a9053507f780000000000000000000000000000000000000000000000000000000000000081600181518110611b1a577f4e487b7100000000000000000000000000000000000000000000000000000000600052603260045260246000fd5b60200101907effffffffffffffffffffffffffffffffffffffffffffffffffffffffffffff1916908160001a90535060006001846002611b5a9190613264565b611b64919061320e565b90505b6001811115611c50577f3031323334353637383961626364656600000000000000000000000000000000600f861660108110611bcc577f4e487b7100000000000000000000000000000000000000000000000000000000600052603260045260246000fd5b1a60f81b828281518110611c09577f4e487b7100000000000000000000000000000000000000000000000000000000600052603260045260246000fd5b60200101907effffffffffffffffffffffffffffffffffffffffffffffffffffffffffffff1916908160001a905350600485901c945080611c49906133b0565b9050611b67565b5060008414611c94576040517f08c379a0000000000000000000000000000000000000000000000000000000008152600401611c8b90612ed4565b60405180910390fd5b8091505092915050565b60008383834630604051602001611cb9959493929190612dfa565b6040516020818303038152906040528051906020012090509392505050565b600073ffffffffffffffffffffffffffffffffffffffff168273ffffffffffffffffffffffffffffffffffffffff161415611d48576040517f08c379a0000000000000000000000000000000000000000000000000000000008152600401611d3f90613114565b60405180910390fd5b611d546000838361198f565b8060026000828254611d66919061320e565b92505081905550806000808473ffffffffffffffffffffffffffffffffffffffff1673ffffffffffffffffffffffffffffffffffffffff1681526020019081526020016000206000828254611dbb919061320e565b925050819055508173ffffffffffffffffffffffffffffffffffffffff16600073ffffffffffffffffffffffffffffffffffffffff167fddf252ad1be2c89b69c2b068fc378daa952ba7f163c4a11628f55a4df523b3ef83604051611e209190613134565b60405180910390a3611e3460008383611994565b5050565b600073ffffffffffffffffffffffffffffffffffffffff168273ffffffffffffffffffffffffffffffffffffffff161415611ea8576040517f08c379a0000000000000000000000000000000000000000000000000000000008152600401611e9f90613074565b60405180910390fd5b611eb48260008361198f565b60008060008473ffffffffffffffffffffffffffffffffffffffff1673ffffffffffffffffffffffffffffffffffffffff16815260200190815260200160002054905081811015611f3a576040517f08c379a0000000000000000000000000000000000000000000000000000000008152600401611f3190612f14565b60405180910390fd5b8181036000808573ffffffffffffffffffffffffffffffffffffffff1673ffffffffffffffffffffffffffffffffffffffff168152602001908152602001600020819055508160026000828254611f9191906132be565b92505081905550600073ffffffffffffffffffffffffffffffffffffffff168373ffffffffffffffffffffffffffffffffffffffff167fddf252ad1be2c89b69c2b068fc378daa952ba7f163c4a11628f55a4df523b3ef84604051611ff69190613134565b60405180910390a361200a83600084611994565b505050565b6001816000016000828254019250508190555050565b6000828260405160200161203a929190612cf2565b60405160208183030381529060405280519060200120905092915050565b6000807f7fffffffffffffffffffffffffffffff5d576e7357a4501ddfe92f46681b20a08360001c111561209357600060039150915061215c565b601b8560ff16141580156120ab5750601c8560ff1614155b156120bd57600060049150915061215c565b6000600187878787604051600081526020016040526040516120e29493929190612e4d565b6020604051602081039080840390855afa158015612104573d6000803e3d6000fd5b505050602060405103519050600073ffffffffffffffffffffffffffffffffffffffff168173ffffffffffffffffffffffffffffffffffffffff1614156121535760006001925092505061215c565b80600092509250505b94509492505050565b6000600481111561219f577f4e487b7100000000000000000000000000000000000000000000000000000000600052602160045260246000fd5b8160048111156121d8577f4e487b7100000000000000000000000000000000000000000000000000000000600052602160045260246000fd5b14156121e3576124b3565b6001600481111561221d577f4e487b7100000000000000000000000000000000000000000000000000000000600052602160045260246000fd5b816004811115612256577f4e487b7100000000000000000000000000000000000000000000000000000000600052602160045260246000fd5b1415612297576040517f08c379a000000000000000000000000000000000000000000000000000000000815260040161228e90612eb4565b60405180910390fd5b600260048111156122d1577f4e487b7100000000000000000000000000000000000000000000000000000000600052602160045260246000fd5b81600481111561230a577f4e487b7100000000000000000000000000000000000000000000000000000000600052602160045260246000fd5b141561234b576040517f08c379a000000000000000000000000000000000000000000000000000000000815260040161234290612f34565b60405180910390fd5b60036004811115612385577f4e487b7100000000000000000000000000000000000000000000000000000000600052602160045260246000fd5b8160048111156123be577f4e487b7100000000000000000000000000000000000000000000000000000000600052602160045260246000fd5b14156123ff576040517f08c379a00000000000000000000000000000000000000000000000000000000081526004016123f690612fb4565b60405180910390fd5b600480811115612438577f4e487b7100000000000000000000000000000000000000000000000000000000600052602160045260246000fd5b816004811115612471577f4e487b7100000000000000000000000000000000000000000000000000000000600052602160045260246000fd5b14156124b2576040517f08c379a00000000000000000000000000000000000000000000000000000000081526004016124a990612ff4565b60405180910390fd5b5b50565b505050565b60006124ce6124c98461318f565b61316a565b905080838252602082019050828560208602820111156124ed57600080fd5b60005b8581101561251d57816125038882612593565b8452602084019350602083019250506001810190506124f0565b5050509392505050565b600061253a612535846131bb565b61316a565b9050808382526020820190508285602086028201111561255957600080fd5b60005b85811015612589578161256f8882612626565b84526020840193506020830192505060018101905061255c565b5050509392505050565b6000813590506125a281613af1565b92915050565b600082601f8301126125b957600080fd5b81356125c98482602086016124bb565b91505092915050565b600082601f8301126125e357600080fd5b81356125f3848260208601612527565b91505092915050565b60008135905061260b81613b08565b92915050565b60008135905061262081613b1f565b92915050565b60008135905061263581613b36565b92915050565b60008135905061264a81613b4d565b92915050565b60006020828403121561266257600080fd5b600061267084828501612593565b91505092915050565b6000806040838503121561268c57600080fd5b600061269a85828601612593565b92505060206126ab85828601612593565b9150509250929050565b6000806000606084860312156126ca57600080fd5b60006126d886828701612593565b93505060206126e986828701612593565b92505060406126fa86828701612626565b9150509250925092565b600080600080600080600060e0888a03121561271f57600080fd5b600061272d8a828b01612593565b975050602061273e8a828b01612593565b965050604061274f8a828b01612626565b95505060606127608a828b01612626565b94505060806127718a828b0161263b565b93505060a06127828a828b016125fc565b92505060c06127938a828b016125fc565b91505092959891949750929550565b600080604083850312156127b557600080fd5b60006127c385828601612593565b92505060206127d485828601612626565b9150509250929050565b600080604083850312156127f157600080fd5b600083013567ffffffffffffffff81111561280b57600080fd5b612817858286016125a8565b925050602083013567ffffffffffffffff81111561283457600080fd5b612840858286016125d2565b9150509250929050565b60006020828403121561285c57600080fd5b600061286a848285016125fc565b91505092915050565b6000806040838503121561288657600080fd5b6000612894858286016125fc565b92505060206128a585828601612593565b9150509250929050565b6000602082840312156128c157600080fd5b60006128cf84828501612611565b91505092915050565b6000602082840312156128ea57600080fd5b60006128f884828501612626565b91505092915050565b61290a816132f2565b82525050565b61291981613304565b82525050565b61292881613310565b82525050565b61293f61293a82613310565b613486565b82525050565b6000612950826131e7565b61295a81856131f2565b935061296a81856020860161337d565b6129738161351d565b840191505092915050565b6000612989826131e7565b6129938185613203565b93506129a381856020860161337d565b80840191505092915050565b60006129bc6018836131f2565b91506129c78261352e565b602082019050919050565b60006129df6020836131f2565b91506129ea82613557565b602082019050919050565b6000612a026023836131f2565b9150612a0d82613580565b604082019050919050565b6000612a256022836131f2565b9150612a30826135cf565b604082019050919050565b6000612a48601f836131f2565b9150612a538261361e565b602082019050919050565b6000612a6b6022836131f2565b9150612a7682613647565b604082019050919050565b6000612a8e600283613203565b9150612a9982613696565b600282019050919050565b6000612ab1601d836131f2565b9150612abc826136bf565b602082019050919050565b6000612ad46026836131f2565b9150612adf826136e8565b604082019050919050565b6000612af76022836131f2565b9150612b0282613737565b604082019050919050565b6000612b1a602d836131f2565b9150612b2582613786565b604082019050919050565b6000612b3d6022836131f2565b9150612b48826137d5565b604082019050919050565b6000612b60601e836131f2565b9150612b6b82613824565b602082019050919050565b6000612b836028836131f2565b9150612b8e8261384d565b604082019050919050565b6000612ba66024836131f2565b9150612bb18261389c565b604082019050919050565b6000612bc96021836131f2565b9150612bd4826138eb565b604082019050919050565b6000612bec6025836131f2565b9150612bf78261393a565b604082019050919050565b6000612c0f6024836131f2565b9150612c1a82613989565b604082019050919050565b6000612c32601783613203565b9150612c3d826139d8565b601782019050919050565b6000612c556025836131f2565b9150612c6082613a01565b604082019050919050565b6000612c78601183613203565b9150612c8382613a50565b601182019050919050565b6000612c9b602f836131f2565b9150612ca682613a79565b604082019050919050565b6000612cbe601f836131f2565b9150612cc982613ac8565b602082019050919050565b612cdd81613366565b82525050565b612cec81613370565b82525050565b6000612cfd82612a81565b9150612d09828561292e565b602082019150612d19828461292e565b6020820191508190509392505050565b6000612d3482612c25565b9150612d40828561297e565b9150612d4b82612c6b565b9150612d57828461297e565b91508190509392505050565b6000602082019050612d786000830184612910565b92915050565b6000602082019050612d93600083018461291f565b92915050565b600060c082019050612dae600083018961291f565b612dbb6020830188612901565b612dc86040830187612901565b612dd56060830186612cd4565b612de26080830185612cd4565b612def60a0830184612cd4565b979650505050505050565b600060a082019050612e0f600083018861291f565b612e1c602083018761291f565b612e29604083018661291f565b612e366060830185612cd4565b612e436080830184612901565b9695505050505050565b6000608082019050612e62600083018761291f565b612e6f6020830186612ce3565b612e7c604083018561291f565b612e89606083018461291f565b95945050505050565b60006020820190508181036000830152612eac8184612945565b905092915050565b60006020820190508181036000830152612ecd816129af565b9050919050565b60006020820190508181036000830152612eed816129d2565b9050919050565b60006020820190508181036000830152612f0d816129f5565b9050919050565b60006020820190508181036000830152612f2d81612a18565b9050919050565b60006020820190508181036000830152612f4d81612a3b565b9050919050565b60006020820190508181036000830152612f6d81612a5e565b9050919050565b60006020820190508181036000830152612f8d81612aa4565b9050919050565b60006020820190508181036000830152612fad81612ac7565b9050919050565b60006020820190508181036000830152612fcd81612aea565b9050919050565b60006020820190508181036000830152612fed81612b0d565b9050919050565b6000602082019050818103600083015261300d81612b30565b9050919050565b6000602082019050818103600083015261302d81612b53565b9050919050565b6000602082019050818103600083015261304d81612b76565b9050919050565b6000602082019050818103600083015261306d81612b99565b9050919050565b6000602082019050818103600083015261308d81612bbc565b9050919050565b600060208201905081810360008301526130ad81612bdf565b9050919050565b600060208201905081810360008301526130cd81612c02565b9050919050565b600060208201905081810360008301526130ed81612c48565b9050919050565b6000602082019050818103600083015261310d81612c8e565b9050919050565b6000602082019050818103600083015261312d81612cb1565b9050919050565b60006020820190506131496000830184612cd4565b92915050565b60006020820190506131646000830184612ce3565b92915050565b6000613174613185565b9050613180828261340c565b919050565b6000604051905090565b600067ffffffffffffffff8211156131aa576131a96134ee565b5b602082029050602081019050919050565b600067ffffffffffffffff8211156131d6576131d56134ee565b5b602082029050602081019050919050565b600081519050919050565b600082825260208201905092915050565b600081905092915050565b600061321982613366565b915061322483613366565b9250827fffffffffffffffffffffffffffffffffffffffffffffffffffffffffffffffff0382111561325957613258613490565b5b828201905092915050565b600061326f82613366565b915061327a83613366565b9250817fffffffffffffffffffffffffffffffffffffffffffffffffffffffffffffffff04831182151516156132b3576132b2613490565b5b828202905092915050565b60006132c982613366565b91506132d483613366565b9250828210156132e7576132e6613490565b5b828203905092915050565b60006132fd82613346565b9050919050565b60008115159050919050565b6000819050919050565b60007fffffffff0000000000000000000000000000000000000000000000000000000082169050919050565b600073ffffffffffffffffffffffffffffffffffffffff82169050919050565b6000819050919050565b600060ff82169050919050565b60005b8381101561339b578082015181840152602081019050613380565b838111156133aa576000848401525b50505050565b60006133bb82613366565b915060008214156133cf576133ce613490565b5b600182039050919050565b600060028204905060018216806133f257607f821691505b60208210811415613406576134056134bf565b5b50919050565b6134158261351d565b810181811067ffffffffffffffff82111715613434576134336134ee565b5b80604052505050565b600061344882613366565b91507fffffffffffffffffffffffffffffffffffffffffffffffffffffffffffffffff82141561347b5761347a613490565b5b600182019050919050565b6000819050919050565b7f4e487b7100000000000000000000000000000000000000000000000000000000600052601160045260246000fd5b7f4e487b7100000000000000000000000000000000000000000000000000000000600052602260045260246000fd5b7f4e487b7100000000000000000000000000000000000000000000000000000000600052604160045260246000fd5b6000601f19601f8301169050919050565b7f45434453413a20696e76616c6964207369676e61747572650000000000000000600082015250565b7f537472696e67733a20686578206c656e67746820696e73756666696369656e74600082015250565b7f45524332303a207472616e7366657220746f20746865207a65726f206164647260008201527f6573730000000000000000000000000000000000000000000000000000000000602082015250565b7f45524332303a206275726e20616d6f756e7420657863656564732062616c616e60008201527f6365000000000000000000000000000000000000000000000000000000000000602082015250565b7f45434453413a20696e76616c6964207369676e6174757265206c656e67746800600082015250565b7f45524332303a20617070726f766520746f20746865207a65726f20616464726560008201527f7373000000000000000000000000000000000000000000000000000000000000602082015250565b7f1901000000000000000000000000000000000000000000000000000000000000600082015250565b7f45524332305065726d69743a206578706972656420646561646c696e65000000600082015250565b7f45524332303a207472616e7366657220616d6f756e742065786365656473206260008201527f616c616e63650000000000000000000000000000000000000000000000000000602082015250565b7f45434453413a20696e76616c6964207369676e6174757265202773272076616c60008201527f7565000000000000000000000000000000000000000000000000000000000000602082015250565b7f546f20616e6420416d6f756e747320617272617973206d75737420626520657160008201527f756976616c656e742073697a6500000000000000000000000000000000000000602082015250565b7f45434453413a20696e76616c6964207369676e6174757265202776272076616c60008201527f7565000000000000000000000000000000000000000000000000000000000000602082015250565b7f45524332305065726d69743a20696e76616c6964207369676e61747572650000600082015250565b7f45524332303a207472616e7366657220616d6f756e742065786365656473206160008201527f6c6c6f77616e6365000000000000000000000000000000000000000000000000602082015250565b7f45524332303a206275726e20616d6f756e74206578636565647320616c6c6f7760008201527f616e636500000000000000000000000000000000000000000000000000000000602082015250565b7f45524332303a206275726e2066726f6d20746865207a65726f2061646472657360008201527f7300000000000000000000000000000000000000000000000000000000000000602082015250565b7f45524332303a207472616e736665722066726f6d20746865207a65726f20616460008201527f6472657373000000000000000000000000000000000000000000000000000000602082015250565b7f45524332303a20617070726f76652066726f6d20746865207a65726f2061646460008201527f7265737300000000000000000000000000000000000000000000000000000000602082015250565b7f416363657373436f6e74726f6c3a206163636f756e7420000000000000000000600082015250565b7f45524332303a2064656372656173656420616c6c6f77616e63652062656c6f7760008201527f207a65726f000000000000000000000000000000000000000000000000000000602082015250565b7f206973206d697373696e6720726f6c6520000000000000000000000000000000600082015250565b7f416363657373436f6e74726f6c3a2063616e206f6e6c792072656e6f756e636560008201527f20726f6c657320666f722073656c660000000000000000000000000000000000602082015250565b7f45524332303a206d696e7420746f20746865207a65726f206164647265737300600082015250565b613afa816132f2565b8114613b0557600080fd5b50565b613b1181613310565b8114613b1c57600080fd5b50565b613b288161331a565b8114613b3357600080fd5b50565b613b3f81613366565b8114613b4a57600080fd5b50565b613b5681613370565b8114613b6157600080fd5b5056fea2646970667358221220432eab0aed97548b407a8dfec46f34e02e079455f910fbb7586b077dea95e68564736f6c63430008040033",
  "linkReferences": {},
  "deployedLinkReferences": {}
}