{
  "_format": "hh-sol-artifact-1",
  "contractName": "GoGBattlesCards",
  "sourceName": "contracts/GoGBattlesCards.sol",
  "abi": [
    {
      "inputs": [],
      "stateMutability": "nonpayable",
      "type": "constructor"
    },
    {
      "anonymous": false,
      "inputs": [
        {
          "indexed": true,
          "internalType": "address",
          "name": "account",
          "type": "address"
        },
        {
          "indexed": true,
          "internalType": "address",
          "name": "operator",
          "type": "address"
        },
        {
          "indexed": false,
          "internalType": "bool",
          "name": "approved",
          "type": "bool"
        }
      ],
      "name": "ApprovalForAll",
      "type": "event"
    },
    {
      "anonymous": false,
      "inputs": [
        {
          "indexed": true,
          "internalType": "bytes32",
          "name": "role",
          "type": "bytes32"
        },
        {
          "indexed": true,
          "internalType": "bytes32",
          "name": "previousAdminRole",
          "type": "bytes32"
        },
        {
          "indexed": true,
          "internalType": "bytes32",
          "name": "newAdminRole",
          "type": "bytes32"
        }
      ],
      "name": "RoleAdminChanged",
      "type": "event"
    },
    {
      "anonymous": false,
      "inputs": [
        {
          "indexed": true,
          "internalType": "bytes32",
          "name": "role",
          "type": "bytes32"
        },
        {
          "indexed": true,
          "internalType": "address",
          "name": "account",
          "type": "address"
        },
        {
          "indexed": true,
          "internalType": "address",
          "name": "sender",
          "type": "address"
        }
      ],
      "name": "RoleGranted",
      "type": "event"
    },
    {
      "anonymous": false,
      "inputs": [
        {
          "indexed": true,
          "internalType": "bytes32",
          "name": "role",
          "type": "bytes32"
        },
        {
          "indexed": true,
          "internalType": "address",
          "name": "account",
          "type": "address"
        },
        {
          "indexed": true,
          "internalType": "address",
          "name": "sender",
          "type": "address"
        }
      ],
      "name": "RoleRevoked",
      "type": "event"
    },
    {
      "anonymous": false,
      "inputs": [
        {
          "indexed": true,
          "internalType": "address",
          "name": "operator",
          "type": "address"
        },
        {
          "indexed": true,
          "internalType": "address",
          "name": "from",
          "type": "address"
        },
        {
          "indexed": true,
          "internalType": "address",
          "name": "to",
          "type": "address"
        },
        {
          "indexed": false,
          "internalType": "uint256[]",
          "name": "ids",
          "type": "uint256[]"
        },
        {
          "indexed": false,
          "internalType": "uint256[]",
          "name": "values",
          "type": "uint256[]"
        }
      ],
      "name": "TransferBatch",
      "type": "event"
    },
    {
      "anonymous": false,
      "inputs": [
        {
          "indexed": true,
          "internalType": "address",
          "name": "operator",
          "type": "address"
        },
        {
          "indexed": true,
          "internalType": "address",
          "name": "from",
          "type": "address"
        },
        {
          "indexed": true,
          "internalType": "address",
          "name": "to",
          "type": "address"
        },
        {
          "indexed": false,
          "internalType": "uint256",
          "name": "id",
          "type": "uint256"
        },
        {
          "indexed": false,
          "internalType": "uint256",
          "name": "value",
          "type": "uint256"
        }
      ],
      "name": "TransferSingle",
      "type": "event"
    },
    {
      "anonymous": false,
      "inputs": [
        {
          "indexed": false,
          "internalType": "string",
          "name": "value",
          "type": "string"
        },
        {
          "indexed": true,
          "internalType": "uint256",
          "name": "id",
          "type": "uint256"
        }
      ],
      "name": "URI",
      "type": "event"
    },
    {
      "inputs": [],
      "name": "COORDINATOR_ROLE",
      "outputs": [
        {
          "internalType": "bytes32",
          "name": "",
          "type": "bytes32"
        }
      ],
      "stateMutability": "view",
      "type": "function"
    },
    {
      "inputs": [],
      "name": "DEFAULT_ADMIN_ROLE",
      "outputs": [
        {
          "internalType": "bytes32",
          "name": "",
          "type": "bytes32"
        }
      ],
      "stateMutability": "view",
      "type": "function"
    },
    {
      "inputs": [],
      "name": "MINTER_ROLE",
      "outputs": [
        {
          "internalType": "bytes32",
          "name": "",
          "type": "bytes32"
        }
      ],
      "stateMutability": "view",
      "type": "function"
    },
    {
      "inputs": [],
      "name": "UPGRADER_ROLE",
      "outputs": [
        {
          "internalType": "bytes32",
          "name": "",
          "type": "bytes32"
        }
      ],
      "stateMutability": "view",
      "type": "function"
    },
    {
      "inputs": [],
      "name": "URI_SETTER_ROLE",
      "outputs": [
        {
          "internalType": "bytes32",
          "name": "",
          "type": "bytes32"
        }
      ],
      "stateMutability": "view",
      "type": "function"
    },
    {
      "inputs": [
        {
          "internalType": "address",
          "name": "user",
          "type": "address"
        }
      ],
      "name": "backingBalanceOf",
      "outputs": [
        {
          "internalType": "uint256",
          "name": "",
          "type": "uint256"
        }
      ],
      "stateMutability": "view",
      "type": "function"
    },
    {
      "inputs": [
        {
          "internalType": "uint256[]",
          "name": "cardIds",
          "type": "uint256[]"
        }
      ],
      "name": "backingValueOf",
      "outputs": [
        {
          "internalType": "uint256",
          "name": "",
          "type": "uint256"
        }
      ],
      "stateMutability": "view",
      "type": "function"
    },
    {
      "inputs": [
        {
          "internalType": "address",
          "name": "account",
          "type": "address"
        },
        {
          "internalType": "uint256",
          "name": "id",
          "type": "uint256"
        }
      ],
      "name": "balanceOf",
      "outputs": [
        {
          "internalType": "uint256",
          "name": "",
          "type": "uint256"
        }
      ],
      "stateMutability": "view",
      "type": "function"
    },
    {
      "inputs": [
        {
          "internalType": "address[]",
          "name": "accounts",
          "type": "address[]"
        },
        {
          "internalType": "uint256[]",
          "name": "ids",
          "type": "uint256[]"
        }
      ],
      "name": "balanceOfBatch",
      "outputs": [
        {
          "internalType": "uint256[]",
          "name": "",
          "type": "uint256[]"
        }
      ],
      "stateMutability": "view",
      "type": "function"
    },
    {
      "inputs": [
        {
          "internalType": "address",
          "name": "account",
          "type": "address"
        },
        {
          "internalType": "uint256",
          "name": "id",
          "type": "uint256"
        },
        {
          "internalType": "uint256",
          "name": "value",
          "type": "uint256"
        }
      ],
      "name": "burn",
      "outputs": [],
      "stateMutability": "nonpayable",
      "type": "function"
    },
    {
      "inputs": [
        {
          "internalType": "address",
          "name": "owner",
          "type": "address"
        },
        {
          "internalType": "uint256[]",
          "name": "ids",
          "type": "uint256[]"
        },
        {
          "internalType": "uint256[]",
          "name": "amounts",
          "type": "uint256[]"
        }
      ],
      "name": "burnBatch",
      "outputs": [],
      "stateMutability": "nonpayable",
      "type": "function"
    },
    {
      "inputs": [
        {
          "internalType": "address",
          "name": "owner",
          "type": "address"
        },
        {
          "internalType": "uint256[]",
          "name": "ids",
          "type": "uint256[]"
        }
      ],
      "name": "burnBatch",
      "outputs": [],
      "stateMutability": "nonpayable",
      "type": "function"
    },
    {
      "inputs": [
        {
          "internalType": "bytes32",
          "name": "role",
          "type": "bytes32"
        }
      ],
      "name": "getRoleAdmin",
      "outputs": [
        {
          "internalType": "bytes32",
          "name": "",
          "type": "bytes32"
        }
      ],
      "stateMutability": "view",
      "type": "function"
    },
    {
      "inputs": [
        {
          "internalType": "bytes32",
          "name": "role",
          "type": "bytes32"
        },
        {
          "internalType": "address",
          "name": "account",
          "type": "address"
        }
      ],
      "name": "grantRole",
      "outputs": [],
      "stateMutability": "nonpayable",
      "type": "function"
    },
    {
      "inputs": [
        {
          "internalType": "bytes32",
          "name": "role",
          "type": "bytes32"
        },
        {
          "internalType": "address",
          "name": "account",
          "type": "address"
        }
      ],
      "name": "hasRole",
      "outputs": [
        {
          "internalType": "bool",
          "name": "",
          "type": "bool"
        }
      ],
      "stateMutability": "view",
      "type": "function"
    },
    {
      "inputs": [
        {
          "internalType": "address",
          "name": "account",
          "type": "address"
        },
        {
          "internalType": "address",
          "name": "operator",
          "type": "address"
        }
      ],
      "name": "isApprovedForAll",
      "outputs": [
        {
          "internalType": "bool",
          "name": "",
          "type": "bool"
        }
      ],
      "stateMutability": "view",
      "type": "function"
    },
    {
      "inputs": [
        {
          "internalType": "uint256",
          "name": "value",
          "type": "uint256"
        },
        {
          "internalType": "bytes",
          "name": "data",
          "type": "bytes"
        }
      ],
      "name": "mint",
      "outputs": [
        {
          "internalType": "uint256",
          "name": "",
          "type": "uint256"
        }
      ],
      "stateMutability": "nonpayable",
      "type": "function"
    },
    {
      "inputs": [
        {
          "internalType": "address",
          "name": "to",
          "type": "address"
        },
        {
          "internalType": "uint256[]",
          "name": "cardIds",
          "type": "uint256[]"
        },
        {
          "internalType": "uint256[]",
          "name": "values",
          "type": "uint256[]"
        }
      ],
      "name": "mintBatch",
      "outputs": [
        {
          "internalType": "uint256[]",
          "name": "",
          "type": "uint256[]"
        }
      ],
      "stateMutability": "nonpayable",
      "type": "function"
    },
    {
      "inputs": [
        {
          "internalType": "address",
          "name": "to",
          "type": "address"
        },
        {
          "internalType": "uint256",
          "name": "tokenAmount",
          "type": "uint256"
        }
      ],
      "name": "mintPack",
      "outputs": [
        {
          "internalType": "uint256[]",
          "name": "",
          "type": "uint256[]"
        },
        {
          "internalType": "uint256",
          "name": "",
          "type": "uint256"
        }
      ],
      "stateMutability": "nonpayable",
      "type": "function"
    },
    {
      "inputs": [
        {
          "internalType": "bytes32",
          "name": "role",
          "type": "bytes32"
        },
        {
          "internalType": "address",
          "name": "account",
          "type": "address"
        }
      ],
      "name": "renounceRole",
      "outputs": [],
      "stateMutability": "nonpayable",
      "type": "function"
    },
    {
      "inputs": [
        {
          "internalType": "bytes32",
          "name": "role",
          "type": "bytes32"
        },
        {
          "internalType": "address",
          "name": "account",
          "type": "address"
        }
      ],
      "name": "revokeRole",
      "outputs": [],
      "stateMutability": "nonpayable",
      "type": "function"
    },
    {
      "inputs": [
        {
          "internalType": "address",
          "name": "from",
          "type": "address"
        },
        {
          "internalType": "address",
          "name": "to",
          "type": "address"
        },
        {
          "internalType": "uint256[]",
          "name": "ids",
          "type": "uint256[]"
        },
        {
          "internalType": "uint256[]",
          "name": "amounts",
          "type": "uint256[]"
        },
        {
          "internalType": "bytes",
          "name": "data",
          "type": "bytes"
        }
      ],
      "name": "safeBatchTransferFrom",
      "outputs": [],
      "stateMutability": "nonpayable",
      "type": "function"
    },
    {
      "inputs": [
        {
          "internalType": "address",
          "name": "from",
          "type": "address"
        },
        {
          "internalType": "address",
          "name": "to",
          "type": "address"
        },
        {
          "internalType": "uint256",
          "name": "id",
          "type": "uint256"
        },
        {
          "internalType": "uint256",
          "name": "amount",
          "type": "uint256"
        },
        {
          "internalType": "bytes",
          "name": "data",
          "type": "bytes"
        }
      ],
      "name": "safeTransferFrom",
      "outputs": [],
      "stateMutability": "nonpayable",
      "type": "function"
    },
    {
      "inputs": [
        {
          "internalType": "address",
          "name": "operator",
          "type": "address"
        },
        {
          "internalType": "bool",
          "name": "approved",
          "type": "bool"
        }
      ],
      "name": "setApprovalForAll",
      "outputs": [],
      "stateMutability": "nonpayable",
      "type": "function"
    },
    {
      "inputs": [
        {
          "internalType": "address",
          "name": "gogBattlesToken",
          "type": "address"
        },
        {
          "internalType": "address",
          "name": "gogBattlesCardFactory",
          "type": "address"
        }
      ],
      "name": "setGoGBattlesTokenAndCardFactory",
      "outputs": [],
      "stateMutability": "nonpayable",
      "type": "function"
    },
    {
      "inputs": [
        {
          "internalType": "string",
          "name": "newuri",
          "type": "string"
        }
      ],
      "name": "setURI",
      "outputs": [],
      "stateMutability": "nonpayable",
      "type": "function"
    },
    {
      "inputs": [
        {
          "internalType": "bytes4",
          "name": "interfaceId",
          "type": "bytes4"
        }
      ],
      "name": "supportsInterface",
      "outputs": [
        {
          "internalType": "bool",
          "name": "",
          "type": "bool"
        }
      ],
      "stateMutability": "view",
      "type": "function"
    },
    {
      "inputs": [
        {
          "internalType": "uint256",
          "name": "",
          "type": "uint256"
        }
      ],
      "name": "uri",
      "outputs": [
        {
          "internalType": "string",
          "name": "",
          "type": "string"
        }
      ],
      "stateMutability": "view",
      "type": "function"
    }
  ],
  "bytecode": "0x60806040523480156200001157600080fd5b506040518060400160405280601f81526020017f68747470733a2f2f6775696c64736f66676f64732e636f6d2f63617264732f0081525062000059816200013d60201b60201c565b506200006f6000801b336200015960201b60201c565b620000a17f7804d923f43a17d325d77e781528e0793b2edd9890ab45fc64efd7b4b427744c336200015960201b60201c565b620000d37f9f2df0fed2c77648de5860a4cc508cd0818c85b8b8a1ab4ceeef8d981c8956a6336200015960201b60201c565b620001057f189ab7a9244df0848122154315af71fe140f3db0fe014031783b0946b8c9d2e3336200015960201b60201c565b620001377f2e8b98eef02e8df3bd27d1270ded3bea3d14db99c5234c7b14001a7fff957bcc336200015960201b60201c565b620003e9565b806002908051906020019062000155929190620002d4565b5050565b6200016b82826200016f60201b60201c565b5050565b6200018182826200026160201b60201c565b6200025d5760016003600084815260200190815260200160002060000160008373ffffffffffffffffffffffffffffffffffffffff1673ffffffffffffffffffffffffffffffffffffffff16815260200190815260200160002060006101000a81548160ff02191690831515021790555062000202620002cc60201b60201c565b73ffffffffffffffffffffffffffffffffffffffff168173ffffffffffffffffffffffffffffffffffffffff16837f2f8788117e7eff1d82e926ec794901d17c78024a50270940304540a733656f0d60405160405180910390a45b5050565b60006003600084815260200190815260200160002060000160008373ffffffffffffffffffffffffffffffffffffffff1673ffffffffffffffffffffffffffffffffffffffff16815260200190815260200160002060009054906101000a900460ff16905092915050565b600033905090565b828054620002e29062000384565b90600052602060002090601f01602090048101928262000306576000855562000352565b82601f106200032157805160ff191683800117855562000352565b8280016001018555821562000352579182015b828111156200035157825182559160200191906001019062000334565b5b50905062000361919062000365565b5090565b5b808211156200038057600081600090555060010162000366565b5090565b600060028204905060018216806200039d57607f821691505b60208210811415620003b457620003b3620003ba565b5b50919050565b7f4e487b7100000000000000000000000000000000000000000000000000000000600052602260045260246000fd5b6153b580620003f96000396000f3fe608060405234801561001057600080fd5b50600436106101c35760003560e01c8063a217fddf116100f9578063d824d6b211610097578063f08f049f11610071578063f08f049f14610561578063f242432a1461057d578063f5298aca14610599578063f72c0d8b146105b5576101c3565b8063d824d6b2146104d1578063db7fd40814610501578063e985e9c514610531576101c3565b8063d07a89bb116100d3578063d07a89bb14610437578063d539139314610467578063d547741f14610485578063d81d0a15146104a1576101c3565b8063a217fddf146103e1578063a22cb465146103ff578063b2dc5dc31461041b576101c3565b806336568abe116101665780636b366cb5116101405780636b366cb5146103445780637f3457101461036257806391d1485414610380578063952ea94f146103b0576101c3565b806336568abe146102dc5780634e1273f4146102f85780636b20c45414610328576101c3565b80630e89341c116101a25780630e89341c14610244578063248a9ca3146102745780632eb2c2d6146102a45780632f2ff15d146102c0576101c3565b8062fdd58e146101c857806301ffc9a7146101f857806302fe530514610228575b600080fd5b6101e260048036038101906101dd9190613c30565b6105d3565b6040516101ef9190614822565b60405180910390f35b610212600480360381019061020d9190613e75565b61069c565b60405161021f919061458a565b60405180910390f35b610242600480360381019061023d9190613ec7565b6106ae565b005b61025e60048036038101906102599190613f08565b6106ed565b60405161026b91906145c0565b60405180910390f35b61028e60048036038101906102899190613e10565b610781565b60405161029b91906145a5565b60405180910390f35b6102be60048036038101906102b991906139d3565b6107a1565b005b6102da60048036038101906102d59190613e39565b610842565b005b6102f660048036038101906102f19190613e39565b61086b565b005b610312600480360381019061030d9190613cbb565b6108ee565b60405161031f9190614501565b60405180910390f35b610342600480360381019061033d9190613b75565b610a9f565b005b61034c610ae2565b60405161035991906145a5565b60405180910390f35b61036a610b06565b60405161037791906145a5565b60405180910390f35b61039a60048036038101906103959190613e39565b610b2a565b6040516103a7919061458a565b60405180910390f35b6103ca60048036038101906103c59190613c30565b610b95565b6040516103d892919061455a565b60405180910390f35b6103e9610e51565b6040516103f691906145a5565b60405180910390f35b61041960048036038101906104149190613bf4565b610e58565b005b61043560048036038101906104309190613b21565b610fd9565b005b610451600480360381019061044c919061396e565b611083565b60405161045e9190614822565b60405180910390f35b61046f6110cc565b60405161047c91906145a5565b60405180910390f35b61049f600480360381019061049a9190613e39565b6110f0565b005b6104bb60048036038101906104b69190613b75565b611119565b6040516104c89190614501565b60405180910390f35b6104eb60048036038101906104e69190613d27565b61133b565b6040516104f89190614822565b60405180910390f35b61051b60048036038101906105169190613f31565b6113ca565b6040516105289190614822565b60405180910390f35b61054b60048036038101906105469190613997565b611449565b604051610558919061458a565b60405180910390f35b61057b60048036038101906105769190613997565b6114dd565b005b61059760048036038101906105929190613a92565b611579565b005b6105b360048036038101906105ae9190613c6c565b61161a565b005b6105bd6116b7565b6040516105ca91906145a5565b60405180910390f35b60008073ffffffffffffffffffffffffffffffffffffffff168373ffffffffffffffffffffffffffffffffffffffff161415610644576040517f08c379a000000000000000000000000000000000000000000000000000000000815260040161063b90614662565b60405180910390fd5b60008083815260200190815260200160002060008473ffffffffffffffffffffffffffffffffffffffff1673ffffffffffffffffffffffffffffffffffffffff16815260200190815260200160002054905092915050565b60006106a7826116db565b9050919050565b7f7804d923f43a17d325d77e781528e0793b2edd9890ab45fc64efd7b4b427744c6106e0816106db611755565b61175d565b6106e9826117fa565b5050565b6060600280546106fc90614b8f565b80601f016020809104026020016040519081016040528092919081815260200182805461072890614b8f565b80156107755780601f1061074a57610100808354040283529160200191610775565b820191906000526020600020905b81548152906001019060200180831161075857829003601f168201915b50505050509050919050565b600060036000838152602001908152602001600020600101549050919050565b6107a9611755565b73ffffffffffffffffffffffffffffffffffffffff168573ffffffffffffffffffffffffffffffffffffffff1614806107ef57506107ee856107e9611755565b611449565b5b61082e576040517f08c379a0000000000000000000000000000000000000000000000000000000008152600401610825906146e2565b60405180910390fd5b61083b8585858585611814565b5050505050565b61084b82610781565b61085c81610857611755565b61175d565b6108668383611b74565b505050565b610873611755565b73ffffffffffffffffffffffffffffffffffffffff168173ffffffffffffffffffffffffffffffffffffffff16146108e0576040517f08c379a00000000000000000000000000000000000000000000000000000000081526004016108d790614802565b60405180910390fd5b6108ea8282611c55565b5050565b60608151835114610934576040517f08c379a000000000000000000000000000000000000000000000000000000000815260040161092b906147a2565b60405180910390fd5b6000835167ffffffffffffffff811115610977577f4e487b7100000000000000000000000000000000000000000000000000000000600052604160045260246000fd5b6040519080825280602002602001820160405280156109a55781602001602082028036833780820191505090505b50905060005b8451811015610a9457610a3e8582815181106109f0577f4e487b7100000000000000000000000000000000000000000000000000000000600052603260045260246000fd5b6020026020010151858381518110610a31577f4e487b7100000000000000000000000000000000000000000000000000000000600052603260045260246000fd5b60200260200101516105d3565b828281518110610a77577f4e487b7100000000000000000000000000000000000000000000000000000000600052603260045260246000fd5b60200260200101818152505080610a8d90614bf2565b90506109ab565b508091505092915050565b7f2e8b98eef02e8df3bd27d1270ded3bea3d14db99c5234c7b14001a7fff957bcc610ad181610acc611755565b61175d565b610adc848484611d37565b50505050565b7f2e8b98eef02e8df3bd27d1270ded3bea3d14db99c5234c7b14001a7fff957bcc81565b7f7804d923f43a17d325d77e781528e0793b2edd9890ab45fc64efd7b4b427744c81565b60006003600084815260200190815260200160002060000160008373ffffffffffffffffffffffffffffffffffffffff1673ffffffffffffffffffffffffffffffffffffffff16815260200190815260200160002060009054906101000a900460ff16905092915050565b606060007f9f2df0fed2c77648de5860a4cc508cd0818c85b8b8a1ab4ceeef8d981c8956a6610bcb81610bc6611755565b61175d565b600460009054906101000a900473ffffffffffffffffffffffffffffffffffffffff1673ffffffffffffffffffffffffffffffffffffffff166323b872dd3330876040518463ffffffff1660e01b8152600401610c2a93929190614447565b602060405180830381600087803b158015610c4457600080fd5b505af1158015610c58573d6000803e3d6000fd5b505050506040513d601f19601f82011682018060405250810190610c7c9190613de7565b610cbb576040517f08c379a0000000000000000000000000000000000000000000000000000000008152600401610cb290614762565b60405180910390fd5b6000806000600560009054906101000a900473ffffffffffffffffffffffffffffffffffffffff1673ffffffffffffffffffffffffffffffffffffffff166317bdbb6f886040518263ffffffff1660e01b8152600401610d1b9190614822565b60006040518083038186803b158015610d3357600080fd5b505afa158015610d47573d6000803e3d6000fd5b505050506040513d6000823e3d601f19601f82011682018060405250810190610d709190613d68565b9250925092506000610d83898585611119565b90506000821115610e3f57600460009054906101000a900473ffffffffffffffffffffffffffffffffffffffff1673ffffffffffffffffffffffffffffffffffffffff1663095ea7b333846040518363ffffffff1660e01b8152600401610deb9291906144d8565b602060405180830381600087803b158015610e0557600080fd5b505af1158015610e19573d6000803e3d6000fd5b505050506040513d601f19601f82011682018060405250810190610e3d9190613de7565b505b80829650965050505050509250929050565b6000801b81565b8173ffffffffffffffffffffffffffffffffffffffff16610e77611755565b73ffffffffffffffffffffffffffffffffffffffff161415610ece576040517f08c379a0000000000000000000000000000000000000000000000000000000008152600401610ec590614782565b60405180910390fd5b8060016000610edb611755565b73ffffffffffffffffffffffffffffffffffffffff1673ffffffffffffffffffffffffffffffffffffffff16815260200190815260200160002060008473ffffffffffffffffffffffffffffffffffffffff1673ffffffffffffffffffffffffffffffffffffffff16815260200190815260200160002060006101000a81548160ff0219169083151502179055508173ffffffffffffffffffffffffffffffffffffffff16610f88611755565b73ffffffffffffffffffffffffffffffffffffffff167f17307eab39ab6107e8899845ad3d59bd9653f200f220920489ca2b5937696c3183604051610fcd919061458a565b60405180910390a35050565b7f2e8b98eef02e8df3bd27d1270ded3bea3d14db99c5234c7b14001a7fff957bcc61100b81611006611755565b61175d565b606060005b8351811015611071576001828281518110611054577f4e487b7100000000000000000000000000000000000000000000000000000000600052603260045260246000fd5b6020026020010181815250508061106a90614bf2565b9050611010565b5061107d848483611d37565b50505050565b6000600860008373ffffffffffffffffffffffffffffffffffffffff1673ffffffffffffffffffffffffffffffffffffffff168152602001908152602001600020549050919050565b7f9f2df0fed2c77648de5860a4cc508cd0818c85b8b8a1ab4ceeef8d981c8956a681565b6110f982610781565b61110a81611105611755565b61175d565b6111148383611c55565b505050565b60607f9f2df0fed2c77648de5860a4cc508cd0818c85b8b8a1ab4ceeef8d981c8956a661114d81611148611755565b61175d565b8251845114611191576040517f08c379a000000000000000000000000000000000000000000000000000000000815260040161118890614702565b60405180910390fd5b60608060005b81518110156112ec57600960008154809291906111b390614bf2565b919050558382815181106111f0577f4e487b7100000000000000000000000000000000000000000000000000000000600052603260045260246000fd5b602002602001018181525050858181518110611235577f4e487b7100000000000000000000000000000000000000000000000000000000600052603260045260246000fd5b60200260200101516006600085848151811061127a577f4e487b7100000000000000000000000000000000000000000000000000000000600052603260045260246000fd5b602002602001015181526020019081526020016000208190555060018282815181106112cf577f4e487b7100000000000000000000000000000000000000000000000000000000600052603260045260246000fd5b602002602001018181525050806112e590614bf2565b9050611197565b5061132e8783836040518060400160405280600381526020017f3078300000000000000000000000000000000000000000000000000000000000815250611dd4565b8193505050509392505050565b6000806000905060005b83518110156113c0576006600085838151811061138b577f4e487b7100000000000000000000000000000000000000000000000000000000600052603260045260246000fd5b6020026020010151815260200190815260200160002054826113ad91906149c1565b9150806113b990614bf2565b9050611345565b5080915050919050565b60007f9f2df0fed2c77648de5860a4cc508cd0818c85b8b8a1ab4ceeef8d981c8956a66113fe816113f9611755565b61175d565b60006009600081548092919061141390614bf2565b91905055905084600660008381526020019081526020016000208190555061143e338260018761203e565b809250505092915050565b6000600160008473ffffffffffffffffffffffffffffffffffffffff1673ffffffffffffffffffffffffffffffffffffffff16815260200190815260200160002060008373ffffffffffffffffffffffffffffffffffffffff1673ffffffffffffffffffffffffffffffffffffffff16815260200190815260200160002060009054906101000a900460ff16905092915050565b6000801b6114f2816114ed611755565b61175d565b82600460006101000a81548173ffffffffffffffffffffffffffffffffffffffff021916908373ffffffffffffffffffffffffffffffffffffffff16021790555081600560006101000a81548173ffffffffffffffffffffffffffffffffffffffff021916908373ffffffffffffffffffffffffffffffffffffffff160217905550505050565b611581611755565b73ffffffffffffffffffffffffffffffffffffffff168573ffffffffffffffffffffffffffffffffffffffff1614806115c757506115c6856115c1611755565b611449565b5b611606576040517f08c379a00000000000000000000000000000000000000000000000000000000081526004016115fd906146a2565b60405180910390fd5b61161385858585856121d4565b5050505050565b611622611755565b73ffffffffffffffffffffffffffffffffffffffff168373ffffffffffffffffffffffffffffffffffffffff161480611668575061166783611662611755565b611449565b5b6116a7576040517f08c379a000000000000000000000000000000000000000000000000000000000815260040161169e906146a2565b60405180910390fd5b6116b2838383612456565b505050565b7f189ab7a9244df0848122154315af71fe140f3db0fe014031783b0946b8c9d2e381565b60007f7965db0b000000000000000000000000000000000000000000000000000000007bffffffffffffffffffffffffffffffffffffffffffffffffffffffff1916827bffffffffffffffffffffffffffffffffffffffffffffffffffffffff1916148061174e575061174d82612673565b5b9050919050565b600033905090565b6117678282610b2a565b6117f65761178c8173ffffffffffffffffffffffffffffffffffffffff166014612755565b61179a8360001c6020612755565b6040516020016117ab9291906143a5565b6040516020818303038152906040526040517f08c379a00000000000000000000000000000000000000000000000000000000081526004016117ed91906145c0565b60405180910390fd5b5050565b8060029080519060200190611810929190613591565b5050565b8151835114611858576040517f08c379a000000000000000000000000000000000000000000000000000000000815260040161184f906147c2565b60405180910390fd5b600073ffffffffffffffffffffffffffffffffffffffff168473ffffffffffffffffffffffffffffffffffffffff1614156118c8576040517f08c379a00000000000000000000000000000000000000000000000000000000081526004016118bf906146c2565b60405180910390fd5b60006118d2611755565b90506118e2818787878787612a4f565b60005b8451811015611adf576000858281518110611929577f4e487b7100000000000000000000000000000000000000000000000000000000600052603260045260246000fd5b60200260200101519050600085838151811061196e577f4e487b7100000000000000000000000000000000000000000000000000000000600052603260045260246000fd5b60200260200101519050600080600084815260200190815260200160002060008b73ffffffffffffffffffffffffffffffffffffffff1673ffffffffffffffffffffffffffffffffffffffff16815260200190815260200160002054905081811015611a0f576040517f08c379a0000000000000000000000000000000000000000000000000000000008152600401611a0690614742565b60405180910390fd5b81810360008085815260200190815260200160002060008c73ffffffffffffffffffffffffffffffffffffffff1673ffffffffffffffffffffffffffffffffffffffff168152602001908152602001600020819055508160008085815260200190815260200160002060008b73ffffffffffffffffffffffffffffffffffffffff1673ffffffffffffffffffffffffffffffffffffffff1681526020019081526020016000206000828254611ac491906149c1565b9250508190555050505080611ad890614bf2565b90506118e5565b508473ffffffffffffffffffffffffffffffffffffffff168673ffffffffffffffffffffffffffffffffffffffff168273ffffffffffffffffffffffffffffffffffffffff167f4a39dc06d4c0dbc64b70af90fd698a233a518aa5d07e595d983b8c0526c8f7fb8787604051611b56929190614523565b60405180910390a4611b6c818787878787612d83565b505050505050565b611b7e8282610b2a565b611c515760016003600084815260200190815260200160002060000160008373ffffffffffffffffffffffffffffffffffffffff1673ffffffffffffffffffffffffffffffffffffffff16815260200190815260200160002060006101000a81548160ff021916908315150217905550611bf6611755565b73ffffffffffffffffffffffffffffffffffffffff168173ffffffffffffffffffffffffffffffffffffffff16837f2f8788117e7eff1d82e926ec794901d17c78024a50270940304540a733656f0d60405160405180910390a45b5050565b611c5f8282610b2a565b15611d335760006003600084815260200190815260200160002060000160008373ffffffffffffffffffffffffffffffffffffffff1673ffffffffffffffffffffffffffffffffffffffff16815260200190815260200160002060006101000a81548160ff021916908315150217905550611cd8611755565b73ffffffffffffffffffffffffffffffffffffffff168173ffffffffffffffffffffffffffffffffffffffff16837ff6391f5c32d9c69d2a47ea670b442974b53935d1edc7fd64eb21e047a839171b60405160405180910390a45b5050565b611d3f611755565b73ffffffffffffffffffffffffffffffffffffffff168373ffffffffffffffffffffffffffffffffffffffff161480611d855750611d8483611d7f611755565b611449565b5b611dc4576040517f08c379a0000000000000000000000000000000000000000000000000000000008152600401611dbb906146a2565b60405180910390fd5b611dcf838383612f6a565b505050565b600073ffffffffffffffffffffffffffffffffffffffff168473ffffffffffffffffffffffffffffffffffffffff161415611e44576040517f08c379a0000000000000000000000000000000000000000000000000000000008152600401611e3b906147e2565b60405180910390fd5b8151835114611e88576040517f08c379a0000000000000000000000000000000000000000000000000000000008152600401611e7f906147c2565b60405180910390fd5b6000611e92611755565b9050611ea381600087878787612a4f565b60005b8451811015611fa857838181518110611ee8577f4e487b7100000000000000000000000000000000000000000000000000000000600052603260045260246000fd5b6020026020010151600080878481518110611f2c577f4e487b7100000000000000000000000000000000000000000000000000000000600052603260045260246000fd5b6020026020010151815260200190815260200160002060008873ffffffffffffffffffffffffffffffffffffffff1673ffffffffffffffffffffffffffffffffffffffff1681526020019081526020016000206000828254611f8e91906149c1565b925050819055508080611fa090614bf2565b915050611ea6565b508473ffffffffffffffffffffffffffffffffffffffff16600073ffffffffffffffffffffffffffffffffffffffff168273ffffffffffffffffffffffffffffffffffffffff167f4a39dc06d4c0dbc64b70af90fd698a233a518aa5d07e595d983b8c0526c8f7fb8787604051612020929190614523565b60405180910390a461203781600087878787612d83565b5050505050565b600073ffffffffffffffffffffffffffffffffffffffff168473ffffffffffffffffffffffffffffffffffffffff1614156120ae576040517f08c379a00000000000000000000000000000000000000000000000000000000081526004016120a5906147e2565b60405180910390fd5b60006120b8611755565b90506120d9816000876120ca88613267565b6120d388613267565b87612a4f565b8260008086815260200190815260200160002060008773ffffffffffffffffffffffffffffffffffffffff1673ffffffffffffffffffffffffffffffffffffffff168152602001908152602001600020600082825461213891906149c1565b925050819055508473ffffffffffffffffffffffffffffffffffffffff16600073ffffffffffffffffffffffffffffffffffffffff168273ffffffffffffffffffffffffffffffffffffffff167fc3d58168c5ae7397731d063d5bbf3d657854427343f4c083240f7aacaa2d0f6287876040516121b692919061483d565b60405180910390a46121cd8160008787878761332d565b5050505050565b600073ffffffffffffffffffffffffffffffffffffffff168473ffffffffffffffffffffffffffffffffffffffff161415612244576040517f08c379a000000000000000000000000000000000000000000000000000000000815260040161223b906146c2565b60405180910390fd5b600061224e611755565b905061226e81878761225f88613267565b61226888613267565b87612a4f565b600080600086815260200190815260200160002060008873ffffffffffffffffffffffffffffffffffffffff1673ffffffffffffffffffffffffffffffffffffffff16815260200190815260200160002054905083811015612305576040517f08c379a00000000000000000000000000000000000000000000000000000000081526004016122fc90614742565b60405180910390fd5b83810360008087815260200190815260200160002060008973ffffffffffffffffffffffffffffffffffffffff1673ffffffffffffffffffffffffffffffffffffffff168152602001908152602001600020819055508360008087815260200190815260200160002060008873ffffffffffffffffffffffffffffffffffffffff1673ffffffffffffffffffffffffffffffffffffffff16815260200190815260200160002060008282546123ba91906149c1565b925050819055508573ffffffffffffffffffffffffffffffffffffffff168773ffffffffffffffffffffffffffffffffffffffff168373ffffffffffffffffffffffffffffffffffffffff167fc3d58168c5ae7397731d063d5bbf3d657854427343f4c083240f7aacaa2d0f62888860405161243792919061483d565b60405180910390a461244d82888888888861332d565b50505050505050565b600073ffffffffffffffffffffffffffffffffffffffff168373ffffffffffffffffffffffffffffffffffffffff1614156124c6576040517f08c379a00000000000000000000000000000000000000000000000000000000081526004016124bd90614722565b60405180910390fd5b60006124d0611755565b9050612500818560006124e287613267565b6124eb87613267565b60405180602001604052806000815250612a4f565b600080600085815260200190815260200160002060008673ffffffffffffffffffffffffffffffffffffffff1673ffffffffffffffffffffffffffffffffffffffff16815260200190815260200160002054905082811015612597576040517f08c379a000000000000000000000000000000000000000000000000000000000815260040161258e90614682565b60405180910390fd5b82810360008086815260200190815260200160002060008773ffffffffffffffffffffffffffffffffffffffff1673ffffffffffffffffffffffffffffffffffffffff16815260200190815260200160002081905550600073ffffffffffffffffffffffffffffffffffffffff168573ffffffffffffffffffffffffffffffffffffffff168373ffffffffffffffffffffffffffffffffffffffff167fc3d58168c5ae7397731d063d5bbf3d657854427343f4c083240f7aacaa2d0f62878760405161266492919061483d565b60405180910390a45050505050565b60007fd9b67a26000000000000000000000000000000000000000000000000000000007bffffffffffffffffffffffffffffffffffffffffffffffffffffffff1916827bffffffffffffffffffffffffffffffffffffffffffffffffffffffff1916148061273e57507f0e89341c000000000000000000000000000000000000000000000000000000007bffffffffffffffffffffffffffffffffffffffffffffffffffffffff1916827bffffffffffffffffffffffffffffffffffffffffffffffffffffffff1916145b8061274e575061274d82613514565b5b9050919050565b6060600060028360026127689190614a17565b61277291906149c1565b67ffffffffffffffff8111156127b1577f4e487b7100000000000000000000000000000000000000000000000000000000600052604160045260246000fd5b6040519080825280601f01601f1916602001820160405280156127e35781602001600182028036833780820191505090505b5090507f300000000000000000000000000000000000000000000000000000000000000081600081518110612841577f4e487b7100000000000000000000000000000000000000000000000000000000600052603260045260246000fd5b60200101907effffffffffffffffffffffffffffffffffffffffffffffffffffffffffffff1916908160001a9053507f7800000000000000000000000000000000000000000000000000000000000000816001815181106128cb577f4e487b7100000000000000000000000000000000000000000000000000000000600052603260045260246000fd5b60200101907effffffffffffffffffffffffffffffffffffffffffffffffffffffffffffff1916908160001a9053506000600184600261290b9190614a17565b61291591906149c1565b90505b6001811115612a01577f3031323334353637383961626364656600000000000000000000000000000000600f86166010811061297d577f4e487b7100000000000000000000000000000000000000000000000000000000600052603260045260246000fd5b1a60f81b8282815181106129ba577f4e487b7100000000000000000000000000000000000000000000000000000000600052603260045260246000fd5b60200101907effffffffffffffffffffffffffffffffffffffffffffffffffffffffffffff1916908160001a905350600485901c9450806129fa90614b65565b9050612918565b5060008414612a45576040517f08c379a0000000000000000000000000000000000000000000000000000000008152600401612a3c90614602565b60405180910390fd5b8091505092915050565b600073ffffffffffffffffffffffffffffffffffffffff168573ffffffffffffffffffffffffffffffffffffffff161415612afb5760005b8351811015612af9574260076000868481518110612ace577f4e487b7100000000000000000000000000000000000000000000000000000000600052603260045260246000fd5b602002602001015181526020019081526020016000208190555080612af290614bf2565b9050612a87565b505b600073ffffffffffffffffffffffffffffffffffffffff168473ffffffffffffffffffffffffffffffffffffffff161415612be45760005b8351811015612be2574260076000868481518110612b7a577f4e487b7100000000000000000000000000000000000000000000000000000000600052603260045260246000fd5b602002602001015181526020019081526020016000205410612bd1576040517f08c379a0000000000000000000000000000000000000000000000000000000008152600401612bc890614642565b60405180910390fd5b80612bdb90614bf2565b9050612b33565b505b6000805b8451811015612c635760066000868381518110612c2e577f4e487b7100000000000000000000000000000000000000000000000000000000600052603260045260246000fd5b602002602001015181526020019081526020016000205482612c5091906149c1565b915080612c5c90614bf2565b9050612be8565b50600073ffffffffffffffffffffffffffffffffffffffff168673ffffffffffffffffffffffffffffffffffffffff1614612cef5780600860008873ffffffffffffffffffffffffffffffffffffffff1673ffffffffffffffffffffffffffffffffffffffff1681526020019081526020016000206000828254612ce79190614a71565b925050819055505b600073ffffffffffffffffffffffffffffffffffffffff168573ffffffffffffffffffffffffffffffffffffffff1614612d7a5780600860008773ffffffffffffffffffffffffffffffffffffffff1673ffffffffffffffffffffffffffffffffffffffff1681526020019081526020016000206000828254612d7291906149c1565b925050819055505b50505050505050565b612da28473ffffffffffffffffffffffffffffffffffffffff1661357e565b15612f62578373ffffffffffffffffffffffffffffffffffffffff1663bc197c8187878686866040518663ffffffff1660e01b8152600401612de89594939291906143df565b602060405180830381600087803b158015612e0257600080fd5b505af1925050508015612e3357506040513d601f19601f82011682018060405250810190612e309190613e9e565b60015b612ed957612e3f614cc8565b806308c379a01415612e9c5750612e54615276565b80612e5f5750612e9e565b806040517f08c379a0000000000000000000000000000000000000000000000000000000008152600401612e9391906145c0565b60405180910390fd5b505b6040517f08c379a0000000000000000000000000000000000000000000000000000000008152600401612ed0906145e2565b60405180910390fd5b63bc197c8160e01b7bffffffffffffffffffffffffffffffffffffffffffffffffffffffff1916817bffffffffffffffffffffffffffffffffffffffffffffffffffffffff191614612f60576040517f08c379a0000000000000000000000000000000000000000000000000000000008152600401612f5790614622565b60405180910390fd5b505b505050505050565b600073ffffffffffffffffffffffffffffffffffffffff168373ffffffffffffffffffffffffffffffffffffffff161415612fda576040517f08c379a0000000000000000000000000000000000000000000000000000000008152600401612fd190614722565b60405180910390fd5b805182511461301e576040517f08c379a0000000000000000000000000000000000000000000000000000000008152600401613015906147c2565b60405180910390fd5b6000613028611755565b905061304881856000868660405180602001604052806000815250612a4f565b60005b83518110156131e157600084828151811061308f577f4e487b7100000000000000000000000000000000000000000000000000000000600052603260045260246000fd5b6020026020010151905060008483815181106130d4577f4e487b7100000000000000000000000000000000000000000000000000000000600052603260045260246000fd5b60200260200101519050600080600084815260200190815260200160002060008973ffffffffffffffffffffffffffffffffffffffff1673ffffffffffffffffffffffffffffffffffffffff16815260200190815260200160002054905081811015613175576040517f08c379a000000000000000000000000000000000000000000000000000000000815260040161316c90614682565b60405180910390fd5b81810360008085815260200190815260200160002060008a73ffffffffffffffffffffffffffffffffffffffff1673ffffffffffffffffffffffffffffffffffffffff1681526020019081526020016000208190555050505080806131d990614bf2565b91505061304b565b50600073ffffffffffffffffffffffffffffffffffffffff168473ffffffffffffffffffffffffffffffffffffffff168273ffffffffffffffffffffffffffffffffffffffff167f4a39dc06d4c0dbc64b70af90fd698a233a518aa5d07e595d983b8c0526c8f7fb8686604051613259929190614523565b60405180910390a450505050565b60606000600167ffffffffffffffff8111156132ac577f4e487b7100000000000000000000000000000000000000000000000000000000600052604160045260246000fd5b6040519080825280602002602001820160405280156132da5781602001602082028036833780820191505090505b5090508281600081518110613318577f4e487b7100000000000000000000000000000000000000000000000000000000600052603260045260246000fd5b60200260200101818152505080915050919050565b61334c8473ffffffffffffffffffffffffffffffffffffffff1661357e565b1561350c578373ffffffffffffffffffffffffffffffffffffffff1663f23a6e6187878686866040518663ffffffff1660e01b815260040161339295949392919061447e565b602060405180830381600087803b1580156133ac57600080fd5b505af19250505080156133dd57506040513d601f19601f820116820180604052508101906133da9190613e9e565b60015b613483576133e9614cc8565b806308c379a0141561344657506133fe615276565b806134095750613448565b806040517f08c379a000000000000000000000000000000000000000000000000000000000815260040161343d91906145c0565b60405180910390fd5b505b6040517f08c379a000000000000000000000000000000000000000000000000000000000815260040161347a906145e2565b60405180910390fd5b63f23a6e6160e01b7bffffffffffffffffffffffffffffffffffffffffffffffffffffffff1916817bffffffffffffffffffffffffffffffffffffffffffffffffffffffff19161461350a576040517f08c379a000000000000000000000000000000000000000000000000000000000815260040161350190614622565b60405180910390fd5b505b505050505050565b60007f01ffc9a7000000000000000000000000000000000000000000000000000000007bffffffffffffffffffffffffffffffffffffffffffffffffffffffff1916827bffffffffffffffffffffffffffffffffffffffffffffffffffffffff1916149050919050565b600080823b905060008111915050919050565b82805461359d90614b8f565b90600052602060002090601f0160209004810192826135bf5760008555613606565b82601f106135d857805160ff1916838001178555613606565b82800160010185558215613606579182015b828111156136055782518255916020019190600101906135ea565b5b5090506136139190613617565b5090565b5b80821115613630576000816000905550600101613618565b5090565b60006136476136428461488b565b614866565b9050808382526020820190508285602086028201111561366657600080fd5b60005b85811015613696578161367c88826137f4565b845260208401935060208301925050600181019050613669565b5050509392505050565b60006136b36136ae846148b7565b614866565b905080838252602082019050828560208602820111156136d257600080fd5b60005b8581101561370257816136e88882613944565b8452602084019350602083019250506001810190506136d5565b5050509392505050565b600061371f61371a846148b7565b614866565b9050808382526020820190508285602086028201111561373e57600080fd5b60005b8581101561376e57816137548882613959565b845260208401935060208301925050600181019050613741565b5050509392505050565b600061378b613786846148e3565b614866565b9050828152602081018484840111156137a357600080fd5b6137ae848285614b23565b509392505050565b60006137c96137c484614914565b614866565b9050828152602081018484840111156137e157600080fd5b6137ec848285614b23565b509392505050565b6000813590506138038161530c565b92915050565b600082601f83011261381a57600080fd5b813561382a848260208601613634565b91505092915050565b600082601f83011261384457600080fd5b81356138548482602086016136a0565b91505092915050565b600082601f83011261386e57600080fd5b815161387e84826020860161370c565b91505092915050565b60008135905061389681615323565b92915050565b6000815190506138ab81615323565b92915050565b6000813590506138c08161533a565b92915050565b6000813590506138d581615351565b92915050565b6000815190506138ea81615351565b92915050565b600082601f83011261390157600080fd5b8135613911848260208601613778565b91505092915050565b600082601f83011261392b57600080fd5b813561393b8482602086016137b6565b91505092915050565b60008135905061395381615368565b92915050565b60008151905061396881615368565b92915050565b60006020828403121561398057600080fd5b600061398e848285016137f4565b91505092915050565b600080604083850312156139aa57600080fd5b60006139b8858286016137f4565b92505060206139c9858286016137f4565b9150509250929050565b600080600080600060a086880312156139eb57600080fd5b60006139f9888289016137f4565b9550506020613a0a888289016137f4565b945050604086013567ffffffffffffffff811115613a2757600080fd5b613a3388828901613833565b935050606086013567ffffffffffffffff811115613a5057600080fd5b613a5c88828901613833565b925050608086013567ffffffffffffffff811115613a7957600080fd5b613a85888289016138f0565b9150509295509295909350565b600080600080600060a08688031215613aaa57600080fd5b6000613ab8888289016137f4565b9550506020613ac9888289016137f4565b9450506040613ada88828901613944565b9350506060613aeb88828901613944565b925050608086013567ffffffffffffffff811115613b0857600080fd5b613b14888289016138f0565b9150509295509295909350565b60008060408385031215613b3457600080fd5b6000613b42858286016137f4565b925050602083013567ffffffffffffffff811115613b5f57600080fd5b613b6b85828601613833565b9150509250929050565b600080600060608486031215613b8a57600080fd5b6000613b98868287016137f4565b935050602084013567ffffffffffffffff811115613bb557600080fd5b613bc186828701613833565b925050604084013567ffffffffffffffff811115613bde57600080fd5b613bea86828701613833565b9150509250925092565b60008060408385031215613c0757600080fd5b6000613c15858286016137f4565b9250506020613c2685828601613887565b9150509250929050565b60008060408385031215613c4357600080fd5b6000613c51858286016137f4565b9250506020613c6285828601613944565b9150509250929050565b600080600060608486031215613c8157600080fd5b6000613c8f868287016137f4565b9350506020613ca086828701613944565b9250506040613cb186828701613944565b9150509250925092565b60008060408385031215613cce57600080fd5b600083013567ffffffffffffffff811115613ce857600080fd5b613cf485828601613809565b925050602083013567ffffffffffffffff811115613d1157600080fd5b613d1d85828601613833565b9150509250929050565b600060208284031215613d3957600080fd5b600082013567ffffffffffffffff811115613d5357600080fd5b613d5f84828501613833565b91505092915050565b600080600060608486031215613d7d57600080fd5b600084015167ffffffffffffffff811115613d9757600080fd5b613da38682870161385d565b935050602084015167ffffffffffffffff811115613dc057600080fd5b613dcc8682870161385d565b9250506040613ddd86828701613959565b9150509250925092565b600060208284031215613df957600080fd5b6000613e078482850161389c565b91505092915050565b600060208284031215613e2257600080fd5b6000613e30848285016138b1565b91505092915050565b60008060408385031215613e4c57600080fd5b6000613e5a858286016138b1565b9250506020613e6b858286016137f4565b9150509250929050565b600060208284031215613e8757600080fd5b6000613e95848285016138c6565b91505092915050565b600060208284031215613eb057600080fd5b6000613ebe848285016138db565b91505092915050565b600060208284031215613ed957600080fd5b600082013567ffffffffffffffff811115613ef357600080fd5b613eff8482850161391a565b91505092915050565b600060208284031215613f1a57600080fd5b6000613f2884828501613944565b91505092915050565b60008060408385031215613f4457600080fd5b6000613f5285828601613944565b925050602083013567ffffffffffffffff811115613f6f57600080fd5b613f7b858286016138f0565b9150509250929050565b6000613f918383614387565b60208301905092915050565b613fa681614aa5565b82525050565b6000613fb782614955565b613fc18185614983565b9350613fcc83614945565b8060005b83811015613ffd578151613fe48882613f85565b9750613fef83614976565b925050600181019050613fd0565b5085935050505092915050565b61401381614ab7565b82525050565b61402281614ac3565b82525050565b600061403382614960565b61403d8185614994565b935061404d818560208601614b32565b61405681614cea565b840191505092915050565b600061406c8261496b565b61407681856149a5565b9350614086818560208601614b32565b61408f81614cea565b840191505092915050565b60006140a58261496b565b6140af81856149b6565b93506140bf818560208601614b32565b80840191505092915050565b60006140d86034836149a5565b91506140e382614d08565b604082019050919050565b60006140fb6020836149a5565b915061410682614d57565b602082019050919050565b600061411e6028836149a5565b915061412982614d80565b604082019050919050565b6000614141602e836149a5565b915061414c82614dcf565b604082019050919050565b6000614164602b836149a5565b915061416f82614e1e565b604082019050919050565b60006141876024836149a5565b915061419282614e6d565b604082019050919050565b60006141aa6029836149a5565b91506141b582614ebc565b604082019050919050565b60006141cd6025836149a5565b91506141d882614f0b565b604082019050919050565b60006141f06032836149a5565b91506141fb82614f5a565b604082019050919050565b6000614213601f836149a5565b915061421e82614fa9565b602082019050919050565b60006142366023836149a5565b915061424182614fd2565b604082019050919050565b6000614259602a836149a5565b915061426482615021565b604082019050919050565b600061427c6015836149a5565b915061428782615070565b602082019050919050565b600061429f6017836149b6565b91506142aa82615099565b601782019050919050565b60006142c26029836149a5565b91506142cd826150c2565b604082019050919050565b60006142e56029836149a5565b91506142f082615111565b604082019050919050565b60006143086028836149a5565b915061431382615160565b604082019050919050565b600061432b6021836149a5565b9150614336826151af565b604082019050919050565b600061434e6011836149b6565b9150614359826151fe565b601182019050919050565b6000614371602f836149a5565b915061437c82615227565b604082019050919050565b61439081614b19565b82525050565b61439f81614b19565b82525050565b60006143b082614292565b91506143bc828561409a565b91506143c782614341565b91506143d3828461409a565b91508190509392505050565b600060a0820190506143f46000830188613f9d565b6144016020830187613f9d565b81810360408301526144138186613fac565b905081810360608301526144278185613fac565b9050818103608083015261443b8184614028565b90509695505050505050565b600060608201905061445c6000830186613f9d565b6144696020830185613f9d565b6144766040830184614396565b949350505050565b600060a0820190506144936000830188613f9d565b6144a06020830187613f9d565b6144ad6040830186614396565b6144ba6060830185614396565b81810360808301526144cc8184614028565b90509695505050505050565b60006040820190506144ed6000830185613f9d565b6144fa6020830184614396565b9392505050565b6000602082019050818103600083015261451b8184613fac565b905092915050565b6000604082019050818103600083015261453d8185613fac565b905081810360208301526145518184613fac565b90509392505050565b600060408201905081810360008301526145748185613fac565b90506145836020830184614396565b9392505050565b600060208201905061459f600083018461400a565b92915050565b60006020820190506145ba6000830184614019565b92915050565b600060208201905081810360008301526145da8184614061565b905092915050565b600060208201905081810360008301526145fb816140cb565b9050919050565b6000602082019050818103600083015261461b816140ee565b9050919050565b6000602082019050818103600083015261463b81614111565b9050919050565b6000602082019050818103600083015261465b81614134565b9050919050565b6000602082019050818103600083015261467b81614157565b9050919050565b6000602082019050818103600083015261469b8161417a565b9050919050565b600060208201905081810360008301526146bb8161419d565b9050919050565b600060208201905081810360008301526146db816141c0565b9050919050565b600060208201905081810360008301526146fb816141e3565b9050919050565b6000602082019050818103600083015261471b81614206565b9050919050565b6000602082019050818103600083015261473b81614229565b9050919050565b6000602082019050818103600083015261475b8161424c565b9050919050565b6000602082019050818103600083015261477b8161426f565b9050919050565b6000602082019050818103600083015261479b816142b5565b9050919050565b600060208201905081810360008301526147bb816142d8565b9050919050565b600060208201905081810360008301526147db816142fb565b9050919050565b600060208201905081810360008301526147fb8161431e565b9050919050565b6000602082019050818103600083015261481b81614364565b9050919050565b60006020820190506148376000830184614396565b92915050565b60006040820190506148526000830185614396565b61485f6020830184614396565b9392505050565b6000614870614881565b905061487c8282614bc1565b919050565b6000604051905090565b600067ffffffffffffffff8211156148a6576148a5614c99565b5b602082029050602081019050919050565b600067ffffffffffffffff8211156148d2576148d1614c99565b5b602082029050602081019050919050565b600067ffffffffffffffff8211156148fe576148fd614c99565b5b61490782614cea565b9050602081019050919050565b600067ffffffffffffffff82111561492f5761492e614c99565b5b61493882614cea565b9050602081019050919050565b6000819050602082019050919050565b600081519050919050565b600081519050919050565b600081519050919050565b6000602082019050919050565b600082825260208201905092915050565b600082825260208201905092915050565b600082825260208201905092915050565b600081905092915050565b60006149cc82614b19565b91506149d783614b19565b9250827fffffffffffffffffffffffffffffffffffffffffffffffffffffffffffffffff03821115614a0c57614a0b614c3b565b5b828201905092915050565b6000614a2282614b19565b9150614a2d83614b19565b9250817fffffffffffffffffffffffffffffffffffffffffffffffffffffffffffffffff0483118215151615614a6657614a65614c3b565b5b828202905092915050565b6000614a7c82614b19565b9150614a8783614b19565b925082821015614a9a57614a99614c3b565b5b828203905092915050565b6000614ab082614af9565b9050919050565b60008115159050919050565b6000819050919050565b60007fffffffff0000000000000000000000000000000000000000000000000000000082169050919050565b600073ffffffffffffffffffffffffffffffffffffffff82169050919050565b6000819050919050565b82818337600083830152505050565b60005b83811015614b50578082015181840152602081019050614b35565b83811115614b5f576000848401525b50505050565b6000614b7082614b19565b91506000821415614b8457614b83614c3b565b5b600182039050919050565b60006002820490506001821680614ba757607f821691505b60208210811415614bbb57614bba614c6a565b5b50919050565b614bca82614cea565b810181811067ffffffffffffffff82111715614be957614be8614c99565b5b80604052505050565b6000614bfd82614b19565b91507fffffffffffffffffffffffffffffffffffffffffffffffffffffffffffffffff821415614c3057614c2f614c3b565b5b600182019050919050565b7f4e487b7100000000000000000000000000000000000000000000000000000000600052601160045260246000fd5b7f4e487b7100000000000000000000000000000000000000000000000000000000600052602260045260246000fd5b7f4e487b7100000000000000000000000000000000000000000000000000000000600052604160045260246000fd5b600060033d1115614ce75760046000803e614ce4600051614cfb565b90505b90565b6000601f19601f8301169050919050565b60008160e01c9050919050565b7f455243313135353a207472616e7366657220746f206e6f6e204552433131353560008201527f526563656976657220696d706c656d656e746572000000000000000000000000602082015250565b7f537472696e67733a20686578206c656e67746820696e73756666696369656e74600082015250565b7f455243313135353a204552433131353552656365697665722072656a6563746560008201527f6420746f6b656e73000000000000000000000000000000000000000000000000602082015250565b7f596f752063616e6e6f74206275726e2061206361726420746f6f20736f6f6e2060008201527f6166746572206d696e74696e672e000000000000000000000000000000000000602082015250565b7f455243313135353a2062616c616e636520717565727920666f7220746865207a60008201527f65726f2061646472657373000000000000000000000000000000000000000000602082015250565b7f455243313135353a206275726e20616d6f756e7420657863656564732062616c60008201527f616e636500000000000000000000000000000000000000000000000000000000602082015250565b7f455243313135353a2063616c6c6572206973206e6f74206f776e6572206e6f7260008201527f20617070726f7665640000000000000000000000000000000000000000000000602082015250565b7f455243313135353a207472616e7366657220746f20746865207a65726f20616460008201527f6472657373000000000000000000000000000000000000000000000000000000602082015250565b7f455243313135353a207472616e736665722063616c6c6572206973206e6f742060008201527f6f776e6572206e6f7220617070726f7665640000000000000000000000000000602082015250565b7f417272617973206d757374206265206f66207468652073616d652073697a6500600082015250565b7f455243313135353a206275726e2066726f6d20746865207a65726f206164647260008201527f6573730000000000000000000000000000000000000000000000000000000000602082015250565b7f455243313135353a20696e73756666696369656e742062616c616e636520666f60008201527f72207472616e7366657200000000000000000000000000000000000000000000602082015250565b7f5472616e73666572206d75737420737563636565640000000000000000000000600082015250565b7f416363657373436f6e74726f6c3a206163636f756e7420000000000000000000600082015250565b7f455243313135353a2073657474696e6720617070726f76616c2073746174757360008201527f20666f722073656c660000000000000000000000000000000000000000000000602082015250565b7f455243313135353a206163636f756e747320616e6420696473206c656e67746860008201527f206d69736d617463680000000000000000000000000000000000000000000000602082015250565b7f455243313135353a2069647320616e6420616d6f756e7473206c656e6774682060008201527f6d69736d61746368000000000000000000000000000000000000000000000000602082015250565b7f455243313135353a206d696e7420746f20746865207a65726f2061646472657360008201527f7300000000000000000000000000000000000000000000000000000000000000602082015250565b7f206973206d697373696e6720726f6c6520000000000000000000000000000000600082015250565b7f416363657373436f6e74726f6c3a2063616e206f6e6c792072656e6f756e636560008201527f20726f6c657320666f722073656c660000000000000000000000000000000000602082015250565b600060443d101561528657615309565b61528e614881565b60043d036004823e80513d602482011167ffffffffffffffff821117156152b6575050615309565b808201805167ffffffffffffffff8111156152d45750505050615309565b80602083010160043d0385018111156152f1575050505050615309565b61530082602001850186614bc1565b82955050505050505b90565b61531581614aa5565b811461532057600080fd5b50565b61532c81614ab7565b811461533757600080fd5b50565b61534381614ac3565b811461534e57600080fd5b50565b61535a81614acd565b811461536557600080fd5b50565b61537181614b19565b811461537c57600080fd5b5056fea2646970667358221220c9c5106409f3fe38eacdcfbd0613440b237d0a626999ab8f1637c453fbe9924f64736f6c63430008040033",
  "linkReferences": {},
  "deployedLinkReferences": {}
}