{
  "_format": "hh-sol-artifact-1",
  "contractName": "GoGBattlesVault",
  "sourceName": "contracts/GoGBattlesVault.sol",
  "abi": [
    {
      "inputs": [],
      "stateMutability": "nonpayable",
      "type": "constructor"
    },
    {
      "anonymous": false,
      "inputs": [
        {
          "indexed": false,
          "internalType": "address",
          "name": "previousAdmin",
          "type": "address"
        },
        {
          "indexed": false,
          "internalType": "address",
          "name": "newAdmin",
          "type": "address"
        }
      ],
      "name": "AdminChanged",
      "type": "event"
    },
    {
      "anonymous": false,
      "inputs": [
        {
          "indexed": true,
          "internalType": "address",
          "name": "beacon",
          "type": "address"
        }
      ],
      "name": "BeaconUpgraded",
      "type": "event"
    },
    {
      "anonymous": false,
      "inputs": [
        {
          "indexed": false,
          "internalType": "address",
          "name": "owner",
          "type": "address"
        },
        {
          "indexed": false,
          "internalType": "address",
          "name": "stable",
          "type": "address"
        },
        {
          "indexed": false,
          "internalType": "uint256",
          "name": "amount",
          "type": "uint256"
        }
      ],
      "name": "DepositStable",
      "type": "event"
    },
    {
      "anonymous": false,
      "inputs": [
        {
          "indexed": true,
          "internalType": "bytes32",
          "name": "role",
          "type": "bytes32"
        },
        {
          "indexed": true,
          "internalType": "bytes32",
          "name": "previousAdminRole",
          "type": "bytes32"
        },
        {
          "indexed": true,
          "internalType": "bytes32",
          "name": "newAdminRole",
          "type": "bytes32"
        }
      ],
      "name": "RoleAdminChanged",
      "type": "event"
    },
    {
      "anonymous": false,
      "inputs": [
        {
          "indexed": true,
          "internalType": "bytes32",
          "name": "role",
          "type": "bytes32"
        },
        {
          "indexed": true,
          "internalType": "address",
          "name": "account",
          "type": "address"
        },
        {
          "indexed": true,
          "internalType": "address",
          "name": "sender",
          "type": "address"
        }
      ],
      "name": "RoleGranted",
      "type": "event"
    },
    {
      "anonymous": false,
      "inputs": [
        {
          "indexed": true,
          "internalType": "bytes32",
          "name": "role",
          "type": "bytes32"
        },
        {
          "indexed": true,
          "internalType": "address",
          "name": "account",
          "type": "address"
        },
        {
          "indexed": true,
          "internalType": "address",
          "name": "sender",
          "type": "address"
        }
      ],
      "name": "RoleRevoked",
      "type": "event"
    },
    {
      "anonymous": false,
      "inputs": [
        {
          "indexed": true,
          "internalType": "address",
          "name": "implementation",
          "type": "address"
        }
      ],
      "name": "Upgraded",
      "type": "event"
    },
    {
      "anonymous": false,
      "inputs": [
        {
          "indexed": false,
          "internalType": "address",
          "name": "owner",
          "type": "address"
        },
        {
          "indexed": false,
          "internalType": "address",
          "name": "stable",
          "type": "address"
        },
        {
          "indexed": false,
          "internalType": "uint256",
          "name": "amount",
          "type": "uint256"
        }
      ],
      "name": "WithdrawStable",
      "type": "event"
    },
    {
      "inputs": [],
      "name": "COORDINATOR_ROLE",
      "outputs": [
        {
          "internalType": "bytes32",
          "name": "",
          "type": "bytes32"
        }
      ],
      "stateMutability": "view",
      "type": "function"
    },
    {
      "inputs": [],
      "name": "DEFAULT_ADMIN_ROLE",
      "outputs": [
        {
          "internalType": "bytes32",
          "name": "",
          "type": "bytes32"
        }
      ],
      "stateMutability": "view",
      "type": "function"
    },
    {
      "inputs": [],
      "name": "TOKEN_GATEKEEPER_ROLE",
      "outputs": [
        {
          "internalType": "bytes32",
          "name": "",
          "type": "bytes32"
        }
      ],
      "stateMutability": "view",
      "type": "function"
    },
    {
      "inputs": [],
      "name": "UPGRADER_ROLE",
      "outputs": [
        {
          "internalType": "bytes32",
          "name": "",
          "type": "bytes32"
        }
      ],
      "stateMutability": "view",
      "type": "function"
    },
    {
      "inputs": [],
      "name": "accruePendingInterest",
      "outputs": [
        {
          "internalType": "uint256",
          "name": "",
          "type": "uint256"
        }
      ],
      "stateMutability": "nonpayable",
      "type": "function"
    },
    {
      "inputs": [
        {
          "internalType": "address",
          "name": "token",
          "type": "address"
        },
        {
          "internalType": "address",
          "name": "aToken",
          "type": "address"
        },
        {
          "internalType": "uint256",
          "name": "decimals",
          "type": "uint256"
        }
      ],
      "name": "authorizeAToken",
      "outputs": [],
      "stateMutability": "nonpayable",
      "type": "function"
    },
    {
      "inputs": [
        {
          "internalType": "address",
          "name": "erc20Address",
          "type": "address"
        }
      ],
      "name": "balanceOfVaultNormalizedDecimals",
      "outputs": [
        {
          "internalType": "uint256",
          "name": "",
          "type": "uint256"
        }
      ],
      "stateMutability": "view",
      "type": "function"
    },
    {
      "inputs": [],
      "name": "balanceOfVaultsNormalizedDecimals",
      "outputs": [
        {
          "internalType": "uint256",
          "name": "",
          "type": "uint256"
        }
      ],
      "stateMutability": "view",
      "type": "function"
    },
    {
      "inputs": [
        {
          "internalType": "address",
          "name": "owner",
          "type": "address"
        },
        {
          "internalType": "uint256",
          "name": "amountNormalized",
          "type": "uint256"
        },
        {
          "internalType": "address",
          "name": "stable",
          "type": "address"
        }
      ],
      "name": "depositUnnormalizedDecimals",
      "outputs": [
        {
          "internalType": "bool",
          "name": "",
          "type": "bool"
        }
      ],
      "stateMutability": "nonpayable",
      "type": "function"
    },
    {
      "inputs": [
        {
          "internalType": "address",
          "name": "erc20Address",
          "type": "address"
        }
      ],
      "name": "doesVaultTypeExist",
      "outputs": [
        {
          "internalType": "bool",
          "name": "",
          "type": "bool"
        }
      ],
      "stateMutability": "view",
      "type": "function"
    },
    {
      "inputs": [
        {
          "internalType": "bytes32",
          "name": "role",
          "type": "bytes32"
        }
      ],
      "name": "getRoleAdmin",
      "outputs": [
        {
          "internalType": "bytes32",
          "name": "",
          "type": "bytes32"
        }
      ],
      "stateMutability": "view",
      "type": "function"
    },
    {
      "inputs": [
        {
          "internalType": "bytes32",
          "name": "role",
          "type": "bytes32"
        },
        {
          "internalType": "address",
          "name": "account",
          "type": "address"
        }
      ],
      "name": "grantRole",
      "outputs": [],
      "stateMutability": "nonpayable",
      "type": "function"
    },
    {
      "inputs": [
        {
          "internalType": "bytes32",
          "name": "role",
          "type": "bytes32"
        },
        {
          "internalType": "address",
          "name": "account",
          "type": "address"
        }
      ],
      "name": "hasRole",
      "outputs": [
        {
          "internalType": "bool",
          "name": "",
          "type": "bool"
        }
      ],
      "stateMutability": "view",
      "type": "function"
    },
    {
      "inputs": [],
      "name": "initialize",
      "outputs": [],
      "stateMutability": "nonpayable",
      "type": "function"
    },
    {
      "inputs": [],
      "name": "poolSize",
      "outputs": [
        {
          "internalType": "uint256",
          "name": "",
          "type": "uint256"
        }
      ],
      "stateMutability": "view",
      "type": "function"
    },
    {
      "inputs": [
        {
          "internalType": "bytes32",
          "name": "role",
          "type": "bytes32"
        },
        {
          "internalType": "address",
          "name": "account",
          "type": "address"
        }
      ],
      "name": "renounceRole",
      "outputs": [],
      "stateMutability": "nonpayable",
      "type": "function"
    },
    {
      "inputs": [
        {
          "internalType": "bytes32",
          "name": "role",
          "type": "bytes32"
        },
        {
          "internalType": "address",
          "name": "account",
          "type": "address"
        }
      ],
      "name": "revokeRole",
      "outputs": [],
      "stateMutability": "nonpayable",
      "type": "function"
    },
    {
      "inputs": [
        {
          "internalType": "address",
          "name": "tokenAddress",
          "type": "address"
        }
      ],
      "name": "setPoolToken",
      "outputs": [],
      "stateMutability": "nonpayable",
      "type": "function"
    },
    {
      "inputs": [
        {
          "internalType": "bytes4",
          "name": "interfaceId",
          "type": "bytes4"
        }
      ],
      "name": "supportsInterface",
      "outputs": [
        {
          "internalType": "bool",
          "name": "",
          "type": "bool"
        }
      ],
      "stateMutability": "view",
      "type": "function"
    },
    {
      "inputs": [
        {
          "internalType": "address",
          "name": "newImplementation",
          "type": "address"
        }
      ],
      "name": "upgradeTo",
      "outputs": [],
      "stateMutability": "nonpayable",
      "type": "function"
    },
    {
      "inputs": [
        {
          "internalType": "address",
          "name": "newImplementation",
          "type": "address"
        },
        {
          "internalType": "bytes",
          "name": "data",
          "type": "bytes"
        }
      ],
      "name": "upgradeToAndCall",
      "outputs": [],
      "stateMutability": "payable",
      "type": "function"
    },
    {
      "inputs": [
        {
          "internalType": "address",
          "name": "owner",
          "type": "address"
        },
        {
          "internalType": "uint256",
          "name": "amountNormalized",
          "type": "uint256"
        },
        {
          "internalType": "address",
          "name": "stable",
          "type": "address"
        }
      ],
      "name": "withdrawNormalizedDecimals",
      "outputs": [
        {
          "internalType": "bool",
          "name": "",
          "type": "bool"
        }
      ],
      "stateMutability": "nonpayable",
      "type": "function"
    }
  ],
  "bytecode": "0x60a06040523073ffffffffffffffffffffffffffffffffffffffff1660809073ffffffffffffffffffffffffffffffffffffffff1660601b81525034801561004657600080fd5b5060805160601c6140d261007a60003960008181610961015281816109f001528181610e540152610ee301526140d26000f3fe6080604052600436106101355760003560e01c80636b366cb5116100ab578063bba785f91161006f578063bba785f914610419578063d547741f14610444578063dff8b5021461046d578063e4d3a59614610496578063eb476cb4146104d3578063f72c0d8b1461051057610135565b80636b366cb5146103445780638129fc1c1461036f57806391d1485414610386578063a217fddf146103c3578063a90ef387146103ee57610135565b806333ce01fd116100fd57806333ce01fd1461025757806336568abe146102805780633659cfe6146102a95780634ec18db9146102d25780634efa2552146102fd5780634f1ef2861461032857610135565b806301ffc9a71461013a5780631bf8fea914610177578063248a9ca3146101b45780632f2ff15d146101f157806331d09dbd1461021a575b600080fd5b34801561014657600080fd5b50610161600480360381019061015c919061310c565b61053b565b60405161016e919061357c565b60405180910390f35b34801561018357600080fd5b5061019e60048036038101906101999190612f63565b6105b5565b6040516101ab9190613734565b60405180910390f35b3480156101c057600080fd5b506101db60048036038101906101d691906130a7565b61074a565b6040516101e89190613597565b60405180910390f35b3480156101fd57600080fd5b50610218600480360381019061021391906130d0565b61076a565b005b34801561022657600080fd5b50610241600480360381019061023c9190612f63565b610793565b60405161024e919061357c565b60405180910390f35b34801561026357600080fd5b5061027e60048036038101906102799190612f63565b61082b565b005b34801561028c57600080fd5b506102a760048036038101906102a291906130d0565b6108dc565b005b3480156102b557600080fd5b506102d060048036038101906102cb9190612f63565b61095f565b005b3480156102de57600080fd5b506102e7610b0e565b6040516102f49190613734565b60405180910390f35b34801561030957600080fd5b50610312610bc0565b60405161031f9190613734565b60405180910390f35b610342600480360381019061033d9190612fdb565b610e52565b005b34801561035057600080fd5b50610359610f8f565b6040516103669190613597565b60405180910390f35b34801561037b57600080fd5b50610384610fb3565b005b34801561039257600080fd5b506103ad60048036038101906103a891906130d0565b611127565b6040516103ba919061357c565b60405180910390f35b3480156103cf57600080fd5b506103d8611192565b6040516103e59190613597565b60405180910390f35b3480156103fa57600080fd5b50610403611199565b6040516104109190613734565b60405180910390f35b34801561042557600080fd5b5061042e611384565b60405161043b9190613597565b60405180910390f35b34801561045057600080fd5b5061046b600480360381019061046691906130d0565b6113a8565b005b34801561047957600080fd5b50610494600480360381019061048f9190612f8c565b6113d1565b005b3480156104a257600080fd5b506104bd60048036038101906104b8919061302f565b6116f8565b6040516104ca919061357c565b60405180910390f35b3480156104df57600080fd5b506104fa60048036038101906104f5919061302f565b611b43565b604051610507919061357c565b60405180910390f35b34801561051c57600080fd5b50610525611d90565b6040516105329190613597565b60405180910390f35b60007f7965db0b000000000000000000000000000000000000000000000000000000007bffffffffffffffffffffffffffffffffffffffffffffffffffffffff1916827bffffffffffffffffffffffffffffffffffffffffffffffffffffffff191614806105ae57506105ad82611db4565b5b9050919050565b60006105c082610793565b6105ff576040517f08c379a00000000000000000000000000000000000000000000000000000000081526004016105f690613674565b60405180910390fd5b600060ff60008473ffffffffffffffffffffffffffffffffffffffff1673ffffffffffffffffffffffffffffffffffffffff16815260200190815260200160002060009054906101000a900473ffffffffffffffffffffffffffffffffffffffff169050600060fe60008573ffffffffffffffffffffffffffffffffffffffff1673ffffffffffffffffffffffffffffffffffffffff1681526020019081526020016000205490506000829050818173ffffffffffffffffffffffffffffffffffffffff166370a08231306040518263ffffffff1660e01b81526004016106e6919061345c565b60206040518083038186803b1580156106fe57600080fd5b505afa158015610712573d6000803e3d6000fd5b505050506040513d601f19601f820116820180604052508101906107369190613135565b61074091906139da565b9350505050919050565b600060656000838152602001908152602001600020600101549050919050565b6107738261074a565b6107848161077f611e1e565b611e26565b61078e8383611ec3565b505050565b60008073ffffffffffffffffffffffffffffffffffffffff1660ff60008473ffffffffffffffffffffffffffffffffffffffff1673ffffffffffffffffffffffffffffffffffffffff16815260200190815260200160002060009054906101000a900473ffffffffffffffffffffffffffffffffffffffff1673ffffffffffffffffffffffffffffffffffffffff1614159050919050565b7fbc218ab1d87167b43f142aef68e2d81118828b78c6908d6fe75b0333345dc32761085d81610858611e1e565b611e26565b600073ffffffffffffffffffffffffffffffffffffffff168273ffffffffffffffffffffffffffffffffffffffff16141561089757600080fd5b8160fb60006101000a81548173ffffffffffffffffffffffffffffffffffffffff021916908373ffffffffffffffffffffffffffffffffffffffff1602179055505050565b6108e4611e1e565b73ffffffffffffffffffffffffffffffffffffffff168173ffffffffffffffffffffffffffffffffffffffff1614610951576040517f08c379a000000000000000000000000000000000000000000000000000000000815260040161094890613714565b60405180910390fd5b61095b8282611fa4565b5050565b7f000000000000000000000000000000000000000000000000000000000000000073ffffffffffffffffffffffffffffffffffffffff163073ffffffffffffffffffffffffffffffffffffffff1614156109ee576040517f08c379a00000000000000000000000000000000000000000000000000000000081526004016109e590613614565b60405180910390fd5b7f000000000000000000000000000000000000000000000000000000000000000073ffffffffffffffffffffffffffffffffffffffff16610a2d612086565b73ffffffffffffffffffffffffffffffffffffffff1614610a83576040517f08c379a0000000000000000000000000000000000000000000000000000000008152600401610a7a90613654565b60405180910390fd5b610a8c816120dd565b610b0b81600067ffffffffffffffff811115610ad1577f4e487b7100000000000000000000000000000000000000000000000000000000600052604160045260246000fd5b6040519080825280601f01601f191660200182016040528015610b035781602001600182028036833780820191505090505b506000612113565b50565b600060fb60009054906101000a900473ffffffffffffffffffffffffffffffffffffffff1673ffffffffffffffffffffffffffffffffffffffff166370a08231306040518263ffffffff1660e01b8152600401610b6b919061345c565b60206040518083038186803b158015610b8357600080fd5b505afa158015610b97573d6000803e3d6000fd5b505050506040513d601f19601f82011682018060405250810190610bbb9190613135565b905090565b60008060005b60fd80549050811015610e4a57600060fd8281548110610c0f577f4e487b7100000000000000000000000000000000000000000000000000000000600052603260045260246000fd5b9060005260206000200160009054906101000a900473ffffffffffffffffffffffffffffffffffffffff169050600060fe60008373ffffffffffffffffffffffffffffffffffffffff1673ffffffffffffffffffffffffffffffffffffffff168152602001908152602001600020549050600060ff60008473ffffffffffffffffffffffffffffffffffffffff1673ffffffffffffffffffffffffffffffffffffffff16815260200190815260200160002060009054906101000a900473ffffffffffffffffffffffffffffffffffffffff1690506000819050600060fc60008673ffffffffffffffffffffffffffffffffffffffff1673ffffffffffffffffffffffffffffffffffffffff1681526020019081526020016000205490506000848373ffffffffffffffffffffffffffffffffffffffff166370a08231306040518263ffffffff1660e01b8152600401610d69919061345c565b60206040518083038186803b158015610d8157600080fd5b505afa158015610d95573d6000803e3d6000fd5b505050506040513d601f19601f82011682018060405250810190610db99190613135565b610dc391906139da565b905060008282610dd39190613a34565b90508160fc60008973ffffffffffffffffffffffffffffffffffffffff1673ffffffffffffffffffffffffffffffffffffffff168152602001908152602001600020819055508581610e2591906139da565b89610e3091906137e2565b98505050505050505080610e4390613ba3565b9050610bc6565b508091505090565b7f000000000000000000000000000000000000000000000000000000000000000073ffffffffffffffffffffffffffffffffffffffff163073ffffffffffffffffffffffffffffffffffffffff161415610ee1576040517f08c379a0000000000000000000000000000000000000000000000000000000008152600401610ed890613614565b60405180910390fd5b7f000000000000000000000000000000000000000000000000000000000000000073ffffffffffffffffffffffffffffffffffffffff16610f20612086565b73ffffffffffffffffffffffffffffffffffffffff1614610f76576040517f08c379a0000000000000000000000000000000000000000000000000000000008152600401610f6d90613654565b60405180910390fd5b610f7f826120dd565b610f8b82826001612113565b5050565b7f2e8b98eef02e8df3bd27d1270ded3bea3d14db99c5234c7b14001a7fff957bcc81565b600060019054906101000a900460ff1680610fd9575060008054906101000a900460ff16155b611018576040517f08c379a000000000000000000000000000000000000000000000000000000000815260040161100f90613694565b60405180910390fd5b60008060019054906101000a900460ff161590508015611068576001600060016101000a81548160ff02191690831515021790555060016000806101000a81548160ff0219169083151502179055505b6110706122e4565b6110786123d5565b6110856000801b336124be565b6110af7f2e8b98eef02e8df3bd27d1270ded3bea3d14db99c5234c7b14001a7fff957bcc336124be565b6110d97f189ab7a9244df0848122154315af71fe140f3db0fe014031783b0946b8c9d2e3336124be565b6111037fbc218ab1d87167b43f142aef68e2d81118828b78c6908d6fe75b0333345dc327336124be565b80156111245760008060016101000a81548160ff0219169083151502179055505b50565b60006065600084815260200190815260200160002060000160008373ffffffffffffffffffffffffffffffffffffffff1673ffffffffffffffffffffffffffffffffffffffff16815260200190815260200160002060009054906101000a900460ff16905092915050565b6000801b81565b6000806000905060005b60fd8054905081101561137c57600060fd82815481106111ec577f4e487b7100000000000000000000000000000000000000000000000000000000600052603260045260246000fd5b9060005260206000200160009054906101000a900473ffffffffffffffffffffffffffffffffffffffff169050600060fe60008373ffffffffffffffffffffffffffffffffffffffff1673ffffffffffffffffffffffffffffffffffffffff168152602001908152602001600020549050600060ff60008473ffffffffffffffffffffffffffffffffffffffff1673ffffffffffffffffffffffffffffffffffffffff16815260200190815260200160002060009054906101000a900473ffffffffffffffffffffffffffffffffffffffff1690506000819050828173ffffffffffffffffffffffffffffffffffffffff166370a08231306040518263ffffffff1660e01b8152600401611300919061345c565b60206040518083038186803b15801561131857600080fd5b505afa15801561132c573d6000803e3d6000fd5b505050506040513d601f19601f820116820180604052508101906113509190613135565b61135a91906139da565b8661136591906137e2565b9550505050508061137590613ba3565b90506111a3565b508091505090565b7fbc218ab1d87167b43f142aef68e2d81118828b78c6908d6fe75b0333345dc32781565b6113b18261074a565b6113c2816113bd611e1e565b611e26565b6113cc8383611fa4565b505050565b7fbc218ab1d87167b43f142aef68e2d81118828b78c6908d6fe75b0333345dc327611403816113fe611e1e565b611e26565b600073ffffffffffffffffffffffffffffffffffffffff1660ff60008673ffffffffffffffffffffffffffffffffffffffff1673ffffffffffffffffffffffffffffffffffffffff16815260200190815260200160002060009054906101000a900473ffffffffffffffffffffffffffffffffffffffff1673ffffffffffffffffffffffffffffffffffffffff161461149b57600080fd5b600073ffffffffffffffffffffffffffffffffffffffff1660ff60008573ffffffffffffffffffffffffffffffffffffffff1673ffffffffffffffffffffffffffffffffffffffff16815260200190815260200160002060009054906101000a900473ffffffffffffffffffffffffffffffffffffffff1673ffffffffffffffffffffffffffffffffffffffff161461153357600080fd5b600073ffffffffffffffffffffffffffffffffffffffff168473ffffffffffffffffffffffffffffffffffffffff16141561156d57600080fd5b600073ffffffffffffffffffffffffffffffffffffffff168373ffffffffffffffffffffffffffffffffffffffff1614156115a757600080fd5b60128211156115b557600080fd5b8160126115c29190613a34565b600a6115ce91906138bc565b60fe60008673ffffffffffffffffffffffffffffffffffffffff1673ffffffffffffffffffffffffffffffffffffffff1681526020019081526020016000208190555060fd849080600181540180825580915050600190039060005260206000200160009091909190916101000a81548173ffffffffffffffffffffffffffffffffffffffff021916908373ffffffffffffffffffffffffffffffffffffffff1602179055508260ff60008673ffffffffffffffffffffffffffffffffffffffff1673ffffffffffffffffffffffffffffffffffffffff16815260200190815260200160002060006101000a81548173ffffffffffffffffffffffffffffffffffffffff021916908373ffffffffffffffffffffffffffffffffffffffff16021790555050505050565b60007f2e8b98eef02e8df3bd27d1270ded3bea3d14db99c5234c7b14001a7fff957bcc61172c81611727611e1e565b611e26565b600073ffffffffffffffffffffffffffffffffffffffff1660ff60008573ffffffffffffffffffffffffffffffffffffffff1673ffffffffffffffffffffffffffffffffffffffff16815260200190815260200160002060009054906101000a900473ffffffffffffffffffffffffffffffffffffffff1673ffffffffffffffffffffffffffffffffffffffff1614156117fb576040517f08c379a00000000000000000000000000000000000000000000000000000000081526004016117f2906136b4565b60405180910390fd5b600060fe60008573ffffffffffffffffffffffffffffffffffffffff1673ffffffffffffffffffffffffffffffffffffffff16815260200190815260200160002054856118489190613838565b90506000849050818173ffffffffffffffffffffffffffffffffffffffff1663dd62ed3e33306040518363ffffffff1660e01b815260040161188b929190613477565b60206040518083038186803b1580156118a357600080fd5b505afa1580156118b7573d6000803e3d6000fd5b505050506040513d601f19601f820116820180604052508101906118db9190613135565b101561191c576040517f08c379a000000000000000000000000000000000000000000000000000000000815260040161191390613634565b60405180910390fd5b8073ffffffffffffffffffffffffffffffffffffffff166323b872dd3330856040518463ffffffff1660e01b8152600401611959939291906134a0565b602060405180830381600087803b15801561197357600080fd5b505af1158015611987573d6000803e3d6000fd5b505050506040513d601f19601f820116820180604052508101906119ab919061307e565b6119b457600080fd5b8073ffffffffffffffffffffffffffffffffffffffff1663095ea7b361010060009054906101000a900473ffffffffffffffffffffffffffffffffffffffff16846040518363ffffffff1660e01b8152600401611a129291906134d7565b602060405180830381600087803b158015611a2c57600080fd5b505af1158015611a40573d6000803e3d6000fd5b505050506040513d601f19601f82011682018060405250810190611a64919061307e565b5061010060009054906101000a900473ffffffffffffffffffffffffffffffffffffffff1673ffffffffffffffffffffffffffffffffffffffff1663e8eda9df86843360006040518563ffffffff1660e01b8152600401611ac89493929190613537565b600060405180830381600087803b158015611ae257600080fd5b505af1158015611af6573d6000803e3d6000fd5b505050507fa4f358c78f73b2049a06e0436c6728292334862a6fc2114f2de13f9cff58491f878684604051611b2d939291906134a0565b60405180910390a1600193505050509392505050565b60007f2e8b98eef02e8df3bd27d1270ded3bea3d14db99c5234c7b14001a7fff957bcc611b7781611b72611e1e565b611e26565b600073ffffffffffffffffffffffffffffffffffffffff1660ff60008573ffffffffffffffffffffffffffffffffffffffff1673ffffffffffffffffffffffffffffffffffffffff16815260200190815260200160002060009054906101000a900473ffffffffffffffffffffffffffffffffffffffff1673ffffffffffffffffffffffffffffffffffffffff161415611c46576040517f08c379a0000000000000000000000000000000000000000000000000000000008152600401611c3d906136b4565b60405180910390fd5b600060fe60008573ffffffffffffffffffffffffffffffffffffffff1673ffffffffffffffffffffffffffffffffffffffff1681526020019081526020016000205485611c939190613838565b905061010060009054906101000a900473ffffffffffffffffffffffffffffffffffffffff1673ffffffffffffffffffffffffffffffffffffffff166369328dec8583896040518463ffffffff1660e01b8152600401611cf593929190613500565b602060405180830381600087803b158015611d0f57600080fd5b505af1158015611d23573d6000803e3d6000fd5b505050506040513d601f19601f82011682018060405250810190611d479190613135565b507f062c1ae2f04e97157b97f5d913994cadb77a7733318e501c12db301b1a172696868583604051611d7b939291906134a0565b60405180910390a16001925050509392505050565b7f189ab7a9244df0848122154315af71fe140f3db0fe014031783b0946b8c9d2e381565b60007f01ffc9a7000000000000000000000000000000000000000000000000000000007bffffffffffffffffffffffffffffffffffffffffffffffffffffffff1916827bffffffffffffffffffffffffffffffffffffffffffffffffffffffff1916149050919050565b600033905090565b611e308282611127565b611ebf57611e558173ffffffffffffffffffffffffffffffffffffffff1660146124cc565b611e638360001c60206124cc565b604051602001611e74929190613422565b6040516020818303038152906040526040517f08c379a0000000000000000000000000000000000000000000000000000000008152600401611eb691906135b2565b60405180910390fd5b5050565b611ecd8282611127565b611fa05760016065600084815260200190815260200160002060000160008373ffffffffffffffffffffffffffffffffffffffff1673ffffffffffffffffffffffffffffffffffffffff16815260200190815260200160002060006101000a81548160ff021916908315150217905550611f45611e1e565b73ffffffffffffffffffffffffffffffffffffffff168173ffffffffffffffffffffffffffffffffffffffff16837f2f8788117e7eff1d82e926ec794901d17c78024a50270940304540a733656f0d60405160405180910390a45b5050565b611fae8282611127565b156120825760006065600084815260200190815260200160002060000160008373ffffffffffffffffffffffffffffffffffffffff1673ffffffffffffffffffffffffffffffffffffffff16815260200190815260200160002060006101000a81548160ff021916908315150217905550612027611e1e565b73ffffffffffffffffffffffffffffffffffffffff168173ffffffffffffffffffffffffffffffffffffffff16837ff6391f5c32d9c69d2a47ea670b442974b53935d1edc7fd64eb21e047a839171b60405160405180910390a45b5050565b60006120b47f360894a13ba1a3210667c828492db98dca3e2076cc3735a920a3ca505d382bbc60001b6127c6565b60000160009054906101000a900473ffffffffffffffffffffffffffffffffffffffff16905090565b7f189ab7a9244df0848122154315af71fe140f3db0fe014031783b0946b8c9d2e361210f8161210a611e1e565b611e26565b5050565b600061211d612086565b9050612128846127d0565b6000835111806121355750815b15612146576121448484612889565b505b60006121747f4910fdfa16fed3260ed0e7147f7cc6da11a60208b5b9406d12a635614ffd914360001b61296d565b90508060000160009054906101000a900460ff166122dd5760018160000160006101000a81548160ff02191690831515021790555061224085836040516024016121be919061345c565b6040516020818303038152906040527f3659cfe6000000000000000000000000000000000000000000000000000000007bffffffffffffffffffffffffffffffffffffffffffffffffffffffff19166020820180517bffffffffffffffffffffffffffffffffffffffffffffffffffffffff8381831617835250505050612889565b5060008160000160006101000a81548160ff021916908315150217905550612266612086565b73ffffffffffffffffffffffffffffffffffffffff168273ffffffffffffffffffffffffffffffffffffffff16146122d3576040517f08c379a00000000000000000000000000000000000000000000000000000000081526004016122ca906135f4565b60405180910390fd5b6122dc85612977565b5b5050505050565b600060019054906101000a900460ff168061230a575060008054906101000a900460ff16155b612349576040517f08c379a000000000000000000000000000000000000000000000000000000000815260040161234090613694565b60405180910390fd5b60008060019054906101000a900460ff161590508015612399576001600060016101000a81548160ff02191690831515021790555060016000806101000a81548160ff0219169083151502179055505b6123a16129c6565b6123a9612a9f565b6123b1612b78565b80156123d25760008060016101000a81548160ff0219169083151502179055505b50565b600060019054906101000a900460ff16806123fb575060008054906101000a900460ff16155b61243a576040517f08c379a000000000000000000000000000000000000000000000000000000000815260040161243190613694565b60405180910390fd5b60008060019054906101000a900460ff16159050801561248a576001600060016101000a81548160ff02191690831515021790555060016000806101000a81548160ff0219169083151502179055505b612492612c51565b61249a612d2a565b80156124bb5760008060016101000a81548160ff0219169083151502179055505b50565b6124c88282611ec3565b5050565b6060600060028360026124df91906139da565b6124e991906137e2565b67ffffffffffffffff811115612528577f4e487b7100000000000000000000000000000000000000000000000000000000600052604160045260246000fd5b6040519080825280601f01601f19166020018201604052801561255a5781602001600182028036833780820191505090505b5090507f3000000000000000000000000000000000000000000000000000000000000000816000815181106125b8577f4e487b7100000000000000000000000000000000000000000000000000000000600052603260045260246000fd5b60200101907effffffffffffffffffffffffffffffffffffffffffffffffffffffffffffff1916908160001a9053507f780000000000000000000000000000000000000000000000000000000000000081600181518110612642577f4e487b7100000000000000000000000000000000000000000000000000000000600052603260045260246000fd5b60200101907effffffffffffffffffffffffffffffffffffffffffffffffffffffffffffff1916908160001a9053506000600184600261268291906139da565b61268c91906137e2565b90505b6001811115612778577f3031323334353637383961626364656600000000000000000000000000000000600f8616601081106126f4577f4e487b7100000000000000000000000000000000000000000000000000000000600052603260045260246000fd5b1a60f81b828281518110612731577f4e487b7100000000000000000000000000000000000000000000000000000000600052603260045260246000fd5b60200101907effffffffffffffffffffffffffffffffffffffffffffffffffffffffffffff1916908160001a905350600485901c94508061277190613b48565b905061268f565b50600084146127bc576040517f08c379a00000000000000000000000000000000000000000000000000000000081526004016127b3906135d4565b60405180910390fd5b8091505092915050565b6000819050919050565b6127d981612e03565b612818576040517f08c379a000000000000000000000000000000000000000000000000000000000815260040161280f906136d4565b60405180910390fd5b806128457f360894a13ba1a3210667c828492db98dca3e2076cc3735a920a3ca505d382bbc60001b6127c6565b60000160006101000a81548173ffffffffffffffffffffffffffffffffffffffff021916908373ffffffffffffffffffffffffffffffffffffffff16021790555050565b606061289483612e03565b6128d3576040517f08c379a00000000000000000000000000000000000000000000000000000000081526004016128ca906136f4565b60405180910390fd5b6000808473ffffffffffffffffffffffffffffffffffffffff16846040516128fb919061340b565b600060405180830381855af49150503d8060008114612936576040519150601f19603f3d011682016040523d82523d6000602084013e61293b565b606091505b5091509150612963828260405180606001604052806027815260200161407660279139612e16565b9250505092915050565b6000819050919050565b612980816127d0565b8073ffffffffffffffffffffffffffffffffffffffff167fbc7cd75a20ee27fd9adebab32041f755214dbc6bffa90cc0225b39da2e5c2d3b60405160405180910390a250565b600060019054906101000a900460ff16806129ec575060008054906101000a900460ff16155b612a2b576040517f08c379a0000000000000000000000000000000000000000000000000000000008152600401612a2290613694565b60405180910390fd5b60008060019054906101000a900460ff161590508015612a7b576001600060016101000a81548160ff02191690831515021790555060016000806101000a81548160ff0219169083151502179055505b8015612a9c5760008060016101000a81548160ff0219169083151502179055505b50565b600060019054906101000a900460ff1680612ac5575060008054906101000a900460ff16155b612b04576040517f08c379a0000000000000000000000000000000000000000000000000000000008152600401612afb90613694565b60405180910390fd5b60008060019054906101000a900460ff161590508015612b54576001600060016101000a81548160ff02191690831515021790555060016000806101000a81548160ff0219169083151502179055505b8015612b755760008060016101000a81548160ff0219169083151502179055505b50565b600060019054906101000a900460ff1680612b9e575060008054906101000a900460ff16155b612bdd576040517f08c379a0000000000000000000000000000000000000000000000000000000008152600401612bd490613694565b60405180910390fd5b60008060019054906101000a900460ff161590508015612c2d576001600060016101000a81548160ff02191690831515021790555060016000806101000a81548160ff0219169083151502179055505b8015612c4e5760008060016101000a81548160ff0219169083151502179055505b50565b600060019054906101000a900460ff1680612c77575060008054906101000a900460ff16155b612cb6576040517f08c379a0000000000000000000000000000000000000000000000000000000008152600401612cad90613694565b60405180910390fd5b60008060019054906101000a900460ff161590508015612d06576001600060016101000a81548160ff02191690831515021790555060016000806101000a81548160ff0219169083151502179055505b8015612d275760008060016101000a81548160ff0219169083151502179055505b50565b600060019054906101000a900460ff1680612d50575060008054906101000a900460ff16155b612d8f576040517f08c379a0000000000000000000000000000000000000000000000000000000008152600401612d8690613694565b60405180910390fd5b60008060019054906101000a900460ff161590508015612ddf576001600060016101000a81548160ff02191690831515021790555060016000806101000a81548160ff0219169083151502179055505b8015612e005760008060016101000a81548160ff0219169083151502179055505b50565b600080823b905060008111915050919050565b60608315612e2657829050612e76565b600083511115612e395782518084602001fd5b816040517f08c379a0000000000000000000000000000000000000000000000000000000008152600401612e6d91906135b2565b60405180910390fd5b9392505050565b6000612e90612e8b84613774565b61374f565b905082815260208101848484011115612ea857600080fd5b612eb3848285613b06565b509392505050565b600081359050612eca81614002565b92915050565b600081519050612edf81614019565b92915050565b600081359050612ef481614030565b92915050565b600081359050612f0981614047565b92915050565b600082601f830112612f2057600080fd5b8135612f30848260208601612e7d565b91505092915050565b600081359050612f488161405e565b92915050565b600081519050612f5d8161405e565b92915050565b600060208284031215612f7557600080fd5b6000612f8384828501612ebb565b91505092915050565b600080600060608486031215612fa157600080fd5b6000612faf86828701612ebb565b9350506020612fc086828701612ebb565b9250506040612fd186828701612f39565b9150509250925092565b60008060408385031215612fee57600080fd5b6000612ffc85828601612ebb565b925050602083013567ffffffffffffffff81111561301957600080fd5b61302585828601612f0f565b9150509250929050565b60008060006060848603121561304457600080fd5b600061305286828701612ebb565b935050602061306386828701612f39565b925050604061307486828701612ebb565b9150509250925092565b60006020828403121561309057600080fd5b600061309e84828501612ed0565b91505092915050565b6000602082840312156130b957600080fd5b60006130c784828501612ee5565b91505092915050565b600080604083850312156130e357600080fd5b60006130f185828601612ee5565b925050602061310285828601612ebb565b9150509250929050565b60006020828403121561311e57600080fd5b600061312c84828501612efa565b91505092915050565b60006020828403121561314757600080fd5b600061315584828501612f4e565b91505092915050565b61316781613a68565b82525050565b61317681613a7a565b82525050565b61318581613a86565b82525050565b6000613196826137a5565b6131a081856137bb565b93506131b0818560208601613b15565b80840191505092915050565b6131c581613af4565b82525050565b60006131d6826137b0565b6131e081856137c6565b93506131f0818560208601613b15565b6131f981613c79565b840191505092915050565b600061320f826137b0565b61321981856137d7565b9350613229818560208601613b15565b80840191505092915050565b60006132426020836137c6565b915061324d82613c97565b602082019050919050565b6000613265602f836137c6565b915061327082613cc0565b604082019050919050565b6000613288602c836137c6565b915061329382613d0f565b604082019050919050565b60006132ab6021836137c6565b91506132b682613d5e565b604082019050919050565b60006132ce602c836137c6565b91506132d982613dad565b604082019050919050565b60006132f16019836137c6565b91506132fc82613dfc565b602082019050919050565b6000613314602e836137c6565b915061331f82613e25565b604082019050919050565b60006133376024836137c6565b915061334282613e74565b604082019050919050565b600061335a602d836137c6565b915061336582613ec3565b604082019050919050565b600061337d6026836137c6565b915061338882613f12565b604082019050919050565b60006133a06017836137d7565b91506133ab82613f61565b601782019050919050565b60006133c36011836137d7565b91506133ce82613f8a565b601182019050919050565b60006133e6602f836137c6565b91506133f182613fb3565b604082019050919050565b61340581613aea565b82525050565b6000613417828461318b565b915081905092915050565b600061342d82613393565b91506134398285613204565b9150613444826133b6565b91506134508284613204565b91508190509392505050565b6000602082019050613471600083018461315e565b92915050565b600060408201905061348c600083018561315e565b613499602083018461315e565b9392505050565b60006060820190506134b5600083018661315e565b6134c2602083018561315e565b6134cf60408301846133fc565b949350505050565b60006040820190506134ec600083018561315e565b6134f960208301846133fc565b9392505050565b6000606082019050613515600083018661315e565b61352260208301856133fc565b61352f604083018461315e565b949350505050565b600060808201905061354c600083018761315e565b61355960208301866133fc565b613566604083018561315e565b61357360608301846131bc565b95945050505050565b6000602082019050613591600083018461316d565b92915050565b60006020820190506135ac600083018461317c565b92915050565b600060208201905081810360008301526135cc81846131cb565b905092915050565b600060208201905081810360008301526135ed81613235565b9050919050565b6000602082019050818103600083015261360d81613258565b9050919050565b6000602082019050818103600083015261362d8161327b565b9050919050565b6000602082019050818103600083015261364d8161329e565b9050919050565b6000602082019050818103600083015261366d816132c1565b9050919050565b6000602082019050818103600083015261368d816132e4565b9050919050565b600060208201905081810360008301526136ad81613307565b9050919050565b600060208201905081810360008301526136cd8161332a565b9050919050565b600060208201905081810360008301526136ed8161334d565b9050919050565b6000602082019050818103600083015261370d81613370565b9050919050565b6000602082019050818103600083015261372d816133d9565b9050919050565b600060208201905061374960008301846133fc565b92915050565b600061375961376a565b90506137658282613b72565b919050565b6000604051905090565b600067ffffffffffffffff82111561378f5761378e613c4a565b5b61379882613c79565b9050602081019050919050565b600081519050919050565b600081519050919050565b600081905092915050565b600082825260208201905092915050565b600081905092915050565b60006137ed82613aea565b91506137f883613aea565b9250827fffffffffffffffffffffffffffffffffffffffffffffffffffffffffffffffff0382111561382d5761382c613bec565b5b828201905092915050565b600061384382613aea565b915061384e83613aea565b92508261385e5761385d613c1b565b5b828204905092915050565b6000808291508390505b60018511156138b35780860481111561388f5761388e613bec565b5b600185161561389e5780820291505b80810290506138ac85613c8a565b9450613873565b94509492505050565b60006138c782613aea565b91506138d283613aea565b92506138ff7fffffffffffffffffffffffffffffffffffffffffffffffffffffffffffffffff8484613907565b905092915050565b60008261391757600190506139d3565b8161392557600090506139d3565b816001811461393b576002811461394557613974565b60019150506139d3565b60ff84111561395757613956613bec565b5b8360020a91508482111561396e5761396d613bec565b5b506139d3565b5060208310610133831016604e8410600b84101617156139a95782820a9050838111156139a4576139a3613bec565b5b6139d3565b6139b68484846001613869565b925090508184048111156139cd576139cc613bec565b5b81810290505b9392505050565b60006139e582613aea565b91506139f083613aea565b9250817fffffffffffffffffffffffffffffffffffffffffffffffffffffffffffffffff0483118215151615613a2957613a28613bec565b5b828202905092915050565b6000613a3f82613aea565b9150613a4a83613aea565b925082821015613a5d57613a5c613bec565b5b828203905092915050565b6000613a7382613aca565b9050919050565b60008115159050919050565b6000819050919050565b60007fffffffff0000000000000000000000000000000000000000000000000000000082169050919050565b600061ffff82169050919050565b600073ffffffffffffffffffffffffffffffffffffffff82169050919050565b6000819050919050565b6000613aff82613abc565b9050919050565b82818337600083830152505050565b60005b83811015613b33578082015181840152602081019050613b18565b83811115613b42576000848401525b50505050565b6000613b5382613aea565b91506000821415613b6757613b66613bec565b5b600182039050919050565b613b7b82613c79565b810181811067ffffffffffffffff82111715613b9a57613b99613c4a565b5b80604052505050565b6000613bae82613aea565b91507fffffffffffffffffffffffffffffffffffffffffffffffffffffffffffffffff821415613be157613be0613bec565b5b600182019050919050565b7f4e487b7100000000000000000000000000000000000000000000000000000000600052601160045260246000fd5b7f4e487b7100000000000000000000000000000000000000000000000000000000600052601260045260246000fd5b7f4e487b7100000000000000000000000000000000000000000000000000000000600052604160045260246000fd5b6000601f19601f8301169050919050565b60008160011c9050919050565b7f537472696e67733a20686578206c656e67746820696e73756666696369656e74600082015250565b7f45524331393637557067726164653a207570677261646520627265616b73206660008201527f7572746865722075706772616465730000000000000000000000000000000000602082015250565b7f46756e6374696f6e206d7573742062652063616c6c6564207468726f7567682060008201527f64656c656761746563616c6c0000000000000000000000000000000000000000602082015250565b7f4d75737420626520616c6c6f77656420746f207265636569766520746f6b656e60008201527f2e00000000000000000000000000000000000000000000000000000000000000602082015250565b7f46756e6374696f6e206d7573742062652063616c6c6564207468726f7567682060008201527f6163746976652070726f78790000000000000000000000000000000000000000602082015250565b7f5661756c74207479706520646f6573206e6f7420657869737400000000000000600082015250565b7f496e697469616c697a61626c653a20636f6e747261637420697320616c72656160008201527f647920696e697469616c697a6564000000000000000000000000000000000000602082015250565b7f537461626c65636f696e2061646472657373206d75737420626520737570706f60008201527f7274656400000000000000000000000000000000000000000000000000000000602082015250565b7f455243313936373a206e657720696d706c656d656e746174696f6e206973206e60008201527f6f74206120636f6e747261637400000000000000000000000000000000000000602082015250565b7f416464726573733a2064656c65676174652063616c6c20746f206e6f6e2d636f60008201527f6e74726163740000000000000000000000000000000000000000000000000000602082015250565b7f416363657373436f6e74726f6c3a206163636f756e7420000000000000000000600082015250565b7f206973206d697373696e6720726f6c6520000000000000000000000000000000600082015250565b7f416363657373436f6e74726f6c3a2063616e206f6e6c792072656e6f756e636560008201527f20726f6c657320666f722073656c660000000000000000000000000000000000602082015250565b61400b81613a68565b811461401657600080fd5b50565b61402281613a7a565b811461402d57600080fd5b50565b61403981613a86565b811461404457600080fd5b50565b61405081613a90565b811461405b57600080fd5b50565b61406781613aea565b811461407257600080fd5b5056fe416464726573733a206c6f772d6c6576656c2064656c65676174652063616c6c206661696c6564a2646970667358221220a9648b326ac873645c677620aa78d90ec1dae7a2871c2d9f5f722e2d84ea130164736f6c63430008040033",
  "linkReferences": {},
  "deployedLinkReferences": {}
}