{
  "_format": "hh-sol-artifact-1",
  "contractName": "GoGBattlesToken",
  "sourceName": "contracts/GoGBattlesToken.sol",
  "abi": [
    {
      "inputs": [],
      "stateMutability": "nonpayable",
      "type": "constructor"
    },
    {
      "anonymous": false,
      "inputs": [
        {
          "indexed": true,
          "internalType": "address",
          "name": "owner",
          "type": "address"
        },
        {
          "indexed": true,
          "internalType": "address",
          "name": "spender",
          "type": "address"
        },
        {
          "indexed": false,
          "internalType": "uint256",
          "name": "value",
          "type": "uint256"
        }
      ],
      "name": "Approval",
      "type": "event"
    },
    {
      "anonymous": false,
      "inputs": [
        {
          "indexed": true,
          "internalType": "bytes32",
          "name": "role",
          "type": "bytes32"
        },
        {
          "indexed": true,
          "internalType": "bytes32",
          "name": "previousAdminRole",
          "type": "bytes32"
        },
        {
          "indexed": true,
          "internalType": "bytes32",
          "name": "newAdminRole",
          "type": "bytes32"
        }
      ],
      "name": "RoleAdminChanged",
      "type": "event"
    },
    {
      "anonymous": false,
      "inputs": [
        {
          "indexed": true,
          "internalType": "bytes32",
          "name": "role",
          "type": "bytes32"
        },
        {
          "indexed": true,
          "internalType": "address",
          "name": "account",
          "type": "address"
        },
        {
          "indexed": true,
          "internalType": "address",
          "name": "sender",
          "type": "address"
        }
      ],
      "name": "RoleGranted",
      "type": "event"
    },
    {
      "anonymous": false,
      "inputs": [
        {
          "indexed": true,
          "internalType": "bytes32",
          "name": "role",
          "type": "bytes32"
        },
        {
          "indexed": true,
          "internalType": "address",
          "name": "account",
          "type": "address"
        },
        {
          "indexed": true,
          "internalType": "address",
          "name": "sender",
          "type": "address"
        }
      ],
      "name": "RoleRevoked",
      "type": "event"
    },
    {
      "anonymous": false,
      "inputs": [
        {
          "indexed": true,
          "internalType": "address",
          "name": "from",
          "type": "address"
        },
        {
          "indexed": true,
          "internalType": "address",
          "name": "to",
          "type": "address"
        },
        {
          "indexed": false,
          "internalType": "uint256",
          "name": "value",
          "type": "uint256"
        }
      ],
      "name": "Transfer",
      "type": "event"
    },
    {
      "inputs": [],
      "name": "COORDINATOR_ROLE",
      "outputs": [
        {
          "internalType": "bytes32",
          "name": "",
          "type": "bytes32"
        }
      ],
      "stateMutability": "view",
      "type": "function"
    },
    {
      "inputs": [],
      "name": "DEFAULT_ADMIN_ROLE",
      "outputs": [
        {
          "internalType": "bytes32",
          "name": "",
          "type": "bytes32"
        }
      ],
      "stateMutability": "view",
      "type": "function"
    },
    {
      "inputs": [],
      "name": "DOMAIN_SEPARATOR",
      "outputs": [
        {
          "internalType": "bytes32",
          "name": "",
          "type": "bytes32"
        }
      ],
      "stateMutability": "view",
      "type": "function"
    },
    {
      "inputs": [
        {
          "internalType": "address",
          "name": "owner",
          "type": "address"
        },
        {
          "internalType": "address",
          "name": "spender",
          "type": "address"
        }
      ],
      "name": "allowance",
      "outputs": [
        {
          "internalType": "uint256",
          "name": "",
          "type": "uint256"
        }
      ],
      "stateMutability": "view",
      "type": "function"
    },
    {
      "inputs": [
        {
          "internalType": "address",
          "name": "spender",
          "type": "address"
        },
        {
          "internalType": "uint256",
          "name": "amount",
          "type": "uint256"
        }
      ],
      "name": "approve",
      "outputs": [
        {
          "internalType": "bool",
          "name": "",
          "type": "bool"
        }
      ],
      "stateMutability": "nonpayable",
      "type": "function"
    },
    {
      "inputs": [
        {
          "internalType": "address",
          "name": "account",
          "type": "address"
        }
      ],
      "name": "balanceOf",
      "outputs": [
        {
          "internalType": "uint256",
          "name": "",
          "type": "uint256"
        }
      ],
      "stateMutability": "view",
      "type": "function"
    },
    {
      "inputs": [
        {
          "internalType": "uint256",
          "name": "amount",
          "type": "uint256"
        }
      ],
      "name": "burn",
      "outputs": [],
      "stateMutability": "nonpayable",
      "type": "function"
    },
    {
      "inputs": [
        {
          "internalType": "address",
          "name": "account",
          "type": "address"
        },
        {
          "internalType": "uint256",
          "name": "amount",
          "type": "uint256"
        }
      ],
      "name": "burn",
      "outputs": [],
      "stateMutability": "nonpayable",
      "type": "function"
    },
    {
      "inputs": [
        {
          "internalType": "address",
          "name": "account",
          "type": "address"
        },
        {
          "internalType": "uint256",
          "name": "amount",
          "type": "uint256"
        }
      ],
      "name": "burnFrom",
      "outputs": [],
      "stateMutability": "nonpayable",
      "type": "function"
    },
    {
      "inputs": [],
      "name": "decimals",
      "outputs": [
        {
          "internalType": "uint8",
          "name": "",
          "type": "uint8"
        }
      ],
      "stateMutability": "view",
      "type": "function"
    },
    {
      "inputs": [
        {
          "internalType": "address",
          "name": "spender",
          "type": "address"
        },
        {
          "internalType": "uint256",
          "name": "subtractedValue",
          "type": "uint256"
        }
      ],
      "name": "decreaseAllowance",
      "outputs": [
        {
          "internalType": "bool",
          "name": "",
          "type": "bool"
        }
      ],
      "stateMutability": "nonpayable",
      "type": "function"
    },
    {
      "inputs": [
        {
          "internalType": "bytes32",
          "name": "role",
          "type": "bytes32"
        }
      ],
      "name": "getRoleAdmin",
      "outputs": [
        {
          "internalType": "bytes32",
          "name": "",
          "type": "bytes32"
        }
      ],
      "stateMutability": "view",
      "type": "function"
    },
    {
      "inputs": [
        {
          "internalType": "bytes32",
          "name": "role",
          "type": "bytes32"
        },
        {
          "internalType": "address",
          "name": "account",
          "type": "address"
        }
      ],
      "name": "grantRole",
      "outputs": [],
      "stateMutability": "nonpayable",
      "type": "function"
    },
    {
      "inputs": [
        {
          "internalType": "bytes32",
          "name": "role",
          "type": "bytes32"
        },
        {
          "internalType": "address",
          "name": "account",
          "type": "address"
        }
      ],
      "name": "hasRole",
      "outputs": [
        {
          "internalType": "bool",
          "name": "",
          "type": "bool"
        }
      ],
      "stateMutability": "view",
      "type": "function"
    },
    {
      "inputs": [
        {
          "internalType": "address",
          "name": "spender",
          "type": "address"
        },
        {
          "internalType": "uint256",
          "name": "addedValue",
          "type": "uint256"
        }
      ],
      "name": "increaseAllowance",
      "outputs": [
        {
          "internalType": "bool",
          "name": "",
          "type": "bool"
        }
      ],
      "stateMutability": "nonpayable",
      "type": "function"
    },
    {
      "inputs": [
        {
          "internalType": "address",
          "name": "to",
          "type": "address"
        },
        {
          "internalType": "uint256",
          "name": "amount",
          "type": "uint256"
        }
      ],
      "name": "mint",
      "outputs": [],
      "stateMutability": "nonpayable",
      "type": "function"
    },
    {
      "inputs": [
        {
          "internalType": "address[]",
          "name": "to",
          "type": "address[]"
        },
        {
          "internalType": "uint256[]",
          "name": "amounts",
          "type": "uint256[]"
        }
      ],
      "name": "mintBatch",
      "outputs": [],
      "stateMutability": "nonpayable",
      "type": "function"
    },
    {
      "inputs": [],
      "name": "name",
      "outputs": [
        {
          "internalType": "string",
          "name": "",
          "type": "string"
        }
      ],
      "stateMutability": "view",
      "type": "function"
    },
    {
      "inputs": [
        {
          "internalType": "address",
          "name": "owner",
          "type": "address"
        }
      ],
      "name": "nonces",
      "outputs": [
        {
          "internalType": "uint256",
          "name": "",
          "type": "uint256"
        }
      ],
      "stateMutability": "view",
      "type": "function"
    },
    {
      "inputs": [
        {
          "internalType": "address",
          "name": "owner",
          "type": "address"
        },
        {
          "internalType": "address",
          "name": "spender",
          "type": "address"
        },
        {
          "internalType": "uint256",
          "name": "value",
          "type": "uint256"
        },
        {
          "internalType": "uint256",
          "name": "deadline",
          "type": "uint256"
        },
        {
          "internalType": "uint8",
          "name": "v",
          "type": "uint8"
        },
        {
          "internalType": "bytes32",
          "name": "r",
          "type": "bytes32"
        },
        {
          "internalType": "bytes32",
          "name": "s",
          "type": "bytes32"
        }
      ],
      "name": "permit",
      "outputs": [],
      "stateMutability": "nonpayable",
      "type": "function"
    },
    {
      "inputs": [
        {
          "internalType": "bytes32",
          "name": "role",
          "type": "bytes32"
        },
        {
          "internalType": "address",
          "name": "account",
          "type": "address"
        }
      ],
      "name": "renounceRole",
      "outputs": [],
      "stateMutability": "nonpayable",
      "type": "function"
    },
    {
      "inputs": [
        {
          "internalType": "bytes32",
          "name": "role",
          "type": "bytes32"
        },
        {
          "internalType": "address",
          "name": "account",
          "type": "address"
        }
      ],
      "name": "revokeRole",
      "outputs": [],
      "stateMutability": "nonpayable",
      "type": "function"
    },
    {
      "inputs": [
        {
          "internalType": "bytes4",
          "name": "interfaceId",
          "type": "bytes4"
        }
      ],
      "name": "supportsInterface",
      "outputs": [
        {
          "internalType": "bool",
          "name": "",
          "type": "bool"
        }
      ],
      "stateMutability": "view",
      "type": "function"
    },
    {
      "inputs": [],
      "name": "symbol",
      "outputs": [
        {
          "internalType": "string",
          "name": "",
          "type": "string"
        }
      ],
      "stateMutability": "view",
      "type": "function"
    },
    {
      "inputs": [],
      "name": "totalSupply",
      "outputs": [
        {
          "internalType": "uint256",
          "name": "",
          "type": "uint256"
        }
      ],
      "stateMutability": "view",
      "type": "function"
    },
    {
      "inputs": [
        {
          "internalType": "address",
          "name": "recipient",
          "type": "address"
        },
        {
          "internalType": "uint256",
          "name": "amount",
          "type": "uint256"
        }
      ],
      "name": "transfer",
      "outputs": [
        {
          "internalType": "bool",
          "name": "",
          "type": "bool"
        }
      ],
      "stateMutability": "nonpayable",
      "type": "function"
    },
    {
      "inputs": [
        {
          "internalType": "address",
          "name": "sender",
          "type": "address"
        },
        {
          "internalType": "address",
          "name": "recipient",
          "type": "address"
        },
        {
          "internalType": "uint256",
          "name": "amount",
          "type": "uint256"
        }
      ],
      "name": "transferFrom",
      "outputs": [
        {
          "internalType": "bool",
          "name": "",
          "type": "bool"
        }
      ],
      "stateMutability": "nonpayable",
      "type": "function"
    }
  ],
  "bytecode": "0x6101406040527f6e71edae12b1b97f4d1f60370fef10105fa2faae0126114a169c64845d6126c9610120908152503480156200003a57600080fd5b506040518060400160405280600e81526020017f476f47426174746c65546f6b656e000000000000000000000000000000000000815250806040518060400160405280600181526020017f31000000000000000000000000000000000000000000000000000000000000008152506040518060400160405280600e81526020017f476f47426174746c65546f6b656e0000000000000000000000000000000000008152506040518060400160405280600481526020017f47414d450000000000000000000000000000000000000000000000000000000081525081600390805190602001906200012c929190620003ca565b50806004908051906020019062000145929190620003ca565b50505060008280519060200120905060008280519060200120905060007f8b73c3c69bb8fe3d512ecc4cf759cc79239f7b179b0ffacaa9a75d522b39400f90508260c081815250508160e081815250504660a08181525050620001b08184846200021360201b60201c565b60808181525050806101008181525050505050505050620001db6000801b336200024f60201b60201c565b6200020d7f2e8b98eef02e8df3bd27d1270ded3bea3d14db99c5234c7b14001a7fff957bcc336200024f60201b60201c565b620005b7565b6000838383463060405160200162000230959493929190620004ad565b6040516020818303038152906040528051906020012090509392505050565b6200026182826200026560201b60201c565b5050565b6200027782826200035760201b60201c565b620003535760016006600084815260200190815260200160002060000160008373ffffffffffffffffffffffffffffffffffffffff1673ffffffffffffffffffffffffffffffffffffffff16815260200190815260200160002060006101000a81548160ff021916908315150217905550620002f8620003c260201b60201c565b73ffffffffffffffffffffffffffffffffffffffff168173ffffffffffffffffffffffffffffffffffffffff16837f2f8788117e7eff1d82e926ec794901d17c78024a50270940304540a733656f0d60405160405180910390a45b5050565b60006006600084815260200190815260200160002060000160008373ffffffffffffffffffffffffffffffffffffffff1673ffffffffffffffffffffffffffffffffffffffff16815260200190815260200160002060009054906101000a900460ff16905092915050565b600033905090565b828054620003d89062000552565b90600052602060002090601f016020900481019282620003fc576000855562000448565b82601f106200041757805160ff191683800117855562000448565b8280016001018555821562000448579182015b82811115620004475782518255916020019190600101906200042a565b5b5090506200045791906200045b565b5090565b5b80821115620004765760008160009055506001016200045c565b5090565b62000485816200050a565b82525050565b62000496816200051e565b82525050565b620004a78162000548565b82525050565b600060a082019050620004c460008301886200048b565b620004d360208301876200048b565b620004e260408301866200048b565b620004f160608301856200049c565b6200050060808301846200047a565b9695505050505050565b6000620005178262000528565b9050919050565b6000819050919050565b600073ffffffffffffffffffffffffffffffffffffffff82169050919050565b6000819050919050565b600060028204905060018216806200056b57607f821691505b6020821081141562000582576200058162000588565b5b50919050565b7f4e487b7100000000000000000000000000000000000000000000000000000000600052602260045260246000fd5b60805160a05160c05160e0516101005161012051613af0620006076000396000610e8c015260006116ca0152600061170c015260006116eb015260006116770152600061169f0152613af06000f3fe608060405234801561001057600080fd5b50600436106101a95760003560e01c80636b366cb5116100f95780639dc29fac11610097578063a9059cbb11610071578063a9059cbb146104f4578063d505accf14610524578063d547741f14610540578063dd62ed3e1461055c576101a9565b80639dc29fac1461048a578063a217fddf146104a6578063a457c2d7146104c4576101a9565b80637c88e3d9116100d35780637c88e3d9146103f05780637ecebe001461040c57806391d148541461043c57806395d89b411461046c576101a9565b80636b366cb51461038657806370a08231146103a457806379cc6790146103d4576101a9565b80632f2ff15d1161016657806336568abe1161014057806336568abe14610302578063395093511461031e57806340c10f191461034e57806342966c681461036a576101a9565b80632f2ff15d146102aa578063313ce567146102c65780633644e515146102e4576101a9565b806301ffc9a7146101ae57806306fdde03146101de578063095ea7b3146101fc57806318160ddd1461022c57806323b872dd1461024a578063248a9ca31461027a575b600080fd5b6101c860048036038101906101c39190612805565b61058c565b6040516101d59190612cb9565b60405180910390f35b6101e6610606565b6040516101f39190612de8565b60405180910390f35b610216600480360381019061021191906126f8565b610698565b6040516102239190612cb9565b60405180910390f35b6102346106b6565b604051610241919061308a565b60405180910390f35b610264600480360381019061025f919061260b565b6106c0565b6040516102719190612cb9565b60405180910390f35b610294600480360381019061028f91906127a0565b6107b8565b6040516102a19190612cd4565b60405180910390f35b6102c460048036038101906102bf91906127c9565b6107d8565b005b6102ce610801565b6040516102db91906130a5565b60405180910390f35b6102ec61080a565b6040516102f99190612cd4565b60405180910390f35b61031c600480360381019061031791906127c9565b610819565b005b610338600480360381019061033391906126f8565b61089c565b6040516103459190612cb9565b60405180910390f35b610368600480360381019061036391906126f8565b610948565b005b610384600480360381019061037f919061282e565b610989565b005b61038e61099d565b60405161039b9190612cd4565b60405180910390f35b6103be60048036038101906103b991906125a6565b6109c1565b6040516103cb919061308a565b60405180910390f35b6103ee60048036038101906103e991906126f8565b610a09565b005b61040a60048036038101906104059190612734565b610a84565b005b610426600480360381019061042191906125a6565b610ba7565b604051610433919061308a565b60405180910390f35b610456600480360381019061045191906127c9565b610bf7565b6040516104639190612cb9565b60405180910390f35b610474610c62565b6040516104819190612de8565b60405180910390f35b6104a4600480360381019061049f91906126f8565b610cf4565b005b6104ae610d35565b6040516104bb9190612cd4565b60405180910390f35b6104de60048036038101906104d991906126f8565b610d3c565b6040516104eb9190612cb9565b60405180910390f35b61050e600480360381019061050991906126f8565b610e27565b60405161051b9190612cb9565b60405180910390f35b61053e6004803603810190610539919061265a565b610e45565b005b61055a600480360381019061055591906127c9565b610f87565b005b610576600480360381019061057191906125cf565b610fb0565b604051610583919061308a565b60405180910390f35b60007f7965db0b000000000000000000000000000000000000000000000000000000007bffffffffffffffffffffffffffffffffffffffffffffffffffffffff1916827bffffffffffffffffffffffffffffffffffffffffffffffffffffffff191614806105ff57506105fe82611037565b5b9050919050565b60606003805461061590613330565b80601f016020809104026020016040519081016040528092919081815260200182805461064190613330565b801561068e5780601f106106635761010080835404028352916020019161068e565b820191906000526020600020905b81548152906001019060200180831161067157829003601f168201915b5050505050905090565b60006106ac6106a56110a1565b84846110a9565b6001905092915050565b6000600254905090565b60006106cd848484611274565b6000600160008673ffffffffffffffffffffffffffffffffffffffff1673ffffffffffffffffffffffffffffffffffffffff16815260200190815260200160002060006107186110a1565b73ffffffffffffffffffffffffffffffffffffffff1673ffffffffffffffffffffffffffffffffffffffff16815260200190815260200160002054905082811015610798576040517f08c379a000000000000000000000000000000000000000000000000000000000815260040161078f90612f8a565b60405180910390fd5b6107ac856107a46110a1565b8584036110a9565b60019150509392505050565b600060066000838152602001908152602001600020600101549050919050565b6107e1826107b8565b6107f2816107ed6110a1565b6114f5565b6107fc8383611592565b505050565b60006012905090565b6000610814611673565b905090565b6108216110a1565b73ffffffffffffffffffffffffffffffffffffffff168173ffffffffffffffffffffffffffffffffffffffff161461088e576040517f08c379a00000000000000000000000000000000000000000000000000000000081526004016108859061304a565b60405180910390fd5b6108988282611736565b5050565b600061093e6108a96110a1565b8484600160006108b76110a1565b73ffffffffffffffffffffffffffffffffffffffff1673ffffffffffffffffffffffffffffffffffffffff16815260200190815260200160002060008873ffffffffffffffffffffffffffffffffffffffff1673ffffffffffffffffffffffffffffffffffffffff168152602001908152602001600020546109399190613164565b6110a9565b6001905092915050565b7f2e8b98eef02e8df3bd27d1270ded3bea3d14db99c5234c7b14001a7fff957bcc61097a816109756110a1565b6114f5565b6109848383611818565b505050565b61099a6109946110a1565b82611826565b50565b7f2e8b98eef02e8df3bd27d1270ded3bea3d14db99c5234c7b14001a7fff957bcc81565b60008060008373ffffffffffffffffffffffffffffffffffffffff1673ffffffffffffffffffffffffffffffffffffffff168152602001908152602001600020549050919050565b6000610a1c83610a176110a1565b610fb0565b905081811015610a61576040517f08c379a0000000000000000000000000000000000000000000000000000000008152600401610a5890612faa565b60405180910390fd5b610a7583610a6d6110a1565b8484036110a9565b610a7f8383611826565b505050565b7f2e8b98eef02e8df3bd27d1270ded3bea3d14db99c5234c7b14001a7fff957bcc610ab681610ab16110a1565b6114f5565b8151835114610afa576040517f08c379a0000000000000000000000000000000000000000000000000000000008152600401610af190612f2a565b60405180910390fd5b60005b8351811015610ba157610b90848281518110610b42577f4e487b7100000000000000000000000000000000000000000000000000000000600052603260045260246000fd5b6020026020010151848381518110610b83577f4e487b7100000000000000000000000000000000000000000000000000000000600052603260045260246000fd5b6020026020010151611818565b80610b9a90613393565b9050610afd565b50505050565b6000610bf0600560008473ffffffffffffffffffffffffffffffffffffffff1673ffffffffffffffffffffffffffffffffffffffff168152602001908152602001600020611834565b9050919050565b60006006600084815260200190815260200160002060000160008373ffffffffffffffffffffffffffffffffffffffff1673ffffffffffffffffffffffffffffffffffffffff16815260200190815260200160002060009054906101000a900460ff16905092915050565b606060048054610c7190613330565b80601f0160208091040260200160405190810160405280929190818152602001828054610c9d90613330565b8015610cea5780601f10610cbf57610100808354040283529160200191610cea565b820191906000526020600020905b815481529060010190602001808311610ccd57829003601f168201915b5050505050905090565b7f2e8b98eef02e8df3bd27d1270ded3bea3d14db99c5234c7b14001a7fff957bcc610d2681610d216110a1565b6114f5565b610d308383611826565b505050565b6000801b81565b60008060016000610d4b6110a1565b73ffffffffffffffffffffffffffffffffffffffff1673ffffffffffffffffffffffffffffffffffffffff16815260200190815260200160002060008573ffffffffffffffffffffffffffffffffffffffff1673ffffffffffffffffffffffffffffffffffffffff16815260200190815260200160002054905082811015610e08576040517f08c379a0000000000000000000000000000000000000000000000000000000008152600401610dff9061302a565b60405180910390fd5b610e1c610e136110a1565b858584036110a9565b600191505092915050565b6000610e3b610e346110a1565b8484611274565b6001905092915050565b83421115610e88576040517f08c379a0000000000000000000000000000000000000000000000000000000008152600401610e7f90612eca565b60405180910390fd5b60007f0000000000000000000000000000000000000000000000000000000000000000888888610eb78c611842565b89604051602001610ecd96959493929190612cef565b6040516020818303038152906040528051906020012090506000610ef0826118a0565b90506000610f00828787876118ba565b90508973ffffffffffffffffffffffffffffffffffffffff168173ffffffffffffffffffffffffffffffffffffffff1614610f70576040517f08c379a0000000000000000000000000000000000000000000000000000000008152600401610f6790612f6a565b60405180910390fd5b610f7b8a8a8a6110a9565b50505050505050505050565b610f90826107b8565b610fa181610f9c6110a1565b6114f5565b610fab8383611736565b505050565b6000600160008473ffffffffffffffffffffffffffffffffffffffff1673ffffffffffffffffffffffffffffffffffffffff16815260200190815260200160002060008373ffffffffffffffffffffffffffffffffffffffff1673ffffffffffffffffffffffffffffffffffffffff16815260200190815260200160002054905092915050565b60007f01ffc9a7000000000000000000000000000000000000000000000000000000007bffffffffffffffffffffffffffffffffffffffffffffffffffffffff1916827bffffffffffffffffffffffffffffffffffffffffffffffffffffffff1916149050919050565b600033905090565b600073ffffffffffffffffffffffffffffffffffffffff168373ffffffffffffffffffffffffffffffffffffffff161415611119576040517f08c379a00000000000000000000000000000000000000000000000000000000081526004016111109061300a565b60405180910390fd5b600073ffffffffffffffffffffffffffffffffffffffff168273ffffffffffffffffffffffffffffffffffffffff161415611189576040517f08c379a000000000000000000000000000000000000000000000000000000000815260040161118090612eaa565b60405180910390fd5b80600160008573ffffffffffffffffffffffffffffffffffffffff1673ffffffffffffffffffffffffffffffffffffffff16815260200190815260200160002060008473ffffffffffffffffffffffffffffffffffffffff1673ffffffffffffffffffffffffffffffffffffffff168152602001908152602001600020819055508173ffffffffffffffffffffffffffffffffffffffff168373ffffffffffffffffffffffffffffffffffffffff167f8c5be1e5ebec7d5bd14f71427d1e84f3dd0314c0f7b2291e5b200ac8c7c3b92583604051611267919061308a565b60405180910390a3505050565b600073ffffffffffffffffffffffffffffffffffffffff168373ffffffffffffffffffffffffffffffffffffffff1614156112e4576040517f08c379a00000000000000000000000000000000000000000000000000000000081526004016112db90612fea565b60405180910390fd5b600073ffffffffffffffffffffffffffffffffffffffff168273ffffffffffffffffffffffffffffffffffffffff161415611354576040517f08c379a000000000000000000000000000000000000000000000000000000000815260040161134b90612e4a565b60405180910390fd5b61135f8383836118e5565b60008060008573ffffffffffffffffffffffffffffffffffffffff1673ffffffffffffffffffffffffffffffffffffffff168152602001908152602001600020549050818110156113e5576040517f08c379a00000000000000000000000000000000000000000000000000000000081526004016113dc90612eea565b60405180910390fd5b8181036000808673ffffffffffffffffffffffffffffffffffffffff1673ffffffffffffffffffffffffffffffffffffffff16815260200190815260200160002081905550816000808573ffffffffffffffffffffffffffffffffffffffff1673ffffffffffffffffffffffffffffffffffffffff16815260200190815260200160002060008282546114789190613164565b925050819055508273ffffffffffffffffffffffffffffffffffffffff168473ffffffffffffffffffffffffffffffffffffffff167fddf252ad1be2c89b69c2b068fc378daa952ba7f163c4a11628f55a4df523b3ef846040516114dc919061308a565b60405180910390a36114ef8484846118ea565b50505050565b6114ff8282610bf7565b61158e576115248173ffffffffffffffffffffffffffffffffffffffff1660146118fa565b6115328360001c60206118fa565b604051602001611543929190612c7f565b6040516020818303038152906040526040517f08c379a00000000000000000000000000000000000000000000000000000000081526004016115859190612de8565b60405180910390fd5b5050565b61159c8282610bf7565b61166f5760016006600084815260200190815260200160002060000160008373ffffffffffffffffffffffffffffffffffffffff1673ffffffffffffffffffffffffffffffffffffffff16815260200190815260200160002060006101000a81548160ff0219169083151502179055506116146110a1565b73ffffffffffffffffffffffffffffffffffffffff168173ffffffffffffffffffffffffffffffffffffffff16837f2f8788117e7eff1d82e926ec794901d17c78024a50270940304540a733656f0d60405160405180910390a45b5050565b60007f00000000000000000000000000000000000000000000000000000000000000004614156116c5577f00000000000000000000000000000000000000000000000000000000000000009050611733565b6117307f00000000000000000000000000000000000000000000000000000000000000007f00000000000000000000000000000000000000000000000000000000000000007f0000000000000000000000000000000000000000000000000000000000000000611bf4565b90505b90565b6117408282610bf7565b156118145760006006600084815260200190815260200160002060000160008373ffffffffffffffffffffffffffffffffffffffff1673ffffffffffffffffffffffffffffffffffffffff16815260200190815260200160002060006101000a81548160ff0219169083151502179055506117b96110a1565b73ffffffffffffffffffffffffffffffffffffffff168173ffffffffffffffffffffffffffffffffffffffff16837ff6391f5c32d9c69d2a47ea670b442974b53935d1edc7fd64eb21e047a839171b60405160405180910390a45b5050565b6118228282611c2e565b5050565b6118308282611d8e565b5050565b600081600001549050919050565b600080600560008473ffffffffffffffffffffffffffffffffffffffff1673ffffffffffffffffffffffffffffffffffffffff168152602001908152602001600020905061188f81611834565b915061189a81611f65565b50919050565b60006118b36118ad611673565b83611f7b565b9050919050565b60008060006118cb87878787611fae565b915091506118d8816120bb565b8192505050949350505050565b505050565b6118f583838361240c565b505050565b60606000600283600261190d91906131ba565b6119179190613164565b67ffffffffffffffff811115611956577f4e487b7100000000000000000000000000000000000000000000000000000000600052604160045260246000fd5b6040519080825280601f01601f1916602001820160405280156119885781602001600182028036833780820191505090505b5090507f3000000000000000000000000000000000000000000000000000000000000000816000815181106119e6577f4e487b7100000000000000000000000000000000000000000000000000000000600052603260045260246000fd5b60200101907effffffffffffffffffffffffffffffffffffffffffffffffffffffffffffff1916908160001a9053507f780000000000000000000000000000000000000000000000000000000000000081600181518110611a70577f4e487b7100000000000000000000000000000000000000000000000000000000600052603260045260246000fd5b60200101907effffffffffffffffffffffffffffffffffffffffffffffffffffffffffffff1916908160001a90535060006001846002611ab091906131ba565b611aba9190613164565b90505b6001811115611ba6577f3031323334353637383961626364656600000000000000000000000000000000600f861660108110611b22577f4e487b7100000000000000000000000000000000000000000000000000000000600052603260045260246000fd5b1a60f81b828281518110611b5f577f4e487b7100000000000000000000000000000000000000000000000000000000600052603260045260246000fd5b60200101907effffffffffffffffffffffffffffffffffffffffffffffffffffffffffffff1916908160001a905350600485901c945080611b9f90613306565b9050611abd565b5060008414611bea576040517f08c379a0000000000000000000000000000000000000000000000000000000008152600401611be190612e2a565b60405180910390fd5b8091505092915050565b60008383834630604051602001611c0f959493929190612d50565b6040516020818303038152906040528051906020012090509392505050565b600073ffffffffffffffffffffffffffffffffffffffff168273ffffffffffffffffffffffffffffffffffffffff161415611c9e576040517f08c379a0000000000000000000000000000000000000000000000000000000008152600401611c959061306a565b60405180910390fd5b611caa600083836118e5565b8060026000828254611cbc9190613164565b92505081905550806000808473ffffffffffffffffffffffffffffffffffffffff1673ffffffffffffffffffffffffffffffffffffffff1681526020019081526020016000206000828254611d119190613164565b925050819055508173ffffffffffffffffffffffffffffffffffffffff16600073ffffffffffffffffffffffffffffffffffffffff167fddf252ad1be2c89b69c2b068fc378daa952ba7f163c4a11628f55a4df523b3ef83604051611d76919061308a565b60405180910390a3611d8a600083836118ea565b5050565b600073ffffffffffffffffffffffffffffffffffffffff168273ffffffffffffffffffffffffffffffffffffffff161415611dfe576040517f08c379a0000000000000000000000000000000000000000000000000000000008152600401611df590612fca565b60405180910390fd5b611e0a826000836118e5565b60008060008473ffffffffffffffffffffffffffffffffffffffff1673ffffffffffffffffffffffffffffffffffffffff16815260200190815260200160002054905081811015611e90576040517f08c379a0000000000000000000000000000000000000000000000000000000008152600401611e8790612e6a565b60405180910390fd5b8181036000808573ffffffffffffffffffffffffffffffffffffffff1673ffffffffffffffffffffffffffffffffffffffff168152602001908152602001600020819055508160026000828254611ee79190613214565b92505081905550600073ffffffffffffffffffffffffffffffffffffffff168373ffffffffffffffffffffffffffffffffffffffff167fddf252ad1be2c89b69c2b068fc378daa952ba7f163c4a11628f55a4df523b3ef84604051611f4c919061308a565b60405180910390a3611f60836000846118ea565b505050565b6001816000016000828254019250508190555050565b60008282604051602001611f90929190612c48565b60405160208183030381529060405280519060200120905092915050565b6000807f7fffffffffffffffffffffffffffffff5d576e7357a4501ddfe92f46681b20a08360001c1115611fe95760006003915091506120b2565b601b8560ff16141580156120015750601c8560ff1614155b156120135760006004915091506120b2565b6000600187878787604051600081526020016040526040516120389493929190612da3565b6020604051602081039080840390855afa15801561205a573d6000803e3d6000fd5b505050602060405103519050600073ffffffffffffffffffffffffffffffffffffffff168173ffffffffffffffffffffffffffffffffffffffff1614156120a9576000600192509250506120b2565b80600092509250505b94509492505050565b600060048111156120f5577f4e487b7100000000000000000000000000000000000000000000000000000000600052602160045260246000fd5b81600481111561212e577f4e487b7100000000000000000000000000000000000000000000000000000000600052602160045260246000fd5b141561213957612409565b60016004811115612173577f4e487b7100000000000000000000000000000000000000000000000000000000600052602160045260246000fd5b8160048111156121ac577f4e487b7100000000000000000000000000000000000000000000000000000000600052602160045260246000fd5b14156121ed576040517f08c379a00000000000000000000000000000000000000000000000000000000081526004016121e490612e0a565b60405180910390fd5b60026004811115612227577f4e487b7100000000000000000000000000000000000000000000000000000000600052602160045260246000fd5b816004811115612260577f4e487b7100000000000000000000000000000000000000000000000000000000600052602160045260246000fd5b14156122a1576040517f08c379a000000000000000000000000000000000000000000000000000000000815260040161229890612e8a565b60405180910390fd5b600360048111156122db577f4e487b7100000000000000000000000000000000000000000000000000000000600052602160045260246000fd5b816004811115612314577f4e487b7100000000000000000000000000000000000000000000000000000000600052602160045260246000fd5b1415612355576040517f08c379a000000000000000000000000000000000000000000000000000000000815260040161234c90612f0a565b60405180910390fd5b60048081111561238e577f4e487b7100000000000000000000000000000000000000000000000000000000600052602160045260246000fd5b8160048111156123c7577f4e487b7100000000000000000000000000000000000000000000000000000000600052602160045260246000fd5b1415612408576040517f08c379a00000000000000000000000000000000000000000000000000000000081526004016123ff90612f4a565b60405180910390fd5b5b50565b505050565b600061242461241f846130e5565b6130c0565b9050808382526020820190508285602086028201111561244357600080fd5b60005b85811015612473578161245988826124e9565b845260208401935060208301925050600181019050612446565b5050509392505050565b600061249061248b84613111565b6130c0565b905080838252602082019050828560208602820111156124af57600080fd5b60005b858110156124df57816124c5888261257c565b8452602084019350602083019250506001810190506124b2565b5050509392505050565b6000813590506124f881613a47565b92915050565b600082601f83011261250f57600080fd5b813561251f848260208601612411565b91505092915050565b600082601f83011261253957600080fd5b813561254984826020860161247d565b91505092915050565b60008135905061256181613a5e565b92915050565b60008135905061257681613a75565b92915050565b60008135905061258b81613a8c565b92915050565b6000813590506125a081613aa3565b92915050565b6000602082840312156125b857600080fd5b60006125c6848285016124e9565b91505092915050565b600080604083850312156125e257600080fd5b60006125f0858286016124e9565b9250506020612601858286016124e9565b9150509250929050565b60008060006060848603121561262057600080fd5b600061262e868287016124e9565b935050602061263f868287016124e9565b92505060406126508682870161257c565b9150509250925092565b600080600080600080600060e0888a03121561267557600080fd5b60006126838a828b016124e9565b97505060206126948a828b016124e9565b96505060406126a58a828b0161257c565b95505060606126b68a828b0161257c565b94505060806126c78a828b01612591565b93505060a06126d88a828b01612552565b92505060c06126e98a828b01612552565b91505092959891949750929550565b6000806040838503121561270b57600080fd5b6000612719858286016124e9565b925050602061272a8582860161257c565b9150509250929050565b6000806040838503121561274757600080fd5b600083013567ffffffffffffffff81111561276157600080fd5b61276d858286016124fe565b925050602083013567ffffffffffffffff81111561278a57600080fd5b61279685828601612528565b9150509250929050565b6000602082840312156127b257600080fd5b60006127c084828501612552565b91505092915050565b600080604083850312156127dc57600080fd5b60006127ea85828601612552565b92505060206127fb858286016124e9565b9150509250929050565b60006020828403121561281757600080fd5b600061282584828501612567565b91505092915050565b60006020828403121561284057600080fd5b600061284e8482850161257c565b91505092915050565b61286081613248565b82525050565b61286f8161325a565b82525050565b61287e81613266565b82525050565b61289561289082613266565b6133dc565b82525050565b60006128a68261313d565b6128b08185613148565b93506128c08185602086016132d3565b6128c981613473565b840191505092915050565b60006128df8261313d565b6128e98185613159565b93506128f98185602086016132d3565b80840191505092915050565b6000612912601883613148565b915061291d82613484565b602082019050919050565b6000612935602083613148565b9150612940826134ad565b602082019050919050565b6000612958602383613148565b9150612963826134d6565b604082019050919050565b600061297b602283613148565b915061298682613525565b604082019050919050565b600061299e601f83613148565b91506129a982613574565b602082019050919050565b60006129c1602283613148565b91506129cc8261359d565b604082019050919050565b60006129e4600283613159565b91506129ef826135ec565b600282019050919050565b6000612a07601d83613148565b9150612a1282613615565b602082019050919050565b6000612a2a602683613148565b9150612a358261363e565b604082019050919050565b6000612a4d602283613148565b9150612a588261368d565b604082019050919050565b6000612a70602d83613148565b9150612a7b826136dc565b604082019050919050565b6000612a93602283613148565b9150612a9e8261372b565b604082019050919050565b6000612ab6601e83613148565b9150612ac18261377a565b602082019050919050565b6000612ad9602883613148565b9150612ae4826137a3565b604082019050919050565b6000612afc602483613148565b9150612b07826137f2565b604082019050919050565b6000612b1f602183613148565b9150612b2a82613841565b604082019050919050565b6000612b42602583613148565b9150612b4d82613890565b604082019050919050565b6000612b65602483613148565b9150612b70826138df565b604082019050919050565b6000612b88601783613159565b9150612b938261392e565b601782019050919050565b6000612bab602583613148565b9150612bb682613957565b604082019050919050565b6000612bce601183613159565b9150612bd9826139a6565b601182019050919050565b6000612bf1602f83613148565b9150612bfc826139cf565b604082019050919050565b6000612c14601f83613148565b9150612c1f82613a1e565b602082019050919050565b612c33816132bc565b82525050565b612c42816132c6565b82525050565b6000612c53826129d7565b9150612c5f8285612884565b602082019150612c6f8284612884565b6020820191508190509392505050565b6000612c8a82612b7b565b9150612c9682856128d4565b9150612ca182612bc1565b9150612cad82846128d4565b91508190509392505050565b6000602082019050612cce6000830184612866565b92915050565b6000602082019050612ce96000830184612875565b92915050565b600060c082019050612d046000830189612875565b612d116020830188612857565b612d1e6040830187612857565b612d2b6060830186612c2a565b612d386080830185612c2a565b612d4560a0830184612c2a565b979650505050505050565b600060a082019050612d656000830188612875565b612d726020830187612875565b612d7f6040830186612875565b612d8c6060830185612c2a565b612d996080830184612857565b9695505050505050565b6000608082019050612db86000830187612875565b612dc56020830186612c39565b612dd26040830185612875565b612ddf6060830184612875565b95945050505050565b60006020820190508181036000830152612e02818461289b565b905092915050565b60006020820190508181036000830152612e2381612905565b9050919050565b60006020820190508181036000830152612e4381612928565b9050919050565b60006020820190508181036000830152612e638161294b565b9050919050565b60006020820190508181036000830152612e838161296e565b9050919050565b60006020820190508181036000830152612ea381612991565b9050919050565b60006020820190508181036000830152612ec3816129b4565b9050919050565b60006020820190508181036000830152612ee3816129fa565b9050919050565b60006020820190508181036000830152612f0381612a1d565b9050919050565b60006020820190508181036000830152612f2381612a40565b9050919050565b60006020820190508181036000830152612f4381612a63565b9050919050565b60006020820190508181036000830152612f6381612a86565b9050919050565b60006020820190508181036000830152612f8381612aa9565b9050919050565b60006020820190508181036000830152612fa381612acc565b9050919050565b60006020820190508181036000830152612fc381612aef565b9050919050565b60006020820190508181036000830152612fe381612b12565b9050919050565b6000602082019050818103600083015261300381612b35565b9050919050565b6000602082019050818103600083015261302381612b58565b9050919050565b6000602082019050818103600083015261304381612b9e565b9050919050565b6000602082019050818103600083015261306381612be4565b9050919050565b6000602082019050818103600083015261308381612c07565b9050919050565b600060208201905061309f6000830184612c2a565b92915050565b60006020820190506130ba6000830184612c39565b92915050565b60006130ca6130db565b90506130d68282613362565b919050565b6000604051905090565b600067ffffffffffffffff821115613100576130ff613444565b5b602082029050602081019050919050565b600067ffffffffffffffff82111561312c5761312b613444565b5b602082029050602081019050919050565b600081519050919050565b600082825260208201905092915050565b600081905092915050565b600061316f826132bc565b915061317a836132bc565b9250827fffffffffffffffffffffffffffffffffffffffffffffffffffffffffffffffff038211156131af576131ae6133e6565b5b828201905092915050565b60006131c5826132bc565b91506131d0836132bc565b9250817fffffffffffffffffffffffffffffffffffffffffffffffffffffffffffffffff0483118215151615613209576132086133e6565b5b828202905092915050565b600061321f826132bc565b915061322a836132bc565b92508282101561323d5761323c6133e6565b5b828203905092915050565b60006132538261329c565b9050919050565b60008115159050919050565b6000819050919050565b60007fffffffff0000000000000000000000000000000000000000000000000000000082169050919050565b600073ffffffffffffffffffffffffffffffffffffffff82169050919050565b6000819050919050565b600060ff82169050919050565b60005b838110156132f15780820151818401526020810190506132d6565b83811115613300576000848401525b50505050565b6000613311826132bc565b91506000821415613325576133246133e6565b5b600182039050919050565b6000600282049050600182168061334857607f821691505b6020821081141561335c5761335b613415565b5b50919050565b61336b82613473565b810181811067ffffffffffffffff8211171561338a57613389613444565b5b80604052505050565b600061339e826132bc565b91507fffffffffffffffffffffffffffffffffffffffffffffffffffffffffffffffff8214156133d1576133d06133e6565b5b600182019050919050565b6000819050919050565b7f4e487b7100000000000000000000000000000000000000000000000000000000600052601160045260246000fd5b7f4e487b7100000000000000000000000000000000000000000000000000000000600052602260045260246000fd5b7f4e487b7100000000000000000000000000000000000000000000000000000000600052604160045260246000fd5b6000601f19601f8301169050919050565b7f45434453413a20696e76616c6964207369676e61747572650000000000000000600082015250565b7f537472696e67733a20686578206c656e67746820696e73756666696369656e74600082015250565b7f45524332303a207472616e7366657220746f20746865207a65726f206164647260008201527f6573730000000000000000000000000000000000000000000000000000000000602082015250565b7f45524332303a206275726e20616d6f756e7420657863656564732062616c616e60008201527f6365000000000000000000000000000000000000000000000000000000000000602082015250565b7f45434453413a20696e76616c6964207369676e6174757265206c656e67746800600082015250565b7f45524332303a20617070726f766520746f20746865207a65726f20616464726560008201527f7373000000000000000000000000000000000000000000000000000000000000602082015250565b7f1901000000000000000000000000000000000000000000000000000000000000600082015250565b7f45524332305065726d69743a206578706972656420646561646c696e65000000600082015250565b7f45524332303a207472616e7366657220616d6f756e742065786365656473206260008201527f616c616e63650000000000000000000000000000000000000000000000000000602082015250565b7f45434453413a20696e76616c6964207369676e6174757265202773272076616c60008201527f7565000000000000000000000000000000000000000000000000000000000000602082015250565b7f546f20616e6420416d6f756e747320617272617973206d75737420626520657160008201527f756976616c656e742073697a6500000000000000000000000000000000000000602082015250565b7f45434453413a20696e76616c6964207369676e6174757265202776272076616c60008201527f7565000000000000000000000000000000000000000000000000000000000000602082015250565b7f45524332305065726d69743a20696e76616c6964207369676e61747572650000600082015250565b7f45524332303a207472616e7366657220616d6f756e742065786365656473206160008201527f6c6c6f77616e6365000000000000000000000000000000000000000000000000602082015250565b7f45524332303a206275726e20616d6f756e74206578636565647320616c6c6f7760008201527f616e636500000000000000000000000000000000000000000000000000000000602082015250565b7f45524332303a206275726e2066726f6d20746865207a65726f2061646472657360008201527f7300000000000000000000000000000000000000000000000000000000000000602082015250565b7f45524332303a207472616e736665722066726f6d20746865207a65726f20616460008201527f6472657373000000000000000000000000000000000000000000000000000000602082015250565b7f45524332303a20617070726f76652066726f6d20746865207a65726f2061646460008201527f7265737300000000000000000000000000000000000000000000000000000000602082015250565b7f416363657373436f6e74726f6c3a206163636f756e7420000000000000000000600082015250565b7f45524332303a2064656372656173656420616c6c6f77616e63652062656c6f7760008201527f207a65726f000000000000000000000000000000000000000000000000000000602082015250565b7f206973206d697373696e6720726f6c6520000000000000000000000000000000600082015250565b7f416363657373436f6e74726f6c3a2063616e206f6e6c792072656e6f756e636560008201527f20726f6c657320666f722073656c660000000000000000000000000000000000602082015250565b7f45524332303a206d696e7420746f20746865207a65726f206164647265737300600082015250565b613a5081613248565b8114613a5b57600080fd5b50565b613a6781613266565b8114613a7257600080fd5b50565b613a7e81613270565b8114613a8957600080fd5b50565b613a95816132bc565b8114613aa057600080fd5b50565b613aac816132c6565b8114613ab757600080fd5b5056fea2646970667358221220fe2b5d1e9e125d6e3c528686e5065ff95bba53f8755f7173734847ce6662752264736f6c63430008040033",
  "linkReferences": {},
  "deployedLinkReferences": {}
}