{
  "_format": "hh-sol-artifact-1",
  "contractName": "GoGBattlesCoordinator",
  "sourceName": "contracts/GoGBattlesCoordinator.sol",
  "abi": [
    {
      "inputs": [],
      "stateMutability": "nonpayable",
      "type": "constructor"
    },
    {
      "anonymous": false,
      "inputs": [
        {
          "indexed": false,
          "internalType": "address",
          "name": "burner",
          "type": "address"
        },
        {
          "indexed": false,
          "internalType": "uint256[]",
          "name": "tokenIds",
          "type": "uint256[]"
        }
      ],
      "name": "BurnCards",
      "type": "event"
    },
    {
      "anonymous": false,
      "inputs": [
        {
          "indexed": false,
          "internalType": "address",
          "name": "minter",
          "type": "address"
        },
        {
          "indexed": false,
          "internalType": "uint256[]",
          "name": "tokenIds",
          "type": "uint256[]"
        }
      ],
      "name": "MintCards",
      "type": "event"
    },
    {
      "anonymous": false,
      "inputs": [
        {
          "indexed": true,
          "internalType": "bytes32",
          "name": "role",
          "type": "bytes32"
        },
        {
          "indexed": true,
          "internalType": "bytes32",
          "name": "previousAdminRole",
          "type": "bytes32"
        },
        {
          "indexed": true,
          "internalType": "bytes32",
          "name": "newAdminRole",
          "type": "bytes32"
        }
      ],
      "name": "RoleAdminChanged",
      "type": "event"
    },
    {
      "anonymous": false,
      "inputs": [
        {
          "indexed": true,
          "internalType": "bytes32",
          "name": "role",
          "type": "bytes32"
        },
        {
          "indexed": true,
          "internalType": "address",
          "name": "account",
          "type": "address"
        },
        {
          "indexed": true,
          "internalType": "address",
          "name": "sender",
          "type": "address"
        }
      ],
      "name": "RoleGranted",
      "type": "event"
    },
    {
      "anonymous": false,
      "inputs": [
        {
          "indexed": true,
          "internalType": "bytes32",
          "name": "role",
          "type": "bytes32"
        },
        {
          "indexed": true,
          "internalType": "address",
          "name": "account",
          "type": "address"
        },
        {
          "indexed": true,
          "internalType": "address",
          "name": "sender",
          "type": "address"
        }
      ],
      "name": "RoleRevoked",
      "type": "event"
    },
    {
      "inputs": [],
      "name": "DEFAULT_ADMIN_ROLE",
      "outputs": [
        {
          "internalType": "bytes32",
          "name": "",
          "type": "bytes32"
        }
      ],
      "stateMutability": "view",
      "type": "function"
    },
    {
      "inputs": [],
      "name": "OWNER_ROLE",
      "outputs": [
        {
          "internalType": "bytes32",
          "name": "",
          "type": "bytes32"
        }
      ],
      "stateMutability": "view",
      "type": "function"
    },
    {
      "inputs": [],
      "name": "REFEREE_ROLE",
      "outputs": [
        {
          "internalType": "bytes32",
          "name": "",
          "type": "bytes32"
        }
      ],
      "stateMutability": "view",
      "type": "function"
    },
    {
      "inputs": [
        {
          "internalType": "address",
          "name": "cardsAddress",
          "type": "address"
        }
      ],
      "name": "SetGoGBattlesCards",
      "outputs": [],
      "stateMutability": "nonpayable",
      "type": "function"
    },
    {
      "inputs": [
        {
          "internalType": "address",
          "name": "matchHistoryAddress",
          "type": "address"
        }
      ],
      "name": "SetGoGBattlesMatchHistory",
      "outputs": [],
      "stateMutability": "nonpayable",
      "type": "function"
    },
    {
      "inputs": [
        {
          "internalType": "address",
          "name": "tokenAddress",
          "type": "address"
        }
      ],
      "name": "SetGoGBattlesToken",
      "outputs": [],
      "stateMutability": "nonpayable",
      "type": "function"
    },
    {
      "inputs": [
        {
          "internalType": "address",
          "name": "vaultAddress",
          "type": "address"
        }
      ],
      "name": "SetGoGBattlesVault",
      "outputs": [],
      "stateMutability": "nonpayable",
      "type": "function"
    },
    {
      "inputs": [
        {
          "internalType": "uint256[]",
          "name": "tokenIds",
          "type": "uint256[]"
        }
      ],
      "name": "burnCards",
      "outputs": [],
      "stateMutability": "nonpayable",
      "type": "function"
    },
    {
      "inputs": [
        {
          "internalType": "uint256",
          "name": "amount",
          "type": "uint256"
        },
        {
          "internalType": "address",
          "name": "erc20",
          "type": "address"
        }
      ],
      "name": "burnToken",
      "outputs": [],
      "stateMutability": "nonpayable",
      "type": "function"
    },
    {
      "inputs": [],
      "name": "claim",
      "outputs": [],
      "stateMutability": "nonpayable",
      "type": "function"
    },
    {
      "inputs": [],
      "name": "claimGameInterest",
      "outputs": [],
      "stateMutability": "nonpayable",
      "type": "function"
    },
    {
      "inputs": [
        {
          "internalType": "string",
          "name": "ipfs",
          "type": "string"
        }
      ],
      "name": "claimMatchOccured",
      "outputs": [
        {
          "internalType": "bool",
          "name": "",
          "type": "bool"
        }
      ],
      "stateMutability": "nonpayable",
      "type": "function"
    },
    {
      "inputs": [],
      "name": "distributeInterest",
      "outputs": [],
      "stateMutability": "nonpayable",
      "type": "function"
    },
    {
      "inputs": [
        {
          "internalType": "bytes32",
          "name": "role",
          "type": "bytes32"
        }
      ],
      "name": "getRoleAdmin",
      "outputs": [
        {
          "internalType": "bytes32",
          "name": "",
          "type": "bytes32"
        }
      ],
      "stateMutability": "view",
      "type": "function"
    },
    {
      "inputs": [
        {
          "internalType": "bytes32",
          "name": "role",
          "type": "bytes32"
        },
        {
          "internalType": "address",
          "name": "account",
          "type": "address"
        }
      ],
      "name": "grantRole",
      "outputs": [],
      "stateMutability": "nonpayable",
      "type": "function"
    },
    {
      "inputs": [
        {
          "internalType": "bytes32",
          "name": "role",
          "type": "bytes32"
        },
        {
          "internalType": "address",
          "name": "account",
          "type": "address"
        }
      ],
      "name": "hasRole",
      "outputs": [
        {
          "internalType": "bool",
          "name": "",
          "type": "bool"
        }
      ],
      "stateMutability": "view",
      "type": "function"
    },
    {
      "inputs": [
        {
          "internalType": "address",
          "name": "vaultType",
          "type": "address"
        },
        {
          "internalType": "uint256",
          "name": "amount",
          "type": "uint256"
        }
      ],
      "name": "mintCards",
      "outputs": [
        {
          "internalType": "uint256[]",
          "name": "",
          "type": "uint256[]"
        }
      ],
      "stateMutability": "nonpayable",
      "type": "function"
    },
    {
      "inputs": [
        {
          "internalType": "address",
          "name": "winner",
          "type": "address"
        },
        {
          "internalType": "address",
          "name": "loser",
          "type": "address"
        },
        {
          "internalType": "uint256",
          "name": "timestamp",
          "type": "uint256"
        },
        {
          "internalType": "string",
          "name": "ipfs",
          "type": "string"
        }
      ],
      "name": "publishMatch",
      "outputs": [],
      "stateMutability": "nonpayable",
      "type": "function"
    },
    {
      "inputs": [
        {
          "internalType": "bytes32",
          "name": "role",
          "type": "bytes32"
        },
        {
          "internalType": "address",
          "name": "account",
          "type": "address"
        }
      ],
      "name": "renounceRole",
      "outputs": [],
      "stateMutability": "nonpayable",
      "type": "function"
    },
    {
      "inputs": [
        {
          "internalType": "bytes32",
          "name": "role",
          "type": "bytes32"
        },
        {
          "internalType": "address",
          "name": "account",
          "type": "address"
        }
      ],
      "name": "revokeRole",
      "outputs": [],
      "stateMutability": "nonpayable",
      "type": "function"
    },
    {
      "inputs": [
        {
          "internalType": "bytes4",
          "name": "interfaceId",
          "type": "bytes4"
        }
      ],
      "name": "supportsInterface",
      "outputs": [
        {
          "internalType": "bool",
          "name": "",
          "type": "bool"
        }
      ],
      "stateMutability": "view",
      "type": "function"
    }
  ],
  "bytecode": "0x60806040523480156200001157600080fd5b50620000226200015260201b60201c565b60006097819055506200003f6000801b336200026160201b60201c565b620000717fb19546dff01e856fb3f010c267a7b1c60363cf8a4664e21cc89c26224620214e336200026160201b60201c565b620000a37faef88082b8671e875d97d0d6c81d06fb9e76f97b3ad7523a55a378e5298aeeee336200026160201b60201c565b6000609960008073ffffffffffffffffffffffffffffffffffffffff1673ffffffffffffffffffffffffffffffffffffffff16815260200190815260200160002081905550609a60009080600181540180825580915050600190039060005260206000200160009091909190916101000a81548173ffffffffffffffffffffffffffffffffffffffff021916908373ffffffffffffffffffffffffffffffffffffffff16021790555062000722565b600060019054906101000a900460ff168062000179575060008054906101000a900460ff16155b620001bb576040517f08c379a0000000000000000000000000000000000000000000000000000000008152600401620001b290620006a0565b60405180910390fd5b60008060019054906101000a900460ff1615905080156200020c576001600060016101000a81548160ff02191690831515021790555060016000806101000a81548160ff0219169083151502179055505b6200021c6200027760201b60201c565b6200022c6200035660201b60201c565b6200023c6200043560201b60201c565b80156200025e5760008060016101000a81548160ff0219169083151502179055505b50565b6200027382826200051460201b60201c565b5050565b600060019054906101000a900460ff16806200029e575060008054906101000a900460ff16155b620002e0576040517f08c379a0000000000000000000000000000000000000000000000000000000008152600401620002d790620006a0565b60405180910390fd5b60008060019054906101000a900460ff16159050801562000331576001600060016101000a81548160ff02191690831515021790555060016000806101000a81548160ff0219169083151502179055505b8015620003535760008060016101000a81548160ff0219169083151502179055505b50565b600060019054906101000a900460ff16806200037d575060008054906101000a900460ff16155b620003bf576040517f08c379a0000000000000000000000000000000000000000000000000000000008152600401620003b690620006a0565b60405180910390fd5b60008060019054906101000a900460ff16159050801562000410576001600060016101000a81548160ff02191690831515021790555060016000806101000a81548160ff0219169083151502179055505b8015620004325760008060016101000a81548160ff0219169083151502179055505b50565b600060019054906101000a900460ff16806200045c575060008054906101000a900460ff16155b6200049e576040517f08c379a00000000000000000000000000000000000000000000000000000000081526004016200049590620006a0565b60405180910390fd5b60008060019054906101000a900460ff161590508015620004ef576001600060016101000a81548160ff02191690831515021790555060016000806101000a81548160ff0219169083151502179055505b8015620005115760008060016101000a81548160ff0219169083151502179055505b50565b6200052682826200060660201b60201c565b620006025760016065600084815260200190815260200160002060000160008373ffffffffffffffffffffffffffffffffffffffff1673ffffffffffffffffffffffffffffffffffffffff16815260200190815260200160002060006101000a81548160ff021916908315150217905550620005a76200067160201b60201c565b73ffffffffffffffffffffffffffffffffffffffff168173ffffffffffffffffffffffffffffffffffffffff16837f2f8788117e7eff1d82e926ec794901d17c78024a50270940304540a733656f0d60405160405180910390a45b5050565b60006065600084815260200190815260200160002060000160008373ffffffffffffffffffffffffffffffffffffffff1673ffffffffffffffffffffffffffffffffffffffff16815260200190815260200160002060009054906101000a900460ff16905092915050565b600033905090565b600062000688602e83620006c2565b91506200069582620006d3565b604082019050919050565b60006020820190508181036000830152620006bb8162000679565b9050919050565b600082825260208201905092915050565b7f496e697469616c697a61626c653a20636f6e747261637420697320616c72656160008201527f647920696e697469616c697a6564000000000000000000000000000000000000602082015250565b614cbd80620007326000396000f3fe608060405234801561001057600080fd5b50600436106101365760003560e01c806391d14854116100b8578063d0259c881161007c578063d0259c88146102e9578063d547741f14610319578063dc593ca514610335578063dfe6180d14610351578063e58378bb14610381578063f0a508921461039f57610136565b806391d14854146102455780639a7d650414610275578063a217fddf14610291578063a54a5af8146102af578063af74bc14146102cb57610136565b80634e71d92d116100ff5780634e71d92d146101ef578063568f8647146101f957806362e4b61a146102035780636f79dd5e1461021f5780638b3651ad1461023b57610136565b8062b0a5711461013b57806301ffc9a714610157578063248a9ca3146101875780632f2ff15d146101b757806336568abe146101d3575b600080fd5b61015560048036038101906101509190613336565b6103bb565b005b610171600480360381019061016c9190613542565b6104c4565b60405161017e9190613d5f565b60405180910390f35b6101a1600480360381019061019c91906134dd565b61053e565b6040516101ae9190613d7a565b60405180910390f35b6101d160048036038101906101cc9190613506565b61055e565b005b6101ed60048036038101906101e89190613506565b610587565b005b6101f761060a565b005b610201610919565b005b61021d6004803603810190610218919061341b565b610a16565b005b6102396004803603810190610234919061335f565b610b61565b005b610243610e0b565b005b61025f600480360381019061025a9190613506565b611250565b60405161026c9190613d5f565b60405180910390f35b61028f600480360381019061028a9190613336565b6112bb565b005b6102996113c4565b6040516102a69190613d7a565b60405180910390f35b6102c960048036038101906102c49190613336565b6113cb565b005b6102d36114b2565b6040516102e09190613d7a565b60405180910390f35b61030360048036038101906102fe91906133df565b6114d6565b6040516103109190613d3d565b60405180910390f35b610333600480360381019061032e9190613506565b61166d565b005b61034f600480360381019061034a91906135d9565b611696565b005b61036b6004803603810190610366919061356b565b6117a0565b6040516103789190613d5f565b60405180910390f35b6103896118a6565b6040516103969190613d7a565b60405180910390f35b6103b960048036038101906103b49190613336565b6118ca565b005b7fb19546dff01e856fb3f010c267a7b1c60363cf8a4664e21cc89c26224620214e6103ed816103e86119d3565b6119db565b81609c60006101000a81548173ffffffffffffffffffffffffffffffffffffffff021916908373ffffffffffffffffffffffffffffffffffffffff160217905550600073ffffffffffffffffffffffffffffffffffffffff16609c60009054906101000a900473ffffffffffffffffffffffffffffffffffffffff1673ffffffffffffffffffffffffffffffffffffffff1614156104c0576040517f08c379a00000000000000000000000000000000000000000000000000000000081526004016104b790613e97565b60405180910390fd5b5050565b60007f7965db0b000000000000000000000000000000000000000000000000000000007bffffffffffffffffffffffffffffffffffffffffffffffffffffffff1916827bffffffffffffffffffffffffffffffffffffffffffffffffffffffff19161480610537575061053682611a78565b5b9050919050565b600060656000838152602001908152602001600020600101549050919050565b6105678261053e565b610578816105736119d3565b6119db565b6105828383611ae2565b505050565b61058f6119d3565b73ffffffffffffffffffffffffffffffffffffffff168173ffffffffffffffffffffffffffffffffffffffff16146105fc576040517f08c379a00000000000000000000000000000000000000000000000000000000081526004016105f390614137565b60405180910390fd5b6106068282611bc3565b5050565b6000609960003373ffffffffffffffffffffffffffffffffffffffff1673ffffffffffffffffffffffffffffffffffffffff168152602001908152602001600020541415610705576000609a805490509050609a339080600181540180825580915050600190039060005260206000200160009091909190916101000a81548173ffffffffffffffffffffffffffffffffffffffff021916908373ffffffffffffffffffffffffffffffffffffffff16021790555080609960003373ffffffffffffffffffffffffffffffffffffffff1673ffffffffffffffffffffffffffffffffffffffff16815260200190815260200160002081905550505b600060985490506000609b60009054906101000a900473ffffffffffffffffffffffffffffffffffffffff1673ffffffffffffffffffffffffffffffffffffffff166318160ddd6040518163ffffffff1660e01b815260040160206040518083038186803b15801561077657600080fd5b505afa15801561078a573d6000803e3d6000fd5b505050506040513d601f19601f820116820180604052508101906107ae91906135b0565b90506000609c60009054906101000a900473ffffffffffffffffffffffffffffffffffffffff1673ffffffffffffffffffffffffffffffffffffffff1663d07a89bb336040518263ffffffff1660e01b815260040161080d9190613be4565b60206040518083038186803b15801561082557600080fd5b505afa158015610839573d6000803e3d6000fd5b505050506040513d601f19601f8201168201806040525081019061085d91906135b0565b609b60009054906101000a900473ffffffffffffffffffffffffffffffffffffffff1673ffffffffffffffffffffffffffffffffffffffff166370a08231336040518263ffffffff1660e01b81526004016108b89190613be4565b60206040518083038186803b1580156108d057600080fd5b505afa1580156108e4573d6000803e3d6000fd5b505050506040513d601f19601f8201168201806040525081019061090891906135b0565b6109129190614223565b9050505050565b6000609960003373ffffffffffffffffffffffffffffffffffffffff1673ffffffffffffffffffffffffffffffffffffffff168152602001908152602001600020541415610a14576000609a805490509050609a339080600181540180825580915050600190039060005260206000200160009091909190916101000a81548173ffffffffffffffffffffffffffffffffffffffff021916908373ffffffffffffffffffffffffffffffffffffffff16021790555080609960003373ffffffffffffffffffffffffffffffffffffffff1673ffffffffffffffffffffffffffffffffffffffff16815260200190815260200160002081905550505b565b6000609960003373ffffffffffffffffffffffffffffffffffffffff1673ffffffffffffffffffffffffffffffffffffffff168152602001908152602001600020541415610b11576000609a805490509050609a339080600181540180825580915050600190039060005260206000200160009091909190916101000a81548173ffffffffffffffffffffffffffffffffffffffff021916908373ffffffffffffffffffffffffffffffffffffffff16021790555080609960003373ffffffffffffffffffffffffffffffffffffffff1673ffffffffffffffffffffffffffffffffffffffff16815260200190815260200160002081905550505b610b5c828280806020026020016040519081016040528093929190818152602001838360200280828437600081840152601f19601f8201169050808301925050505050505033611ca5565b505050565b7faef88082b8671e875d97d0d6c81d06fb9e76f97b3ad7523a55a378e5298aeeee610b9381610b8e6119d3565b6119db565b609e60009054906101000a900473ffffffffffffffffffffffffffffffffffffffff1673ffffffffffffffffffffffffffffffffffffffff16636f79dd5e87878787876040518663ffffffff1660e01b8152600401610bf6959493929190613c5f565b600060405180830381600087803b158015610c1057600080fd5b505af1158015610c24573d6000803e3d6000fd5b505050506000609d60009054906101000a900473ffffffffffffffffffffffffffffffffffffffff1673ffffffffffffffffffffffffffffffffffffffff16634ec18db96040518163ffffffff1660e01b815260040160206040518083038186803b158015610c9257600080fd5b505afa158015610ca6573d6000803e3d6000fd5b505050506040513d601f19601f82011682018060405250810190610cca91906135b0565b90506000606482610cdb9190614279565b905060008111610d20576040517f08c379a0000000000000000000000000000000000000000000000000000000008152600401610d1790614117565b60405180910390fd5b6000811115610e0157609b60009054906101000a900473ffffffffffffffffffffffffffffffffffffffff1673ffffffffffffffffffffffffffffffffffffffff166340c10f1930836040518363ffffffff1660e01b8152600401610d86929190613cdd565b600060405180830381600087803b158015610da057600080fd5b505af1158015610db4573d6000803e3d6000fd5b505050506000610dc4828a611fe6565b90507fc095ce53c1d654628429e1cd2e05024bb7b03866d44192b1c8ddf2911572fd3e3382604051610df7929190613cad565b60405180910390a1505b5050505050505050565b6000609960003373ffffffffffffffffffffffffffffffffffffffff1673ffffffffffffffffffffffffffffffffffffffff168152602001908152602001600020541415610f06576000609a805490509050609a339080600181540180825580915050600190039060005260206000200160009091909190916101000a81548173ffffffffffffffffffffffffffffffffffffffff021916908373ffffffffffffffffffffffffffffffffffffffff16021790555080609960003373ffffffffffffffffffffffffffffffffffffffff1673ffffffffffffffffffffffffffffffffffffffff16815260200190815260200160002081905550505b6000609d60009054906101000a900473ffffffffffffffffffffffffffffffffffffffff1673ffffffffffffffffffffffffffffffffffffffff16634efa25526040518163ffffffff1660e01b8152600401602060405180830381600087803b158015610f7257600080fd5b505af1158015610f86573d6000803e3d6000fd5b505050506040513d601f19601f82011682018060405250810190610faa91906135b0565b905060148111610fef576040517f08c379a0000000000000000000000000000000000000000000000000000000008152600401610fe690614017565b60405180910390fd5b6000606460468361100091906142aa565b61100a9190614279565b90506000606460198461101d91906142aa565b6110279190614279565b90506000606460058561103a91906142aa565b6110449190614279565b905060008311611089576040517f08c379a000000000000000000000000000000000000000000000000000000000815260040161108090613e17565b60405180910390fd5b600082116110cc576040517f08c379a00000000000000000000000000000000000000000000000000000000081526004016110c390614077565b60405180910390fd5b6000811161110f576040517f08c379a000000000000000000000000000000000000000000000000000000000815260040161110690614037565b60405180910390fd5b8381838561111d9190614223565b6111279190614223565b14611167576040517f08c379a000000000000000000000000000000000000000000000000000000000815260040161115e906140f7565b60405180910390fd5b609b60009054906101000a900473ffffffffffffffffffffffffffffffffffffffff1673ffffffffffffffffffffffffffffffffffffffff166340c10f19609d60009054906101000a900473ffffffffffffffffffffffffffffffffffffffff16856040518363ffffffff1660e01b81526004016111e6929190613cdd565b600060405180830381600087803b15801561120057600080fd5b505af1158015611214573d6000803e3d6000fd5b50505050806097600082825461122a9190614223565b9250508190555081609860008282546112439190614223565b9250508190555050505050565b60006065600084815260200190815260200160002060000160008373ffffffffffffffffffffffffffffffffffffffff1673ffffffffffffffffffffffffffffffffffffffff16815260200190815260200160002060009054906101000a900460ff16905092915050565b7fb19546dff01e856fb3f010c267a7b1c60363cf8a4664e21cc89c26224620214e6112ed816112e86119d3565b6119db565b81609d60006101000a81548173ffffffffffffffffffffffffffffffffffffffff021916908373ffffffffffffffffffffffffffffffffffffffff160217905550600073ffffffffffffffffffffffffffffffffffffffff16609d60009054906101000a900473ffffffffffffffffffffffffffffffffffffffff1673ffffffffffffffffffffffffffffffffffffffff1614156113c0576040517f08c379a00000000000000000000000000000000000000000000000000000000081526004016113b790613e57565b60405180910390fd5b5050565b6000801b81565b7fb19546dff01e856fb3f010c267a7b1c60363cf8a4664e21cc89c26224620214e6113fd816113f86119d3565b6119db565b81609e60006101000a81548173ffffffffffffffffffffffffffffffffffffffff021916908373ffffffffffffffffffffffffffffffffffffffff160217905550600073ffffffffffffffffffffffffffffffffffffffff168273ffffffffffffffffffffffffffffffffffffffff1614156114ae576040517f08c379a00000000000000000000000000000000000000000000000000000000081526004016114a590613ed7565b60405180910390fd5b5050565b7faef88082b8671e875d97d0d6c81d06fb9e76f97b3ad7523a55a378e5298aeeee81565b60606000609960003373ffffffffffffffffffffffffffffffffffffffff1673ffffffffffffffffffffffffffffffffffffffff1681526020019081526020016000205414156115d3576000609a805490509050609a339080600181540180825580915050600190039060005260206000200160009091909190916101000a81548173ffffffffffffffffffffffffffffffffffffffff021916908373ffffffffffffffffffffffffffffffffffffffff16021790555080609960003373ffffffffffffffffffffffffffffffffffffffff1673ffffffffffffffffffffffffffffffffffffffff16815260200190815260200160002081905550505b6000839050600073ffffffffffffffffffffffffffffffffffffffff168173ffffffffffffffffffffffffffffffffffffffff161415611648576040517f08c379a000000000000000000000000000000000000000000000000000000000815260040161163f90613f77565b60405180910390fd5b61165481843330612357565b60006116608433611fe6565b9050809250505092915050565b6116768261053e565b611687816116826119d3565b6119db565b6116918383611bc3565b505050565b6000609960003373ffffffffffffffffffffffffffffffffffffffff1673ffffffffffffffffffffffffffffffffffffffff168152602001908152602001600020541415611791576000609a805490509050609a339080600181540180825580915050600190039060005260206000200160009091909190916101000a81548173ffffffffffffffffffffffffffffffffffffffff021916908373ffffffffffffffffffffffffffffffffffffffff16021790555080609960003373ffffffffffffffffffffffffffffffffffffffff1673ffffffffffffffffffffffffffffffffffffffff16815260200190815260200160002081905550505b61179c82338361284e565b5050565b600080609960003373ffffffffffffffffffffffffffffffffffffffff1673ffffffffffffffffffffffffffffffffffffffff16815260200190815260200160002054141561189c576000609a805490509050609a339080600181540180825580915050600190039060005260206000200160009091909190916101000a81548173ffffffffffffffffffffffffffffffffffffffff021916908373ffffffffffffffffffffffffffffffffffffffff16021790555080609960003373ffffffffffffffffffffffffffffffffffffffff1673ffffffffffffffffffffffffffffffffffffffff16815260200190815260200160002081905550505b6001905092915050565b7fb19546dff01e856fb3f010c267a7b1c60363cf8a4664e21cc89c26224620214e81565b7fb19546dff01e856fb3f010c267a7b1c60363cf8a4664e21cc89c26224620214e6118fc816118f76119d3565b6119db565b81609b60006101000a81548173ffffffffffffffffffffffffffffffffffffffff021916908373ffffffffffffffffffffffffffffffffffffffff160217905550600073ffffffffffffffffffffffffffffffffffffffff16609b60009054906101000a900473ffffffffffffffffffffffffffffffffffffffff1673ffffffffffffffffffffffffffffffffffffffff1614156119cf576040517f08c379a00000000000000000000000000000000000000000000000000000000081526004016119c690613ff7565b60405180910390fd5b5050565b600033905090565b6119e58282611250565b611a7457611a0a8173ffffffffffffffffffffffffffffffffffffffff166014612e94565b611a188360001c6020612e94565b604051602001611a29929190613baa565b6040516020818303038152906040526040517f08c379a0000000000000000000000000000000000000000000000000000000008152600401611a6b9190613d95565b60405180910390fd5b5050565b60007f01ffc9a7000000000000000000000000000000000000000000000000000000007bffffffffffffffffffffffffffffffffffffffffffffffffffffffff1916827bffffffffffffffffffffffffffffffffffffffffffffffffffffffff1916149050919050565b611aec8282611250565b611bbf5760016065600084815260200190815260200160002060000160008373ffffffffffffffffffffffffffffffffffffffff1673ffffffffffffffffffffffffffffffffffffffff16815260200190815260200160002060006101000a81548160ff021916908315150217905550611b646119d3565b73ffffffffffffffffffffffffffffffffffffffff168173ffffffffffffffffffffffffffffffffffffffff16837f2f8788117e7eff1d82e926ec794901d17c78024a50270940304540a733656f0d60405160405180910390a45b5050565b611bcd8282611250565b15611ca15760006065600084815260200190815260200160002060000160008373ffffffffffffffffffffffffffffffffffffffff1673ffffffffffffffffffffffffffffffffffffffff16815260200190815260200160002060006101000a81548160ff021916908315150217905550611c466119d3565b73ffffffffffffffffffffffffffffffffffffffff168173ffffffffffffffffffffffffffffffffffffffff16837ff6391f5c32d9c69d2a47ea670b442974b53935d1edc7fd64eb21e047a839171b60405160405180910390a45b5050565b6000609c60009054906101000a900473ffffffffffffffffffffffffffffffffffffffff1673ffffffffffffffffffffffffffffffffffffffff1663e985e9c583306040518363ffffffff1660e01b8152600401611d04929190613bff565b60206040518083038186803b158015611d1c57600080fd5b505afa158015611d30573d6000803e3d6000fd5b505050506040513d601f19601f82011682018060405250810190611d5491906134b4565b611d93576040517f08c379a0000000000000000000000000000000000000000000000000000000008152600401611d8a90613f97565b60405180910390fd5b6000609c60009054906101000a900473ffffffffffffffffffffffffffffffffffffffff1673ffffffffffffffffffffffffffffffffffffffff1663d824d6b2856040518263ffffffff1660e01b8152600401611df09190613d3d565b60206040518083038186803b158015611e0857600080fd5b505afa158015611e1c573d6000803e3d6000fd5b505050506040513d601f19601f82011682018060405250810190611e4091906135b0565b905060008111611e85576040517f08c379a0000000000000000000000000000000000000000000000000000000008152600401611e7c90613e37565b60405180910390fd5b609c60009054906101000a900473ffffffffffffffffffffffffffffffffffffffff1673ffffffffffffffffffffffffffffffffffffffff1663b2dc5dc384866040518363ffffffff1660e01b8152600401611ee2929190613cad565b600060405180830381600087803b158015611efc57600080fd5b505af1158015611f10573d6000803e3d6000fd5b50505050609b60009054906101000a900473ffffffffffffffffffffffffffffffffffffffff1673ffffffffffffffffffffffffffffffffffffffff166340c10f1984836040518363ffffffff1660e01b8152600401611f71929190613cdd565b600060405180830381600087803b158015611f8b57600080fd5b505af1158015611f9f573d6000803e3d6000fd5b505050507f9d066648b55dc7551f4cfd70285c455683b0e0b7fba67a1ad0e8952dff648b7b8385604051611fd4929190613cad565b60405180910390a18091505092915050565b6060609b60009054906101000a900473ffffffffffffffffffffffffffffffffffffffff1673ffffffffffffffffffffffffffffffffffffffff1663095ea7b3609c60009054906101000a900473ffffffffffffffffffffffffffffffffffffffff16856040518363ffffffff1660e01b8152600401612067929190613cdd565b602060405180830381600087803b15801561208157600080fd5b505af1158015612095573d6000803e3d6000fd5b505050506040513d601f19601f820116820180604052508101906120b991906134b4565b6120f8576040517f08c379a00000000000000000000000000000000000000000000000000000000081526004016120ef90613df7565b60405180910390fd5b600080609c60009054906101000a900473ffffffffffffffffffffffffffffffffffffffff1673ffffffffffffffffffffffffffffffffffffffff1663952ea94f33876040518363ffffffff1660e01b8152600401612158929190613cdd565b600060405180830381600087803b15801561217257600080fd5b505af1158015612186573d6000803e3d6000fd5b505050506040513d6000823e3d601f19601f820116820180604052508101906121af9190613460565b9150915060008251116121f7576040517f08c379a00000000000000000000000000000000000000000000000000000000081526004016121ee90613fb7565b60405180910390fd5b600081111561231357609b60009054906101000a900473ffffffffffffffffffffffffffffffffffffffff1673ffffffffffffffffffffffffffffffffffffffff166323b872dd609c60009054906101000a900473ffffffffffffffffffffffffffffffffffffffff1633846040518463ffffffff1660e01b815260040161228193929190613c28565b602060405180830381600087803b15801561229b57600080fd5b505af11580156122af573d6000803e3d6000fd5b505050506040513d601f19601f820116820180604052508101906122d391906134b4565b612312576040517f08c379a000000000000000000000000000000000000000000000000000000000815260040161230990613eb7565b60405180910390fd5b5b7fc095ce53c1d654628429e1cd2e05024bb7b03866d44192b1c8ddf2911572fd3e3383604051612344929190613cad565b60405180910390a1819250505092915050565b828473ffffffffffffffffffffffffffffffffffffffff1663dd62ed3e84306040518363ffffffff1660e01b8152600401612393929190613bff565b60206040518083038186803b1580156123ab57600080fd5b505afa1580156123bf573d6000803e3d6000fd5b505050506040513d601f19601f820116820180604052508101906123e391906135b0565b11612423576040517f08c379a000000000000000000000000000000000000000000000000000000000815260040161241a90613f37565b60405180910390fd5b8373ffffffffffffffffffffffffffffffffffffffff166323b872dd8330866040518463ffffffff1660e01b815260040161246093929190613c28565b602060405180830381600087803b15801561247a57600080fd5b505af115801561248e573d6000803e3d6000fd5b505050506040513d601f19601f820116820180604052508101906124b291906134b4565b6124f1576040517f08c379a00000000000000000000000000000000000000000000000000000000081526004016124e890613fd7565b60405180910390fd5b609d60009054906101000a900473ffffffffffffffffffffffffffffffffffffffff1673ffffffffffffffffffffffffffffffffffffffff166331d09dbd856040518263ffffffff1660e01b815260040161254c9190613be4565b60206040518083038186803b15801561256457600080fd5b505afa158015612578573d6000803e3d6000fd5b505050506040513d601f19601f8201168201806040525081019061259c91906134b4565b6125db576040517f08c379a00000000000000000000000000000000000000000000000000000000081526004016125d290614057565b60405180910390fd5b8373ffffffffffffffffffffffffffffffffffffffff1663095ea7b3609d60009054906101000a900473ffffffffffffffffffffffffffffffffffffffff16856040518363ffffffff1660e01b8152600401612638929190613cdd565b602060405180830381600087803b15801561265257600080fd5b505af1158015612666573d6000803e3d6000fd5b505050506040513d601f19601f8201168201806040525081019061268a91906134b4565b6126c9576040517f08c379a00000000000000000000000000000000000000000000000000000000081526004016126c090613ef7565b60405180910390fd5b609d60009054906101000a900473ffffffffffffffffffffffffffffffffffffffff1673ffffffffffffffffffffffffffffffffffffffff1663e4d3a5968385876040518463ffffffff1660e01b815260040161272893929190613d06565b602060405180830381600087803b15801561274257600080fd5b505af1158015612756573d6000803e3d6000fd5b505050506040513d601f19601f8201168201806040525081019061277a91906134b4565b6127b9576040517f08c379a00000000000000000000000000000000000000000000000000000000081526004016127b090613f17565b60405180910390fd5b609b60009054906101000a900473ffffffffffffffffffffffffffffffffffffffff1673ffffffffffffffffffffffffffffffffffffffff166340c10f1982856040518363ffffffff1660e01b8152600401612816929190613cdd565b600060405180830381600087803b15801561283057600080fd5b505af1158015612844573d6000803e3d6000fd5b5050505050505050565b82609b60009054906101000a900473ffffffffffffffffffffffffffffffffffffffff1673ffffffffffffffffffffffffffffffffffffffff1663dd62ed3e84306040518363ffffffff1660e01b81526004016128ac929190613bff565b60206040518083038186803b1580156128c457600080fd5b505afa1580156128d8573d6000803e3d6000fd5b505050506040513d601f19601f820116820180604052508101906128fc91906135b0565b1161293c576040517f08c379a000000000000000000000000000000000000000000000000000000000815260040161293390613e77565b60405180910390fd5b609b60009054906101000a900473ffffffffffffffffffffffffffffffffffffffff1673ffffffffffffffffffffffffffffffffffffffff166323b872dd8330866040518463ffffffff1660e01b815260040161299b93929190613c28565b602060405180830381600087803b1580156129b557600080fd5b505af11580156129c9573d6000803e3d6000fd5b505050506040513d601f19601f820116820180604052508101906129ed91906134b4565b612a2c576040517f08c379a0000000000000000000000000000000000000000000000000000000008152600401612a2390613f57565b60405180910390fd5b609b60009054906101000a900473ffffffffffffffffffffffffffffffffffffffff1673ffffffffffffffffffffffffffffffffffffffff1663095ea7b3609b60009054906101000a900473ffffffffffffffffffffffffffffffffffffffff16856040518363ffffffff1660e01b8152600401612aab929190613cdd565b602060405180830381600087803b158015612ac557600080fd5b505af1158015612ad9573d6000803e3d6000fd5b505050506040513d601f19601f82011682018060405250810190612afd91906134b4565b612b3c576040517f08c379a0000000000000000000000000000000000000000000000000000000008152600401612b33906140b7565b60405180910390fd5b609b60009054906101000a900473ffffffffffffffffffffffffffffffffffffffff1673ffffffffffffffffffffffffffffffffffffffff166342966c68846040518263ffffffff1660e01b8152600401612b979190614157565b600060405180830381600087803b158015612bb157600080fd5b505af1158015612bc5573d6000803e3d6000fd5b50505050609d60009054906101000a900473ffffffffffffffffffffffffffffffffffffffff1673ffffffffffffffffffffffffffffffffffffffff166331d09dbd826040518263ffffffff1660e01b8152600401612c249190613be4565b60206040518083038186803b158015612c3c57600080fd5b505afa158015612c50573d6000803e3d6000fd5b505050506040513d601f19601f82011682018060405250810190612c7491906134b4565b612cb3576040517f08c379a0000000000000000000000000000000000000000000000000000000008152600401612caa90614097565b60405180910390fd5b82609d60009054906101000a900473ffffffffffffffffffffffffffffffffffffffff1673ffffffffffffffffffffffffffffffffffffffff16631bf8fea9836040518263ffffffff1660e01b8152600401612d0f9190613be4565b60206040518083038186803b158015612d2757600080fd5b505afa158015612d3b573d6000803e3d6000fd5b505050506040513d601f19601f82011682018060405250810190612d5f91906135b0565b11612d9f576040517f08c379a0000000000000000000000000000000000000000000000000000000008152600401612d96906140d7565b60405180910390fd5b609d60009054906101000a900473ffffffffffffffffffffffffffffffffffffffff1673ffffffffffffffffffffffffffffffffffffffff1663eb476cb48385846040518463ffffffff1660e01b8152600401612dfe93929190613d06565b602060405180830381600087803b158015612e1857600080fd5b505af1158015612e2c573d6000803e3d6000fd5b505050506040513d601f19601f82011682018060405250810190612e5091906134b4565b612e8f576040517f08c379a0000000000000000000000000000000000000000000000000000000008152600401612e8690613db7565b60405180910390fd5b505050565b606060006002836002612ea791906142aa565b612eb19190614223565b67ffffffffffffffff811115612ef0577f4e487b7100000000000000000000000000000000000000000000000000000000600052604160045260246000fd5b6040519080825280601f01601f191660200182016040528015612f225781602001600182028036833780820191505090505b5090507f300000000000000000000000000000000000000000000000000000000000000081600081518110612f80577f4e487b7100000000000000000000000000000000000000000000000000000000600052603260045260246000fd5b60200101907effffffffffffffffffffffffffffffffffffffffffffffffffffffffffffff1916908160001a9053507f78000000000000000000000000000000000000000000000000000000000000008160018151811061300a577f4e487b7100000000000000000000000000000000000000000000000000000000600052603260045260246000fd5b60200101907effffffffffffffffffffffffffffffffffffffffffffffffffffffffffffff1916908160001a9053506000600184600261304a91906142aa565b6130549190614223565b90505b6001811115613140577f3031323334353637383961626364656600000000000000000000000000000000600f8616601081106130bc577f4e487b7100000000000000000000000000000000000000000000000000000000600052603260045260246000fd5b1a60f81b8282815181106130f9577f4e487b7100000000000000000000000000000000000000000000000000000000600052603260045260246000fd5b60200101907effffffffffffffffffffffffffffffffffffffffffffffffffffffffffffff1916908160001a905350600485901c945080613139906143c4565b9050613057565b5060008414613184576040517f08c379a000000000000000000000000000000000000000000000000000000000815260040161317b90613dd7565b60405180910390fd5b8091505092915050565b60006131a161319c84614197565b614172565b905080838252602082019050828560208602820111156131c057600080fd5b60005b858110156131f057816131d68882613321565b8452602084019350602083019250506001810190506131c3565b5050509392505050565b60008135905061320981614c14565b92915050565b60008083601f84011261322157600080fd5b8235905067ffffffffffffffff81111561323a57600080fd5b60208301915083602082028301111561325257600080fd5b9250929050565b600082601f83011261326a57600080fd5b815161327a84826020860161318e565b91505092915050565b60008151905061329281614c2b565b92915050565b6000813590506132a781614c42565b92915050565b6000813590506132bc81614c59565b92915050565b60008083601f8401126132d457600080fd5b8235905067ffffffffffffffff8111156132ed57600080fd5b60208301915083600182028301111561330557600080fd5b9250929050565b60008135905061331b81614c70565b92915050565b60008151905061333081614c70565b92915050565b60006020828403121561334857600080fd5b6000613356848285016131fa565b91505092915050565b60008060008060006080868803121561337757600080fd5b6000613385888289016131fa565b9550506020613396888289016131fa565b94505060406133a78882890161330c565b935050606086013567ffffffffffffffff8111156133c457600080fd5b6133d0888289016132c2565b92509250509295509295909350565b600080604083850312156133f257600080fd5b6000613400858286016131fa565b92505060206134118582860161330c565b9150509250929050565b6000806020838503121561342e57600080fd5b600083013567ffffffffffffffff81111561344857600080fd5b6134548582860161320f565b92509250509250929050565b6000806040838503121561347357600080fd5b600083015167ffffffffffffffff81111561348d57600080fd5b61349985828601613259565b92505060206134aa85828601613321565b9150509250929050565b6000602082840312156134c657600080fd5b60006134d484828501613283565b91505092915050565b6000602082840312156134ef57600080fd5b60006134fd84828501613298565b91505092915050565b6000806040838503121561351957600080fd5b600061352785828601613298565b9250506020613538858286016131fa565b9150509250929050565b60006020828403121561355457600080fd5b6000613562848285016132ad565b91505092915050565b6000806020838503121561357e57600080fd5b600083013567ffffffffffffffff81111561359857600080fd5b6135a4858286016132c2565b92509250509250929050565b6000602082840312156135c257600080fd5b60006135d084828501613321565b91505092915050565b600080604083850312156135ec57600080fd5b60006135fa8582860161330c565b925050602061360b858286016131fa565b9150509250929050565b60006136218383613b8c565b60208301905092915050565b61363681614304565b82525050565b6000613647826141d3565b61365181856141f6565b935061365c836141c3565b8060005b8381101561368d5781516136748882613615565b975061367f836141e9565b925050600181019050613660565b5085935050505092915050565b6136a381614316565b82525050565b6136b281614322565b82525050565b60006136c48385614207565b93506136d1838584614382565b6136da836144ac565b840190509392505050565b60006136f0826141de565b6136fa8185614207565b935061370a818560208601614391565b613713816144ac565b840191505092915050565b6000613729826141de565b6137338185614218565b9350613743818560208601614391565b80840191505092915050565b600061375c602a83614207565b9150613767826144bd565b604082019050919050565b600061377f602083614207565b915061378a8261450c565b602082019050919050565b60006137a2602a83614207565b91506137ad82614535565b604082019050919050565b60006137c5601783614207565b91506137d082614584565b602082019050919050565b60006137e8601f83614207565b91506137f3826145ad565b602082019050919050565b600061380b601a83614207565b9150613816826145d6565b602082019050919050565b600061382e602d83614207565b9150613839826145ff565b604082019050919050565b6000613851601a83614207565b915061385c8261464e565b602082019050919050565b6000613874602b83614207565b915061387f82614677565b604082019050919050565b6000613897602283614207565b91506138a2826146c6565b604082019050919050565b60006138ba602583614207565b91506138c582614715565b604082019050919050565b60006138dd601b83614207565b91506138e882614764565b602082019050919050565b6000613900602b83614207565b915061390b8261478d565b604082019050919050565b6000613923602a83614207565b915061392e826147dc565b604082019050919050565b6000613946602a83614207565b91506139518261482b565b604082019050919050565b6000613969602b83614207565b91506139748261487a565b604082019050919050565b600061398c601883614207565b9150613997826148c9565b602082019050919050565b60006139af602283614207565b91506139ba826148f2565b604082019050919050565b60006139d2601a83614207565b91506139dd82614941565b602082019050919050565b60006139f5604583614207565b9150613a008261496a565b606082019050919050565b6000613a18601c83614207565b9150613a23826149df565b602082019050919050565b6000613a3b601e83614207565b9150613a4682614a08565b602082019050919050565b6000613a5e601883614207565b9150613a6982614a31565b602082019050919050565b6000613a81602483614207565b9150613a8c82614a5a565b604082019050919050565b6000613aa4601e83614207565b9150613aaf82614aa9565b602082019050919050565b6000613ac7601483614207565b9150613ad282614ad2565b602082019050919050565b6000613aea602e83614207565b9150613af582614afb565b604082019050919050565b6000613b0d601783614218565b9150613b1882614b4a565b601782019050919050565b6000613b30601583614207565b9150613b3b82614b73565b602082019050919050565b6000613b53601183614218565b9150613b5e82614b9c565b601182019050919050565b6000613b76602f83614207565b9150613b8182614bc5565b604082019050919050565b613b9581614378565b82525050565b613ba481614378565b82525050565b6000613bb582613b00565b9150613bc1828561371e565b9150613bcc82613b46565b9150613bd8828461371e565b91508190509392505050565b6000602082019050613bf9600083018461362d565b92915050565b6000604082019050613c14600083018561362d565b613c21602083018461362d565b9392505050565b6000606082019050613c3d600083018661362d565b613c4a602083018561362d565b613c576040830184613b9b565b949350505050565b6000608082019050613c74600083018861362d565b613c81602083018761362d565b613c8e6040830186613b9b565b8181036060830152613ca18184866136b8565b90509695505050505050565b6000604082019050613cc2600083018561362d565b8181036020830152613cd4818461363c565b90509392505050565b6000604082019050613cf2600083018561362d565b613cff6020830184613b9b565b9392505050565b6000606082019050613d1b600083018661362d565b613d286020830185613b9b565b613d35604083018461362d565b949350505050565b60006020820190508181036000830152613d57818461363c565b905092915050565b6000602082019050613d74600083018461369a565b92915050565b6000602082019050613d8f60008301846136a9565b92915050565b60006020820190508181036000830152613daf81846136e5565b905092915050565b60006020820190508181036000830152613dd08161374f565b9050919050565b60006020820190508181036000830152613df081613772565b9050919050565b60006020820190508181036000830152613e1081613795565b9050919050565b60006020820190508181036000830152613e30816137b8565b9050919050565b60006020820190508181036000830152613e50816137db565b9050919050565b60006020820190508181036000830152613e70816137fe565b9050919050565b60006020820190508181036000830152613e9081613821565b9050919050565b60006020820190508181036000830152613eb081613844565b9050919050565b60006020820190508181036000830152613ed081613867565b9050919050565b60006020820190508181036000830152613ef08161388a565b9050919050565b60006020820190508181036000830152613f10816138ad565b9050919050565b60006020820190508181036000830152613f30816138d0565b9050919050565b60006020820190508181036000830152613f50816138f3565b9050919050565b60006020820190508181036000830152613f7081613916565b9050919050565b60006020820190508181036000830152613f9081613939565b9050919050565b60006020820190508181036000830152613fb08161395c565b9050919050565b60006020820190508181036000830152613fd08161397f565b9050919050565b60006020820190508181036000830152613ff0816139a2565b9050919050565b60006020820190508181036000830152614010816139c5565b9050919050565b60006020820190508181036000830152614030816139e8565b9050919050565b6000602082019050818103600083015261405081613a0b565b9050919050565b6000602082019050818103600083015261407081613a2e565b9050919050565b6000602082019050818103600083015261409081613a51565b9050919050565b600060208201905081810360008301526140b081613a74565b9050919050565b600060208201905081810360008301526140d081613a97565b9050919050565b600060208201905081810360008301526140f081613aba565b9050919050565b6000602082019050818103600083015261411081613add565b9050919050565b6000602082019050818103600083015261413081613b23565b9050919050565b6000602082019050818103600083015261415081613b69565b9050919050565b600060208201905061416c6000830184613b9b565b92915050565b600061417c61418d565b905061418882826143ee565b919050565b6000604051905090565b600067ffffffffffffffff8211156141b2576141b161447d565b5b602082029050602081019050919050565b6000819050602082019050919050565b600081519050919050565b600081519050919050565b6000602082019050919050565b600082825260208201905092915050565b600082825260208201905092915050565b600081905092915050565b600061422e82614378565b915061423983614378565b9250827fffffffffffffffffffffffffffffffffffffffffffffffffffffffffffffffff0382111561426e5761426d61441f565b5b828201905092915050565b600061428482614378565b915061428f83614378565b92508261429f5761429e61444e565b5b828204905092915050565b60006142b582614378565b91506142c083614378565b9250817fffffffffffffffffffffffffffffffffffffffffffffffffffffffffffffffff04831182151516156142f9576142f861441f565b5b828202905092915050565b600061430f82614358565b9050919050565b60008115159050919050565b6000819050919050565b60007fffffffff0000000000000000000000000000000000000000000000000000000082169050919050565b600073ffffffffffffffffffffffffffffffffffffffff82169050919050565b6000819050919050565b82818337600083830152505050565b60005b838110156143af578082015181840152602081019050614394565b838111156143be576000848401525b50505050565b60006143cf82614378565b915060008214156143e3576143e261441f565b5b600182039050919050565b6143f7826144ac565b810181811067ffffffffffffffff821117156144165761441561447d565b5b80604052505050565b7f4e487b7100000000000000000000000000000000000000000000000000000000600052601160045260246000fd5b7f4e487b7100000000000000000000000000000000000000000000000000000000600052601260045260246000fd5b7f4e487b7100000000000000000000000000000000000000000000000000000000600052604160045260246000fd5b6000601f19601f8301169050919050565b7f5661756c74206d757374207769746864726177206465736972656420746f6b6560008201527f6e20746f20757365722e00000000000000000000000000000000000000000000602082015250565b7f537472696e67733a20686578206c656e67746820696e73756666696369656e74600082015250565b7f43617264206d696e7420726571756972657320746f6b656e206465706f73697460008201527f20617070726f76616c2e00000000000000000000000000000000000000000000602082015250565b7f546f6b656e73206d75737420676f20746f20706f6f6c2e000000000000000000600082015250565b7f4361726473206d757374206861766520612076616c756520746f206275726e00600082015250565b7f5661756c742061646472657373206d757374206265207365742e000000000000600082015250565b7f55736572206d75737420617070726f766520636f6e747261637420746f20776960008201527f74686472617720746f6b656e2e00000000000000000000000000000000000000602082015250565b7f43617264732061646472657373206d757374206265207365742e000000000000600082015250565b7f556e7573656420746f6b656e73206d7573742062652072657475726e6564207460008201527f6f2074686520757365722e000000000000000000000000000000000000000000602082015250565b7f4d6174636820686973746f72792061646472657373206d75737420626520736560008201527f742e000000000000000000000000000000000000000000000000000000000000602082015250565b7f4d75737420617070726f7665207661756c7420666f7220746f6b656e2064657060008201527f6f7369742e000000000000000000000000000000000000000000000000000000602082015250565b7f5661756c74206465706f736974206d75737420737563636565642e0000000000600082015250565b7f436f6e7472616374206d75737420626520666972737420616c6c6f776564207460008201527f6f207472616e736665722e000000000000000000000000000000000000000000602082015250565b7f55736572206d757374207472616e7366657220746f6b656e206261636b20746f60008201527f20636f6e74726163742e00000000000000000000000000000000000000000000602082015250565b7f50617373656420696e207661756c7454797065206d757374206265206120766160008201527f6c69642045524332302e00000000000000000000000000000000000000000000602082015250565b7f4d75737420626520617070726f76656420746f206275726e2073656e6420636160008201527f72647320746f206275726e000000000000000000000000000000000000000000602082015250565b7f4361726473206d696e74206d75737420737563636565642e0000000000000000600082015250565b7f5472616e7366657220746f20636f6e7472616374206d7573742073756363656560008201527f642e000000000000000000000000000000000000000000000000000000000000602082015250565b7f546f6b656e2061646472657373206d757374206265207365742e000000000000600082015250565b7f5468657265206d75737420626520656e6f75676820696e74657265737420746f60008201527f20636f6c6c656374207468617420616c6c20706172746965732067657420612060208201527f7368617265000000000000000000000000000000000000000000000000000000604082015250565b7f546f6b656e73206d75737420676f20746f2e206465762066756e642e00000000600082015250565b7f4e6f207661756c747320657869737420666f7220746f6b656e20747970650000600082015250565b7f546f6b656e73206d75737420676f20746f2075736572732e0000000000000000600082015250565b7f4552433230206973206e6f74206120737570706f72746564207661756c74207460008201527f7970652e00000000000000000000000000000000000000000000000000000000602082015250565b7f4d75737420626520617070726f76656420746f206275726e20746f6b656e0000600082015250565b7f5661756c74206d757374206265206c6971756964000000000000000000000000600082015250565b7f546f6b656e73207472616e736665726564206d757374206d6174636820696e7460008201527f657265737420616363727565642e000000000000000000000000000000000000602082015250565b7f416363657373436f6e74726f6c3a206163636f756e7420000000000000000000600082015250565b7f5468657265206d7573742062652061207072697a650000000000000000000000600082015250565b7f206973206d697373696e6720726f6c6520000000000000000000000000000000600082015250565b7f416363657373436f6e74726f6c3a2063616e206f6e6c792072656e6f756e636560008201527f20726f6c657320666f722073656c660000000000000000000000000000000000602082015250565b614c1d81614304565b8114614c2857600080fd5b50565b614c3481614316565b8114614c3f57600080fd5b50565b614c4b81614322565b8114614c5657600080fd5b50565b614c628161432c565b8114614c6d57600080fd5b50565b614c7981614378565b8114614c8457600080fd5b5056fea26469706673582212209b9bdcf3395bf6b37c278ae6a6ba8fa70d389c1025b9a0c6e653f852b3d0afef64736f6c63430008040033",
  "linkReferences": {},
  "deployedLinkReferences": {}
}